{
  "_format": "hh-sol-artifact-1",
  "contractName": "LitActionRegistry",
  "sourceName": "contracts/LitActionRegistry.sol",
  "abi": [
    {
      "inputs": [
        {
          "internalType": "string",
          "name": "initialCID",
          "type": "string"
        }
      ],
      "stateMutability": "nonpayable",
      "type": "constructor"
    },
    {
      "anonymous": false,
      "inputs": [
        {
          "indexed": false,
          "internalType": "string",
          "name": "cid",
          "type": "string"
        }
      ],
      "name": "ChildIPFSCIDUpdated",
      "type": "event"
    },
    {
      "anonymous": false,
      "inputs": [
        {
          "indexed": true,
          "internalType": "address",
          "name": "previousOwner",
          "type": "address"
        },
        {
          "indexed": true,
          "internalType": "address",
          "name": "newOwner",
          "type": "address"
        }
      ],
      "name": "OwnershipTransferred",
      "type": "event"
    },
    {
      "inputs": [],
      "name": "getChildIPFSCID",
      "outputs": [
        {
          "internalType": "string",
          "name": "",
          "type": "string"
        }
      ],
      "stateMutability": "view",
      "type": "function"
    },
    {
      "inputs": [
        {
          "internalType": "string",
          "name": "cid",
          "type": "string"
        }
      ],
      "name": "isChildIPFSCID",
      "outputs": [
        {
          "internalType": "bool",
          "name": "",
          "type": "bool"
        }
      ],
      "stateMutability": "view",
      "type": "function"
    },
    {
      "inputs": [],
      "name": "owner",
      "outputs": [
        {
          "internalType": "address",
          "name": "",
          "type": "address"
        }
      ],
      "stateMutability": "view",
      "type": "function"
    },
    {
      "inputs": [
        {
          "internalType": "string",
          "name": "cid",
          "type": "string"
        }
      ],
      "name": "setChildIPFSCID",
      "outputs": [],
      "stateMutability": "nonpayable",
      "type": "function"
    },
    {
      "inputs": [
        {
          "internalType": "address",
          "name": "nextOwner",
          "type": "address"
        }
      ],
      "name": "transferOwnership",
      "outputs": [],
      "stateMutability": "nonpayable",
      "type": "function"
    }
  ],
  "bytecode": "0x60806040523480156200001157600080fd5b506040516200123338038062001233833981810160405281019062000037919062000224565b33600160006101000a81548173ffffffffffffffffffffffffffffffffffffffff021916908373ffffffffffffffffffffffffffffffffffffffff1602179055508060009081620000899190620004c0565b5050620005a7565b6000604051905090565b600080fd5b600080fd5b600080fd5b600080fd5b6000601f19601f8301169050919050565b7f4e487b7100000000000000000000000000000000000000000000000000000000600052604160045260246000fd5b620000fa82620000af565b810181811067ffffffffffffffff821117156200011c576200011b620000c0565b5b80604052505050565b60006200013162000091565b90506200013f8282620000ef565b919050565b600067ffffffffffffffff821115620001625762000161620000c0565b5b6200016d82620000af565b9050602081019050919050565b60005b838110156200019a5780820151818401526020810190506200017d565b60008484015250505050565b6000620001bd620001b78462000144565b62000125565b905082815260208101848484011115620001dc57620001db620000aa565b5b620001e98482856200017a565b509392505050565b600082601f830112620002095762000208620000a5565b5b81516200021b848260208601620001a6565b91505092915050565b6000602082840312156200023d576200023c6200009b565b5b600082015167ffffffffffffffff8111156200025e576200025d620000a0565b5b6200026c84828501620001f1565b91505092915050565b600081519050919050565b7f4e487b7100000000000000000000000000000000000000000000000000000000600052602260045260246000fd5b60006002820490506001821680620002c857607f821691505b602082108103620002de57620002dd62000280565b5b50919050565b60008190508160005260206000209050919050565b60006020601f8301049050919050565b600082821b905092915050565b600060088302620003487fffffffffffffffffffffffffffffffffffffffffffffffffffffffffffffffff8262000309565b62000354868362000309565b95508019841693508086168417925050509392505050565b6000819050919050565b6000819050919050565b6000620003a16200039b62000395846200036c565b62000376565b6200036c565b9050919050565b6000819050919050565b620003bd8362000380565b620003d5620003cc82620003a8565b84845462000316565b825550505050565b600090565b620003ec620003dd565b620003f9818484620003b2565b505050565b5b81811015620004215762000415600082620003e2565b600181019050620003ff565b5050565b601f82111562000470576200043a81620002e4565b6200044584620002f9565b8101602085101562000455578190505b6200046d6200046485620002f9565b830182620003fe565b50505b505050565b600082821c905092915050565b6000620004956000198460080262000475565b1980831691505092915050565b6000620004b0838362000482565b9150826002028217905092915050565b620004cb8262000275565b67ffffffffffffffff811115620004e757620004e6620000c0565b5b620004f38254620002af565b6200050082828562000425565b600060209050601f83116001811462000538576000841562000523578287015190505b6200052f8582620004a2565b8655506200059f565b601f1984166200054886620002e4565b60005b8281101562000572578489015182556001820191506020850194506020810190506200054b565b868310156200059257848901516200058e601f89168262000482565b8355505b6001600288020188555050505b505050505050565b610c7c80620005b76000396000f3fe608060405234801561001057600080fd5b50600436106100575760003560e01c80635c30ceb61461005c5780638da5cb5b1461008c578063a15c5b6e146100aa578063c3f589de146100c6578063f2fde38b146100e4575b600080fd5b61007660048036038101906100719190610521565b610100565b6040516100839190610589565b60405180910390f35b61009461015c565b6040516100a191906105e5565b60405180910390f35b6100c460048036038101906100bf9190610521565b610182565b005b6100ce610261565b6040516100db9190610690565b60405180910390f35b6100fe60048036038101906100f991906106de565b6102f3565b005b6000828260405160200161011592919061074a565b60405160208183030381529060405280519060200120600060405160200161013d919061085b565b6040516020818303038152906040528051906020012014905092915050565b600160009054906101000a900473ffffffffffffffffffffffffffffffffffffffff1681565b600160009054906101000a900473ffffffffffffffffffffffffffffffffffffffff1673ffffffffffffffffffffffffffffffffffffffff163373ffffffffffffffffffffffffffffffffffffffff1614610212576040517f08c379a0000000000000000000000000000000000000000000000000000000008152600401610209906108be565b60405180910390fd5b818160009182610223929190610ab9565b507f11c5c009e2063b8eb6f2df610bf58879487bf0056070a47bcb26f914fa78da438282604051610255929190610bb6565b60405180910390a15050565b60606000805461027090610792565b80601f016020809104026020016040519081016040528092919081815260200182805461029c90610792565b80156102e95780601f106102be576101008083540402835291602001916102e9565b820191906000526020600020905b8154815290600101906020018083116102cc57829003601f168201915b5050505050905090565b600160009054906101000a900473ffffffffffffffffffffffffffffffffffffffff1673ffffffffffffffffffffffffffffffffffffffff163373ffffffffffffffffffffffffffffffffffffffff1614610383576040517f08c379a000000000000000000000000000000000000000000000000000000000815260040161037a906108be565b60405180910390fd5b600073ffffffffffffffffffffffffffffffffffffffff168173ffffffffffffffffffffffffffffffffffffffff16036103f2576040517f08c379a00000000000000000000000000000000000000000000000000000000081526004016103e990610c26565b60405180910390fd5b8073ffffffffffffffffffffffffffffffffffffffff16600160009054906101000a900473ffffffffffffffffffffffffffffffffffffffff1673ffffffffffffffffffffffffffffffffffffffff167f8be0079c531659141344cd1fd0a4f28419497f9722a3daafe3b4186f6b6457e060405160405180910390a380600160006101000a81548173ffffffffffffffffffffffffffffffffffffffff021916908373ffffffffffffffffffffffffffffffffffffffff16021790555050565b600080fd5b600080fd5b600080fd5b600080fd5b600080fd5b60008083601f8401126104e1576104e06104bc565b5b8235905067ffffffffffffffff8111156104fe576104fd6104c1565b5b60208301915083600182028301111561051a576105196104c6565b5b9250929050565b60008060208385031215610538576105376104b2565b5b600083013567ffffffffffffffff811115610556576105556104b7565b5b610562858286016104cb565b92509250509250929050565b60008115159050919050565b6105838161056e565b82525050565b600060208201905061059e600083018461057a565b92915050565b600073ffffffffffffffffffffffffffffffffffffffff82169050919050565b60006105cf826105a4565b9050919050565b6105df816105c4565b82525050565b60006020820190506105fa60008301846105d6565b92915050565b600081519050919050565b600082825260208201905092915050565b60005b8381101561063a57808201518184015260208101905061061f565b60008484015250505050565b6000601f19601f8301169050919050565b600061066282610600565b61066c818561060b565b935061067c81856020860161061c565b61068581610646565b840191505092915050565b600060208201905081810360008301526106aa8184610657565b905092915050565b6106bb816105c4565b81146106c657600080fd5b50565b6000813590506106d8816106b2565b92915050565b6000602082840312156106f4576106f36104b2565b5b6000610702848285016106c9565b91505092915050565b600081905092915050565b82818337600083830152505050565b6000610731838561070b565b935061073e838584610716565b82840190509392505050565b6000610757828486610725565b91508190509392505050565b7f4e487b7100000000000000000000000000000000000000000000000000000000600052602260045260246000fd5b600060028204905060018216806107aa57607f821691505b6020821081036107bd576107bc610763565b5b50919050565b60008190508160005260206000209050919050565b600081546107e581610792565b6107ef818661070b565b9450600182166000811461080a576001811461081f57610852565b60ff1983168652811515820286019350610852565b610828856107c3565b60005b8381101561084a5781548189015260018201915060208101905061082b565b838801955050505b50505092915050565b600061086782846107d8565b915081905092915050565b7f4c6974416374696f6e52656769737472793a206e6f74206f776e657200000000600082015250565b60006108a8601c8361060b565b91506108b382610872565b602082019050919050565b600060208201905081810360008301526108d78161089b565b9050919050565b600082905092915050565b7f4e487b7100000000000000000000000000000000000000000000000000000000600052604160045260246000fd5b60006020601f8301049050919050565b600082821b905092915050565b6000600883026109657fffffffffffffffffffffffffffffffffffffffffffffffffffffffffffffffff82610928565b61096f8683610928565b95508019841693508086168417925050509392505050565b6000819050919050565b6000819050919050565b60006109b66109b16109ac84610987565b610991565b610987565b9050919050565b6000819050919050565b6109d08361099b565b6109e46109dc826109bd565b848454610935565b825550505050565b600090565b6109f96109ec565b610a048184846109c7565b505050565b5b81811015610a2857610a1d6000826109f1565b600181019050610a0a565b5050565b601f821115610a6d57610a3e816107c3565b610a4784610918565b81016020851015610a56578190505b610a6a610a6285610918565b830182610a09565b50505b505050565b600082821c905092915050565b6000610a9060001984600802610a72565b1980831691505092915050565b6000610aa98383610a7f565b9150826002028217905092915050565b610ac383836108de565b67ffffffffffffffff811115610adc57610adb6108e9565b5b610ae68254610792565b610af1828285610a2c565b6000601f831160018114610b205760008415610b0e578287013590505b610b188582610a9d565b865550610b80565b601f198416610b2e866107c3565b60005b82811015610b5657848901358255600182019150602085019450602081019050610b31565b86831015610b735784890135610b6f601f891682610a7f565b8355505b6001600288020188555050505b50505050505050565b6000610b95838561060b565b9350610ba2838584610716565b610bab83610646565b840190509392505050565b60006020820190508181036000830152610bd1818486610b89565b90509392505050565b7f4c6974416374696f6e52656769737472793a207a65726f206f776e6572000000600082015250565b6000610c10601d8361060b565b9150610c1b82610bda565b602082019050919050565b60006020820190508181036000830152610c3f81610c03565b905091905056fea2646970667358221220a370886a81711f25dc8b18c52b132e01580869ad55cbca7b48f9b8efe2f7a21e64736f6c63430008180033",
  "linkReferences": {},
  "deployedLinkReferences": {}
}