{
  "_format": "hh-sol-artifact-1",
  "contractName": "LitActionRegistry",
  "sourceName": "contracts/LitActionRegistry.sol",
  "abi": [
    {
      "inputs": [
        {
          "internalType": "string",
          "name": "initialCID",
          "type": "string"
        }
      ],
      "stateMutability": "nonpayable",
      "type": "constructor"
    },
    {
      "anonymous": false,
      "inputs": [
        {
          "indexed": false,
          "internalType": "string",
          "name": "cid",
          "type": "string"
        }
      ],
      "name": "ChildIPFSCIDUpdated",
      "type": "event"
    },
    {
      "anonymous": false,
      "inputs": [
        {
          "indexed": true,
          "internalType": "address",
          "name": "previousOwner",
          "type": "address"
        },
        {
          "indexed": true,
          "internalType": "address",
          "name": "newOwner",
          "type": "address"
        }
      ],
      "name": "OwnershipTransferred",
      "type": "event"
    },
    {
      "inputs": [],
      "name": "getChildIPFSCID",
      "outputs": [
        {
          "internalType": "string",
          "name": "",
          "type": "string"
        }
      ],
      "stateMutability": "view",
      "type": "function"
    },
    {
      "inputs": [
        {
          "internalType": "string",
          "name": "cid",
          "type": "string"
        }
      ],
      "name": "isChildIPFSCID",
      "outputs": [
        {
          "internalType": "bool",
          "name": "",
          "type": "bool"
        }
      ],
      "stateMutability": "view",
      "type": "function"
    },
    {
      "inputs": [],
      "name": "owner",
      "outputs": [
        {
          "internalType": "address",
          "name": "",
          "type": "address"
        }
      ],
      "stateMutability": "view",
      "type": "function"
    },
    {
      "inputs": [
        {
          "internalType": "string",
          "name": "cid",
          "type": "string"
        }
      ],
      "name": "setChildIPFSCID",
      "outputs": [],
      "stateMutability": "nonpayable",
      "type": "function"
    },
    {
      "inputs": [
        {
          "internalType": "address",
          "name": "nextOwner",
          "type": "address"
        }
      ],
      "name": "transferOwnership",
      "outputs": [],
      "stateMutability": "nonpayable",
      "type": "function"
    }
  ],
  "bytecode": "0x6080604052346102065761087f803803806100198161020b565b928339810190602080828403126102065781516001600160401b0392838211610206570192601f908082860112156102065784518481116101dc57601f19956100678285018816860161020b565b9282845285838301011161020657849060005b8381106101f257505060009183010152600180546001600160a01b0319163317815581519490939085116101dc576000548481811c911680156101d2575b828210146101bc57838111610176575b5080928511600114610111575083945090839291600094610106575b50501b916000199060031b1c1916176000555b60405161064e90816102318239f35b0151925038806100e4565b9294849081166000805284600020946000905b8883831061015c5750505010610143575b505050811b016000556100f7565b015160001960f88460031b161c19169055388080610135565b858701518855909601959485019487935090810190610124565b60008052816000208480880160051c8201928489106101b3575b0160051c019085905b8281106101a75750506100c8565b60008155018590610199565b92508192610190565b634e487b7160e01b600052602260045260246000fd5b90607f16906100b8565b634e487b7160e01b600052604160045260246000fd5b81810183015185820184015286920161007a565b600080fd5b6040519190601f01601f191682016001600160401b038111838210176101dc5760405256fe60806040818152600436101561001457600080fd5b600091823560e01c9081635c30ceb61461040a575080638da5cb5b146103e2578063a15c5b6e14610220578063c3f589de1461011c5763f2fde38b1461005957600080fd5b34610118576020366003190112610118576001600160a01b03600435818116929083900361011457600154918216906100938233146105ac565b83156100d1575082907f8be0079c531659141344cd1fd0a4f28419497f9722a3daafe3b4186f6b6457e08580a36001600160a01b0319161760015580f35b5162461bcd60e51b815260206004820152601d60248201527f4c6974416374696f6e52656769737472793a207a65726f206f776e65720000006044820152606490fd5b8380fd5b5080fd5b503461011857816003193601126101185780518280548261013c8261053a565b9586825260209687936001906001811690816000146101ff57506001146101b6575b50506101709250959392950382610574565b82519382859384528251928382860152825b8481106101a057505050828201840152601f01601f19168101030190f35b8181018301518882018801528795508201610182565b8580526000805160206105f98339815191529492508591905b8183106101e75750889450508201016101703861015e565b855488840185015294850194879450918301916101cf565b91505061017094925060ff191682840152151560051b82010186923861015e565b5090346103df57610230366104eb565b909260019361024960018060a01b0386541633146105ac565b67ffffffffffffffff83116103cb57610262845461053a565b601f8111610378575b508394601f84116001146102ee5783809186977f11c5c009e2063b8eb6f2df610bf58879487bf0056070a47bcb26f914fa78da4397936102e3575b501b906000198560031b1c19161785555b82825193849260208452816020850152848401378181018301869052601f01601f19168101030190a180f35b8401359250386102a6565b848052601f198416956000805160206105f983398151915290865b8881106103625750857f11c5c009e2063b8eb6f2df610bf58879487bf0056070a47bcb26f914fa78da43979810610348575b505083811b0185556102b7565b830135600019600387901b60f8161c19169055388061033b565b8482013583559183019160209182019101610309565b8480526000805160206105f9833981519152601f850160051c810191602086106103c1575b601f0160051c019086905b8281106103b657505061026b565b8681550186906103a8565b909150819061039d565b634e487b7160e01b84526041600452602484fd5b80fd5b503461011857816003193601126101185760015490516001600160a01b039091168152602090f35b8284346103df5761041a366104eb565b91602085818097019083845461042f8161053a565b906001908181169081156104d0575060011461048e575b5050906104618161048395949303601f198101835282610574565b5190209486519381859284840197883782019083820152038084520182610574565b519020149051908152f35b86805290915085906000805160206105f98339815191525b8383106104bd575050508101830161046182610446565b80548584018801529186019181016104a6565b60ff1916865250508015150282018401905061046182610446565b9060206003198301126105355760043567ffffffffffffffff9283821161053557806023830112156105355781600401359384116105355760248483010111610535576024019190565b600080fd5b90600182811c9216801561056a575b602083101461055457565b634e487b7160e01b600052602260045260246000fd5b91607f1691610549565b90601f8019910116810190811067ffffffffffffffff82111761059657604052565b634e487b7160e01b600052604160045260246000fd5b156105b357565b60405162461bcd60e51b815260206004820152601c60248201527f4c6974416374696f6e52656769737472793a206e6f74206f776e6572000000006044820152606490fdfe290decd9548b62a8d60345a988386fc84ba6bc95484008f6362f93160ef3e563a26469706673582212202f648de3a0554c4d39532e8df0717d5f6661b2fff52abd3056ad26df1322aa3d64736f6c63430008180033",
  "linkReferences": {},
  "deployedLinkReferences": {}
}