{
  "_format": "hh-sol-artifact-1",
  "contractName": "LitActionRegistry",
  "sourceName": "contracts/LitActionRegistry.sol",
  "abi": [
    {
      "inputs": [
        {
          "internalType": "string",
          "name": "initialCID",
          "type": "string"
        }
      ],
      "stateMutability": "nonpayable",
      "type": "constructor"
    },
    {
      "anonymous": false,
      "inputs": [
        {
          "indexed": false,
          "internalType": "string",
          "name": "cid",
          "type": "string"
        }
      ],
      "name": "ChildIPFSCIDUpdated",
      "type": "event"
    },
    {
      "anonymous": false,
      "inputs": [
        {
          "indexed": true,
          "internalType": "address",
          "name": "previousOwner",
          "type": "address"
        },
        {
          "indexed": true,
          "internalType": "address",
          "name": "newOwner",
          "type": "address"
        }
      ],
      "name": "OwnershipTransferred",
      "type": "event"
    },
    {
      "inputs": [],
      "name": "getChildIPFSCID",
      "outputs": [
        {
          "internalType": "string",
          "name": "",
          "type": "string"
        }
      ],
      "stateMutability": "view",
      "type": "function"
    },
    {
      "inputs": [],
      "name": "owner",
      "outputs": [
        {
          "internalType": "address",
          "name": "",
          "type": "address"
        }
      ],
      "stateMutability": "view",
      "type": "function"
    },
    {
      "inputs": [
        {
          "internalType": "string",
          "name": "cid",
          "type": "string"
        }
      ],
      "name": "setChildIPFSCID",
      "outputs": [],
      "stateMutability": "nonpayable",
      "type": "function"
    },
    {
      "inputs": [
        {
          "internalType": "address",
          "name": "nextOwner",
          "type": "address"
        }
      ],
      "name": "transferOwnership",
      "outputs": [],
      "stateMutability": "nonpayable",
      "type": "function"
    }
  ],
  "bytecode": "0x60806040523480156200001157600080fd5b506040516200108338038062001083833981810160405281019062000037919062000224565b33600160006101000a81548173ffffffffffffffffffffffffffffffffffffffff021916908373ffffffffffffffffffffffffffffffffffffffff1602179055508060009081620000899190620004c0565b5050620005a7565b6000604051905090565b600080fd5b600080fd5b600080fd5b600080fd5b6000601f19601f8301169050919050565b7f4e487b7100000000000000000000000000000000000000000000000000000000600052604160045260246000fd5b620000fa82620000af565b810181811067ffffffffffffffff821117156200011c576200011b620000c0565b5b80604052505050565b60006200013162000091565b90506200013f8282620000ef565b919050565b600067ffffffffffffffff821115620001625762000161620000c0565b5b6200016d82620000af565b9050602081019050919050565b60005b838110156200019a5780820151818401526020810190506200017d565b60008484015250505050565b6000620001bd620001b78462000144565b62000125565b905082815260208101848484011115620001dc57620001db620000aa565b5b620001e98482856200017a565b509392505050565b600082601f830112620002095762000208620000a5565b5b81516200021b848260208601620001a6565b91505092915050565b6000602082840312156200023d576200023c6200009b565b5b600082015167ffffffffffffffff8111156200025e576200025d620000a0565b5b6200026c84828501620001f1565b91505092915050565b600081519050919050565b7f4e487b7100000000000000000000000000000000000000000000000000000000600052602260045260246000fd5b60006002820490506001821680620002c857607f821691505b602082108103620002de57620002dd62000280565b5b50919050565b60008190508160005260206000209050919050565b60006020601f8301049050919050565b600082821b905092915050565b600060088302620003487fffffffffffffffffffffffffffffffffffffffffffffffffffffffffffffffff8262000309565b62000354868362000309565b95508019841693508086168417925050509392505050565b6000819050919050565b6000819050919050565b6000620003a16200039b62000395846200036c565b62000376565b6200036c565b9050919050565b6000819050919050565b620003bd8362000380565b620003d5620003cc82620003a8565b84845462000316565b825550505050565b600090565b620003ec620003dd565b620003f9818484620003b2565b505050565b5b81811015620004215762000415600082620003e2565b600181019050620003ff565b5050565b601f82111562000470576200043a81620002e4565b6200044584620002f9565b8101602085101562000455578190505b6200046d6200046485620002f9565b830182620003fe565b50505b505050565b600082821c905092915050565b6000620004956000198460080262000475565b1980831691505092915050565b6000620004b0838362000482565b9150826002028217905092915050565b620004cb8262000275565b67ffffffffffffffff811115620004e757620004e6620000c0565b5b620004f38254620002af565b6200050082828562000425565b600060209050601f83116001811462000538576000841562000523578287015190505b6200052f8582620004a2565b8655506200059f565b601f1984166200054886620002e4565b60005b8281101562000572578489015182556001820191506020850194506020810190506200054b565b868310156200059257848901516200058e601f89168262000482565b8355505b6001600288020188555050505b505050505050565b610acc80620005b76000396000f3fe608060405234801561001057600080fd5b506004361061004c5760003560e01c80638da5cb5b14610051578063a15c5b6e1461006f578063c3f589de1461008b578063f2fde38b146100a9575b600080fd5b6100596100c5565b604051610066919061045c565b60405180910390f35b610089600480360381019061008491906104e6565b6100eb565b005b6100936101ca565b6040516100a091906105c3565b60405180910390f35b6100c360048036038101906100be9190610611565b61025c565b005b600160009054906101000a900473ffffffffffffffffffffffffffffffffffffffff1681565b600160009054906101000a900473ffffffffffffffffffffffffffffffffffffffff1673ffffffffffffffffffffffffffffffffffffffff163373ffffffffffffffffffffffffffffffffffffffff161461017b576040517f08c379a00000000000000000000000000000000000000000000000000000000081526004016101729061068a565b60405180910390fd5b81816000918261018c9291906108fa565b507f11c5c009e2063b8eb6f2df610bf58879487bf0056070a47bcb26f914fa78da4382826040516101be929190610a06565b60405180910390a15050565b6060600080546101d990610713565b80601f016020809104026020016040519081016040528092919081815260200182805461020590610713565b80156102525780601f1061022757610100808354040283529160200191610252565b820191906000526020600020905b81548152906001019060200180831161023557829003601f168201915b5050505050905090565b600160009054906101000a900473ffffffffffffffffffffffffffffffffffffffff1673ffffffffffffffffffffffffffffffffffffffff163373ffffffffffffffffffffffffffffffffffffffff16146102ec576040517f08c379a00000000000000000000000000000000000000000000000000000000081526004016102e39061068a565b60405180910390fd5b600073ffffffffffffffffffffffffffffffffffffffff168173ffffffffffffffffffffffffffffffffffffffff160361035b576040517f08c379a000000000000000000000000000000000000000000000000000000000815260040161035290610a76565b60405180910390fd5b8073ffffffffffffffffffffffffffffffffffffffff16600160009054906101000a900473ffffffffffffffffffffffffffffffffffffffff1673ffffffffffffffffffffffffffffffffffffffff167f8be0079c531659141344cd1fd0a4f28419497f9722a3daafe3b4186f6b6457e060405160405180910390a380600160006101000a81548173ffffffffffffffffffffffffffffffffffffffff021916908373ffffffffffffffffffffffffffffffffffffffff16021790555050565b600073ffffffffffffffffffffffffffffffffffffffff82169050919050565b60006104468261041b565b9050919050565b6104568161043b565b82525050565b6000602082019050610471600083018461044d565b92915050565b600080fd5b600080fd5b600080fd5b600080fd5b600080fd5b60008083601f8401126104a6576104a5610481565b5b8235905067ffffffffffffffff8111156104c3576104c2610486565b5b6020830191508360018202830111156104df576104de61048b565b5b9250929050565b600080602083850312156104fd576104fc610477565b5b600083013567ffffffffffffffff81111561051b5761051a61047c565b5b61052785828601610490565b92509250509250929050565b600081519050919050565b600082825260208201905092915050565b60005b8381101561056d578082015181840152602081019050610552565b60008484015250505050565b6000601f19601f8301169050919050565b600061059582610533565b61059f818561053e565b93506105af81856020860161054f565b6105b881610579565b840191505092915050565b600060208201905081810360008301526105dd818461058a565b905092915050565b6105ee8161043b565b81146105f957600080fd5b50565b60008135905061060b816105e5565b92915050565b60006020828403121561062757610626610477565b5b6000610635848285016105fc565b91505092915050565b7f4c6974416374696f6e52656769737472793a206e6f74206f776e657200000000600082015250565b6000610674601c8361053e565b915061067f8261063e565b602082019050919050565b600060208201905081810360008301526106a381610667565b9050919050565b600082905092915050565b7f4e487b7100000000000000000000000000000000000000000000000000000000600052604160045260246000fd5b7f4e487b7100000000000000000000000000000000000000000000000000000000600052602260045260246000fd5b6000600282049050600182168061072b57607f821691505b60208210810361073e5761073d6106e4565b5b50919050565b60008190508160005260206000209050919050565b60006020601f8301049050919050565b600082821b905092915050565b6000600883026107a67fffffffffffffffffffffffffffffffffffffffffffffffffffffffffffffffff82610769565b6107b08683610769565b95508019841693508086168417925050509392505050565b6000819050919050565b6000819050919050565b60006107f76107f26107ed846107c8565b6107d2565b6107c8565b9050919050565b6000819050919050565b610811836107dc565b61082561081d826107fe565b848454610776565b825550505050565b600090565b61083a61082d565b610845818484610808565b505050565b5b818110156108695761085e600082610832565b60018101905061084b565b5050565b601f8211156108ae5761087f81610744565b61088884610759565b81016020851015610897578190505b6108ab6108a385610759565b83018261084a565b50505b505050565b600082821c905092915050565b60006108d1600019846008026108b3565b1980831691505092915050565b60006108ea83836108c0565b9150826002028217905092915050565b61090483836106aa565b67ffffffffffffffff81111561091d5761091c6106b5565b5b6109278254610713565b61093282828561086d565b6000601f831160018114610961576000841561094f578287013590505b61095985826108de565b8655506109c1565b601f19841661096f86610744565b60005b8281101561099757848901358255600182019150602085019450602081019050610972565b868310156109b457848901356109b0601f8916826108c0565b8355505b6001600288020188555050505b50505050505050565b82818337600083830152505050565b60006109e5838561053e565b93506109f28385846109ca565b6109fb83610579565b840190509392505050565b60006020820190508181036000830152610a218184866109d9565b90509392505050565b7f4c6974416374696f6e52656769737472793a207a65726f206f776e6572000000600082015250565b6000610a60601d8361053e565b9150610a6b82610a2a565b602082019050919050565b60006020820190508181036000830152610a8f81610a53565b905091905056fea2646970667358221220ba8cea503477925bb1804e4d77e14863b2e69d9b0239b982caa5ea91a45ad0d764736f6c63430008180033",
  "linkReferences": {},
  "deployedLinkReferences": {}
}