{"contracts/PasswordRegistry.sol":{"PasswordRegistry":{"abi":[{"anonymous":false,"inputs":[{"indexed":true,"internalType":"string","name":"username","type":"string"},{"indexed":true,"internalType":"address","name":"owner","type":"address"},{"indexed":false,"internalType":"bytes32","name":"passwordHash","type":"bytes32"}],"name":"PasswordUpdated","type":"event"},{"inputs":[{"internalType":"string","name":"username","type":"string"}],"name":"getOwner","outputs":[{"internalType":"address","name":"","type":"address"}],"stateMutability":"view","type":"function"},{"inputs":[{"internalType":"string","name":"username","type":"string"}],"name":"getPasswordHash","outputs":[{"internalType":"bytes32","name":"","type":"bytes32"}],"stateMutability":"view","type":"function"},{"inputs":[{"internalType":"string","name":"username","type":"string"},{"internalType":"bytes32","name":"passwordHash","type":"bytes32"}],"name":"setPasswordHash","outputs":[],"stateMutability":"nonpayable","type":"function"}],"evm":{"bytecode":{"linkReferences":{},"object":"608060405234801561001057600080fd5b5061060e806100206000396000f3fe608060405234801561001057600080fd5b50600436106100415760003560e01c80633bfac58c146100465780634aaf4a12146100625780638994d9d314610092575b600080fd5b610060600480360381019061005b91906103d0565b6100c2565b005b61007c60048036038101906100779190610430565b6102b1565b60405161008991906104be565b60405180910390f35b6100ac60048036038101906100a79190610430565b6102fe565b6040516100b991906104e8565b60405180910390f35b60008084846040516100d5929190610542565b90815260200160405180910390209050600073ffffffffffffffffffffffffffffffffffffffff168160010160009054906101000a900473ffffffffffffffffffffffffffffffffffffffff1673ffffffffffffffffffffffffffffffffffffffff160361018557338160010160006101000a81548173ffffffffffffffffffffffffffffffffffffffff021916908373ffffffffffffffffffffffffffffffffffffffff160217905550610218565b3373ffffffffffffffffffffffffffffffffffffffff168160010160009054906101000a900473ffffffffffffffffffffffffffffffffffffffff1673ffffffffffffffffffffffffffffffffffffffff1614610217576040517f08c379a000000000000000000000000000000000000000000000000000000000815260040161020e906105b8565b60405180910390fd5b5b8181600001819055508060010160009054906101000a900473ffffffffffffffffffffffffffffffffffffffff1673ffffffffffffffffffffffffffffffffffffffff16848460405161026c929190610542565b60405180910390207fded9312cc56d3a595bfde0ab346a669293d1dbae79ba1e70fabe251f00fe0367846040516102a391906104e8565b60405180910390a350505050565b60008083836040516102c4929190610542565b908152602001604051809103902060010160009054906101000a900473ffffffffffffffffffffffffffffffffffffffff16905092915050565b6000808383604051610311929190610542565b908152602001604051809103902060000154905092915050565b600080fd5b600080fd5b600080fd5b600080fd5b600080fd5b60008083601f84011261035a57610359610335565b5b8235905067ffffffffffffffff8111156103775761037661033a565b5b6020830191508360018202830111156103935761039261033f565b5b9250929050565b6000819050919050565b6103ad8161039a565b81146103b857600080fd5b50565b6000813590506103ca816103a4565b92915050565b6000806000604084860312156103e9576103e861032b565b5b600084013567ffffffffffffffff81111561040757610406610330565b5b61041386828701610344565b93509350506020610426868287016103bb565b9150509250925092565b600080602083850312156104475761044661032b565b5b600083013567ffffffffffffffff81111561046557610464610330565b5b61047185828601610344565b92509250509250929050565b600073ffffffffffffffffffffffffffffffffffffffff82169050919050565b60006104a88261047d565b9050919050565b6104b88161049d565b82525050565b60006020820190506104d360008301846104af565b92915050565b6104e28161039a565b82525050565b60006020820190506104fd60008301846104d9565b92915050565b600081905092915050565b82818337600083830152505050565b60006105298385610503565b935061053683858461050e565b82840190509392505050565b600061054f82848661051d565b91508190509392505050565b600082825260208201905092915050565b7f50617373776f726452656769737472793a206e6f74206f776e65720000000000600082015250565b60006105a2601b8361055b565b91506105ad8261056c565b602082019050919050565b600060208201905081810360008301526105d181610595565b905091905056fea2646970667358221220267c6fcf6d5121b5897b949aae46807b9861d6c820242cd6c0933467526c283a64736f6c63430008180033","opcodes":"PUSH1 0x80 PUSH1 0x40 MSTORE CALLVALUE DUP1 ISZERO PUSH2 0x10 JUMPI PUSH1 0x0 DUP1 REVERT JUMPDEST POP PUSH2 0x60E DUP1 PUSH2 0x20 PUSH1 0x0 CODECOPY PUSH1 0x0 RETURN INVALID PUSH1 0x80 PUSH1 0x40 MSTORE CALLVALUE DUP1 ISZERO PUSH2 0x10 JUMPI PUSH1 0x0 DUP1 REVERT JUMPDEST POP PUSH1 0x4 CALLDATASIZE LT PUSH2 0x41 JUMPI PUSH1 0x0 CALLDATALOAD PUSH1 0xE0 SHR DUP1 PUSH4 0x3BFAC58C EQ PUSH2 0x46 JUMPI DUP1 PUSH4 0x4AAF4A12 EQ PUSH2 0x62 JUMPI DUP1 PUSH4 0x8994D9D3 EQ PUSH2 0x92 JUMPI JUMPDEST PUSH1 0x0 DUP1 REVERT JUMPDEST PUSH2 0x60 PUSH1 0x4 DUP1 CALLDATASIZE SUB DUP2 ADD SWAP1 PUSH2 0x5B SWAP2 SWAP1 PUSH2 0x3D0 JUMP JUMPDEST PUSH2 0xC2 JUMP JUMPDEST STOP JUMPDEST PUSH2 0x7C PUSH1 0x4 DUP1 CALLDATASIZE SUB DUP2 ADD SWAP1 PUSH2 0x77 SWAP2 SWAP1 PUSH2 0x430 JUMP JUMPDEST PUSH2 0x2B1 JUMP JUMPDEST PUSH1 0x40 MLOAD PUSH2 0x89 SWAP2 SWAP1 PUSH2 0x4BE JUMP JUMPDEST PUSH1 0x40 MLOAD DUP1 SWAP2 SUB SWAP1 RETURN JUMPDEST PUSH2 0xAC PUSH1 0x4 DUP1 CALLDATASIZE SUB DUP2 ADD SWAP1 PUSH2 0xA7 SWAP2 SWAP1 PUSH2 0x430 JUMP JUMPDEST PUSH2 0x2FE JUMP JUMPDEST PUSH1 0x40 MLOAD PUSH2 0xB9 SWAP2 SWAP1 PUSH2 0x4E8 JUMP JUMPDEST PUSH1 0x40 MLOAD DUP1 SWAP2 SUB SWAP1 RETURN JUMPDEST PUSH1 0x0 DUP1 DUP5 DUP5 PUSH1 0x40 MLOAD PUSH2 0xD5 SWAP3 SWAP2 SWAP1 PUSH2 0x542 JUMP JUMPDEST SWAP1 DUP2 MSTORE PUSH1 0x20 ADD PUSH1 0x40 MLOAD DUP1 SWAP2 SUB SWAP1 KECCAK256 SWAP1 POP PUSH1 0x0 PUSH20 0xFFFFFFFFFFFFFFFFFFFFFFFFFFFFFFFFFFFFFFFF AND DUP2 PUSH1 0x1 ADD PUSH1 0x0 SWAP1 SLOAD SWAP1 PUSH2 0x100 EXP SWAP1 DIV PUSH20 0xFFFFFFFFFFFFFFFFFFFFFFFFFFFFFFFFFFFFFFFF AND PUSH20 0xFFFFFFFFFFFFFFFFFFFFFFFFFFFFFFFFFFFFFFFF AND SUB PUSH2 0x185 JUMPI CALLER DUP2 PUSH1 0x1 ADD PUSH1 0x0 PUSH2 0x100 EXP DUP2 SLOAD DUP2 PUSH20 0xFFFFFFFFFFFFFFFFFFFFFFFFFFFFFFFFFFFFFFFF MUL NOT AND SWAP1 DUP4 PUSH20 0xFFFFFFFFFFFFFFFFFFFFFFFFFFFFFFFFFFFFFFFF AND MUL OR SWAP1 SSTORE POP PUSH2 0x218 JUMP JUMPDEST CALLER PUSH20 0xFFFFFFFFFFFFFFFFFFFFFFFFFFFFFFFFFFFFFFFF AND DUP2 PUSH1 0x1 ADD PUSH1 0x0 SWAP1 SLOAD SWAP1 PUSH2 0x100 EXP SWAP1 DIV PUSH20 0xFFFFFFFFFFFFFFFFFFFFFFFFFFFFFFFFFFFFFFFF AND PUSH20 0xFFFFFFFFFFFFFFFFFFFFFFFFFFFFFFFFFFFFFFFF AND EQ PUSH2 0x217 JUMPI PUSH1 0x40 MLOAD PUSH32 0x8C379A000000000000000000000000000000000000000000000000000000000 DUP2 MSTORE PUSH1 0x4 ADD PUSH2 0x20E SWAP1 PUSH2 0x5B8 JUMP JUMPDEST PUSH1 0x40 MLOAD DUP1 SWAP2 SUB SWAP1 REVERT JUMPDEST JUMPDEST DUP2 DUP2 PUSH1 0x0 ADD DUP2 SWAP1 SSTORE POP DUP1 PUSH1 0x1 ADD PUSH1 0x0 SWAP1 SLOAD SWAP1 PUSH2 0x100 EXP SWAP1 DIV PUSH20 0xFFFFFFFFFFFFFFFFFFFFFFFFFFFFFFFFFFFFFFFF AND PUSH20 0xFFFFFFFFFFFFFFFFFFFFFFFFFFFFFFFFFFFFFFFF AND DUP5 DUP5 PUSH1 0x40 MLOAD PUSH2 0x26C SWAP3 SWAP2 SWAP1 PUSH2 0x542 JUMP JUMPDEST PUSH1 0x40 MLOAD DUP1 SWAP2 SUB SWAP1 KECCAK256 PUSH32 0xDED9312CC56D3A595BFDE0AB346A669293D1DBAE79BA1E70FABE251F00FE0367 DUP5 PUSH1 0x40 MLOAD PUSH2 0x2A3 SWAP2 SWAP1 PUSH2 0x4E8 JUMP JUMPDEST PUSH1 0x40 MLOAD DUP1 SWAP2 SUB SWAP1 LOG3 POP POP POP POP JUMP JUMPDEST PUSH1 0x0 DUP1 DUP4 DUP4 PUSH1 0x40 MLOAD PUSH2 0x2C4 SWAP3 SWAP2 SWAP1 PUSH2 0x542 JUMP JUMPDEST SWAP1 DUP2 MSTORE PUSH1 0x20 ADD PUSH1 0x40 MLOAD DUP1 SWAP2 SUB SWAP1 KECCAK256 PUSH1 0x1 ADD PUSH1 0x0 SWAP1 SLOAD SWAP1 PUSH2 0x100 EXP SWAP1 DIV PUSH20 0xFFFFFFFFFFFFFFFFFFFFFFFFFFFFFFFFFFFFFFFF AND SWAP1 POP SWAP3 SWAP2 POP POP JUMP JUMPDEST PUSH1 0x0 DUP1 DUP4 DUP4 PUSH1 0x40 MLOAD PUSH2 0x311 SWAP3 SWAP2 SWAP1 PUSH2 0x542 JUMP JUMPDEST SWAP1 DUP2 MSTORE PUSH1 0x20 ADD PUSH1 0x40 MLOAD DUP1 SWAP2 SUB SWAP1 KECCAK256 PUSH1 0x0 ADD SLOAD SWAP1 POP SWAP3 SWAP2 POP POP JUMP JUMPDEST PUSH1 0x0 DUP1 REVERT JUMPDEST PUSH1 0x0 DUP1 REVERT JUMPDEST PUSH1 0x0 DUP1 REVERT JUMPDEST PUSH1 0x0 DUP1 REVERT JUMPDEST PUSH1 0x0 DUP1 REVERT JUMPDEST PUSH1 0x0 DUP1 DUP4 PUSH1 0x1F DUP5 ADD SLT PUSH2 0x35A JUMPI PUSH2 0x359 PUSH2 0x335 JUMP JUMPDEST JUMPDEST DUP3 CALLDATALOAD SWAP1 POP PUSH8 0xFFFFFFFFFFFFFFFF DUP2 GT ISZERO PUSH2 0x377 JUMPI PUSH2 0x376 PUSH2 0x33A JUMP JUMPDEST JUMPDEST PUSH1 0x20 DUP4 ADD SWAP2 POP DUP4 PUSH1 0x1 DUP3 MUL DUP4 ADD GT ISZERO PUSH2 0x393 JUMPI PUSH2 0x392 PUSH2 0x33F JUMP JUMPDEST JUMPDEST SWAP3 POP SWAP3 SWAP1 POP JUMP JUMPDEST PUSH1 0x0 DUP2 SWAP1 POP SWAP2 SWAP1 POP JUMP JUMPDEST PUSH2 0x3AD DUP2 PUSH2 0x39A JUMP JUMPDEST DUP2 EQ PUSH2 0x3B8 JUMPI PUSH1 0x0 DUP1 REVERT JUMPDEST POP JUMP JUMPDEST PUSH1 0x0 DUP2 CALLDATALOAD SWAP1 POP PUSH2 0x3CA DUP2 PUSH2 0x3A4 JUMP JUMPDEST SWAP3 SWAP2 POP POP JUMP JUMPDEST PUSH1 0x0 DUP1 PUSH1 0x0 PUSH1 0x40 DUP5 DUP7 SUB SLT ISZERO PUSH2 0x3E9 JUMPI PUSH2 0x3E8 PUSH2 0x32B JUMP JUMPDEST JUMPDEST PUSH1 0x0 DUP5 ADD CALLDATALOAD PUSH8 0xFFFFFFFFFFFFFFFF DUP2 GT ISZERO PUSH2 0x407 JUMPI PUSH2 0x406 PUSH2 0x330 JUMP JUMPDEST JUMPDEST PUSH2 0x413 DUP7 DUP3 DUP8 ADD PUSH2 0x344 JUMP JUMPDEST SWAP4 POP SWAP4 POP POP PUSH1 0x20 PUSH2 0x426 DUP7 DUP3 DUP8 ADD PUSH2 0x3BB JUMP JUMPDEST SWAP2 POP POP SWAP3 POP SWAP3 POP SWAP3 JUMP JUMPDEST PUSH1 0x0 DUP1 PUSH1 0x20 DUP4 DUP6 SUB SLT ISZERO PUSH2 0x447 JUMPI PUSH2 0x446 PUSH2 0x32B JUMP JUMPDEST JUMPDEST PUSH1 0x0 DUP4 ADD CALLDATALOAD PUSH8 0xFFFFFFFFFFFFFFFF DUP2 GT ISZERO PUSH2 0x465 JUMPI PUSH2 0x464 PUSH2 0x330 JUMP JUMPDEST JUMPDEST PUSH2 0x471 DUP6 DUP3 DUP7 ADD PUSH2 0x344 JUMP JUMPDEST SWAP3 POP SWAP3 POP POP SWAP3 POP SWAP3 SWAP1 POP JUMP JUMPDEST PUSH1 0x0 PUSH20 0xFFFFFFFFFFFFFFFFFFFFFFFFFFFFFFFFFFFFFFFF DUP3 AND SWAP1 POP SWAP2 SWAP1 POP JUMP JUMPDEST PUSH1 0x0 PUSH2 0x4A8 DUP3 PUSH2 0x47D JUMP JUMPDEST SWAP1 POP SWAP2 SWAP1 POP JUMP JUMPDEST PUSH2 0x4B8 DUP2 PUSH2 0x49D JUMP JUMPDEST DUP3 MSTORE POP POP JUMP JUMPDEST PUSH1 0x0 PUSH1 0x20 DUP3 ADD SWAP1 POP PUSH2 0x4D3 PUSH1 0x0 DUP4 ADD DUP5 PUSH2 0x4AF JUMP JUMPDEST SWAP3 SWAP2 POP POP JUMP JUMPDEST PUSH2 0x4E2 DUP2 PUSH2 0x39A JUMP JUMPDEST DUP3 MSTORE POP POP JUMP JUMPDEST PUSH1 0x0 PUSH1 0x20 DUP3 ADD SWAP1 POP PUSH2 0x4FD PUSH1 0x0 DUP4 ADD DUP5 PUSH2 0x4D9 JUMP JUMPDEST SWAP3 SWAP2 POP POP JUMP JUMPDEST PUSH1 0x0 DUP2 SWAP1 POP SWAP3 SWAP2 POP POP JUMP JUMPDEST DUP3 DUP2 DUP4 CALLDATACOPY PUSH1 0x0 DUP4 DUP4 ADD MSTORE POP POP POP JUMP JUMPDEST PUSH1 0x0 PUSH2 0x529 DUP4 DUP6 PUSH2 0x503 JUMP JUMPDEST SWAP4 POP PUSH2 0x536 DUP4 DUP6 DUP5 PUSH2 0x50E JUMP JUMPDEST DUP3 DUP5 ADD SWAP1 POP SWAP4 SWAP3 POP POP POP JUMP JUMPDEST PUSH1 0x0 PUSH2 0x54F DUP3 DUP5 DUP7 PUSH2 0x51D JUMP JUMPDEST SWAP2 POP DUP2 SWAP1 POP SWAP4 SWAP3 POP POP POP JUMP JUMPDEST PUSH1 0x0 DUP3 DUP3 MSTORE PUSH1 0x20 DUP3 ADD SWAP1 POP SWAP3 SWAP2 POP POP JUMP JUMPDEST PUSH32 0x50617373776F726452656769737472793A206E6F74206F776E65720000000000 PUSH1 0x0 DUP3 ADD MSTORE POP JUMP JUMPDEST PUSH1 0x0 PUSH2 0x5A2 PUSH1 0x1B DUP4 PUSH2 0x55B JUMP JUMPDEST SWAP2 POP PUSH2 0x5AD DUP3 PUSH2 0x56C JUMP JUMPDEST PUSH1 0x20 DUP3 ADD SWAP1 POP SWAP2 SWAP1 POP JUMP JUMPDEST PUSH1 0x0 PUSH1 0x20 DUP3 ADD SWAP1 POP DUP2 DUP2 SUB PUSH1 0x0 DUP4 ADD MSTORE PUSH2 0x5D1 DUP2 PUSH2 0x595 JUMP JUMPDEST SWAP1 POP SWAP2 SWAP1 POP JUMP INVALID LOG2 PUSH5 0x6970667358 0x22 SLT KECCAK256 0x26 PUSH29 0x6FCF6D5121B5897B949AAE46807B9861D6C820242CD6C0933467526C28 GASPRICE PUSH5 0x736F6C6343 STOP ADDMOD XOR STOP CALLER "},"methodIdentifiers":{"getOwner(string)":"4aaf4a12","getPasswordHash(string)":"8994d9d3","setPasswordHash(string,bytes32)":"3bfac58c"}}}}}