{"contracts/LitActionRegistry.sol":{"LitActionRegistry":{"abi":[{"inputs":[{"internalType":"string","name":"initialCID","type":"string"}],"stateMutability":"nonpayable","type":"constructor"},{"anonymous":false,"inputs":[{"indexed":false,"internalType":"string","name":"cid","type":"string"}],"name":"ChildIPFSCIDUpdated","type":"event"},{"anonymous":false,"inputs":[{"indexed":true,"internalType":"address","name":"previousOwner","type":"address"},{"indexed":true,"internalType":"address","name":"newOwner","type":"address"}],"name":"OwnershipTransferred","type":"event"},{"inputs":[],"name":"getChildIPFSCID","outputs":[{"internalType":"string","name":"","type":"string"}],"stateMutability":"view","type":"function"},{"inputs":[{"internalType":"string","name":"cid","type":"string"}],"name":"isChildIPFSCID","outputs":[{"internalType":"bool","name":"","type":"bool"}],"stateMutability":"view","type":"function"},{"inputs":[],"name":"owner","outputs":[{"internalType":"address","name":"","type":"address"}],"stateMutability":"view","type":"function"},{"inputs":[{"internalType":"string","name":"cid","type":"string"}],"name":"setChildIPFSCID","outputs":[],"stateMutability":"nonpayable","type":"function"},{"inputs":[{"internalType":"address","name":"nextOwner","type":"address"}],"name":"transferOwnership","outputs":[],"stateMutability":"nonpayable","type":"function"}],"evm":{"bytecode":{"linkReferences":{},"object":"6080604052346102065761087f803803806100198161020b565b928339810190602080828403126102065781516001600160401b0392838211610206570192601f908082860112156102065784518481116101dc57601f19956100678285018816860161020b565b9282845285838301011161020657849060005b8381106101f257505060009183010152600180546001600160a01b0319163317815581519490939085116101dc576000548481811c911680156101d2575b828210146101bc57838111610176575b5080928511600114610111575083945090839291600094610106575b50501b916000199060031b1c1916176000555b60405161064e90816102318239f35b0151925038806100e4565b9294849081166000805284600020946000905b8883831061015c5750505010610143575b505050811b016000556100f7565b015160001960f88460031b161c19169055388080610135565b858701518855909601959485019487935090810190610124565b60008052816000208480880160051c8201928489106101b3575b0160051c019085905b8281106101a75750506100c8565b60008155018590610199565b92508192610190565b634e487b7160e01b600052602260045260246000fd5b90607f16906100b8565b634e487b7160e01b600052604160045260246000fd5b81810183015185820184015286920161007a565b600080fd5b6040519190601f01601f191682016001600160401b038111838210176101dc5760405256fe60806040818152600436101561001457600080fd5b600091823560e01c9081635c30ceb61461040a575080638da5cb5b146103e2578063a15c5b6e14610220578063c3f589de1461011c5763f2fde38b1461005957600080fd5b34610118576020366003190112610118576001600160a01b03600435818116929083900361011457600154918216906100938233146105ac565b83156100d1575082907f8be0079c531659141344cd1fd0a4f28419497f9722a3daafe3b4186f6b6457e08580a36001600160a01b0319161760015580f35b5162461bcd60e51b815260206004820152601d60248201527f4c6974416374696f6e52656769737472793a207a65726f206f776e65720000006044820152606490fd5b8380fd5b5080fd5b503461011857816003193601126101185780518280548261013c8261053a565b9586825260209687936001906001811690816000146101ff57506001146101b6575b50506101709250959392950382610574565b82519382859384528251928382860152825b8481106101a057505050828201840152601f01601f19168101030190f35b8181018301518882018801528795508201610182565b8580526000805160206105f98339815191529492508591905b8183106101e75750889450508201016101703861015e565b855488840185015294850194879450918301916101cf565b91505061017094925060ff191682840152151560051b82010186923861015e565b5090346103df57610230366104eb565b909260019361024960018060a01b0386541633146105ac565b67ffffffffffffffff83116103cb57610262845461053a565b601f8111610378575b508394601f84116001146102ee5783809186977f11c5c009e2063b8eb6f2df610bf58879487bf0056070a47bcb26f914fa78da4397936102e3575b501b906000198560031b1c19161785555b82825193849260208452816020850152848401378181018301869052601f01601f19168101030190a180f35b8401359250386102a6565b848052601f198416956000805160206105f983398151915290865b8881106103625750857f11c5c009e2063b8eb6f2df610bf58879487bf0056070a47bcb26f914fa78da43979810610348575b505083811b0185556102b7565b830135600019600387901b60f8161c19169055388061033b565b8482013583559183019160209182019101610309565b8480526000805160206105f9833981519152601f850160051c810191602086106103c1575b601f0160051c019086905b8281106103b657505061026b565b8681550186906103a8565b909150819061039d565b634e487b7160e01b84526041600452602484fd5b80fd5b503461011857816003193601126101185760015490516001600160a01b039091168152602090f35b8284346103df5761041a366104eb565b91602085818097019083845461042f8161053a565b906001908181169081156104d0575060011461048e575b5050906104618161048395949303601f198101835282610574565b5190209486519381859284840197883782019083820152038084520182610574565b519020149051908152f35b86805290915085906000805160206105f98339815191525b8383106104bd575050508101830161046182610446565b80548584018801529186019181016104a6565b60ff1916865250508015150282018401905061046182610446565b9060206003198301126105355760043567ffffffffffffffff9283821161053557806023830112156105355781600401359384116105355760248483010111610535576024019190565b600080fd5b90600182811c9216801561056a575b602083101461055457565b634e487b7160e01b600052602260045260246000fd5b91607f1691610549565b90601f8019910116810190811067ffffffffffffffff82111761059657604052565b634e487b7160e01b600052604160045260246000fd5b156105b357565b60405162461bcd60e51b815260206004820152601c60248201527f4c6974416374696f6e52656769737472793a206e6f74206f776e6572000000006044820152606490fdfe290decd9548b62a8d60345a988386fc84ba6bc95484008f6362f93160ef3e563a26469706673582212202f648de3a0554c4d39532e8df0717d5f6661b2fff52abd3056ad26df1322aa3d64736f6c63430008180033","opcodes":"PUSH1 0x80 PUSH1 0x40 MSTORE CALLVALUE PUSH2 0x206 JUMPI PUSH2 0x87F DUP1 CODESIZE SUB DUP1 PUSH2 0x19 DUP2 PUSH2 0x20B JUMP JUMPDEST SWAP3 DUP4 CODECOPY DUP2 ADD SWAP1 PUSH1 0x20 DUP1 DUP3 DUP5 SUB SLT PUSH2 0x206 JUMPI DUP2 MLOAD PUSH1 0x1 PUSH1 0x1 PUSH1 0x40 SHL SUB SWAP3 DUP4 DUP3 GT PUSH2 0x206 JUMPI ADD SWAP3 PUSH1 0x1F SWAP1 DUP1 DUP3 DUP7 ADD SLT ISZERO PUSH2 0x206 JUMPI DUP5 MLOAD DUP5 DUP2 GT PUSH2 0x1DC JUMPI PUSH1 0x1F NOT SWAP6 PUSH2 0x67 DUP3 DUP6 ADD DUP9 AND DUP7 ADD PUSH2 0x20B JUMP JUMPDEST SWAP3 DUP3 DUP5 MSTORE DUP6 DUP4 DUP4 ADD ADD GT PUSH2 0x206 JUMPI DUP5 SWAP1 PUSH1 0x0 JUMPDEST DUP4 DUP2 LT PUSH2 0x1F2 JUMPI POP POP PUSH1 0x0 SWAP2 DUP4 ADD ADD MSTORE PUSH1 0x1 DUP1 SLOAD PUSH1 0x1 PUSH1 0x1 PUSH1 0xA0 SHL SUB NOT AND CALLER OR DUP2 SSTORE DUP2 MLOAD SWAP5 SWAP1 SWAP4 SWAP1 DUP6 GT PUSH2 0x1DC JUMPI PUSH1 0x0 SLOAD DUP5 DUP2 DUP2 SHR SWAP2 AND DUP1 ISZERO PUSH2 0x1D2 JUMPI JUMPDEST DUP3 DUP3 LT EQ PUSH2 0x1BC JUMPI DUP4 DUP2 GT PUSH2 0x176 JUMPI JUMPDEST POP DUP1 SWAP3 DUP6 GT PUSH1 0x1 EQ PUSH2 0x111 JUMPI POP DUP4 SWAP5 POP SWAP1 DUP4 SWAP3 SWAP2 PUSH1 0x0 SWAP5 PUSH2 0x106 JUMPI JUMPDEST POP POP SHL SWAP2 PUSH1 0x0 NOT SWAP1 PUSH1 0x3 SHL SHR NOT AND OR PUSH1 0x0 SSTORE JUMPDEST PUSH1 0x40 MLOAD PUSH2 0x64E SWAP1 DUP2 PUSH2 0x231 DUP3 CODECOPY RETURN JUMPDEST ADD MLOAD SWAP3 POP CODESIZE DUP1 PUSH2 0xE4 JUMP JUMPDEST SWAP3 SWAP5 DUP5 SWAP1 DUP2 AND PUSH1 0x0 DUP1 MSTORE DUP5 PUSH1 0x0 KECCAK256 SWAP5 PUSH1 0x0 SWAP1 JUMPDEST DUP9 DUP4 DUP4 LT PUSH2 0x15C JUMPI POP POP POP LT PUSH2 0x143 JUMPI JUMPDEST POP POP POP DUP2 SHL ADD PUSH1 0x0 SSTORE PUSH2 0xF7 JUMP JUMPDEST ADD MLOAD PUSH1 0x0 NOT PUSH1 0xF8 DUP5 PUSH1 0x3 SHL AND SHR NOT AND SWAP1 SSTORE CODESIZE DUP1 DUP1 PUSH2 0x135 JUMP JUMPDEST DUP6 DUP8 ADD MLOAD DUP9 SSTORE SWAP1 SWAP7 ADD SWAP6 SWAP5 DUP6 ADD SWAP5 DUP8 SWAP4 POP SWAP1 DUP2 ADD SWAP1 PUSH2 0x124 JUMP JUMPDEST PUSH1 0x0 DUP1 MSTORE DUP2 PUSH1 0x0 KECCAK256 DUP5 DUP1 DUP9 ADD PUSH1 0x5 SHR DUP3 ADD SWAP3 DUP5 DUP10 LT PUSH2 0x1B3 JUMPI JUMPDEST ADD PUSH1 0x5 SHR ADD SWAP1 DUP6 SWAP1 JUMPDEST DUP3 DUP2 LT PUSH2 0x1A7 JUMPI POP POP PUSH2 0xC8 JUMP JUMPDEST PUSH1 0x0 DUP2 SSTORE ADD DUP6 SWAP1 PUSH2 0x199 JUMP JUMPDEST SWAP3 POP DUP2 SWAP3 PUSH2 0x190 JUMP JUMPDEST PUSH4 0x4E487B71 PUSH1 0xE0 SHL PUSH1 0x0 MSTORE PUSH1 0x22 PUSH1 0x4 MSTORE PUSH1 0x24 PUSH1 0x0 REVERT JUMPDEST SWAP1 PUSH1 0x7F AND SWAP1 PUSH2 0xB8 JUMP JUMPDEST PUSH4 0x4E487B71 PUSH1 0xE0 SHL PUSH1 0x0 MSTORE PUSH1 0x41 PUSH1 0x4 MSTORE PUSH1 0x24 PUSH1 0x0 REVERT JUMPDEST DUP2 DUP2 ADD DUP4 ADD MLOAD DUP6 DUP3 ADD DUP5 ADD MSTORE DUP7 SWAP3 ADD PUSH2 0x7A JUMP JUMPDEST PUSH1 0x0 DUP1 REVERT JUMPDEST PUSH1 0x40 MLOAD SWAP2 SWAP1 PUSH1 0x1F ADD PUSH1 0x1F NOT AND DUP3 ADD PUSH1 0x1 PUSH1 0x1 PUSH1 0x40 SHL SUB DUP2 GT DUP4 DUP3 LT OR PUSH2 0x1DC JUMPI PUSH1 0x40 MSTORE JUMP INVALID PUSH1 0x80 PUSH1 0x40 DUP2 DUP2 MSTORE PUSH1 0x4 CALLDATASIZE LT ISZERO PUSH2 0x14 JUMPI PUSH1 0x0 DUP1 REVERT JUMPDEST PUSH1 0x0 SWAP2 DUP3 CALLDATALOAD PUSH1 0xE0 SHR SWAP1 DUP2 PUSH4 0x5C30CEB6 EQ PUSH2 0x40A JUMPI POP DUP1 PUSH4 0x8DA5CB5B EQ PUSH2 0x3E2 JUMPI DUP1 PUSH4 0xA15C5B6E EQ PUSH2 0x220 JUMPI DUP1 PUSH4 0xC3F589DE EQ PUSH2 0x11C JUMPI PUSH4 0xF2FDE38B EQ PUSH2 0x59 JUMPI PUSH1 0x0 DUP1 REVERT JUMPDEST CALLVALUE PUSH2 0x118 JUMPI PUSH1 0x20 CALLDATASIZE PUSH1 0x3 NOT ADD SLT PUSH2 0x118 JUMPI PUSH1 0x1 PUSH1 0x1 PUSH1 0xA0 SHL SUB PUSH1 0x4 CALLDATALOAD DUP2 DUP2 AND SWAP3 SWAP1 DUP4 SWAP1 SUB PUSH2 0x114 JUMPI PUSH1 0x1 SLOAD SWAP2 DUP3 AND SWAP1 PUSH2 0x93 DUP3 CALLER EQ PUSH2 0x5AC JUMP JUMPDEST DUP4 ISZERO PUSH2 0xD1 JUMPI POP DUP3 SWAP1 PUSH32 0x8BE0079C531659141344CD1FD0A4F28419497F9722A3DAAFE3B4186F6B6457E0 DUP6 DUP1 LOG3 PUSH1 0x1 PUSH1 0x1 PUSH1 0xA0 SHL SUB NOT AND OR PUSH1 0x1 SSTORE DUP1 RETURN JUMPDEST MLOAD PUSH3 0x461BCD PUSH1 0xE5 SHL DUP2 MSTORE PUSH1 0x20 PUSH1 0x4 DUP3 ADD MSTORE PUSH1 0x1D PUSH1 0x24 DUP3 ADD MSTORE PUSH32 0x4C6974416374696F6E52656769737472793A207A65726F206F776E6572000000 PUSH1 0x44 DUP3 ADD MSTORE PUSH1 0x64 SWAP1 REVERT JUMPDEST DUP4 DUP1 REVERT JUMPDEST POP DUP1 REVERT JUMPDEST POP CALLVALUE PUSH2 0x118 JUMPI DUP2 PUSH1 0x3 NOT CALLDATASIZE ADD SLT PUSH2 0x118 JUMPI DUP1 MLOAD DUP3 DUP1 SLOAD DUP3 PUSH2 0x13C DUP3 PUSH2 0x53A JUMP JUMPDEST SWAP6 DUP7 DUP3 MSTORE PUSH1 0x20 SWAP7 DUP8 SWAP4 PUSH1 0x1 SWAP1 PUSH1 0x1 DUP2 AND SWAP1 DUP2 PUSH1 0x0 EQ PUSH2 0x1FF JUMPI POP PUSH1 0x1 EQ PUSH2 0x1B6 JUMPI JUMPDEST POP POP PUSH2 0x170 SWAP3 POP SWAP6 SWAP4 SWAP3 SWAP6 SUB DUP3 PUSH2 0x574 JUMP JUMPDEST DUP3 MLOAD SWAP4 DUP3 DUP6 SWAP4 DUP5 MSTORE DUP3 MLOAD SWAP3 DUP4 DUP3 DUP7 ADD MSTORE DUP3 JUMPDEST DUP5 DUP2 LT PUSH2 0x1A0 JUMPI POP POP POP DUP3 DUP3 ADD DUP5 ADD MSTORE PUSH1 0x1F ADD PUSH1 0x1F NOT AND DUP2 ADD SUB ADD SWAP1 RETURN JUMPDEST DUP2 DUP2 ADD DUP4 ADD MLOAD DUP9 DUP3 ADD DUP9 ADD MSTORE DUP8 SWAP6 POP DUP3 ADD PUSH2 0x182 JUMP JUMPDEST DUP6 DUP1 MSTORE PUSH1 0x0 DUP1 MLOAD PUSH1 0x20 PUSH2 0x5F9 DUP4 CODECOPY DUP2 MLOAD SWAP2 MSTORE SWAP5 SWAP3 POP DUP6 SWAP2 SWAP1 JUMPDEST DUP2 DUP4 LT PUSH2 0x1E7 JUMPI POP DUP9 SWAP5 POP POP DUP3 ADD ADD PUSH2 0x170 CODESIZE PUSH2 0x15E JUMP JUMPDEST DUP6 SLOAD DUP9 DUP5 ADD DUP6 ADD MSTORE SWAP5 DUP6 ADD SWAP5 DUP8 SWAP5 POP SWAP2 DUP4 ADD SWAP2 PUSH2 0x1CF JUMP JUMPDEST SWAP2 POP POP PUSH2 0x170 SWAP5 SWAP3 POP PUSH1 0xFF NOT AND DUP3 DUP5 ADD MSTORE ISZERO ISZERO PUSH1 0x5 SHL DUP3 ADD ADD DUP7 SWAP3 CODESIZE PUSH2 0x15E JUMP JUMPDEST POP SWAP1 CALLVALUE PUSH2 0x3DF JUMPI PUSH2 0x230 CALLDATASIZE PUSH2 0x4EB JUMP JUMPDEST SWAP1 SWAP3 PUSH1 0x1 SWAP4 PUSH2 0x249 PUSH1 0x1 DUP1 PUSH1 0xA0 SHL SUB DUP7 SLOAD AND CALLER EQ PUSH2 0x5AC JUMP JUMPDEST PUSH8 0xFFFFFFFFFFFFFFFF DUP4 GT PUSH2 0x3CB JUMPI PUSH2 0x262 DUP5 SLOAD PUSH2 0x53A JUMP JUMPDEST PUSH1 0x1F DUP2 GT PUSH2 0x378 JUMPI JUMPDEST POP DUP4 SWAP5 PUSH1 0x1F DUP5 GT PUSH1 0x1 EQ PUSH2 0x2EE JUMPI DUP4 DUP1 SWAP2 DUP7 SWAP8 PUSH32 0x11C5C009E2063B8EB6F2DF610BF58879487BF0056070A47BCB26F914FA78DA43 SWAP8 SWAP4 PUSH2 0x2E3 JUMPI JUMPDEST POP SHL SWAP1 PUSH1 0x0 NOT DUP6 PUSH1 0x3 SHL SHR NOT AND OR DUP6 SSTORE JUMPDEST DUP3 DUP3 MLOAD SWAP4 DUP5 SWAP3 PUSH1 0x20 DUP5 MSTORE DUP2 PUSH1 0x20 DUP6 ADD MSTORE DUP5 DUP5 ADD CALLDATACOPY DUP2 DUP2 ADD DUP4 ADD DUP7 SWAP1 MSTORE PUSH1 0x1F ADD PUSH1 0x1F NOT AND DUP2 ADD SUB ADD SWAP1 LOG1 DUP1 RETURN JUMPDEST DUP5 ADD CALLDATALOAD SWAP3 POP CODESIZE PUSH2 0x2A6 JUMP JUMPDEST DUP5 DUP1 MSTORE PUSH1 0x1F NOT DUP5 AND SWAP6 PUSH1 0x0 DUP1 MLOAD PUSH1 0x20 PUSH2 0x5F9 DUP4 CODECOPY DUP2 MLOAD SWAP2 MSTORE SWAP1 DUP7 JUMPDEST DUP9 DUP2 LT PUSH2 0x362 JUMPI POP DUP6 PUSH32 0x11C5C009E2063B8EB6F2DF610BF58879487BF0056070A47BCB26F914FA78DA43 SWAP8 SWAP9 LT PUSH2 0x348 JUMPI JUMPDEST POP POP DUP4 DUP2 SHL ADD DUP6 SSTORE PUSH2 0x2B7 JUMP JUMPDEST DUP4 ADD CALLDATALOAD PUSH1 0x0 NOT PUSH1 0x3 DUP8 SWAP1 SHL PUSH1 0xF8 AND SHR NOT AND SWAP1 SSTORE CODESIZE DUP1 PUSH2 0x33B JUMP JUMPDEST DUP5 DUP3 ADD CALLDATALOAD DUP4 SSTORE SWAP2 DUP4 ADD SWAP2 PUSH1 0x20 SWAP2 DUP3 ADD SWAP2 ADD PUSH2 0x309 JUMP JUMPDEST DUP5 DUP1 MSTORE PUSH1 0x0 DUP1 MLOAD PUSH1 0x20 PUSH2 0x5F9 DUP4 CODECOPY DUP2 MLOAD SWAP2 MSTORE PUSH1 0x1F DUP6 ADD PUSH1 0x5 SHR DUP2 ADD SWAP2 PUSH1 0x20 DUP7 LT PUSH2 0x3C1 JUMPI JUMPDEST PUSH1 0x1F ADD PUSH1 0x5 SHR ADD SWAP1 DUP7 SWAP1 JUMPDEST DUP3 DUP2 LT PUSH2 0x3B6 JUMPI POP POP PUSH2 0x26B JUMP JUMPDEST DUP7 DUP2 SSTORE ADD DUP7 SWAP1 PUSH2 0x3A8 JUMP JUMPDEST SWAP1 SWAP2 POP DUP2 SWAP1 PUSH2 0x39D JUMP JUMPDEST PUSH4 0x4E487B71 PUSH1 0xE0 SHL DUP5 MSTORE PUSH1 0x41 PUSH1 0x4 MSTORE PUSH1 0x24 DUP5 REVERT JUMPDEST DUP1 REVERT JUMPDEST POP CALLVALUE PUSH2 0x118 JUMPI DUP2 PUSH1 0x3 NOT CALLDATASIZE ADD SLT PUSH2 0x118 JUMPI PUSH1 0x1 SLOAD SWAP1 MLOAD PUSH1 0x1 PUSH1 0x1 PUSH1 0xA0 SHL SUB SWAP1 SWAP2 AND DUP2 MSTORE PUSH1 0x20 SWAP1 RETURN JUMPDEST DUP3 DUP5 CALLVALUE PUSH2 0x3DF JUMPI PUSH2 0x41A CALLDATASIZE PUSH2 0x4EB JUMP JUMPDEST SWAP2 PUSH1 0x20 DUP6 DUP2 DUP1 SWAP8 ADD SWAP1 DUP4 DUP5 SLOAD PUSH2 0x42F DUP2 PUSH2 0x53A JUMP JUMPDEST SWAP1 PUSH1 0x1 SWAP1 DUP2 DUP2 AND SWAP1 DUP2 ISZERO PUSH2 0x4D0 JUMPI POP PUSH1 0x1 EQ PUSH2 0x48E JUMPI JUMPDEST POP POP SWAP1 PUSH2 0x461 DUP2 PUSH2 0x483 SWAP6 SWAP5 SWAP4 SUB PUSH1 0x1F NOT DUP2 ADD DUP4 MSTORE DUP3 PUSH2 0x574 JUMP JUMPDEST MLOAD SWAP1 KECCAK256 SWAP5 DUP7 MLOAD SWAP4 DUP2 DUP6 SWAP3 DUP5 DUP5 ADD SWAP8 DUP9 CALLDATACOPY DUP3 ADD SWAP1 DUP4 DUP3 ADD MSTORE SUB DUP1 DUP5 MSTORE ADD DUP3 PUSH2 0x574 JUMP JUMPDEST MLOAD SWAP1 KECCAK256 EQ SWAP1 MLOAD SWAP1 DUP2 MSTORE RETURN JUMPDEST DUP7 DUP1 MSTORE SWAP1 SWAP2 POP DUP6 SWAP1 PUSH1 0x0 DUP1 MLOAD PUSH1 0x20 PUSH2 0x5F9 DUP4 CODECOPY DUP2 MLOAD SWAP2 MSTORE JUMPDEST DUP4 DUP4 LT PUSH2 0x4BD JUMPI POP POP POP DUP2 ADD DUP4 ADD PUSH2 0x461 DUP3 PUSH2 0x446 JUMP JUMPDEST DUP1 SLOAD DUP6 DUP5 ADD DUP9 ADD MSTORE SWAP2 DUP7 ADD SWAP2 DUP2 ADD PUSH2 0x4A6 JUMP JUMPDEST PUSH1 0xFF NOT AND DUP7 MSTORE POP POP DUP1 ISZERO ISZERO MUL DUP3 ADD DUP5 ADD SWAP1 POP PUSH2 0x461 DUP3 PUSH2 0x446 JUMP JUMPDEST SWAP1 PUSH1 0x20 PUSH1 0x3 NOT DUP4 ADD SLT PUSH2 0x535 JUMPI PUSH1 0x4 CALLDATALOAD PUSH8 0xFFFFFFFFFFFFFFFF SWAP3 DUP4 DUP3 GT PUSH2 0x535 JUMPI DUP1 PUSH1 0x23 DUP4 ADD SLT ISZERO PUSH2 0x535 JUMPI DUP2 PUSH1 0x4 ADD CALLDATALOAD SWAP4 DUP5 GT PUSH2 0x535 JUMPI PUSH1 0x24 DUP5 DUP4 ADD ADD GT PUSH2 0x535 JUMPI PUSH1 0x24 ADD SWAP2 SWAP1 JUMP JUMPDEST PUSH1 0x0 DUP1 REVERT JUMPDEST SWAP1 PUSH1 0x1 DUP3 DUP2 SHR SWAP3 AND DUP1 ISZERO PUSH2 0x56A JUMPI JUMPDEST PUSH1 0x20 DUP4 LT EQ PUSH2 0x554 JUMPI JUMP JUMPDEST PUSH4 0x4E487B71 PUSH1 0xE0 SHL PUSH1 0x0 MSTORE PUSH1 0x22 PUSH1 0x4 MSTORE PUSH1 0x24 PUSH1 0x0 REVERT JUMPDEST SWAP2 PUSH1 0x7F AND SWAP2 PUSH2 0x549 JUMP JUMPDEST SWAP1 PUSH1 0x1F DUP1 NOT SWAP2 ADD AND DUP2 ADD SWAP1 DUP2 LT PUSH8 0xFFFFFFFFFFFFFFFF DUP3 GT OR PUSH2 0x596 JUMPI PUSH1 0x40 MSTORE JUMP JUMPDEST PUSH4 0x4E487B71 PUSH1 0xE0 SHL PUSH1 0x0 MSTORE PUSH1 0x41 PUSH1 0x4 MSTORE PUSH1 0x24 PUSH1 0x0 REVERT JUMPDEST ISZERO PUSH2 0x5B3 JUMPI JUMP JUMPDEST PUSH1 0x40 MLOAD PUSH3 0x461BCD PUSH1 0xE5 SHL DUP2 MSTORE PUSH1 0x20 PUSH1 0x4 DUP3 ADD MSTORE PUSH1 0x1C PUSH1 0x24 DUP3 ADD MSTORE PUSH32 0x4C6974416374696F6E52656769737472793A206E6F74206F776E657200000000 PUSH1 0x44 DUP3 ADD MSTORE PUSH1 0x64 SWAP1 REVERT INVALID 0x29 0xD 0xEC 0xD9 SLOAD DUP12 PUSH3 0xA8D603 GASLIMIT 0xA9 DUP9 CODESIZE PUSH16 0xC84BA6BC95484008F6362F93160EF3E5 PUSH4 0xA2646970 PUSH7 0x73582212202F64 DUP14 0xE3 LOG0 SSTORE 0x4C 0x4D CODECOPY MSTORE8 0x2E DUP14 CREATE PUSH18 0x7D5F6661B2FFF52ABD3056AD26DF1322AA3D PUSH5 0x736F6C6343 STOP ADDMOD XOR STOP CALLER "},"methodIdentifiers":{"getChildIPFSCID()":"c3f589de","isChildIPFSCID(string)":"5c30ceb6","owner()":"8da5cb5b","setChildIPFSCID(string)":"a15c5b6e","transferOwnership(address)":"f2fde38b"}}}}}