{"contracts/GuardianRegistry.sol":{"GuardianRegistry":{"abi":[{"inputs":[{"internalType":"bytes","name":"initialSignActionPublicKey","type":"bytes"}],"stateMutability":"nonpayable","type":"constructor"},{"anonymous":false,"inputs":[{"indexed":true,"internalType":"bytes32","name":"authHash","type":"bytes32"},{"indexed":true,"internalType":"address","name":"previousOwner","type":"address"},{"indexed":true,"internalType":"address","name":"newOwner","type":"address"}],"name":"AuthOwnerUpdated","type":"event"},{"anonymous":false,"inputs":[{"indexed":true,"internalType":"address","name":"user","type":"address"},{"indexed":false,"internalType":"bytes32","name":"cipherHash","type":"bytes32"}],"name":"CipherHashSet","type":"event"},{"anonymous":false,"inputs":[{"indexed":true,"internalType":"address","name":"user","type":"address"},{"indexed":true,"internalType":"bytes32","name":"guardianCIDHash","type":"bytes32"},{"indexed":false,"internalType":"bytes32","name":"authValueHash","type":"bytes32"}],"name":"GuardianAdded","type":"event"},{"anonymous":false,"inputs":[{"indexed":true,"internalType":"address","name":"user","type":"address"},{"indexed":true,"internalType":"bytes32","name":"guardianCIDHash","type":"bytes32"}],"name":"GuardianRemoved","type":"event"},{"anonymous":false,"inputs":[{"indexed":true,"internalType":"bytes32","name":"guardianCIDHash","type":"bytes32"},{"indexed":false,"internalType":"string","name":"name","type":"string"},{"indexed":false,"internalType":"bool","name":"isUniqueAuthValue","type":"bool"}],"name":"GuardianTypeSet","type":"event"},{"anonymous":false,"inputs":[{"indexed":true,"internalType":"address","name":"previousOwner","type":"address"},{"indexed":true,"internalType":"address","name":"newOwner","type":"address"}],"name":"OwnerUpdated","type":"event"},{"anonymous":false,"inputs":[{"indexed":false,"internalType":"bytes","name":"publicKey","type":"bytes"}],"name":"SignActionPublicKeyUpdated","type":"event"},{"anonymous":false,"inputs":[{"indexed":true,"internalType":"address","name":"user","type":"address"},{"indexed":false,"internalType":"uint256","name":"threshold","type":"uint256"}],"name":"ThresholdUpdated","type":"event"},{"inputs":[{"internalType":"bytes32","name":"guardianCIDHash","type":"bytes32"},{"internalType":"bytes32","name":"authValueHash","type":"bytes32"},{"internalType":"bytes32","name":"cipherHash","type":"bytes32"}],"name":"addGuardian","outputs":[],"stateMutability":"nonpayable","type":"function"},{"inputs":[{"internalType":"address","name":"user","type":"address"},{"internalType":"bytes32","name":"guardianCIDHash","type":"bytes32"},{"internalType":"bytes32","name":"authValueHash","type":"bytes32"},{"internalType":"bytes32","name":"cipherHash","type":"bytes32"},{"internalType":"uint256","name":"nonce","type":"uint256"},{"internalType":"uint256","name":"deadline","type":"uint256"},{"internalType":"uint8","name":"v","type":"uint8"},{"internalType":"bytes32","name":"r","type":"bytes32"},{"internalType":"bytes32","name":"s","type":"bytes32"}],"name":"addGuardianWithSig","outputs":[],"stateMutability":"nonpayable","type":"function"},{"inputs":[{"internalType":"bytes32","name":"guardianCIDHash","type":"bytes32"},{"internalType":"bytes32","name":"authValueHash","type":"bytes32"},{"internalType":"bytes32","name":"cipherHash","type":"bytes32"},{"internalType":"uint256","name":"signedAt","type":"uint256"},{"internalType":"bytes","name":"signActionSignature","type":"bytes"}],"name":"addGuardianWithSignActionSignature","outputs":[],"stateMutability":"nonpayable","type":"function"},{"inputs":[{"internalType":"address","name":"user","type":"address"},{"internalType":"bytes32","name":"guardianCIDHash","type":"bytes32"},{"internalType":"bytes32","name":"authValueHash","type":"bytes32"},{"internalType":"bytes32","name":"cipherHash","type":"bytes32"},{"internalType":"uint256","name":"nonce","type":"uint256"},{"internalType":"uint256","name":"deadline","type":"uint256"},{"internalType":"uint256","name":"signedAt","type":"uint256"},{"internalType":"bytes","name":"signActionSignature","type":"bytes"},{"internalType":"uint8","name":"v","type":"uint8"},{"internalType":"bytes32","name":"r","type":"bytes32"},{"internalType":"bytes32","name":"s","type":"bytes32"}],"name":"addGuardianWithSignActionSignatureWithSig","outputs":[],"stateMutability":"nonpayable","type":"function"},{"inputs":[{"internalType":"bytes32","name":"authHash","type":"bytes32"}],"name":"getAuthOwner","outputs":[{"internalType":"address","name":"","type":"address"}],"stateMutability":"view","type":"function"},{"inputs":[{"internalType":"address","name":"user","type":"address"}],"name":"getCipherHash","outputs":[{"internalType":"bytes32","name":"","type":"bytes32"}],"stateMutability":"view","type":"function"},{"inputs":[{"internalType":"address","name":"user","type":"address"}],"name":"getGuardianCIDs","outputs":[{"internalType":"bytes32[]","name":"","type":"bytes32[]"}],"stateMutability":"view","type":"function"},{"inputs":[{"internalType":"address","name":"user","type":"address"}],"name":"getGuardianConfig","outputs":[{"internalType":"uint256","name":"threshold","type":"uint256"},{"internalType":"bytes32[]","name":"guardianCIDs","type":"bytes32[]"},{"internalType":"bytes32","name":"cipherHash","type":"bytes32"}],"stateMutability":"view","type":"function"},{"inputs":[{"internalType":"address","name":"user","type":"address"},{"internalType":"bytes32","name":"guardianCIDHash","type":"bytes32"}],"name":"getGuardianEntry","outputs":[{"internalType":"bytes32","name":"","type":"bytes32"}],"stateMutability":"view","type":"function"},{"inputs":[{"internalType":"bytes32","name":"guardianCIDHash","type":"bytes32"}],"name":"getGuardianType","outputs":[{"internalType":"string","name":"name","type":"string"},{"internalType":"bool","name":"isUniqueAuthValue","type":"bool"},{"internalType":"bool","name":"exists","type":"bool"}],"stateMutability":"view","type":"function"},{"inputs":[{"internalType":"address","name":"user","type":"address"}],"name":"getThreshold","outputs":[{"internalType":"uint256","name":"","type":"uint256"}],"stateMutability":"view","type":"function"},{"inputs":[{"internalType":"address","name":"","type":"address"}],"name":"nonces","outputs":[{"internalType":"uint256","name":"","type":"uint256"}],"stateMutability":"view","type":"function"},{"inputs":[],"name":"owner","outputs":[{"internalType":"address","name":"","type":"address"}],"stateMutability":"view","type":"function"},{"inputs":[{"internalType":"bytes32","name":"guardianCIDHash","type":"bytes32"}],"name":"removeGuardian","outputs":[],"stateMutability":"nonpayable","type":"function"},{"inputs":[{"internalType":"address","name":"user","type":"address"},{"internalType":"bytes32","name":"guardianCIDHash","type":"bytes32"},{"internalType":"uint256","name":"nonce","type":"uint256"},{"internalType":"uint256","name":"deadline","type":"uint256"},{"internalType":"uint8","name":"v","type":"uint8"},{"internalType":"bytes32","name":"r","type":"bytes32"},{"internalType":"bytes32","name":"s","type":"bytes32"}],"name":"removeGuardianWithSig","outputs":[],"stateMutability":"nonpayable","type":"function"},{"inputs":[{"internalType":"bytes32","name":"guardianCIDHash","type":"bytes32"},{"internalType":"string","name":"name","type":"string"},{"internalType":"bool","name":"isUniqueAuthValue","type":"bool"}],"name":"setGuardianType","outputs":[],"stateMutability":"nonpayable","type":"function"},{"inputs":[{"internalType":"address","name":"newOwner","type":"address"}],"name":"setOwner","outputs":[],"stateMutability":"nonpayable","type":"function"},{"inputs":[{"internalType":"bytes","name":"newPublicKey","type":"bytes"}],"name":"setSignActionPublicKey","outputs":[],"stateMutability":"nonpayable","type":"function"},{"inputs":[{"internalType":"uint256","name":"threshold","type":"uint256"}],"name":"setThreshold","outputs":[],"stateMutability":"nonpayable","type":"function"},{"inputs":[{"internalType":"address","name":"user","type":"address"},{"internalType":"uint256","name":"threshold","type":"uint256"},{"internalType":"uint256","name":"nonce","type":"uint256"},{"internalType":"uint256","name":"deadline","type":"uint256"},{"internalType":"uint8","name":"v","type":"uint8"},{"internalType":"bytes32","name":"r","type":"bytes32"},{"internalType":"bytes32","name":"s","type":"bytes32"}],"name":"setThresholdWithSig","outputs":[],"stateMutability":"nonpayable","type":"function"},{"inputs":[],"name":"signActionPublicKey","outputs":[{"internalType":"bytes","name":"","type":"bytes"}],"stateMutability":"view","type":"function"}],"evm":{"bytecode":{"linkReferences":{},"object":"608060405234620000a957620026e9803803806200001d81620000c4565b9283398101602082820312620000a95781516001600160401b0392838211620000a9570181601f82011215620000a9578051928311620000ae576200006c601f8401601f1916602001620000c4565b9183835260208483010111620000a9576200009992620000939160208085019101620000ea565b620002d0565b6040516122879081620004428239f35b600080fd5b634e487b7160e01b600052604160045260246000fd5b6040519190601f01601f191682016001600160401b03811183821017620000ae57604052565b60005b838110620000fe5750506000910152565b8181015183820152602001620000ed565b90600182811c9216801562000141575b60208310146200012b57565b634e487b7160e01b600052602260045260246000fd5b91607f16916200011f565b601f811162000159575050565b60009060056000526020600020906020601f850160051c830194106200019c575b601f0160051c01915b8281106200019057505050565b81815560010162000183565b90925082906200017a565b80519091906001600160401b038111620000ae57620001d381620001cd6005546200010f565b6200014c565b602080601f83116001146200021a575081906200020993946000926200020e575b50508160011b916000199060031b1c19161790565b600555565b015190503880620001f4565b6005600052601f198316949091907f036b6384b5eca791c62761152d0c79bb0604c104a5fb6f4eb0703f3154bb3db0926000905b878210620002895750508360019596106200026f575b505050811b01600555565b015160001960f88460031b161c1916905538808062000264565b806001859682949686015181550195019301906200024e565b60409160208252620002c48151809281602086015260208686019101620000ea565b601f01601f1916010190565b600480546001600160a01b0319163390811790915560007f8292fce18fa69edf4db7b94ea2e58241df0ae57f97e0a6c9b29067028bf92d768180a380518062000317575050565b806040604192148015620003df575b6200033190620003e9565b146200036a575b620003658162000358600080516020620026c983398151915293620001a7565b60405191829182620002a2565b0390a1565b805115620003c9576020810151600080516020620026c9833981519152916200036591620003c0907fff0000000000000000000000000000000000000000000000000000000000000016600160fa1b14620003e9565b91505062000338565b634e487b7160e01b600052603260045260246000fd5b5080821462000326565b15620003f157565b60405162461bcd60e51b815260206004820152602260248201527f477561726469616e52656769737472793a20696e76616c6964207369676e206b604482015261657960f01b6064820152608490fdfe6080604052600436101561001257600080fd5b60003560e01c80630a21f30a146101675780630bb6094a1461016257806313af40351461015d5780631cf66c121461015857806332acb08a14610153578063350d99701461014e5780635ab820e01461014957806368b84f5c1461014457806376716bbe1461013f578063789771681461013a5780637ecebe00146101355780638da5cb5b146101305780638e26df0f1461012b578063960bfe04146101265780639f31e53e14610121578063a2c6aff11461011c578063c0841c1a14610117578063d9449d1214610112578063dc68a0c81461010d578063e956bb65146101085763ef530a751461010357600080fd5b610e98565b610e47565b610d6d565b610b24565b610af0565b610abd565b61093f565b610922565b610893565b61086a565b610830565b6107f6565b6107ab565b610738565b61067c565b610448565b6103f8565b61038d565b6102d6565b61026d565b610197565b600435906001600160a01b038216820361018257565b600080fd5b6084359060ff8216820361018257565b346101825760e0366003190112610182576102376101b361016c565b602435906102326044356064356101c8610187565b6040519160208301937ff2205e338494c1ce542f165cfa4190868dc469f194bab3186b8db6bbd17df554855260018060a01b03871660408501528760608501528060808501528160a085015260a0845261022184610c43565b60c4359460a4359451902087611306565b61149c565b005b90815180825260208080930193019160005b828110610259575050505090565b83518552938101939281019260010161024b565b34610182576020366003190112610182576001600160a01b0361028e61016c565b166000526000602052604060002080546102af600160048401549301610f0a565b916102cc6040519384938452606060208501526060840190610239565b9060408301520390f35b34610182576020366003190112610182576102ef61016c565b6004546001600160a01b0380821692610309338514610f5b565b169182156103485782907f8292fce18fa69edf4db7b94ea2e58241df0ae57f97e0a6c9b29067028bf92d76600080a36001600160a01b03191617600455005b60405162461bcd60e51b815260206004820152601f60248201527f477561726469616e52656769737472793a20696e76616c6964206f776e6572006044820152606490fd5b34610182576020366003190112610182576001600160a01b036103ae61016c565b1660005260006020526020600460406000200154604051908152f35b9181601f840112156101825782359167ffffffffffffffff8311610182576020838186019501011161018257565b346101825760a03660031901126101825760843567ffffffffffffffff81116101825761043661042f6102379236906004016103ca565b3691610fa7565b60643560443560243560043533611878565b346101825760603660031901126101825767ffffffffffffffff6004356024358281116101825761047d9036906004016103ca565b90604435801515808203610182576104a060018060a01b03600454163314610f5b565b6104ab851515610fee565b604051956104b887610c27565b6104c3368686610fa7565b875260209660208101928352604081019160019860018452600099898b52600360205260408b209351908151938411610677578b9061050c856105068854610b41565b886110c9565b602093601f86116001146105ce57505061058360016105b196610578876105bd9b987f4665b5e01a7f6ade05d62b42236faa56eff1dc7aa4c99b7338dbf1acd1a27ce39f9e9d9b979861059b9961059598926105c3575b50508160011b916000199060031b1c19161790565b81555b019451151590565b849060ff801983541691151516179055565b51151590565b815461ff00191690151560081b61ff0016179055565b60405193849384611124565b0390a280f35b015190503880610563565b90601f94939294198616916105e888600052602060002090565b95915b8383106106605750505060016105b196818761059b977f4665b5e01a7f6ade05d62b42236faa56eff1dc7aa4c99b7338dbf1acd1a27ce39f9e9d9b97610595976105bd9e9b6105839810610647575b505050811b01815561057b565b015160001960f88460031b161c1916905538808061063a565b8486015187559586019594810194918101916105eb565b610c11565b34610182576101603660031901126101825761069661016c565b60e43567ffffffffffffffff8111610182576106b69036906004016103ca565b916101043560ff8116810361018257610237936101443593610124359360c4359060a4359060843590606435906044359060243590611145565b60005b8381106107035750506000910152565b81810151838201526020016106f3565b9060209161072c815180928185528580860191016106f0565b601f01601f1916010190565b34610182576020366003190112610182576004356000526003602052610791610774604060002061077b60018201549160405193848092610b7b565b0383610c97565b60ff604051938493606085526060850190610713565b918181161515602085015260081c16151560408301520390f35b34610182576040366003190112610182576001600160a01b036107cc61016c565b16600052600060205260026040600020016024356000526020526020604060002054604051908152f35b34610182576020366003190112610182576001600160a01b0361081761016c565b1660005260006020526020604060002054604051908152f35b34610182576020366003190112610182576001600160a01b0361085161016c565b1660005260026020526020604060002054604051908152f35b34610182576000366003190112610182576004546040516001600160a01b039091168152602090f35b346101825760e0366003190112610182576102376108af61016c565b6024359061091d6044356064356108c4610187565b6040519160208301937fa400f0e70d55e122aa5ae7cec68dd62d343c2a2781e04542ec6e741da8deed26855260018060a01b03871660408501528760608501528060808501528160a085015260a0845261022184610c43565b611b93565b34610182576020366003190112610182576102376004353361149c565b34610182576020806003193601126101825767ffffffffffffffff600435818111610182576109729036906004016103ca565b9161098860018060a01b03600454163314610f5b565b61099b610996368585610fa7565b611dac565b508211610677576109b6826109b1600554610b41565b61107a565b600092601f8311600114610a2b5750610a0882807fcd2d494e05faf2e2c628dfba16c95353e578f1158cc859866c1a35fef49fb1fc95600091610a20575b508160011b916000199060031b1c19161790565b6005555b610a1b60405192839283611175565b0390a1005b9050830135386109f4565b6005600052601f198316936000805160206122328339815191529181905b868210610aa5575050837fcd2d494e05faf2e2c628dfba16c95353e578f1158cc859866c1a35fef49fb1fc9510610a8b575b5050600182811b01600555610a0c565b820135600019600385901b60f8161c191690553880610a7b565b80600184958294958801358155019401920190610a49565b3461018257606036600319011261018257610237604051610add81610c5f565b60008152604435602435600435336116f2565b34610182576020366003190112610182576004356000526001602052602060018060a01b0360406000205416604051908152f35b346101825760203660031901126101825761023760043533611b93565b90600182811c92168015610b71575b6020831014610b5b57565b634e487b7160e01b600052602260045260246000fd5b91607f1691610b50565b805460009392610b8a82610b41565b91828252602093600191600181169081600014610bf25750600114610bb1575b5050505050565b90939495506000929192528360002092846000945b838610610bde57505050500101903880808080610baa565b805485870183015294019385908201610bc6565b60ff19168685015250505090151560051b010191503880808080610baa565b634e487b7160e01b600052604160045260246000fd5b6060810190811067ffffffffffffffff82111761067757604052565b60c0810190811067ffffffffffffffff82111761067757604052565b6020810190811067ffffffffffffffff82111761067757604052565b6040810190811067ffffffffffffffff82111761067757604052565b90601f8019910116810190811067ffffffffffffffff82111761067757604052565b6040519060008260055491610ccd83610b41565b80835292602090600190818116908115610d495750600114610cfa575b5050610cf892500383610c97565b565b9150926005600052600080516020612232833981519152936000925b828410610d315750610cf89450505081016020013880610cea565b85548885018301529485019487945092810192610d16565b91505060209250610cf894915060ff191682840152151560051b8201013880610cea565b3461018257600080600319360112610e445760405190808260055491610d9283610b41565b9283835260209460019186600182169182600014610e22575050600114610dda575b5050610dc292500383610c97565b610dd6604051928284938452830190610713565b0390f35b90859250600582526000805160206122328339815191525b858310610e0a575050610dc293508201013880610db4565b80548389018501528794508693909201918101610df2565b9250935050610dc294915060ff191682840152151560051b8201013880610db4565b80fd5b34610182576020366003190112610182576001600160a01b03610e6861016c565b166000526000602052610dd6610e846001604060002001610f0a565b604051918291602083526020830190610239565b346101825761012036600319011261018257610eb261016c565b60a4359060643560443560243560c43560843560ff821682036101825785610ef492610237986101043593610eee82828b8b8b60e43599611a64565b8a611306565b60405193610f0185610c5f565b600085526116f2565b90604051918281549182825260209260208301916000526020600020936000905b828210610f4157505050610cf892500383610c97565b855484526001958601958895509381019390910190610f2b565b15610f6257565b60405162461bcd60e51b815260206004820152601b60248201527f477561726469616e52656769737472793a206e6f74206f776e657200000000006044820152606490fd5b92919267ffffffffffffffff82116106775760405191610fd1601f8201601f191660200184610c97565b829481845281830111610182578281602093846000960137010152565b15610ff557565b60405162461bcd60e51b815260206004820152602260248201527f477561726469616e52656769737472793a20696e76616c6964204349442068616044820152610e6d60f31b6064820152608490fd5b9161105f9183549060031b91821b91600019901b19161790565b9055565b81811061106e575050565b60008155600101611063565b90601f8211611087575050565b610cf8916005600052600080516020612232833981519152906020601f840160051c830193106110bf575b601f0160051c0190611063565b90915081906110b2565b9190601f81116110d857505050565b610cf8926000526020600020906020601f840160051c830193106110bf57601f0160051c0190611063565b908060209392818452848401376000828201840152601f01601f1916010190565b9160209161113d91959495604085526040850191611103565b931515910152565b9981969986868d610cf89f9561116f9a889d9a8a9f9a61042f9a6111699486611a64565b90611306565b94611878565b916020611186938181520191611103565b90565b1561119057565b60405162461bcd60e51b815260206004820152601e60248201527f477561726469616e52656769737472793a20696e76616c6964207573657200006044820152606490fd5b156111dc57565b60405162461bcd60e51b815260206004820152601f60248201527f477561726469616e52656769737472793a20696e76616c6964206e6f6e6365006044820152606490fd5b1561122857565b60405162461bcd60e51b815260206004820152602360248201527f477561726469616e52656769737472793a207369676e617475726520657870696044820152621c995960ea1b6064820152608490fd5b6040513d6000823e3d90fd5b1561128c57565b60405162461bcd60e51b815260206004820152602360248201527f477561726469616e52656769737472793a20696e76616c6964207369676e617460448201526275726560e81b6064820152608490fd5b634e487b7160e01b600052601160045260246000fd5b906001820180921161130157565b6112dd565b9591946001600160a01b0387169460209460009491936113c4929161132c891515611189565b6001600160a01b038b16600090815260026020526040902061135090548b146111d5565b80611432575b5061138c61139a611365611e18565b926040519283918b83019586909160429261190160f01b8352600283015260228201520190565b03601f198101835282610c97565b51902092604051948594859094939260ff6060936080840197845216602083015260408201520152565b838052039060015afa1561142d57600051611420926114049290916113ff91906001600160a01b0316908115159182611423575b5050611285565b6112f3565b6001600160a01b03909216600090815260026020526040902090565b55565b14905038806113f8565b611279565b61143e90421115611221565b38611356565b1561144b57565b60405162461bcd60e51b815260206004820152602360248201527f477561726469616e52656769737472793a20696e76616c6964207468726573686044820152621bdb1960ea1b6064820152608490fd5b60207fbb0549e0aedb1fcc6a27d802df340bb4bd5dc53b1f97f3736a879345232e6def9160018060a01b0316928360005260008252806040600020600181015480156000146114fa57506114f08215611444565b55604051908152a2565b61150e908315159081611513575b50611444565b6114f0565b905083111538611508565b1561152557565b60405162461bcd60e51b815260206004820152602360248201527f477561726469616e52656769737472793a20696e76616c6964206175746820686044820152620c2e6d60eb1b6064820152608490fd5b1561157d57565b60405162461bcd60e51b815260206004820152602560248201527f477561726469616e52656769737472793a20696e76616c696420636970686572604482015264040d0c2e6d60db1b6064820152608490fd5b156115d757565b60405162461bcd60e51b815260206004820152602160248201527f477561726469616e52656769737472793a20677561726469616e2065786973746044820152607360f81b6064820152608490fd5b1561162d57565b60405162461bcd60e51b815260206004820152602660248201527f477561726469616e52656769737472793a206369706865722068617368206d696044820152650e6dac2e8c6d60d31b6064820152608490fd5b634e487b7160e01b600052603260045260246000fd5b80548210156116af5760005260206000200190600090565b611681565b8054906801000000000000000082101561067757816116db91600161105f94018155611697565b819391549060031b91821b91600019901b19161790565b91929093611701851515610fee565b61170c84151561151e565b611717821515611576565b6001600160a01b038316600090815260208190526040902091600383019061175361174c888490600052602052604060002090565b54156115d0565b6004840190815480156000146118685750908190556040519081526001600160a01b038516907f75636b7524fb12ab3000b27811e44668a7191791dd7316fe9b6b6449daabf36890602090a25b6117c386600185016117b282826116b4565b549290600052602052604060002090565b55836117dc866002850190600052602052604060002090565b556117fe60016117f6876000526003602052604060002090565b015460ff1690565b908161185d575b5061185857816118397fc0f8a21cf3b51f550824358b896669327d4a555631b51c610b93a521ce5062ee936118539361216d565b6040519384526001600160a01b0316929081906020820190565b0390a3565b611eef565b905051151538611805565b611873925014611626565b6117a0565b9094817fc0f8a21cf3b51f550824358b896669327d4a555631b51c610b93a521ce5062ee946118539496611839936118b18a1515610fee565b6118bc89151561151e565b6118c7831515611576565b6001600160a01b03841660009081526020819052604090209260038401906118fc61174c8d8490600052602052604060002090565b600485019081548015600014611a545750908190556040519081526001600160a01b038616907f75636b7524fb12ab3000b27811e44668a7191791dd7316fe9b6b6449daabf36890602090a25b61195b8b600186016117b282826116b4565b55886119748b6002860190600052602052604060002090565b5561198e60016117f68c6000526003602052604060002090565b80611a4a575b6119a0575b505061216d565b6119ab918a85612017565b6119b5878961214f565b6119d96119cc826000526001602052604060002090565b546001600160a01b031690565b90611a11846119f2836000526001602052604060002090565b80546001600160a01b0319166001600160a01b03909216919091179055565b6001600160a01b038481169216907eee63f421dc90e8fa06edc3da1c69742ddae51203585c544f462f14b9ca43d6600080a43880611999565b5080511515611994565b611a5f925014611626565b611949565b94929093916040519460208601967fd731c3004d60843ac05ea98e399e1842a26962846f48d9a19d1bdd81d5108b41885260018060a01b031660408701526060860152608085015260a084015260c083015260e082015260e08152610100810181811067ffffffffffffffff8211176106775760405251902090565b15611ae757565b60405162461bcd60e51b815260206004820152602260248201527f477561726469616e52656769737472793a20677561726469616e206d697373696044820152616e6760f01b6064820152608490fd5b60001981019190821161130157565b9190820391821161130157565b8054908115611b7d5760001991820191611b6d8383611697565b909182549160031b1b1916905555565b634e487b7160e01b600052603160045260246000fd5b7f75cd8d9f01b90fe59e0fecfd8de59d529a5088507db54c294254708d1e982c258291611c6e81611bd68160018060a01b03166000526000602052604060002090565b60038101611c23611c05611bf4898490600052602052604060002090565b54611c00811515611ae0565b611b37565b6001840190611c148254611b37565b808203611d0a575b5050611b53565b600096875260205260408620869055856002820181611c618a611c50818590600052602052604060002090565b549390600052602052604060002090565b5580611c7c57505061216d565b6001600160a01b03169180a3565b611c86908961214f565b611c9d6119cc826000526001602052604060002090565b6001600160a01b038581169291168214611cb8575b50611999565b611cdf611ccf826000526001602052604060002090565b80546001600160a01b0319169055565b7eee63f421dc90e8fa06edc3da1c69742ddae51203585c544f462f14b9ca43d68380a4853880611cb2565b611d3c611d27611d1d611d4d9386611697565b90549060031b1c90565b926113ff84611d368388611697565b90611045565b918590600052602052604060002090565b553880611c1c565b15611d5c57565b60405162461bcd60e51b815260206004820152602260248201527f477561726469616e52656769737472793a20696e76616c6964207369676e206b604482015261657960f01b6064820152608490fd5b8051604081148015611e0e575b611dc290611d55565b604160009114611de1575b60409101602001206001600160a01b031690565b508051156116af576020810151611e07906001600160f81b031916600160fa1b14611d55565b6001611dcd565b5060418114611db9565b6f477561726469616e526567697374727960801b6020604051611e3a81610c7b565b601081520152603160f81b6020604051611e5381610c7b565b60018152015260405160208101907f8b73c3c69bb8fe3d512ecc4cf759cc79239f7b179b0ffacaa9a75d522b39400f82527ff4a08922ba67bf5ab276997d6f517a17293eb204f59f8546d9cba864f873738d60408201527fc89efdaa54c0f20c7adf612882df0950f5a951637e0307cdcb4c672f298b8bc660608201524660808201523060a082015260a08152611ee981610c43565b51902090565b60405162461bcd60e51b815260206004820152602360248201527f477561726469616e52656769737472793a20696e76616c69642074696d6573746044820152620616d760ec1b6064820152608490fd5b15611eef57565b15611f4e57565b60405162461bcd60e51b815260206004820152602760248201527f477561726469616e52656769737472793a207369676e61747572652066726f6d6044820152662066757475726560c81b6064820152608490fd5b90611fb6602092828151948592016106f0565b0190565b15611fc157565b60405162461bcd60e51b815260206004820152602860248201527f477561726469616e52656769737472793a20696e76616c6964207369676e207360448201526769676e617475726560c01b6064820152608490fd5b916120b0916120a4949361202c831515611f40565b61203883421015611f47565b61204f6103846120488542611b46565b1115611221565b604080516020810193845260609290921b6bffffffffffffffffffffffff191690820152605480820193909352918252601f199161208e607482610c97565b5190206040519485916020830160209181520190565b03908101845283610c97565b60206040519283806120c56000968794611fa3565b039060025afa1561142d57816121066020926120e28351916121f7565b6040805194855260ff90931660208501529183015260608201529081906080820190565b838052039060015afa1561142d57610cf89051612124610996610cb9565b6001600160a01b0391821680151592909183612143575b505050611fba565b1614905038808061213b565b906040519060208201928352604082015260408152611ee981610c27565b90600182015460018111156000146121bd575060207fbb0549e0aedb1fcc6a27d802df340bb4bd5dc53b1f97f3736a879345232e6def91600180945b556040519384526001600160a01b031692a2565b60018101809111611301577fbb0549e0aedb1fcc6a27d802df340bb4bd5dc53b1f97f3736a879345232e6def9160209160011c80946121a9565b6122046041825114611fba565b6020810151906060604082015191015160001a92601b841061222257565b92601b0160ff8111611301579256fe036b6384b5eca791c62761152d0c79bb0604c104a5fb6f4eb0703f3154bb3db0a2646970667358221220c1ec5120cb1f4e82074867ad9a587023ab665dc98b75c98454c2835e16bbe7b864736f6c63430008180033cd2d494e05faf2e2c628dfba16c95353e578f1158cc859866c1a35fef49fb1fc","opcodes":"PUSH1 0x80 PUSH1 0x40 MSTORE CALLVALUE PUSH3 0xA9 JUMPI PUSH3 0x26E9 DUP1 CODESIZE SUB DUP1 PUSH3 0x1D DUP2 PUSH3 0xC4 JUMP JUMPDEST SWAP3 DUP4 CODECOPY DUP2 ADD PUSH1 0x20 DUP3 DUP3 SUB SLT PUSH3 0xA9 JUMPI DUP2 MLOAD PUSH1 0x1 PUSH1 0x1 PUSH1 0x40 SHL SUB SWAP3 DUP4 DUP3 GT PUSH3 0xA9 JUMPI ADD DUP2 PUSH1 0x1F DUP3 ADD SLT ISZERO PUSH3 0xA9 JUMPI DUP1 MLOAD SWAP3 DUP4 GT PUSH3 0xAE JUMPI PUSH3 0x6C PUSH1 0x1F DUP5 ADD PUSH1 0x1F NOT AND PUSH1 0x20 ADD PUSH3 0xC4 JUMP JUMPDEST SWAP2 DUP4 DUP4 MSTORE PUSH1 0x20 DUP5 DUP4 ADD ADD GT PUSH3 0xA9 JUMPI PUSH3 0x99 SWAP3 PUSH3 0x93 SWAP2 PUSH1 0x20 DUP1 DUP6 ADD SWAP2 ADD PUSH3 0xEA JUMP JUMPDEST PUSH3 0x2D0 JUMP JUMPDEST PUSH1 0x40 MLOAD PUSH2 0x2287 SWAP1 DUP2 PUSH3 0x442 DUP3 CODECOPY RETURN JUMPDEST PUSH1 0x0 DUP1 REVERT JUMPDEST PUSH4 0x4E487B71 PUSH1 0xE0 SHL PUSH1 0x0 MSTORE PUSH1 0x41 PUSH1 0x4 MSTORE PUSH1 0x24 PUSH1 0x0 REVERT JUMPDEST PUSH1 0x40 MLOAD SWAP2 SWAP1 PUSH1 0x1F ADD PUSH1 0x1F NOT AND DUP3 ADD PUSH1 0x1 PUSH1 0x1 PUSH1 0x40 SHL SUB DUP2 GT DUP4 DUP3 LT OR PUSH3 0xAE JUMPI PUSH1 0x40 MSTORE JUMP JUMPDEST PUSH1 0x0 JUMPDEST DUP4 DUP2 LT PUSH3 0xFE JUMPI POP POP PUSH1 0x0 SWAP2 ADD MSTORE JUMP JUMPDEST DUP2 DUP2 ADD MLOAD DUP4 DUP3 ADD MSTORE PUSH1 0x20 ADD PUSH3 0xED JUMP JUMPDEST SWAP1 PUSH1 0x1 DUP3 DUP2 SHR SWAP3 AND DUP1 ISZERO PUSH3 0x141 JUMPI JUMPDEST PUSH1 0x20 DUP4 LT EQ PUSH3 0x12B JUMPI JUMP JUMPDEST PUSH4 0x4E487B71 PUSH1 0xE0 SHL PUSH1 0x0 MSTORE PUSH1 0x22 PUSH1 0x4 MSTORE PUSH1 0x24 PUSH1 0x0 REVERT JUMPDEST SWAP2 PUSH1 0x7F AND SWAP2 PUSH3 0x11F JUMP JUMPDEST PUSH1 0x1F DUP2 GT PUSH3 0x159 JUMPI POP POP JUMP JUMPDEST PUSH1 0x0 SWAP1 PUSH1 0x5 PUSH1 0x0 MSTORE PUSH1 0x20 PUSH1 0x0 KECCAK256 SWAP1 PUSH1 0x20 PUSH1 0x1F DUP6 ADD PUSH1 0x5 SHR DUP4 ADD SWAP5 LT PUSH3 0x19C JUMPI JUMPDEST PUSH1 0x1F ADD PUSH1 0x5 SHR ADD SWAP2 JUMPDEST DUP3 DUP2 LT PUSH3 0x190 JUMPI POP POP POP JUMP JUMPDEST DUP2 DUP2 SSTORE PUSH1 0x1 ADD PUSH3 0x183 JUMP JUMPDEST SWAP1 SWAP3 POP DUP3 SWAP1 PUSH3 0x17A JUMP JUMPDEST DUP1 MLOAD SWAP1 SWAP2 SWAP1 PUSH1 0x1 PUSH1 0x1 PUSH1 0x40 SHL SUB DUP2 GT PUSH3 0xAE JUMPI PUSH3 0x1D3 DUP2 PUSH3 0x1CD PUSH1 0x5 SLOAD PUSH3 0x10F JUMP JUMPDEST PUSH3 0x14C JUMP JUMPDEST PUSH1 0x20 DUP1 PUSH1 0x1F DUP4 GT PUSH1 0x1 EQ PUSH3 0x21A JUMPI POP DUP2 SWAP1 PUSH3 0x209 SWAP4 SWAP5 PUSH1 0x0 SWAP3 PUSH3 0x20E JUMPI JUMPDEST POP POP DUP2 PUSH1 0x1 SHL SWAP2 PUSH1 0x0 NOT SWAP1 PUSH1 0x3 SHL SHR NOT AND OR SWAP1 JUMP JUMPDEST PUSH1 0x5 SSTORE JUMP JUMPDEST ADD MLOAD SWAP1 POP CODESIZE DUP1 PUSH3 0x1F4 JUMP JUMPDEST PUSH1 0x5 PUSH1 0x0 MSTORE PUSH1 0x1F NOT DUP4 AND SWAP5 SWAP1 SWAP2 SWAP1 PUSH32 0x36B6384B5ECA791C62761152D0C79BB0604C104A5FB6F4EB0703F3154BB3DB0 SWAP3 PUSH1 0x0 SWAP1 JUMPDEST DUP8 DUP3 LT PUSH3 0x289 JUMPI POP POP DUP4 PUSH1 0x1 SWAP6 SWAP7 LT PUSH3 0x26F JUMPI JUMPDEST POP POP POP DUP2 SHL ADD PUSH1 0x5 SSTORE JUMP JUMPDEST ADD MLOAD PUSH1 0x0 NOT PUSH1 0xF8 DUP5 PUSH1 0x3 SHL AND SHR NOT AND SWAP1 SSTORE CODESIZE DUP1 DUP1 PUSH3 0x264 JUMP JUMPDEST DUP1 PUSH1 0x1 DUP6 SWAP7 DUP3 SWAP5 SWAP7 DUP7 ADD MLOAD DUP2 SSTORE ADD SWAP6 ADD SWAP4 ADD SWAP1 PUSH3 0x24E JUMP JUMPDEST PUSH1 0x40 SWAP2 PUSH1 0x20 DUP3 MSTORE PUSH3 0x2C4 DUP2 MLOAD DUP1 SWAP3 DUP2 PUSH1 0x20 DUP7 ADD MSTORE PUSH1 0x20 DUP7 DUP7 ADD SWAP2 ADD PUSH3 0xEA JUMP JUMPDEST PUSH1 0x1F ADD PUSH1 0x1F NOT AND ADD ADD SWAP1 JUMP JUMPDEST PUSH1 0x4 DUP1 SLOAD PUSH1 0x1 PUSH1 0x1 PUSH1 0xA0 SHL SUB NOT AND CALLER SWAP1 DUP2 OR SWAP1 SWAP2 SSTORE PUSH1 0x0 PUSH32 0x8292FCE18FA69EDF4DB7B94EA2E58241DF0AE57F97E0A6C9B29067028BF92D76 DUP2 DUP1 LOG3 DUP1 MLOAD DUP1 PUSH3 0x317 JUMPI POP POP JUMP JUMPDEST DUP1 PUSH1 0x40 PUSH1 0x41 SWAP3 EQ DUP1 ISZERO PUSH3 0x3DF JUMPI JUMPDEST PUSH3 0x331 SWAP1 PUSH3 0x3E9 JUMP JUMPDEST EQ PUSH3 0x36A JUMPI JUMPDEST PUSH3 0x365 DUP2 PUSH3 0x358 PUSH1 0x0 DUP1 MLOAD PUSH1 0x20 PUSH3 0x26C9 DUP4 CODECOPY DUP2 MLOAD SWAP2 MSTORE SWAP4 PUSH3 0x1A7 JUMP JUMPDEST PUSH1 0x40 MLOAD SWAP2 DUP3 SWAP2 DUP3 PUSH3 0x2A2 JUMP JUMPDEST SUB SWAP1 LOG1 JUMP JUMPDEST DUP1 MLOAD ISZERO PUSH3 0x3C9 JUMPI PUSH1 0x20 DUP2 ADD MLOAD PUSH1 0x0 DUP1 MLOAD PUSH1 0x20 PUSH3 0x26C9 DUP4 CODECOPY DUP2 MLOAD SWAP2 MSTORE SWAP2 PUSH3 0x365 SWAP2 PUSH3 0x3C0 SWAP1 PUSH32 0xFF00000000000000000000000000000000000000000000000000000000000000 AND PUSH1 0x1 PUSH1 0xFA SHL EQ PUSH3 0x3E9 JUMP JUMPDEST SWAP2 POP POP PUSH3 0x338 JUMP JUMPDEST PUSH4 0x4E487B71 PUSH1 0xE0 SHL PUSH1 0x0 MSTORE PUSH1 0x32 PUSH1 0x4 MSTORE PUSH1 0x24 PUSH1 0x0 REVERT JUMPDEST POP DUP1 DUP3 EQ PUSH3 0x326 JUMP JUMPDEST ISZERO PUSH3 0x3F1 JUMPI JUMP JUMPDEST PUSH1 0x40 MLOAD PUSH3 0x461BCD PUSH1 0xE5 SHL DUP2 MSTORE PUSH1 0x20 PUSH1 0x4 DUP3 ADD MSTORE PUSH1 0x22 PUSH1 0x24 DUP3 ADD MSTORE PUSH32 0x477561726469616E52656769737472793A20696E76616C6964207369676E206B PUSH1 0x44 DUP3 ADD MSTORE PUSH2 0x6579 PUSH1 0xF0 SHL PUSH1 0x64 DUP3 ADD MSTORE PUSH1 0x84 SWAP1 REVERT INVALID PUSH1 0x80 PUSH1 0x40 MSTORE PUSH1 0x4 CALLDATASIZE LT ISZERO PUSH2 0x12 JUMPI PUSH1 0x0 DUP1 REVERT JUMPDEST PUSH1 0x0 CALLDATALOAD PUSH1 0xE0 SHR DUP1 PUSH4 0xA21F30A EQ PUSH2 0x167 JUMPI DUP1 PUSH4 0xBB6094A EQ PUSH2 0x162 JUMPI DUP1 PUSH4 0x13AF4035 EQ PUSH2 0x15D JUMPI DUP1 PUSH4 0x1CF66C12 EQ PUSH2 0x158 JUMPI DUP1 PUSH4 0x32ACB08A EQ PUSH2 0x153 JUMPI DUP1 PUSH4 0x350D9970 EQ PUSH2 0x14E JUMPI DUP1 PUSH4 0x5AB820E0 EQ PUSH2 0x149 JUMPI DUP1 PUSH4 0x68B84F5C EQ PUSH2 0x144 JUMPI DUP1 PUSH4 0x76716BBE EQ PUSH2 0x13F JUMPI DUP1 PUSH4 0x78977168 EQ PUSH2 0x13A JUMPI DUP1 PUSH4 0x7ECEBE00 EQ PUSH2 0x135 JUMPI DUP1 PUSH4 0x8DA5CB5B EQ PUSH2 0x130 JUMPI DUP1 PUSH4 0x8E26DF0F EQ PUSH2 0x12B JUMPI DUP1 PUSH4 0x960BFE04 EQ PUSH2 0x126 JUMPI DUP1 PUSH4 0x9F31E53E EQ PUSH2 0x121 JUMPI DUP1 PUSH4 0xA2C6AFF1 EQ PUSH2 0x11C JUMPI DUP1 PUSH4 0xC0841C1A EQ PUSH2 0x117 JUMPI DUP1 PUSH4 0xD9449D12 EQ PUSH2 0x112 JUMPI DUP1 PUSH4 0xDC68A0C8 EQ PUSH2 0x10D JUMPI DUP1 PUSH4 0xE956BB65 EQ PUSH2 0x108 JUMPI PUSH4 0xEF530A75 EQ PUSH2 0x103 JUMPI PUSH1 0x0 DUP1 REVERT JUMPDEST PUSH2 0xE98 JUMP JUMPDEST PUSH2 0xE47 JUMP JUMPDEST PUSH2 0xD6D JUMP JUMPDEST PUSH2 0xB24 JUMP JUMPDEST PUSH2 0xAF0 JUMP JUMPDEST PUSH2 0xABD JUMP JUMPDEST PUSH2 0x93F JUMP JUMPDEST PUSH2 0x922 JUMP JUMPDEST PUSH2 0x893 JUMP JUMPDEST PUSH2 0x86A JUMP JUMPDEST PUSH2 0x830 JUMP JUMPDEST PUSH2 0x7F6 JUMP JUMPDEST PUSH2 0x7AB JUMP JUMPDEST PUSH2 0x738 JUMP JUMPDEST PUSH2 0x67C JUMP JUMPDEST PUSH2 0x448 JUMP JUMPDEST PUSH2 0x3F8 JUMP JUMPDEST PUSH2 0x38D JUMP JUMPDEST PUSH2 0x2D6 JUMP JUMPDEST PUSH2 0x26D JUMP JUMPDEST PUSH2 0x197 JUMP JUMPDEST PUSH1 0x4 CALLDATALOAD SWAP1 PUSH1 0x1 PUSH1 0x1 PUSH1 0xA0 SHL SUB DUP3 AND DUP3 SUB PUSH2 0x182 JUMPI JUMP JUMPDEST PUSH1 0x0 DUP1 REVERT JUMPDEST PUSH1 0x84 CALLDATALOAD SWAP1 PUSH1 0xFF DUP3 AND DUP3 SUB PUSH2 0x182 JUMPI JUMP JUMPDEST CALLVALUE PUSH2 0x182 JUMPI PUSH1 0xE0 CALLDATASIZE PUSH1 0x3 NOT ADD SLT PUSH2 0x182 JUMPI PUSH2 0x237 PUSH2 0x1B3 PUSH2 0x16C JUMP JUMPDEST PUSH1 0x24 CALLDATALOAD SWAP1 PUSH2 0x232 PUSH1 0x44 CALLDATALOAD PUSH1 0x64 CALLDATALOAD PUSH2 0x1C8 PUSH2 0x187 JUMP JUMPDEST PUSH1 0x40 MLOAD SWAP2 PUSH1 0x20 DUP4 ADD SWAP4 PUSH32 0xF2205E338494C1CE542F165CFA4190868DC469F194BAB3186B8DB6BBD17DF554 DUP6 MSTORE PUSH1 0x1 DUP1 PUSH1 0xA0 SHL SUB DUP8 AND PUSH1 0x40 DUP6 ADD MSTORE DUP8 PUSH1 0x60 DUP6 ADD MSTORE DUP1 PUSH1 0x80 DUP6 ADD MSTORE DUP2 PUSH1 0xA0 DUP6 ADD MSTORE PUSH1 0xA0 DUP5 MSTORE PUSH2 0x221 DUP5 PUSH2 0xC43 JUMP JUMPDEST PUSH1 0xC4 CALLDATALOAD SWAP5 PUSH1 0xA4 CALLDATALOAD SWAP5 MLOAD SWAP1 KECCAK256 DUP8 PUSH2 0x1306 JUMP JUMPDEST PUSH2 0x149C JUMP JUMPDEST STOP JUMPDEST SWAP1 DUP2 MLOAD DUP1 DUP3 MSTORE PUSH1 0x20 DUP1 DUP1 SWAP4 ADD SWAP4 ADD SWAP2 PUSH1 0x0 JUMPDEST DUP3 DUP2 LT PUSH2 0x259 JUMPI POP POP POP POP SWAP1 JUMP JUMPDEST DUP4 MLOAD DUP6 MSTORE SWAP4 DUP2 ADD SWAP4 SWAP3 DUP2 ADD SWAP3 PUSH1 0x1 ADD PUSH2 0x24B JUMP JUMPDEST CALLVALUE PUSH2 0x182 JUMPI PUSH1 0x20 CALLDATASIZE PUSH1 0x3 NOT ADD SLT PUSH2 0x182 JUMPI PUSH1 0x1 PUSH1 0x1 PUSH1 0xA0 SHL SUB PUSH2 0x28E PUSH2 0x16C JUMP JUMPDEST AND PUSH1 0x0 MSTORE PUSH1 0x0 PUSH1 0x20 MSTORE PUSH1 0x40 PUSH1 0x0 KECCAK256 DUP1 SLOAD PUSH2 0x2AF PUSH1 0x1 PUSH1 0x4 DUP5 ADD SLOAD SWAP4 ADD PUSH2 0xF0A JUMP JUMPDEST SWAP2 PUSH2 0x2CC PUSH1 0x40 MLOAD SWAP4 DUP5 SWAP4 DUP5 MSTORE PUSH1 0x60 PUSH1 0x20 DUP6 ADD MSTORE PUSH1 0x60 DUP5 ADD SWAP1 PUSH2 0x239 JUMP JUMPDEST SWAP1 PUSH1 0x40 DUP4 ADD MSTORE SUB SWAP1 RETURN JUMPDEST CALLVALUE PUSH2 0x182 JUMPI PUSH1 0x20 CALLDATASIZE PUSH1 0x3 NOT ADD SLT PUSH2 0x182 JUMPI PUSH2 0x2EF PUSH2 0x16C JUMP JUMPDEST PUSH1 0x4 SLOAD PUSH1 0x1 PUSH1 0x1 PUSH1 0xA0 SHL SUB DUP1 DUP3 AND SWAP3 PUSH2 0x309 CALLER DUP6 EQ PUSH2 0xF5B JUMP JUMPDEST AND SWAP2 DUP3 ISZERO PUSH2 0x348 JUMPI DUP3 SWAP1 PUSH32 0x8292FCE18FA69EDF4DB7B94EA2E58241DF0AE57F97E0A6C9B29067028BF92D76 PUSH1 0x0 DUP1 LOG3 PUSH1 0x1 PUSH1 0x1 PUSH1 0xA0 SHL SUB NOT AND OR PUSH1 0x4 SSTORE STOP JUMPDEST PUSH1 0x40 MLOAD PUSH3 0x461BCD PUSH1 0xE5 SHL DUP2 MSTORE PUSH1 0x20 PUSH1 0x4 DUP3 ADD MSTORE PUSH1 0x1F PUSH1 0x24 DUP3 ADD MSTORE PUSH32 0x477561726469616E52656769737472793A20696E76616C6964206F776E657200 PUSH1 0x44 DUP3 ADD MSTORE PUSH1 0x64 SWAP1 REVERT JUMPDEST CALLVALUE PUSH2 0x182 JUMPI PUSH1 0x20 CALLDATASIZE PUSH1 0x3 NOT ADD SLT PUSH2 0x182 JUMPI PUSH1 0x1 PUSH1 0x1 PUSH1 0xA0 SHL SUB PUSH2 0x3AE PUSH2 0x16C JUMP JUMPDEST AND PUSH1 0x0 MSTORE PUSH1 0x0 PUSH1 0x20 MSTORE PUSH1 0x20 PUSH1 0x4 PUSH1 0x40 PUSH1 0x0 KECCAK256 ADD SLOAD PUSH1 0x40 MLOAD SWAP1 DUP2 MSTORE RETURN JUMPDEST SWAP2 DUP2 PUSH1 0x1F DUP5 ADD SLT ISZERO PUSH2 0x182 JUMPI DUP3 CALLDATALOAD SWAP2 PUSH8 0xFFFFFFFFFFFFFFFF DUP4 GT PUSH2 0x182 JUMPI PUSH1 0x20 DUP4 DUP2 DUP7 ADD SWAP6 ADD ADD GT PUSH2 0x182 JUMPI JUMP JUMPDEST CALLVALUE PUSH2 0x182 JUMPI PUSH1 0xA0 CALLDATASIZE PUSH1 0x3 NOT ADD SLT PUSH2 0x182 JUMPI PUSH1 0x84 CALLDATALOAD PUSH8 0xFFFFFFFFFFFFFFFF DUP2 GT PUSH2 0x182 JUMPI PUSH2 0x436 PUSH2 0x42F PUSH2 0x237 SWAP3 CALLDATASIZE SWAP1 PUSH1 0x4 ADD PUSH2 0x3CA JUMP JUMPDEST CALLDATASIZE SWAP2 PUSH2 0xFA7 JUMP JUMPDEST PUSH1 0x64 CALLDATALOAD PUSH1 0x44 CALLDATALOAD PUSH1 0x24 CALLDATALOAD PUSH1 0x4 CALLDATALOAD CALLER PUSH2 0x1878 JUMP JUMPDEST CALLVALUE PUSH2 0x182 JUMPI PUSH1 0x60 CALLDATASIZE PUSH1 0x3 NOT ADD SLT PUSH2 0x182 JUMPI PUSH8 0xFFFFFFFFFFFFFFFF PUSH1 0x4 CALLDATALOAD PUSH1 0x24 CALLDATALOAD DUP3 DUP2 GT PUSH2 0x182 JUMPI PUSH2 0x47D SWAP1 CALLDATASIZE SWAP1 PUSH1 0x4 ADD PUSH2 0x3CA JUMP JUMPDEST SWAP1 PUSH1 0x44 CALLDATALOAD DUP1 ISZERO ISZERO DUP1 DUP3 SUB PUSH2 0x182 JUMPI PUSH2 0x4A0 PUSH1 0x1 DUP1 PUSH1 0xA0 SHL SUB PUSH1 0x4 SLOAD AND CALLER EQ PUSH2 0xF5B JUMP JUMPDEST PUSH2 0x4AB DUP6 ISZERO ISZERO PUSH2 0xFEE JUMP JUMPDEST PUSH1 0x40 MLOAD SWAP6 PUSH2 0x4B8 DUP8 PUSH2 0xC27 JUMP JUMPDEST PUSH2 0x4C3 CALLDATASIZE DUP7 DUP7 PUSH2 0xFA7 JUMP JUMPDEST DUP8 MSTORE PUSH1 0x20 SWAP7 PUSH1 0x20 DUP2 ADD SWAP3 DUP4 MSTORE PUSH1 0x40 DUP2 ADD SWAP2 PUSH1 0x1 SWAP9 PUSH1 0x1 DUP5 MSTORE PUSH1 0x0 SWAP10 DUP10 DUP12 MSTORE PUSH1 0x3 PUSH1 0x20 MSTORE PUSH1 0x40 DUP12 KECCAK256 SWAP4 MLOAD SWAP1 DUP2 MLOAD SWAP4 DUP5 GT PUSH2 0x677 JUMPI DUP12 SWAP1 PUSH2 0x50C DUP6 PUSH2 0x506 DUP9 SLOAD PUSH2 0xB41 JUMP JUMPDEST DUP9 PUSH2 0x10C9 JUMP JUMPDEST PUSH1 0x20 SWAP4 PUSH1 0x1F DUP7 GT PUSH1 0x1 EQ PUSH2 0x5CE JUMPI POP POP PUSH2 0x583 PUSH1 0x1 PUSH2 0x5B1 SWAP7 PUSH2 0x578 DUP8 PUSH2 0x5BD SWAP12 SWAP9 PUSH32 0x4665B5E01A7F6ADE05D62B42236FAA56EFF1DC7AA4C99B7338DBF1ACD1A27CE3 SWAP16 SWAP15 SWAP14 SWAP12 SWAP8 SWAP9 PUSH2 0x59B SWAP10 PUSH2 0x595 SWAP9 SWAP3 PUSH2 0x5C3 JUMPI JUMPDEST POP POP DUP2 PUSH1 0x1 SHL SWAP2 PUSH1 0x0 NOT SWAP1 PUSH1 0x3 SHL SHR NOT AND OR SWAP1 JUMP JUMPDEST DUP2 SSTORE JUMPDEST ADD SWAP5 MLOAD ISZERO ISZERO SWAP1 JUMP JUMPDEST DUP5 SWAP1 PUSH1 0xFF DUP1 NOT DUP4 SLOAD AND SWAP2 ISZERO ISZERO AND OR SWAP1 SSTORE JUMP JUMPDEST MLOAD ISZERO ISZERO SWAP1 JUMP JUMPDEST DUP2 SLOAD PUSH2 0xFF00 NOT AND SWAP1 ISZERO ISZERO PUSH1 0x8 SHL PUSH2 0xFF00 AND OR SWAP1 SSTORE JUMP JUMPDEST PUSH1 0x40 MLOAD SWAP4 DUP5 SWAP4 DUP5 PUSH2 0x1124 JUMP JUMPDEST SUB SWAP1 LOG2 DUP1 RETURN JUMPDEST ADD MLOAD SWAP1 POP CODESIZE DUP1 PUSH2 0x563 JUMP JUMPDEST SWAP1 PUSH1 0x1F SWAP5 SWAP4 SWAP3 SWAP5 NOT DUP7 AND SWAP2 PUSH2 0x5E8 DUP9 PUSH1 0x0 MSTORE PUSH1 0x20 PUSH1 0x0 KECCAK256 SWAP1 JUMP JUMPDEST SWAP6 SWAP2 JUMPDEST DUP4 DUP4 LT PUSH2 0x660 JUMPI POP POP POP PUSH1 0x1 PUSH2 0x5B1 SWAP7 DUP2 DUP8 PUSH2 0x59B SWAP8 PUSH32 0x4665B5E01A7F6ADE05D62B42236FAA56EFF1DC7AA4C99B7338DBF1ACD1A27CE3 SWAP16 SWAP15 SWAP14 SWAP12 SWAP8 PUSH2 0x595 SWAP8 PUSH2 0x5BD SWAP15 SWAP12 PUSH2 0x583 SWAP9 LT PUSH2 0x647 JUMPI JUMPDEST POP POP POP DUP2 SHL ADD DUP2 SSTORE PUSH2 0x57B JUMP JUMPDEST ADD MLOAD PUSH1 0x0 NOT PUSH1 0xF8 DUP5 PUSH1 0x3 SHL AND SHR NOT AND SWAP1 SSTORE CODESIZE DUP1 DUP1 PUSH2 0x63A JUMP JUMPDEST DUP5 DUP7 ADD MLOAD DUP8 SSTORE SWAP6 DUP7 ADD SWAP6 SWAP5 DUP2 ADD SWAP5 SWAP2 DUP2 ADD SWAP2 PUSH2 0x5EB JUMP JUMPDEST PUSH2 0xC11 JUMP JUMPDEST CALLVALUE PUSH2 0x182 JUMPI PUSH2 0x160 CALLDATASIZE PUSH1 0x3 NOT ADD SLT PUSH2 0x182 JUMPI PUSH2 0x696 PUSH2 0x16C JUMP JUMPDEST PUSH1 0xE4 CALLDATALOAD PUSH8 0xFFFFFFFFFFFFFFFF DUP2 GT PUSH2 0x182 JUMPI PUSH2 0x6B6 SWAP1 CALLDATASIZE SWAP1 PUSH1 0x4 ADD PUSH2 0x3CA JUMP JUMPDEST SWAP2 PUSH2 0x104 CALLDATALOAD PUSH1 0xFF DUP2 AND DUP2 SUB PUSH2 0x182 JUMPI PUSH2 0x237 SWAP4 PUSH2 0x144 CALLDATALOAD SWAP4 PUSH2 0x124 CALLDATALOAD SWAP4 PUSH1 0xC4 CALLDATALOAD SWAP1 PUSH1 0xA4 CALLDATALOAD SWAP1 PUSH1 0x84 CALLDATALOAD SWAP1 PUSH1 0x64 CALLDATALOAD SWAP1 PUSH1 0x44 CALLDATALOAD SWAP1 PUSH1 0x24 CALLDATALOAD SWAP1 PUSH2 0x1145 JUMP JUMPDEST PUSH1 0x0 JUMPDEST DUP4 DUP2 LT PUSH2 0x703 JUMPI POP POP PUSH1 0x0 SWAP2 ADD MSTORE JUMP JUMPDEST DUP2 DUP2 ADD MLOAD DUP4 DUP3 ADD MSTORE PUSH1 0x20 ADD PUSH2 0x6F3 JUMP JUMPDEST SWAP1 PUSH1 0x20 SWAP2 PUSH2 0x72C DUP2 MLOAD DUP1 SWAP3 DUP2 DUP6 MSTORE DUP6 DUP1 DUP7 ADD SWAP2 ADD PUSH2 0x6F0 JUMP JUMPDEST PUSH1 0x1F ADD PUSH1 0x1F NOT AND ADD ADD SWAP1 JUMP JUMPDEST CALLVALUE PUSH2 0x182 JUMPI PUSH1 0x20 CALLDATASIZE PUSH1 0x3 NOT ADD SLT PUSH2 0x182 JUMPI PUSH1 0x4 CALLDATALOAD PUSH1 0x0 MSTORE PUSH1 0x3 PUSH1 0x20 MSTORE PUSH2 0x791 PUSH2 0x774 PUSH1 0x40 PUSH1 0x0 KECCAK256 PUSH2 0x77B PUSH1 0x1 DUP3 ADD SLOAD SWAP2 PUSH1 0x40 MLOAD SWAP4 DUP5 DUP1 SWAP3 PUSH2 0xB7B JUMP JUMPDEST SUB DUP4 PUSH2 0xC97 JUMP JUMPDEST PUSH1 0xFF PUSH1 0x40 MLOAD SWAP4 DUP5 SWAP4 PUSH1 0x60 DUP6 MSTORE PUSH1 0x60 DUP6 ADD SWAP1 PUSH2 0x713 JUMP JUMPDEST SWAP2 DUP2 DUP2 AND ISZERO ISZERO PUSH1 0x20 DUP6 ADD MSTORE PUSH1 0x8 SHR AND ISZERO ISZERO PUSH1 0x40 DUP4 ADD MSTORE SUB SWAP1 RETURN JUMPDEST CALLVALUE PUSH2 0x182 JUMPI PUSH1 0x40 CALLDATASIZE PUSH1 0x3 NOT ADD SLT PUSH2 0x182 JUMPI PUSH1 0x1 PUSH1 0x1 PUSH1 0xA0 SHL SUB PUSH2 0x7CC PUSH2 0x16C JUMP JUMPDEST AND PUSH1 0x0 MSTORE PUSH1 0x0 PUSH1 0x20 MSTORE PUSH1 0x2 PUSH1 0x40 PUSH1 0x0 KECCAK256 ADD PUSH1 0x24 CALLDATALOAD PUSH1 0x0 MSTORE PUSH1 0x20 MSTORE PUSH1 0x20 PUSH1 0x40 PUSH1 0x0 KECCAK256 SLOAD PUSH1 0x40 MLOAD SWAP1 DUP2 MSTORE RETURN JUMPDEST CALLVALUE PUSH2 0x182 JUMPI PUSH1 0x20 CALLDATASIZE PUSH1 0x3 NOT ADD SLT PUSH2 0x182 JUMPI PUSH1 0x1 PUSH1 0x1 PUSH1 0xA0 SHL SUB PUSH2 0x817 PUSH2 0x16C JUMP JUMPDEST AND PUSH1 0x0 MSTORE PUSH1 0x0 PUSH1 0x20 MSTORE PUSH1 0x20 PUSH1 0x40 PUSH1 0x0 KECCAK256 SLOAD PUSH1 0x40 MLOAD SWAP1 DUP2 MSTORE RETURN JUMPDEST CALLVALUE PUSH2 0x182 JUMPI PUSH1 0x20 CALLDATASIZE PUSH1 0x3 NOT ADD SLT PUSH2 0x182 JUMPI PUSH1 0x1 PUSH1 0x1 PUSH1 0xA0 SHL SUB PUSH2 0x851 PUSH2 0x16C JUMP JUMPDEST AND PUSH1 0x0 MSTORE PUSH1 0x2 PUSH1 0x20 MSTORE PUSH1 0x20 PUSH1 0x40 PUSH1 0x0 KECCAK256 SLOAD PUSH1 0x40 MLOAD SWAP1 DUP2 MSTORE RETURN JUMPDEST CALLVALUE PUSH2 0x182 JUMPI PUSH1 0x0 CALLDATASIZE PUSH1 0x3 NOT ADD SLT PUSH2 0x182 JUMPI PUSH1 0x4 SLOAD PUSH1 0x40 MLOAD PUSH1 0x1 PUSH1 0x1 PUSH1 0xA0 SHL SUB SWAP1 SWAP2 AND DUP2 MSTORE PUSH1 0x20 SWAP1 RETURN JUMPDEST CALLVALUE PUSH2 0x182 JUMPI PUSH1 0xE0 CALLDATASIZE PUSH1 0x3 NOT ADD SLT PUSH2 0x182 JUMPI PUSH2 0x237 PUSH2 0x8AF PUSH2 0x16C JUMP JUMPDEST PUSH1 0x24 CALLDATALOAD SWAP1 PUSH2 0x91D PUSH1 0x44 CALLDATALOAD PUSH1 0x64 CALLDATALOAD PUSH2 0x8C4 PUSH2 0x187 JUMP JUMPDEST PUSH1 0x40 MLOAD SWAP2 PUSH1 0x20 DUP4 ADD SWAP4 PUSH32 0xA400F0E70D55E122AA5AE7CEC68DD62D343C2A2781E04542EC6E741DA8DEED26 DUP6 MSTORE PUSH1 0x1 DUP1 PUSH1 0xA0 SHL SUB DUP8 AND PUSH1 0x40 DUP6 ADD MSTORE DUP8 PUSH1 0x60 DUP6 ADD MSTORE DUP1 PUSH1 0x80 DUP6 ADD MSTORE DUP2 PUSH1 0xA0 DUP6 ADD MSTORE PUSH1 0xA0 DUP5 MSTORE PUSH2 0x221 DUP5 PUSH2 0xC43 JUMP JUMPDEST PUSH2 0x1B93 JUMP JUMPDEST CALLVALUE PUSH2 0x182 JUMPI PUSH1 0x20 CALLDATASIZE PUSH1 0x3 NOT ADD SLT PUSH2 0x182 JUMPI PUSH2 0x237 PUSH1 0x4 CALLDATALOAD CALLER PUSH2 0x149C JUMP JUMPDEST CALLVALUE PUSH2 0x182 JUMPI PUSH1 0x20 DUP1 PUSH1 0x3 NOT CALLDATASIZE ADD SLT PUSH2 0x182 JUMPI PUSH8 0xFFFFFFFFFFFFFFFF PUSH1 0x4 CALLDATALOAD DUP2 DUP2 GT PUSH2 0x182 JUMPI PUSH2 0x972 SWAP1 CALLDATASIZE SWAP1 PUSH1 0x4 ADD PUSH2 0x3CA JUMP JUMPDEST SWAP2 PUSH2 0x988 PUSH1 0x1 DUP1 PUSH1 0xA0 SHL SUB PUSH1 0x4 SLOAD AND CALLER EQ PUSH2 0xF5B JUMP JUMPDEST PUSH2 0x99B PUSH2 0x996 CALLDATASIZE DUP6 DUP6 PUSH2 0xFA7 JUMP JUMPDEST PUSH2 0x1DAC JUMP JUMPDEST POP DUP3 GT PUSH2 0x677 JUMPI PUSH2 0x9B6 DUP3 PUSH2 0x9B1 PUSH1 0x5 SLOAD PUSH2 0xB41 JUMP JUMPDEST PUSH2 0x107A JUMP JUMPDEST PUSH1 0x0 SWAP3 PUSH1 0x1F DUP4 GT PUSH1 0x1 EQ PUSH2 0xA2B JUMPI POP PUSH2 0xA08 DUP3 DUP1 PUSH32 0xCD2D494E05FAF2E2C628DFBA16C95353E578F1158CC859866C1A35FEF49FB1FC SWAP6 PUSH1 0x0 SWAP2 PUSH2 0xA20 JUMPI JUMPDEST POP DUP2 PUSH1 0x1 SHL SWAP2 PUSH1 0x0 NOT SWAP1 PUSH1 0x3 SHL SHR NOT AND OR SWAP1 JUMP JUMPDEST PUSH1 0x5 SSTORE JUMPDEST PUSH2 0xA1B PUSH1 0x40 MLOAD SWAP3 DUP4 SWAP3 DUP4 PUSH2 0x1175 JUMP JUMPDEST SUB SWAP1 LOG1 STOP JUMPDEST SWAP1 POP DUP4 ADD CALLDATALOAD CODESIZE PUSH2 0x9F4 JUMP JUMPDEST PUSH1 0x5 PUSH1 0x0 MSTORE PUSH1 0x1F NOT DUP4 AND SWAP4 PUSH1 0x0 DUP1 MLOAD PUSH1 0x20 PUSH2 0x2232 DUP4 CODECOPY DUP2 MLOAD SWAP2 MSTORE SWAP2 DUP2 SWAP1 JUMPDEST DUP7 DUP3 LT PUSH2 0xAA5 JUMPI POP POP DUP4 PUSH32 0xCD2D494E05FAF2E2C628DFBA16C95353E578F1158CC859866C1A35FEF49FB1FC SWAP6 LT PUSH2 0xA8B JUMPI JUMPDEST POP POP PUSH1 0x1 DUP3 DUP2 SHL ADD PUSH1 0x5 SSTORE PUSH2 0xA0C JUMP JUMPDEST DUP3 ADD CALLDATALOAD PUSH1 0x0 NOT PUSH1 0x3 DUP6 SWAP1 SHL PUSH1 0xF8 AND SHR NOT AND SWAP1 SSTORE CODESIZE DUP1 PUSH2 0xA7B JUMP JUMPDEST DUP1 PUSH1 0x1 DUP5 SWAP6 DUP3 SWAP5 SWAP6 DUP9 ADD CALLDATALOAD DUP2 SSTORE ADD SWAP5 ADD SWAP3 ADD SWAP1 PUSH2 0xA49 JUMP JUMPDEST CALLVALUE PUSH2 0x182 JUMPI PUSH1 0x60 CALLDATASIZE PUSH1 0x3 NOT ADD SLT PUSH2 0x182 JUMPI PUSH2 0x237 PUSH1 0x40 MLOAD PUSH2 0xADD DUP2 PUSH2 0xC5F JUMP JUMPDEST PUSH1 0x0 DUP2 MSTORE PUSH1 0x44 CALLDATALOAD PUSH1 0x24 CALLDATALOAD PUSH1 0x4 CALLDATALOAD CALLER PUSH2 0x16F2 JUMP JUMPDEST CALLVALUE PUSH2 0x182 JUMPI PUSH1 0x20 CALLDATASIZE PUSH1 0x3 NOT ADD SLT PUSH2 0x182 JUMPI PUSH1 0x4 CALLDATALOAD PUSH1 0x0 MSTORE PUSH1 0x1 PUSH1 0x20 MSTORE PUSH1 0x20 PUSH1 0x1 DUP1 PUSH1 0xA0 SHL SUB PUSH1 0x40 PUSH1 0x0 KECCAK256 SLOAD AND PUSH1 0x40 MLOAD SWAP1 DUP2 MSTORE RETURN JUMPDEST CALLVALUE PUSH2 0x182 JUMPI PUSH1 0x20 CALLDATASIZE PUSH1 0x3 NOT ADD SLT PUSH2 0x182 JUMPI PUSH2 0x237 PUSH1 0x4 CALLDATALOAD CALLER PUSH2 0x1B93 JUMP JUMPDEST SWAP1 PUSH1 0x1 DUP3 DUP2 SHR SWAP3 AND DUP1 ISZERO PUSH2 0xB71 JUMPI JUMPDEST PUSH1 0x20 DUP4 LT EQ PUSH2 0xB5B JUMPI JUMP JUMPDEST PUSH4 0x4E487B71 PUSH1 0xE0 SHL PUSH1 0x0 MSTORE PUSH1 0x22 PUSH1 0x4 MSTORE PUSH1 0x24 PUSH1 0x0 REVERT JUMPDEST SWAP2 PUSH1 0x7F AND SWAP2 PUSH2 0xB50 JUMP JUMPDEST DUP1 SLOAD PUSH1 0x0 SWAP4 SWAP3 PUSH2 0xB8A DUP3 PUSH2 0xB41 JUMP JUMPDEST SWAP2 DUP3 DUP3 MSTORE PUSH1 0x20 SWAP4 PUSH1 0x1 SWAP2 PUSH1 0x1 DUP2 AND SWAP1 DUP2 PUSH1 0x0 EQ PUSH2 0xBF2 JUMPI POP PUSH1 0x1 EQ PUSH2 0xBB1 JUMPI JUMPDEST POP POP POP POP POP JUMP JUMPDEST SWAP1 SWAP4 SWAP5 SWAP6 POP PUSH1 0x0 SWAP3 SWAP2 SWAP3 MSTORE DUP4 PUSH1 0x0 KECCAK256 SWAP3 DUP5 PUSH1 0x0 SWAP5 JUMPDEST DUP4 DUP7 LT PUSH2 0xBDE JUMPI POP POP POP POP ADD ADD SWAP1 CODESIZE DUP1 DUP1 DUP1 DUP1 PUSH2 0xBAA JUMP JUMPDEST DUP1 SLOAD DUP6 DUP8 ADD DUP4 ADD MSTORE SWAP5 ADD SWAP4 DUP6 SWAP1 DUP3 ADD PUSH2 0xBC6 JUMP JUMPDEST PUSH1 0xFF NOT AND DUP7 DUP6 ADD MSTORE POP POP POP SWAP1 ISZERO ISZERO PUSH1 0x5 SHL ADD ADD SWAP2 POP CODESIZE DUP1 DUP1 DUP1 DUP1 PUSH2 0xBAA JUMP JUMPDEST PUSH4 0x4E487B71 PUSH1 0xE0 SHL PUSH1 0x0 MSTORE PUSH1 0x41 PUSH1 0x4 MSTORE PUSH1 0x24 PUSH1 0x0 REVERT JUMPDEST PUSH1 0x60 DUP2 ADD SWAP1 DUP2 LT PUSH8 0xFFFFFFFFFFFFFFFF DUP3 GT OR PUSH2 0x677 JUMPI PUSH1 0x40 MSTORE JUMP JUMPDEST PUSH1 0xC0 DUP2 ADD SWAP1 DUP2 LT PUSH8 0xFFFFFFFFFFFFFFFF DUP3 GT OR PUSH2 0x677 JUMPI PUSH1 0x40 MSTORE JUMP JUMPDEST PUSH1 0x20 DUP2 ADD SWAP1 DUP2 LT PUSH8 0xFFFFFFFFFFFFFFFF DUP3 GT OR PUSH2 0x677 JUMPI PUSH1 0x40 MSTORE JUMP JUMPDEST PUSH1 0x40 DUP2 ADD SWAP1 DUP2 LT PUSH8 0xFFFFFFFFFFFFFFFF DUP3 GT OR PUSH2 0x677 JUMPI PUSH1 0x40 MSTORE JUMP JUMPDEST SWAP1 PUSH1 0x1F DUP1 NOT SWAP2 ADD AND DUP2 ADD SWAP1 DUP2 LT PUSH8 0xFFFFFFFFFFFFFFFF DUP3 GT OR PUSH2 0x677 JUMPI PUSH1 0x40 MSTORE JUMP JUMPDEST PUSH1 0x40 MLOAD SWAP1 PUSH1 0x0 DUP3 PUSH1 0x5 SLOAD SWAP2 PUSH2 0xCCD DUP4 PUSH2 0xB41 JUMP JUMPDEST DUP1 DUP4 MSTORE SWAP3 PUSH1 0x20 SWAP1 PUSH1 0x1 SWAP1 DUP2 DUP2 AND SWAP1 DUP2 ISZERO PUSH2 0xD49 JUMPI POP PUSH1 0x1 EQ PUSH2 0xCFA JUMPI JUMPDEST POP POP PUSH2 0xCF8 SWAP3 POP SUB DUP4 PUSH2 0xC97 JUMP JUMPDEST JUMP JUMPDEST SWAP2 POP SWAP3 PUSH1 0x5 PUSH1 0x0 MSTORE PUSH1 0x0 DUP1 MLOAD PUSH1 0x20 PUSH2 0x2232 DUP4 CODECOPY DUP2 MLOAD SWAP2 MSTORE SWAP4 PUSH1 0x0 SWAP3 JUMPDEST DUP3 DUP5 LT PUSH2 0xD31 JUMPI POP PUSH2 0xCF8 SWAP5 POP POP POP DUP2 ADD PUSH1 0x20 ADD CODESIZE DUP1 PUSH2 0xCEA JUMP JUMPDEST DUP6 SLOAD DUP9 DUP6 ADD DUP4 ADD MSTORE SWAP5 DUP6 ADD SWAP5 DUP8 SWAP5 POP SWAP3 DUP2 ADD SWAP3 PUSH2 0xD16 JUMP JUMPDEST SWAP2 POP POP PUSH1 0x20 SWAP3 POP PUSH2 0xCF8 SWAP5 SWAP2 POP PUSH1 0xFF NOT AND DUP3 DUP5 ADD MSTORE ISZERO ISZERO PUSH1 0x5 SHL DUP3 ADD ADD CODESIZE DUP1 PUSH2 0xCEA JUMP JUMPDEST CALLVALUE PUSH2 0x182 JUMPI PUSH1 0x0 DUP1 PUSH1 0x3 NOT CALLDATASIZE ADD SLT PUSH2 0xE44 JUMPI PUSH1 0x40 MLOAD SWAP1 DUP1 DUP3 PUSH1 0x5 SLOAD SWAP2 PUSH2 0xD92 DUP4 PUSH2 0xB41 JUMP JUMPDEST SWAP3 DUP4 DUP4 MSTORE PUSH1 0x20 SWAP5 PUSH1 0x1 SWAP2 DUP7 PUSH1 0x1 DUP3 AND SWAP2 DUP3 PUSH1 0x0 EQ PUSH2 0xE22 JUMPI POP POP PUSH1 0x1 EQ PUSH2 0xDDA JUMPI JUMPDEST POP POP PUSH2 0xDC2 SWAP3 POP SUB DUP4 PUSH2 0xC97 JUMP JUMPDEST PUSH2 0xDD6 PUSH1 0x40 MLOAD SWAP3 DUP3 DUP5 SWAP4 DUP5 MSTORE DUP4 ADD SWAP1 PUSH2 0x713 JUMP JUMPDEST SUB SWAP1 RETURN JUMPDEST SWAP1 DUP6 SWAP3 POP PUSH1 0x5 DUP3 MSTORE PUSH1 0x0 DUP1 MLOAD PUSH1 0x20 PUSH2 0x2232 DUP4 CODECOPY DUP2 MLOAD SWAP2 MSTORE JUMPDEST DUP6 DUP4 LT PUSH2 0xE0A JUMPI POP POP PUSH2 0xDC2 SWAP4 POP DUP3 ADD ADD CODESIZE DUP1 PUSH2 0xDB4 JUMP JUMPDEST DUP1 SLOAD DUP4 DUP10 ADD DUP6 ADD MSTORE DUP8 SWAP5 POP DUP7 SWAP4 SWAP1 SWAP3 ADD SWAP2 DUP2 ADD PUSH2 0xDF2 JUMP JUMPDEST SWAP3 POP SWAP4 POP POP PUSH2 0xDC2 SWAP5 SWAP2 POP PUSH1 0xFF NOT AND DUP3 DUP5 ADD MSTORE ISZERO ISZERO PUSH1 0x5 SHL DUP3 ADD ADD CODESIZE DUP1 PUSH2 0xDB4 JUMP JUMPDEST DUP1 REVERT JUMPDEST CALLVALUE PUSH2 0x182 JUMPI PUSH1 0x20 CALLDATASIZE PUSH1 0x3 NOT ADD SLT PUSH2 0x182 JUMPI PUSH1 0x1 PUSH1 0x1 PUSH1 0xA0 SHL SUB PUSH2 0xE68 PUSH2 0x16C JUMP JUMPDEST AND PUSH1 0x0 MSTORE PUSH1 0x0 PUSH1 0x20 MSTORE PUSH2 0xDD6 PUSH2 0xE84 PUSH1 0x1 PUSH1 0x40 PUSH1 0x0 KECCAK256 ADD PUSH2 0xF0A JUMP JUMPDEST PUSH1 0x40 MLOAD SWAP2 DUP3 SWAP2 PUSH1 0x20 DUP4 MSTORE PUSH1 0x20 DUP4 ADD SWAP1 PUSH2 0x239 JUMP JUMPDEST CALLVALUE PUSH2 0x182 JUMPI PUSH2 0x120 CALLDATASIZE PUSH1 0x3 NOT ADD SLT PUSH2 0x182 JUMPI PUSH2 0xEB2 PUSH2 0x16C JUMP JUMPDEST PUSH1 0xA4 CALLDATALOAD SWAP1 PUSH1 0x64 CALLDATALOAD PUSH1 0x44 CALLDATALOAD PUSH1 0x24 CALLDATALOAD PUSH1 0xC4 CALLDATALOAD PUSH1 0x84 CALLDATALOAD PUSH1 0xFF DUP3 AND DUP3 SUB PUSH2 0x182 JUMPI DUP6 PUSH2 0xEF4 SWAP3 PUSH2 0x237 SWAP9 PUSH2 0x104 CALLDATALOAD SWAP4 PUSH2 0xEEE DUP3 DUP3 DUP12 DUP12 DUP12 PUSH1 0xE4 CALLDATALOAD SWAP10 PUSH2 0x1A64 JUMP JUMPDEST DUP11 PUSH2 0x1306 JUMP JUMPDEST PUSH1 0x40 MLOAD SWAP4 PUSH2 0xF01 DUP6 PUSH2 0xC5F JUMP JUMPDEST PUSH1 0x0 DUP6 MSTORE PUSH2 0x16F2 JUMP JUMPDEST SWAP1 PUSH1 0x40 MLOAD SWAP2 DUP3 DUP2 SLOAD SWAP2 DUP3 DUP3 MSTORE PUSH1 0x20 SWAP3 PUSH1 0x20 DUP4 ADD SWAP2 PUSH1 0x0 MSTORE PUSH1 0x20 PUSH1 0x0 KECCAK256 SWAP4 PUSH1 0x0 SWAP1 JUMPDEST DUP3 DUP3 LT PUSH2 0xF41 JUMPI POP POP POP PUSH2 0xCF8 SWAP3 POP SUB DUP4 PUSH2 0xC97 JUMP JUMPDEST DUP6 SLOAD DUP5 MSTORE PUSH1 0x1 SWAP6 DUP7 ADD SWAP6 DUP9 SWAP6 POP SWAP4 DUP2 ADD SWAP4 SWAP1 SWAP2 ADD SWAP1 PUSH2 0xF2B JUMP JUMPDEST ISZERO PUSH2 0xF62 JUMPI JUMP JUMPDEST PUSH1 0x40 MLOAD PUSH3 0x461BCD PUSH1 0xE5 SHL DUP2 MSTORE PUSH1 0x20 PUSH1 0x4 DUP3 ADD MSTORE PUSH1 0x1B PUSH1 0x24 DUP3 ADD MSTORE PUSH32 0x477561726469616E52656769737472793A206E6F74206F776E65720000000000 PUSH1 0x44 DUP3 ADD MSTORE PUSH1 0x64 SWAP1 REVERT JUMPDEST SWAP3 SWAP2 SWAP3 PUSH8 0xFFFFFFFFFFFFFFFF DUP3 GT PUSH2 0x677 JUMPI PUSH1 0x40 MLOAD SWAP2 PUSH2 0xFD1 PUSH1 0x1F DUP3 ADD PUSH1 0x1F NOT AND PUSH1 0x20 ADD DUP5 PUSH2 0xC97 JUMP JUMPDEST DUP3 SWAP5 DUP2 DUP5 MSTORE DUP2 DUP4 ADD GT PUSH2 0x182 JUMPI DUP3 DUP2 PUSH1 0x20 SWAP4 DUP5 PUSH1 0x0 SWAP7 ADD CALLDATACOPY ADD ADD MSTORE JUMP JUMPDEST ISZERO PUSH2 0xFF5 JUMPI JUMP JUMPDEST PUSH1 0x40 MLOAD PUSH3 0x461BCD PUSH1 0xE5 SHL DUP2 MSTORE PUSH1 0x20 PUSH1 0x4 DUP3 ADD MSTORE PUSH1 0x22 PUSH1 0x24 DUP3 ADD MSTORE PUSH32 0x477561726469616E52656769737472793A20696E76616C696420434944206861 PUSH1 0x44 DUP3 ADD MSTORE PUSH2 0xE6D PUSH1 0xF3 SHL PUSH1 0x64 DUP3 ADD MSTORE PUSH1 0x84 SWAP1 REVERT JUMPDEST SWAP2 PUSH2 0x105F SWAP2 DUP4 SLOAD SWAP1 PUSH1 0x3 SHL SWAP2 DUP3 SHL SWAP2 PUSH1 0x0 NOT SWAP1 SHL NOT AND OR SWAP1 JUMP JUMPDEST SWAP1 SSTORE JUMP JUMPDEST DUP2 DUP2 LT PUSH2 0x106E JUMPI POP POP JUMP JUMPDEST PUSH1 0x0 DUP2 SSTORE PUSH1 0x1 ADD PUSH2 0x1063 JUMP JUMPDEST SWAP1 PUSH1 0x1F DUP3 GT PUSH2 0x1087 JUMPI POP POP JUMP JUMPDEST PUSH2 0xCF8 SWAP2 PUSH1 0x5 PUSH1 0x0 MSTORE PUSH1 0x0 DUP1 MLOAD PUSH1 0x20 PUSH2 0x2232 DUP4 CODECOPY DUP2 MLOAD SWAP2 MSTORE SWAP1 PUSH1 0x20 PUSH1 0x1F DUP5 ADD PUSH1 0x5 SHR DUP4 ADD SWAP4 LT PUSH2 0x10BF JUMPI JUMPDEST PUSH1 0x1F ADD PUSH1 0x5 SHR ADD SWAP1 PUSH2 0x1063 JUMP JUMPDEST SWAP1 SWAP2 POP DUP2 SWAP1 PUSH2 0x10B2 JUMP JUMPDEST SWAP2 SWAP1 PUSH1 0x1F DUP2 GT PUSH2 0x10D8 JUMPI POP POP POP JUMP JUMPDEST PUSH2 0xCF8 SWAP3 PUSH1 0x0 MSTORE PUSH1 0x20 PUSH1 0x0 KECCAK256 SWAP1 PUSH1 0x20 PUSH1 0x1F DUP5 ADD PUSH1 0x5 SHR DUP4 ADD SWAP4 LT PUSH2 0x10BF JUMPI PUSH1 0x1F ADD PUSH1 0x5 SHR ADD SWAP1 PUSH2 0x1063 JUMP JUMPDEST SWAP1 DUP1 PUSH1 0x20 SWAP4 SWAP3 DUP2 DUP5 MSTORE DUP5 DUP5 ADD CALLDATACOPY PUSH1 0x0 DUP3 DUP3 ADD DUP5 ADD MSTORE PUSH1 0x1F ADD PUSH1 0x1F NOT AND ADD ADD SWAP1 JUMP JUMPDEST SWAP2 PUSH1 0x20 SWAP2 PUSH2 0x113D SWAP2 SWAP6 SWAP5 SWAP6 PUSH1 0x40 DUP6 MSTORE PUSH1 0x40 DUP6 ADD SWAP2 PUSH2 0x1103 JUMP JUMPDEST SWAP4 ISZERO ISZERO SWAP2 ADD MSTORE JUMP JUMPDEST SWAP10 DUP2 SWAP7 SWAP10 DUP7 DUP7 DUP14 PUSH2 0xCF8 SWAP16 SWAP6 PUSH2 0x116F SWAP11 DUP9 SWAP14 SWAP11 DUP11 SWAP16 SWAP11 PUSH2 0x42F SWAP11 PUSH2 0x1169 SWAP5 DUP7 PUSH2 0x1A64 JUMP JUMPDEST SWAP1 PUSH2 0x1306 JUMP JUMPDEST SWAP5 PUSH2 0x1878 JUMP JUMPDEST SWAP2 PUSH1 0x20 PUSH2 0x1186 SWAP4 DUP2 DUP2 MSTORE ADD SWAP2 PUSH2 0x1103 JUMP JUMPDEST SWAP1 JUMP JUMPDEST ISZERO PUSH2 0x1190 JUMPI JUMP JUMPDEST PUSH1 0x40 MLOAD PUSH3 0x461BCD PUSH1 0xE5 SHL DUP2 MSTORE PUSH1 0x20 PUSH1 0x4 DUP3 ADD MSTORE PUSH1 0x1E PUSH1 0x24 DUP3 ADD MSTORE PUSH32 0x477561726469616E52656769737472793A20696E76616C696420757365720000 PUSH1 0x44 DUP3 ADD MSTORE PUSH1 0x64 SWAP1 REVERT JUMPDEST ISZERO PUSH2 0x11DC JUMPI JUMP JUMPDEST PUSH1 0x40 MLOAD PUSH3 0x461BCD PUSH1 0xE5 SHL DUP2 MSTORE PUSH1 0x20 PUSH1 0x4 DUP3 ADD MSTORE PUSH1 0x1F PUSH1 0x24 DUP3 ADD MSTORE PUSH32 0x477561726469616E52656769737472793A20696E76616C6964206E6F6E636500 PUSH1 0x44 DUP3 ADD MSTORE PUSH1 0x64 SWAP1 REVERT JUMPDEST ISZERO PUSH2 0x1228 JUMPI JUMP JUMPDEST PUSH1 0x40 MLOAD PUSH3 0x461BCD PUSH1 0xE5 SHL DUP2 MSTORE PUSH1 0x20 PUSH1 0x4 DUP3 ADD MSTORE PUSH1 0x23 PUSH1 0x24 DUP3 ADD MSTORE PUSH32 0x477561726469616E52656769737472793A207369676E61747572652065787069 PUSH1 0x44 DUP3 ADD MSTORE PUSH3 0x1C9959 PUSH1 0xEA SHL PUSH1 0x64 DUP3 ADD MSTORE PUSH1 0x84 SWAP1 REVERT JUMPDEST PUSH1 0x40 MLOAD RETURNDATASIZE PUSH1 0x0 DUP3 RETURNDATACOPY RETURNDATASIZE SWAP1 REVERT JUMPDEST ISZERO PUSH2 0x128C JUMPI JUMP JUMPDEST PUSH1 0x40 MLOAD PUSH3 0x461BCD PUSH1 0xE5 SHL DUP2 MSTORE PUSH1 0x20 PUSH1 0x4 DUP3 ADD MSTORE PUSH1 0x23 PUSH1 0x24 DUP3 ADD MSTORE PUSH32 0x477561726469616E52656769737472793A20696E76616C6964207369676E6174 PUSH1 0x44 DUP3 ADD MSTORE PUSH3 0x757265 PUSH1 0xE8 SHL PUSH1 0x64 DUP3 ADD MSTORE PUSH1 0x84 SWAP1 REVERT JUMPDEST PUSH4 0x4E487B71 PUSH1 0xE0 SHL PUSH1 0x0 MSTORE PUSH1 0x11 PUSH1 0x4 MSTORE PUSH1 0x24 PUSH1 0x0 REVERT JUMPDEST SWAP1 PUSH1 0x1 DUP3 ADD DUP1 SWAP3 GT PUSH2 0x1301 JUMPI JUMP JUMPDEST PUSH2 0x12DD JUMP JUMPDEST SWAP6 SWAP2 SWAP5 PUSH1 0x1 PUSH1 0x1 PUSH1 0xA0 SHL SUB DUP8 AND SWAP5 PUSH1 0x20 SWAP5 PUSH1 0x0 SWAP5 SWAP2 SWAP4 PUSH2 0x13C4 SWAP3 SWAP2 PUSH2 0x132C DUP10 ISZERO ISZERO PUSH2 0x1189 JUMP JUMPDEST PUSH1 0x1 PUSH1 0x1 PUSH1 0xA0 SHL SUB DUP12 AND PUSH1 0x0 SWAP1 DUP2 MSTORE PUSH1 0x2 PUSH1 0x20 MSTORE PUSH1 0x40 SWAP1 KECCAK256 PUSH2 0x1350 SWAP1 SLOAD DUP12 EQ PUSH2 0x11D5 JUMP JUMPDEST DUP1 PUSH2 0x1432 JUMPI JUMPDEST POP PUSH2 0x138C PUSH2 0x139A PUSH2 0x1365 PUSH2 0x1E18 JUMP JUMPDEST SWAP3 PUSH1 0x40 MLOAD SWAP3 DUP4 SWAP2 DUP12 DUP4 ADD SWAP6 DUP7 SWAP1 SWAP2 PUSH1 0x42 SWAP3 PUSH2 0x1901 PUSH1 0xF0 SHL DUP4 MSTORE PUSH1 0x2 DUP4 ADD MSTORE PUSH1 0x22 DUP3 ADD MSTORE ADD SWAP1 JUMP JUMPDEST SUB PUSH1 0x1F NOT DUP2 ADD DUP4 MSTORE DUP3 PUSH2 0xC97 JUMP JUMPDEST MLOAD SWAP1 KECCAK256 SWAP3 PUSH1 0x40 MLOAD SWAP5 DUP6 SWAP5 DUP6 SWAP1 SWAP5 SWAP4 SWAP3 PUSH1 0xFF PUSH1 0x60 SWAP4 PUSH1 0x80 DUP5 ADD SWAP8 DUP5 MSTORE AND PUSH1 0x20 DUP4 ADD MSTORE PUSH1 0x40 DUP3 ADD MSTORE ADD MSTORE JUMP JUMPDEST DUP4 DUP1 MSTORE SUB SWAP1 PUSH1 0x1 GAS STATICCALL ISZERO PUSH2 0x142D JUMPI PUSH1 0x0 MLOAD PUSH2 0x1420 SWAP3 PUSH2 0x1404 SWAP3 SWAP1 SWAP2 PUSH2 0x13FF SWAP2 SWAP1 PUSH1 0x1 PUSH1 0x1 PUSH1 0xA0 SHL SUB AND SWAP1 DUP2 ISZERO ISZERO SWAP2 DUP3 PUSH2 0x1423 JUMPI JUMPDEST POP POP PUSH2 0x1285 JUMP JUMPDEST PUSH2 0x12F3 JUMP JUMPDEST PUSH1 0x1 PUSH1 0x1 PUSH1 0xA0 SHL SUB SWAP1 SWAP3 AND PUSH1 0x0 SWAP1 DUP2 MSTORE PUSH1 0x2 PUSH1 0x20 MSTORE PUSH1 0x40 SWAP1 KECCAK256 SWAP1 JUMP JUMPDEST SSTORE JUMP JUMPDEST EQ SWAP1 POP CODESIZE DUP1 PUSH2 0x13F8 JUMP JUMPDEST PUSH2 0x1279 JUMP JUMPDEST PUSH2 0x143E SWAP1 TIMESTAMP GT ISZERO PUSH2 0x1221 JUMP JUMPDEST CODESIZE PUSH2 0x1356 JUMP JUMPDEST ISZERO PUSH2 0x144B JUMPI JUMP JUMPDEST PUSH1 0x40 MLOAD PUSH3 0x461BCD PUSH1 0xE5 SHL DUP2 MSTORE PUSH1 0x20 PUSH1 0x4 DUP3 ADD MSTORE PUSH1 0x23 PUSH1 0x24 DUP3 ADD MSTORE PUSH32 0x477561726469616E52656769737472793A20696E76616C696420746872657368 PUSH1 0x44 DUP3 ADD MSTORE PUSH3 0x1BDB19 PUSH1 0xEA SHL PUSH1 0x64 DUP3 ADD MSTORE PUSH1 0x84 SWAP1 REVERT JUMPDEST PUSH1 0x20 PUSH32 0xBB0549E0AEDB1FCC6A27D802DF340BB4BD5DC53B1F97F3736A879345232E6DEF SWAP2 PUSH1 0x1 DUP1 PUSH1 0xA0 SHL SUB AND SWAP3 DUP4 PUSH1 0x0 MSTORE PUSH1 0x0 DUP3 MSTORE DUP1 PUSH1 0x40 PUSH1 0x0 KECCAK256 PUSH1 0x1 DUP2 ADD SLOAD DUP1 ISZERO PUSH1 0x0 EQ PUSH2 0x14FA JUMPI POP PUSH2 0x14F0 DUP3 ISZERO PUSH2 0x1444 JUMP JUMPDEST SSTORE PUSH1 0x40 MLOAD SWAP1 DUP2 MSTORE LOG2 JUMP JUMPDEST PUSH2 0x150E SWAP1 DUP4 ISZERO ISZERO SWAP1 DUP2 PUSH2 0x1513 JUMPI JUMPDEST POP PUSH2 0x1444 JUMP JUMPDEST PUSH2 0x14F0 JUMP JUMPDEST SWAP1 POP DUP4 GT ISZERO CODESIZE PUSH2 0x1508 JUMP JUMPDEST ISZERO PUSH2 0x1525 JUMPI JUMP JUMPDEST PUSH1 0x40 MLOAD PUSH3 0x461BCD PUSH1 0xE5 SHL DUP2 MSTORE PUSH1 0x20 PUSH1 0x4 DUP3 ADD MSTORE PUSH1 0x23 PUSH1 0x24 DUP3 ADD MSTORE PUSH32 0x477561726469616E52656769737472793A20696E76616C696420617574682068 PUSH1 0x44 DUP3 ADD MSTORE PUSH3 0xC2E6D PUSH1 0xEB SHL PUSH1 0x64 DUP3 ADD MSTORE PUSH1 0x84 SWAP1 REVERT JUMPDEST ISZERO PUSH2 0x157D JUMPI JUMP JUMPDEST PUSH1 0x40 MLOAD PUSH3 0x461BCD PUSH1 0xE5 SHL DUP2 MSTORE PUSH1 0x20 PUSH1 0x4 DUP3 ADD MSTORE PUSH1 0x25 PUSH1 0x24 DUP3 ADD MSTORE PUSH32 0x477561726469616E52656769737472793A20696E76616C696420636970686572 PUSH1 0x44 DUP3 ADD MSTORE PUSH5 0x40D0C2E6D PUSH1 0xDB SHL PUSH1 0x64 DUP3 ADD MSTORE PUSH1 0x84 SWAP1 REVERT JUMPDEST ISZERO PUSH2 0x15D7 JUMPI JUMP JUMPDEST PUSH1 0x40 MLOAD PUSH3 0x461BCD PUSH1 0xE5 SHL DUP2 MSTORE PUSH1 0x20 PUSH1 0x4 DUP3 ADD MSTORE PUSH1 0x21 PUSH1 0x24 DUP3 ADD MSTORE PUSH32 0x477561726469616E52656769737472793A20677561726469616E206578697374 PUSH1 0x44 DUP3 ADD MSTORE PUSH1 0x73 PUSH1 0xF8 SHL PUSH1 0x64 DUP3 ADD MSTORE PUSH1 0x84 SWAP1 REVERT JUMPDEST ISZERO PUSH2 0x162D JUMPI JUMP JUMPDEST PUSH1 0x40 MLOAD PUSH3 0x461BCD PUSH1 0xE5 SHL DUP2 MSTORE PUSH1 0x20 PUSH1 0x4 DUP3 ADD MSTORE PUSH1 0x26 PUSH1 0x24 DUP3 ADD MSTORE PUSH32 0x477561726469616E52656769737472793A206369706865722068617368206D69 PUSH1 0x44 DUP3 ADD MSTORE PUSH6 0xE6DAC2E8C6D PUSH1 0xD3 SHL PUSH1 0x64 DUP3 ADD MSTORE PUSH1 0x84 SWAP1 REVERT JUMPDEST PUSH4 0x4E487B71 PUSH1 0xE0 SHL PUSH1 0x0 MSTORE PUSH1 0x32 PUSH1 0x4 MSTORE PUSH1 0x24 PUSH1 0x0 REVERT JUMPDEST DUP1 SLOAD DUP3 LT ISZERO PUSH2 0x16AF JUMPI PUSH1 0x0 MSTORE PUSH1 0x20 PUSH1 0x0 KECCAK256 ADD SWAP1 PUSH1 0x0 SWAP1 JUMP JUMPDEST PUSH2 0x1681 JUMP JUMPDEST DUP1 SLOAD SWAP1 PUSH9 0x10000000000000000 DUP3 LT ISZERO PUSH2 0x677 JUMPI DUP2 PUSH2 0x16DB SWAP2 PUSH1 0x1 PUSH2 0x105F SWAP5 ADD DUP2 SSTORE PUSH2 0x1697 JUMP JUMPDEST DUP2 SWAP4 SWAP2 SLOAD SWAP1 PUSH1 0x3 SHL SWAP2 DUP3 SHL SWAP2 PUSH1 0x0 NOT SWAP1 SHL NOT AND OR SWAP1 JUMP JUMPDEST SWAP2 SWAP3 SWAP1 SWAP4 PUSH2 0x1701 DUP6 ISZERO ISZERO PUSH2 0xFEE JUMP JUMPDEST PUSH2 0x170C DUP5 ISZERO ISZERO PUSH2 0x151E JUMP JUMPDEST PUSH2 0x1717 DUP3 ISZERO ISZERO PUSH2 0x1576 JUMP JUMPDEST PUSH1 0x1 PUSH1 0x1 PUSH1 0xA0 SHL SUB DUP4 AND PUSH1 0x0 SWAP1 DUP2 MSTORE PUSH1 0x20 DUP2 SWAP1 MSTORE PUSH1 0x40 SWAP1 KECCAK256 SWAP2 PUSH1 0x3 DUP4 ADD SWAP1 PUSH2 0x1753 PUSH2 0x174C DUP9 DUP5 SWAP1 PUSH1 0x0 MSTORE PUSH1 0x20 MSTORE PUSH1 0x40 PUSH1 0x0 KECCAK256 SWAP1 JUMP JUMPDEST SLOAD ISZERO PUSH2 0x15D0 JUMP JUMPDEST PUSH1 0x4 DUP5 ADD SWAP1 DUP2 SLOAD DUP1 ISZERO PUSH1 0x0 EQ PUSH2 0x1868 JUMPI POP SWAP1 DUP2 SWAP1 SSTORE PUSH1 0x40 MLOAD SWAP1 DUP2 MSTORE PUSH1 0x1 PUSH1 0x1 PUSH1 0xA0 SHL SUB DUP6 AND SWAP1 PUSH32 0x75636B7524FB12AB3000B27811E44668A7191791DD7316FE9B6B6449DAABF368 SWAP1 PUSH1 0x20 SWAP1 LOG2 JUMPDEST PUSH2 0x17C3 DUP7 PUSH1 0x1 DUP6 ADD PUSH2 0x17B2 DUP3 DUP3 PUSH2 0x16B4 JUMP JUMPDEST SLOAD SWAP3 SWAP1 PUSH1 0x0 MSTORE PUSH1 0x20 MSTORE PUSH1 0x40 PUSH1 0x0 KECCAK256 SWAP1 JUMP JUMPDEST SSTORE DUP4 PUSH2 0x17DC DUP7 PUSH1 0x2 DUP6 ADD SWAP1 PUSH1 0x0 MSTORE PUSH1 0x20 MSTORE PUSH1 0x40 PUSH1 0x0 KECCAK256 SWAP1 JUMP JUMPDEST SSTORE PUSH2 0x17FE PUSH1 0x1 PUSH2 0x17F6 DUP8 PUSH1 0x0 MSTORE PUSH1 0x3 PUSH1 0x20 MSTORE PUSH1 0x40 PUSH1 0x0 KECCAK256 SWAP1 JUMP JUMPDEST ADD SLOAD PUSH1 0xFF AND SWAP1 JUMP JUMPDEST SWAP1 DUP2 PUSH2 0x185D JUMPI JUMPDEST POP PUSH2 0x1858 JUMPI DUP2 PUSH2 0x1839 PUSH32 0xC0F8A21CF3B51F550824358B896669327D4A555631B51C610B93A521CE5062EE SWAP4 PUSH2 0x1853 SWAP4 PUSH2 0x216D JUMP JUMPDEST PUSH1 0x40 MLOAD SWAP4 DUP5 MSTORE PUSH1 0x1 PUSH1 0x1 PUSH1 0xA0 SHL SUB AND SWAP3 SWAP1 DUP2 SWAP1 PUSH1 0x20 DUP3 ADD SWAP1 JUMP JUMPDEST SUB SWAP1 LOG3 JUMP JUMPDEST PUSH2 0x1EEF JUMP JUMPDEST SWAP1 POP MLOAD ISZERO ISZERO CODESIZE PUSH2 0x1805 JUMP JUMPDEST PUSH2 0x1873 SWAP3 POP EQ PUSH2 0x1626 JUMP JUMPDEST PUSH2 0x17A0 JUMP JUMPDEST SWAP1 SWAP5 DUP2 PUSH32 0xC0F8A21CF3B51F550824358B896669327D4A555631B51C610B93A521CE5062EE SWAP5 PUSH2 0x1853 SWAP5 SWAP7 PUSH2 0x1839 SWAP4 PUSH2 0x18B1 DUP11 ISZERO ISZERO PUSH2 0xFEE JUMP JUMPDEST PUSH2 0x18BC DUP10 ISZERO ISZERO PUSH2 0x151E JUMP JUMPDEST PUSH2 0x18C7 DUP4 ISZERO ISZERO PUSH2 0x1576 JUMP JUMPDEST PUSH1 0x1 PUSH1 0x1 PUSH1 0xA0 SHL SUB DUP5 AND PUSH1 0x0 SWAP1 DUP2 MSTORE PUSH1 0x20 DUP2 SWAP1 MSTORE PUSH1 0x40 SWAP1 KECCAK256 SWAP3 PUSH1 0x3 DUP5 ADD SWAP1 PUSH2 0x18FC PUSH2 0x174C DUP14 DUP5 SWAP1 PUSH1 0x0 MSTORE PUSH1 0x20 MSTORE PUSH1 0x40 PUSH1 0x0 KECCAK256 SWAP1 JUMP JUMPDEST PUSH1 0x4 DUP6 ADD SWAP1 DUP2 SLOAD DUP1 ISZERO PUSH1 0x0 EQ PUSH2 0x1A54 JUMPI POP SWAP1 DUP2 SWAP1 SSTORE PUSH1 0x40 MLOAD SWAP1 DUP2 MSTORE PUSH1 0x1 PUSH1 0x1 PUSH1 0xA0 SHL SUB DUP7 AND SWAP1 PUSH32 0x75636B7524FB12AB3000B27811E44668A7191791DD7316FE9B6B6449DAABF368 SWAP1 PUSH1 0x20 SWAP1 LOG2 JUMPDEST PUSH2 0x195B DUP12 PUSH1 0x1 DUP7 ADD PUSH2 0x17B2 DUP3 DUP3 PUSH2 0x16B4 JUMP JUMPDEST SSTORE DUP9 PUSH2 0x1974 DUP12 PUSH1 0x2 DUP7 ADD SWAP1 PUSH1 0x0 MSTORE PUSH1 0x20 MSTORE PUSH1 0x40 PUSH1 0x0 KECCAK256 SWAP1 JUMP JUMPDEST SSTORE PUSH2 0x198E PUSH1 0x1 PUSH2 0x17F6 DUP13 PUSH1 0x0 MSTORE PUSH1 0x3 PUSH1 0x20 MSTORE PUSH1 0x40 PUSH1 0x0 KECCAK256 SWAP1 JUMP JUMPDEST DUP1 PUSH2 0x1A4A JUMPI JUMPDEST PUSH2 0x19A0 JUMPI JUMPDEST POP POP PUSH2 0x216D JUMP JUMPDEST PUSH2 0x19AB SWAP2 DUP11 DUP6 PUSH2 0x2017 JUMP JUMPDEST PUSH2 0x19B5 DUP8 DUP10 PUSH2 0x214F JUMP JUMPDEST PUSH2 0x19D9 PUSH2 0x19CC DUP3 PUSH1 0x0 MSTORE PUSH1 0x1 PUSH1 0x20 MSTORE PUSH1 0x40 PUSH1 0x0 KECCAK256 SWAP1 JUMP JUMPDEST SLOAD PUSH1 0x1 PUSH1 0x1 PUSH1 0xA0 SHL SUB AND SWAP1 JUMP JUMPDEST SWAP1 PUSH2 0x1A11 DUP5 PUSH2 0x19F2 DUP4 PUSH1 0x0 MSTORE PUSH1 0x1 PUSH1 0x20 MSTORE PUSH1 0x40 PUSH1 0x0 KECCAK256 SWAP1 JUMP JUMPDEST DUP1 SLOAD PUSH1 0x1 PUSH1 0x1 PUSH1 0xA0 SHL SUB NOT AND PUSH1 0x1 PUSH1 0x1 PUSH1 0xA0 SHL SUB SWAP1 SWAP3 AND SWAP2 SWAP1 SWAP2 OR SWAP1 SSTORE JUMP JUMPDEST PUSH1 0x1 PUSH1 0x1 PUSH1 0xA0 SHL SUB DUP5 DUP2 AND SWAP3 AND SWAP1 PUSH31 0xEE63F421DC90E8FA06EDC3DA1C69742DDAE51203585C544F462F14B9CA43D6 PUSH1 0x0 DUP1 LOG4 CODESIZE DUP1 PUSH2 0x1999 JUMP JUMPDEST POP DUP1 MLOAD ISZERO ISZERO PUSH2 0x1994 JUMP JUMPDEST PUSH2 0x1A5F SWAP3 POP EQ PUSH2 0x1626 JUMP JUMPDEST PUSH2 0x1949 JUMP JUMPDEST SWAP5 SWAP3 SWAP1 SWAP4 SWAP2 PUSH1 0x40 MLOAD SWAP5 PUSH1 0x20 DUP7 ADD SWAP7 PUSH32 0xD731C3004D60843AC05EA98E399E1842A26962846F48D9A19D1BDD81D5108B41 DUP9 MSTORE PUSH1 0x1 DUP1 PUSH1 0xA0 SHL SUB AND PUSH1 0x40 DUP8 ADD MSTORE PUSH1 0x60 DUP7 ADD MSTORE PUSH1 0x80 DUP6 ADD MSTORE PUSH1 0xA0 DUP5 ADD MSTORE PUSH1 0xC0 DUP4 ADD MSTORE PUSH1 0xE0 DUP3 ADD MSTORE PUSH1 0xE0 DUP2 MSTORE PUSH2 0x100 DUP2 ADD DUP2 DUP2 LT PUSH8 0xFFFFFFFFFFFFFFFF DUP3 GT OR PUSH2 0x677 JUMPI PUSH1 0x40 MSTORE MLOAD SWAP1 KECCAK256 SWAP1 JUMP JUMPDEST ISZERO PUSH2 0x1AE7 JUMPI JUMP JUMPDEST PUSH1 0x40 MLOAD PUSH3 0x461BCD PUSH1 0xE5 SHL DUP2 MSTORE PUSH1 0x20 PUSH1 0x4 DUP3 ADD MSTORE PUSH1 0x22 PUSH1 0x24 DUP3 ADD MSTORE PUSH32 0x477561726469616E52656769737472793A20677561726469616E206D69737369 PUSH1 0x44 DUP3 ADD MSTORE PUSH2 0x6E67 PUSH1 0xF0 SHL PUSH1 0x64 DUP3 ADD MSTORE PUSH1 0x84 SWAP1 REVERT JUMPDEST PUSH1 0x0 NOT DUP2 ADD SWAP2 SWAP1 DUP3 GT PUSH2 0x1301 JUMPI JUMP JUMPDEST SWAP2 SWAP1 DUP3 SUB SWAP2 DUP3 GT PUSH2 0x1301 JUMPI JUMP JUMPDEST DUP1 SLOAD SWAP1 DUP2 ISZERO PUSH2 0x1B7D JUMPI PUSH1 0x0 NOT SWAP2 DUP3 ADD SWAP2 PUSH2 0x1B6D DUP4 DUP4 PUSH2 0x1697 JUMP JUMPDEST SWAP1 SWAP2 DUP3 SLOAD SWAP2 PUSH1 0x3 SHL SHL NOT AND SWAP1 SSTORE SSTORE JUMP JUMPDEST PUSH4 0x4E487B71 PUSH1 0xE0 SHL PUSH1 0x0 MSTORE PUSH1 0x31 PUSH1 0x4 MSTORE PUSH1 0x24 PUSH1 0x0 REVERT JUMPDEST PUSH32 0x75CD8D9F01B90FE59E0FECFD8DE59D529A5088507DB54C294254708D1E982C25 DUP3 SWAP2 PUSH2 0x1C6E DUP2 PUSH2 0x1BD6 DUP2 PUSH1 0x1 DUP1 PUSH1 0xA0 SHL SUB AND PUSH1 0x0 MSTORE PUSH1 0x0 PUSH1 0x20 MSTORE PUSH1 0x40 PUSH1 0x0 KECCAK256 SWAP1 JUMP JUMPDEST PUSH1 0x3 DUP2 ADD PUSH2 0x1C23 PUSH2 0x1C05 PUSH2 0x1BF4 DUP10 DUP5 SWAP1 PUSH1 0x0 MSTORE PUSH1 0x20 MSTORE PUSH1 0x40 PUSH1 0x0 KECCAK256 SWAP1 JUMP JUMPDEST SLOAD PUSH2 0x1C00 DUP2 ISZERO ISZERO PUSH2 0x1AE0 JUMP JUMPDEST PUSH2 0x1B37 JUMP JUMPDEST PUSH1 0x1 DUP5 ADD SWAP1 PUSH2 0x1C14 DUP3 SLOAD PUSH2 0x1B37 JUMP JUMPDEST DUP1 DUP3 SUB PUSH2 0x1D0A JUMPI JUMPDEST POP POP PUSH2 0x1B53 JUMP JUMPDEST PUSH1 0x0 SWAP7 DUP8 MSTORE PUSH1 0x20 MSTORE PUSH1 0x40 DUP7 KECCAK256 DUP7 SWAP1 SSTORE DUP6 PUSH1 0x2 DUP3 ADD DUP2 PUSH2 0x1C61 DUP11 PUSH2 0x1C50 DUP2 DUP6 SWAP1 PUSH1 0x0 MSTORE PUSH1 0x20 MSTORE PUSH1 0x40 PUSH1 0x0 KECCAK256 SWAP1 JUMP JUMPDEST SLOAD SWAP4 SWAP1 PUSH1 0x0 MSTORE PUSH1 0x20 MSTORE PUSH1 0x40 PUSH1 0x0 KECCAK256 SWAP1 JUMP JUMPDEST SSTORE DUP1 PUSH2 0x1C7C JUMPI POP POP PUSH2 0x216D JUMP JUMPDEST PUSH1 0x1 PUSH1 0x1 PUSH1 0xA0 SHL SUB AND SWAP2 DUP1 LOG3 JUMP JUMPDEST PUSH2 0x1C86 SWAP1 DUP10 PUSH2 0x214F JUMP JUMPDEST PUSH2 0x1C9D PUSH2 0x19CC DUP3 PUSH1 0x0 MSTORE PUSH1 0x1 PUSH1 0x20 MSTORE PUSH1 0x40 PUSH1 0x0 KECCAK256 SWAP1 JUMP JUMPDEST PUSH1 0x1 PUSH1 0x1 PUSH1 0xA0 SHL SUB DUP6 DUP2 AND SWAP3 SWAP2 AND DUP3 EQ PUSH2 0x1CB8 JUMPI JUMPDEST POP PUSH2 0x1999 JUMP JUMPDEST PUSH2 0x1CDF PUSH2 0x1CCF DUP3 PUSH1 0x0 MSTORE PUSH1 0x1 PUSH1 0x20 MSTORE PUSH1 0x40 PUSH1 0x0 KECCAK256 SWAP1 JUMP JUMPDEST DUP1 SLOAD PUSH1 0x1 PUSH1 0x1 PUSH1 0xA0 SHL SUB NOT AND SWAP1 SSTORE JUMP JUMPDEST PUSH31 0xEE63F421DC90E8FA06EDC3DA1C69742DDAE51203585C544F462F14B9CA43D6 DUP4 DUP1 LOG4 DUP6 CODESIZE DUP1 PUSH2 0x1CB2 JUMP JUMPDEST PUSH2 0x1D3C PUSH2 0x1D27 PUSH2 0x1D1D PUSH2 0x1D4D SWAP4 DUP7 PUSH2 0x1697 JUMP JUMPDEST SWAP1 SLOAD SWAP1 PUSH1 0x3 SHL SHR SWAP1 JUMP JUMPDEST SWAP3 PUSH2 0x13FF DUP5 PUSH2 0x1D36 DUP4 DUP9 PUSH2 0x1697 JUMP JUMPDEST SWAP1 PUSH2 0x1045 JUMP JUMPDEST SWAP2 DUP6 SWAP1 PUSH1 0x0 MSTORE PUSH1 0x20 MSTORE PUSH1 0x40 PUSH1 0x0 KECCAK256 SWAP1 JUMP JUMPDEST SSTORE CODESIZE DUP1 PUSH2 0x1C1C JUMP JUMPDEST ISZERO PUSH2 0x1D5C JUMPI JUMP JUMPDEST PUSH1 0x40 MLOAD PUSH3 0x461BCD PUSH1 0xE5 SHL DUP2 MSTORE PUSH1 0x20 PUSH1 0x4 DUP3 ADD MSTORE PUSH1 0x22 PUSH1 0x24 DUP3 ADD MSTORE PUSH32 0x477561726469616E52656769737472793A20696E76616C6964207369676E206B PUSH1 0x44 DUP3 ADD MSTORE PUSH2 0x6579 PUSH1 0xF0 SHL PUSH1 0x64 DUP3 ADD MSTORE PUSH1 0x84 SWAP1 REVERT JUMPDEST DUP1 MLOAD PUSH1 0x40 DUP2 EQ DUP1 ISZERO PUSH2 0x1E0E JUMPI JUMPDEST PUSH2 0x1DC2 SWAP1 PUSH2 0x1D55 JUMP JUMPDEST PUSH1 0x41 PUSH1 0x0 SWAP2 EQ PUSH2 0x1DE1 JUMPI JUMPDEST PUSH1 0x40 SWAP2 ADD PUSH1 0x20 ADD KECCAK256 PUSH1 0x1 PUSH1 0x1 PUSH1 0xA0 SHL SUB AND SWAP1 JUMP JUMPDEST POP DUP1 MLOAD ISZERO PUSH2 0x16AF JUMPI PUSH1 0x20 DUP2 ADD MLOAD PUSH2 0x1E07 SWAP1 PUSH1 0x1 PUSH1 0x1 PUSH1 0xF8 SHL SUB NOT AND PUSH1 0x1 PUSH1 0xFA SHL EQ PUSH2 0x1D55 JUMP JUMPDEST PUSH1 0x1 PUSH2 0x1DCD JUMP JUMPDEST POP PUSH1 0x41 DUP2 EQ PUSH2 0x1DB9 JUMP JUMPDEST PUSH16 0x477561726469616E5265676973747279 PUSH1 0x80 SHL PUSH1 0x20 PUSH1 0x40 MLOAD PUSH2 0x1E3A DUP2 PUSH2 0xC7B JUMP JUMPDEST PUSH1 0x10 DUP2 MSTORE ADD MSTORE PUSH1 0x31 PUSH1 0xF8 SHL PUSH1 0x20 PUSH1 0x40 MLOAD PUSH2 0x1E53 DUP2 PUSH2 0xC7B JUMP JUMPDEST PUSH1 0x1 DUP2 MSTORE ADD MSTORE PUSH1 0x40 MLOAD PUSH1 0x20 DUP2 ADD SWAP1 PUSH32 0x8B73C3C69BB8FE3D512ECC4CF759CC79239F7B179B0FFACAA9A75D522B39400F DUP3 MSTORE PUSH32 0xF4A08922BA67BF5AB276997D6F517A17293EB204F59F8546D9CBA864F873738D PUSH1 0x40 DUP3 ADD MSTORE PUSH32 0xC89EFDAA54C0F20C7ADF612882DF0950F5A951637E0307CDCB4C672F298B8BC6 PUSH1 0x60 DUP3 ADD MSTORE CHAINID PUSH1 0x80 DUP3 ADD MSTORE ADDRESS PUSH1 0xA0 DUP3 ADD MSTORE PUSH1 0xA0 DUP2 MSTORE PUSH2 0x1EE9 DUP2 PUSH2 0xC43 JUMP JUMPDEST MLOAD SWAP1 KECCAK256 SWAP1 JUMP JUMPDEST PUSH1 0x40 MLOAD PUSH3 0x461BCD PUSH1 0xE5 SHL DUP2 MSTORE PUSH1 0x20 PUSH1 0x4 DUP3 ADD MSTORE PUSH1 0x23 PUSH1 0x24 DUP3 ADD MSTORE PUSH32 0x477561726469616E52656769737472793A20696E76616C69642074696D657374 PUSH1 0x44 DUP3 ADD MSTORE PUSH3 0x616D7 PUSH1 0xEC SHL PUSH1 0x64 DUP3 ADD MSTORE PUSH1 0x84 SWAP1 REVERT JUMPDEST ISZERO PUSH2 0x1EEF JUMPI JUMP JUMPDEST ISZERO PUSH2 0x1F4E JUMPI JUMP JUMPDEST PUSH1 0x40 MLOAD PUSH3 0x461BCD PUSH1 0xE5 SHL DUP2 MSTORE PUSH1 0x20 PUSH1 0x4 DUP3 ADD MSTORE PUSH1 0x27 PUSH1 0x24 DUP3 ADD MSTORE PUSH32 0x477561726469616E52656769737472793A207369676E61747572652066726F6D PUSH1 0x44 DUP3 ADD MSTORE PUSH7 0x20667574757265 PUSH1 0xC8 SHL PUSH1 0x64 DUP3 ADD MSTORE PUSH1 0x84 SWAP1 REVERT JUMPDEST SWAP1 PUSH2 0x1FB6 PUSH1 0x20 SWAP3 DUP3 DUP2 MLOAD SWAP5 DUP6 SWAP3 ADD PUSH2 0x6F0 JUMP JUMPDEST ADD SWAP1 JUMP JUMPDEST ISZERO PUSH2 0x1FC1 JUMPI JUMP JUMPDEST PUSH1 0x40 MLOAD PUSH3 0x461BCD PUSH1 0xE5 SHL DUP2 MSTORE PUSH1 0x20 PUSH1 0x4 DUP3 ADD MSTORE PUSH1 0x28 PUSH1 0x24 DUP3 ADD MSTORE PUSH32 0x477561726469616E52656769737472793A20696E76616C6964207369676E2073 PUSH1 0x44 DUP3 ADD MSTORE PUSH8 0x69676E6174757265 PUSH1 0xC0 SHL PUSH1 0x64 DUP3 ADD MSTORE PUSH1 0x84 SWAP1 REVERT JUMPDEST SWAP2 PUSH2 0x20B0 SWAP2 PUSH2 0x20A4 SWAP5 SWAP4 PUSH2 0x202C DUP4 ISZERO ISZERO PUSH2 0x1F40 JUMP JUMPDEST PUSH2 0x2038 DUP4 TIMESTAMP LT ISZERO PUSH2 0x1F47 JUMP JUMPDEST PUSH2 0x204F PUSH2 0x384 PUSH2 0x2048 DUP6 TIMESTAMP PUSH2 0x1B46 JUMP JUMPDEST GT ISZERO PUSH2 0x1221 JUMP JUMPDEST PUSH1 0x40 DUP1 MLOAD PUSH1 0x20 DUP2 ADD SWAP4 DUP5 MSTORE PUSH1 0x60 SWAP3 SWAP1 SWAP3 SHL PUSH12 0xFFFFFFFFFFFFFFFFFFFFFFFF NOT AND SWAP1 DUP3 ADD MSTORE PUSH1 0x54 DUP1 DUP3 ADD SWAP4 SWAP1 SWAP4 MSTORE SWAP2 DUP3 MSTORE PUSH1 0x1F NOT SWAP2 PUSH2 0x208E PUSH1 0x74 DUP3 PUSH2 0xC97 JUMP JUMPDEST MLOAD SWAP1 KECCAK256 PUSH1 0x40 MLOAD SWAP5 DUP6 SWAP2 PUSH1 0x20 DUP4 ADD PUSH1 0x20 SWAP2 DUP2 MSTORE ADD SWAP1 JUMP JUMPDEST SUB SWAP1 DUP2 ADD DUP5 MSTORE DUP4 PUSH2 0xC97 JUMP JUMPDEST PUSH1 0x20 PUSH1 0x40 MLOAD SWAP3 DUP4 DUP1 PUSH2 0x20C5 PUSH1 0x0 SWAP7 DUP8 SWAP5 PUSH2 0x1FA3 JUMP JUMPDEST SUB SWAP1 PUSH1 0x2 GAS STATICCALL ISZERO PUSH2 0x142D JUMPI DUP2 PUSH2 0x2106 PUSH1 0x20 SWAP3 PUSH2 0x20E2 DUP4 MLOAD SWAP2 PUSH2 0x21F7 JUMP JUMPDEST PUSH1 0x40 DUP1 MLOAD SWAP5 DUP6 MSTORE PUSH1 0xFF SWAP1 SWAP4 AND PUSH1 0x20 DUP6 ADD MSTORE SWAP2 DUP4 ADD MSTORE PUSH1 0x60 DUP3 ADD MSTORE SWAP1 DUP2 SWAP1 PUSH1 0x80 DUP3 ADD SWAP1 JUMP JUMPDEST DUP4 DUP1 MSTORE SUB SWAP1 PUSH1 0x1 GAS STATICCALL ISZERO PUSH2 0x142D JUMPI PUSH2 0xCF8 SWAP1 MLOAD PUSH2 0x2124 PUSH2 0x996 PUSH2 0xCB9 JUMP JUMPDEST PUSH1 0x1 PUSH1 0x1 PUSH1 0xA0 SHL SUB SWAP2 DUP3 AND DUP1 ISZERO ISZERO SWAP3 SWAP1 SWAP2 DUP4 PUSH2 0x2143 JUMPI JUMPDEST POP POP POP PUSH2 0x1FBA JUMP JUMPDEST AND EQ SWAP1 POP CODESIZE DUP1 DUP1 PUSH2 0x213B JUMP JUMPDEST SWAP1 PUSH1 0x40 MLOAD SWAP1 PUSH1 0x20 DUP3 ADD SWAP3 DUP4 MSTORE PUSH1 0x40 DUP3 ADD MSTORE PUSH1 0x40 DUP2 MSTORE PUSH2 0x1EE9 DUP2 PUSH2 0xC27 JUMP JUMPDEST SWAP1 PUSH1 0x1 DUP3 ADD SLOAD PUSH1 0x1 DUP2 GT ISZERO PUSH1 0x0 EQ PUSH2 0x21BD JUMPI POP PUSH1 0x20 PUSH32 0xBB0549E0AEDB1FCC6A27D802DF340BB4BD5DC53B1F97F3736A879345232E6DEF SWAP2 PUSH1 0x1 DUP1 SWAP5 JUMPDEST SSTORE PUSH1 0x40 MLOAD SWAP4 DUP5 MSTORE PUSH1 0x1 PUSH1 0x1 PUSH1 0xA0 SHL SUB AND SWAP3 LOG2 JUMP JUMPDEST PUSH1 0x1 DUP2 ADD DUP1 SWAP2 GT PUSH2 0x1301 JUMPI PUSH32 0xBB0549E0AEDB1FCC6A27D802DF340BB4BD5DC53B1F97F3736A879345232E6DEF SWAP2 PUSH1 0x20 SWAP2 PUSH1 0x1 SHR DUP1 SWAP5 PUSH2 0x21A9 JUMP JUMPDEST PUSH2 0x2204 PUSH1 0x41 DUP3 MLOAD EQ PUSH2 0x1FBA JUMP JUMPDEST PUSH1 0x20 DUP2 ADD MLOAD SWAP1 PUSH1 0x60 PUSH1 0x40 DUP3 ADD MLOAD SWAP2 ADD MLOAD PUSH1 0x0 BYTE SWAP3 PUSH1 0x1B DUP5 LT PUSH2 0x2222 JUMPI JUMP JUMPDEST SWAP3 PUSH1 0x1B ADD PUSH1 0xFF DUP2 GT PUSH2 0x1301 JUMPI SWAP3 JUMP INVALID SUB PUSH12 0x6384B5ECA791C62761152D0C PUSH26 0xBB0604C104A5FB6F4EB0703F3154BB3DB0A26469706673582212 KECCAK256 0xC1 0xEC MLOAD KECCAK256 0xCB 0x1F 0x4E DUP3 SMOD BASEFEE PUSH8 0xAD9A587023AB665D 0xC9 DUP12 PUSH22 0xC98454C2835E16BBE7B864736F6C63430008180033CD 0x2D BLOBHASH 0x4E SDIV STATICCALL CALLCODE 0xE2 0xC6 0x28 0xDF 0xBA AND 0xC9 MSTORE8 MSTORE8 0xE5 PUSH25 0xF1158CC859866C1A35FEF49FB1FC0000000000000000000000 "},"methodIdentifiers":{"addGuardian(bytes32,bytes32,bytes32)":"a2c6aff1","addGuardianWithSig(address,bytes32,bytes32,bytes32,uint256,uint256,uint8,bytes32,bytes32)":"ef530a75","addGuardianWithSignActionSignature(bytes32,bytes32,bytes32,uint256,bytes)":"32acb08a","addGuardianWithSignActionSignatureWithSig(address,bytes32,bytes32,bytes32,uint256,uint256,uint256,bytes,uint8,bytes32,bytes32)":"5ab820e0","getAuthOwner(bytes32)":"c0841c1a","getCipherHash(address)":"1cf66c12","getGuardianCIDs(address)":"e956bb65","getGuardianConfig(address)":"0bb6094a","getGuardianEntry(address,bytes32)":"76716bbe","getGuardianType(bytes32)":"68b84f5c","getThreshold(address)":"78977168","nonces(address)":"7ecebe00","owner()":"8da5cb5b","removeGuardian(bytes32)":"d9449d12","removeGuardianWithSig(address,bytes32,uint256,uint256,uint8,bytes32,bytes32)":"8e26df0f","setGuardianType(bytes32,string,bool)":"350d9970","setOwner(address)":"13af4035","setSignActionPublicKey(bytes)":"9f31e53e","setThreshold(uint256)":"960bfe04","setThresholdWithSig(address,uint256,uint256,uint256,uint8,bytes32,bytes32)":"0a21f30a","signActionPublicKey()":"dc68a0c8"}}}}}