{"contracts/GuardianRegistry.sol":{"GuardianRegistry":{"abi":[{"anonymous":false,"inputs":[{"indexed":true,"internalType":"address","name":"user","type":"address"},{"indexed":true,"internalType":"bytes32","name":"guardianCIDHash","type":"bytes32"},{"indexed":false,"internalType":"bytes32","name":"authValueHash","type":"bytes32"}],"name":"GuardianAdded","type":"event"},{"anonymous":false,"inputs":[{"indexed":true,"internalType":"address","name":"user","type":"address"},{"indexed":true,"internalType":"bytes32","name":"guardianCIDHash","type":"bytes32"}],"name":"GuardianRemoved","type":"event"},{"anonymous":false,"inputs":[{"indexed":true,"internalType":"address","name":"user","type":"address"},{"indexed":false,"internalType":"uint256","name":"threshold","type":"uint256"}],"name":"ThresholdUpdated","type":"event"},{"inputs":[{"internalType":"bytes32","name":"guardianCIDHash","type":"bytes32"},{"internalType":"bytes32","name":"authValueHash","type":"bytes32"}],"name":"addGuardian","outputs":[],"stateMutability":"nonpayable","type":"function"},{"inputs":[{"internalType":"address","name":"user","type":"address"},{"internalType":"bytes32","name":"guardianCIDHash","type":"bytes32"},{"internalType":"bytes32","name":"authValueHash","type":"bytes32"},{"internalType":"uint256","name":"nonce","type":"uint256"},{"internalType":"uint256","name":"deadline","type":"uint256"},{"internalType":"uint8","name":"v","type":"uint8"},{"internalType":"bytes32","name":"r","type":"bytes32"},{"internalType":"bytes32","name":"s","type":"bytes32"}],"name":"addGuardianWithSig","outputs":[],"stateMutability":"nonpayable","type":"function"},{"inputs":[{"internalType":"bytes32","name":"authValueHash","type":"bytes32"}],"name":"getAuthValueOwner","outputs":[{"internalType":"address","name":"","type":"address"}],"stateMutability":"view","type":"function"},{"inputs":[{"internalType":"address","name":"user","type":"address"}],"name":"getGuardianCIDs","outputs":[{"internalType":"bytes32[]","name":"","type":"bytes32[]"}],"stateMutability":"view","type":"function"},{"inputs":[{"internalType":"address","name":"user","type":"address"}],"name":"getGuardianConfig","outputs":[{"internalType":"uint256","name":"threshold","type":"uint256"},{"internalType":"bytes32[]","name":"guardianCIDs","type":"bytes32[]"}],"stateMutability":"view","type":"function"},{"inputs":[{"internalType":"address","name":"user","type":"address"},{"internalType":"bytes32","name":"guardianCIDHash","type":"bytes32"}],"name":"getGuardianEntry","outputs":[{"internalType":"bytes32","name":"","type":"bytes32"}],"stateMutability":"view","type":"function"},{"inputs":[{"internalType":"address","name":"user","type":"address"}],"name":"getThreshold","outputs":[{"internalType":"uint256","name":"","type":"uint256"}],"stateMutability":"view","type":"function"},{"inputs":[{"internalType":"address","name":"","type":"address"}],"name":"nonces","outputs":[{"internalType":"uint256","name":"","type":"uint256"}],"stateMutability":"view","type":"function"},{"inputs":[{"internalType":"bytes32","name":"guardianCIDHash","type":"bytes32"}],"name":"removeGuardian","outputs":[],"stateMutability":"nonpayable","type":"function"},{"inputs":[{"internalType":"address","name":"user","type":"address"},{"internalType":"bytes32","name":"guardianCIDHash","type":"bytes32"},{"internalType":"uint256","name":"nonce","type":"uint256"},{"internalType":"uint256","name":"deadline","type":"uint256"},{"internalType":"uint8","name":"v","type":"uint8"},{"internalType":"bytes32","name":"r","type":"bytes32"},{"internalType":"bytes32","name":"s","type":"bytes32"}],"name":"removeGuardianWithSig","outputs":[],"stateMutability":"nonpayable","type":"function"}],"evm":{"bytecode":{"linkReferences":{},"object":"608060405234801561001057600080fd5b50611b0c806100206000396000f3fe608060405234801561001057600080fd5b506004361061009e5760003560e01c80638e26df0f116100665780638e26df0f14610194578063cad39d65146101b0578063d9449d12146101cc578063e956bb65146101e8578063fb948690146102185761009e565b80630bb6094a146100a3578063449e800f146100d457806376716bbe1461010457806378977168146101345780637ecebe0014610164575b600080fd5b6100bd60048036038101906100b89190610ebd565b610234565b6040516100cb929190610fcb565b60405180910390f35b6100ee60048036038101906100e99190611027565b6102df565b6040516100fb9190611063565b60405180910390f35b61011e6004803603810190610119919061107e565b61031c565b60405161012b91906110cd565b60405180910390f35b61014e60048036038101906101499190610ebd565b610379565b60405161015b91906110e8565b60405180910390f35b61017e60048036038101906101799190610ebd565b6103c4565b60405161018b91906110e8565b60405180910390f35b6101ae60048036038101906101a99190611168565b6103dc565b005b6101ca60048036038101906101c5919061120a565b610409565b005b6101e660048036038101906101e19190611027565b610439565b005b61020260048036038101906101fd9190610ebd565b610446565b60405161020f91906112c0565b60405180910390f35b610232600480360381019061022d91906112e2565b6104df565b005b6000606060008060008573ffffffffffffffffffffffffffffffffffffffff1673ffffffffffffffffffffffffffffffffffffffff1681526020019081526020016000209050806000015481600101808054806020026020016040519081016040528092919081815260200182805480156102ce57602002820191906000526020600020905b8154815260200190600101908083116102ba575b505050505090509250925050915091565b60006001600083815260200190815260200160002060009054906101000a900473ffffffffffffffffffffffffffffffffffffffff169050919050565b60008060008473ffffffffffffffffffffffffffffffffffffffff1673ffffffffffffffffffffffffffffffffffffffff168152602001908152602001600020600201600083815260200190815260200160002054905092915050565b60008060008373ffffffffffffffffffffffffffffffffffffffff1673ffffffffffffffffffffffffffffffffffffffff168152602001908152602001600020600001549050919050565b60026020528060005260406000206000915090505481565b6103f6876103ec898989896104ee565b8787878787610549565b610400878761080e565b50505050505050565b6104248861041a8a8a8a8a8a610a5d565b8787878787610549565b61042f888888610abb565b5050505050505050565b610443338261080e565b50565b60606000808373ffffffffffffffffffffffffffffffffffffffff1673ffffffffffffffffffffffffffffffffffffffff1681526020019081526020016000206001018054806020026020016040519081016040528092919081815260200182805480156104d357602002820191906000526020600020905b8154815260200190600101908083116104bf575b50505050509050919050565b6104ea338383610abb565b5050565b60007fa400f0e70d55e122aa5ae7cec68dd62d343c2a2781e04542ec6e741da8deed2685858585604051602001610529959493929190611322565b604051602081830303815290604052805190602001209050949350505050565b600073ffffffffffffffffffffffffffffffffffffffff168773ffffffffffffffffffffffffffffffffffffffff16036105b8576040517f08c379a00000000000000000000000000000000000000000000000000000000081526004016105af906113d2565b60405180910390fd5b600260008873ffffffffffffffffffffffffffffffffffffffff1673ffffffffffffffffffffffffffffffffffffffff168152602001908152602001600020548514610639576040517f08c379a00000000000000000000000000000000000000000000000000000000081526004016106309061143e565b60405180910390fd5b600084146106855783421115610684576040517f08c379a000000000000000000000000000000000000000000000000000000000815260040161067b906114d0565b60405180910390fd5b5b600061068f610cf6565b876040516020016106a1929190611568565b6040516020818303038152906040528051906020012090506000600182868686604051600081526020016040526040516106de94939291906115ae565b6020604051602081039080840390855afa158015610700573d6000803e3d6000fd5b505050602060405103519050600073ffffffffffffffffffffffffffffffffffffffff168173ffffffffffffffffffffffffffffffffffffffff161415801561077457508873ffffffffffffffffffffffffffffffffffffffff168173ffffffffffffffffffffffffffffffffffffffff16145b6107b3576040517f08c379a00000000000000000000000000000000000000000000000000000000081526004016107aa90611665565b60405180910390fd5b6001876107c091906116b4565b600260008b73ffffffffffffffffffffffffffffffffffffffff1673ffffffffffffffffffffffffffffffffffffffff16815260200190815260200160002081905550505050505050505050565b60008060008473ffffffffffffffffffffffffffffffffffffffff1673ffffffffffffffffffffffffffffffffffffffff16815260200190815260200160002090506000816003016000848152602001908152602001600020549050600081036108ad576040517f08c379a00000000000000000000000000000000000000000000000000000000081526004016108a49061175a565b60405180910390fd5b60006001826108bc919061177a565b90506000600184600101805490506108d4919061177a565b905080821461094f5760008460010182815481106108f5576108f46117ae565b5b9060005260206000200154905080856001018481548110610919576109186117ae565b5b906000526020600020018190555060018361093491906116b4565b85600301600083815260200190815260200160002081905550505b83600101805480610963576109626117dd565b5b60019003818190600052602060002001600090559055836003016000868152602001908152602001600020600090556000846002016000878152602001908152602001600020549050846002016000878152602001908152602001600020600090556000801b8114610a06576001600082815260200190815260200160002060006101000a81549073ffffffffffffffffffffffffffffffffffffffff02191690555b610a108588610dc4565b858773ffffffffffffffffffffffffffffffffffffffff167f75cd8d9f01b90fe59e0fecfd8de59d529a5088507db54c294254708d1e982c2560405160405180910390a350505050505050565b60007fae5ea7d31bec9c26f4ecd3e7a0b14ec7197de44c1ea8fd41ca6e8308ef37df6a8686868686604051602001610a9a9695949392919061180c565b60405160208183030381529060405280519060200120905095945050505050565b6000801b8203610b00576040517f08c379a0000000000000000000000000000000000000000000000000000000008152600401610af7906118df565b60405180910390fd5b6000801b8103610b45576040517f08c379a0000000000000000000000000000000000000000000000000000000008152600401610b3c90611971565b60405180910390fd5b60008060008573ffffffffffffffffffffffffffffffffffffffff1673ffffffffffffffffffffffffffffffffffffffff168152602001908152602001600020905060008160030160008581526020019081526020016000205414610bdf576040517f08c379a0000000000000000000000000000000000000000000000000000000008152600401610bd690611a03565b60405180910390fd5b806001018390806001815401808255809150506001900390600052602060002001600090919091909150558060010180549050816003016000858152602001908152602001600020819055508181600201600085815260200190815260200160002081905550836001600084815260200190815260200160002060006101000a81548173ffffffffffffffffffffffffffffffffffffffff021916908373ffffffffffffffffffffffffffffffffffffffff160217905550610ca18185610dc4565b828473ffffffffffffffffffffffffffffffffffffffff167fc0f8a21cf3b51f550824358b896669327d4a555631b51c610b93a521ce5062ee84604051610ce891906110cd565b60405180910390a350505050565b60007f8b73c3c69bb8fe3d512ecc4cf759cc79239f7b179b0ffacaa9a75d522b39400f6040518060400160405280601081526020017f477561726469616e526567697374727900000000000000000000000000000000815250805190602001206040518060400160405280600181526020017f3100000000000000000000000000000000000000000000000000000000000000815250805190602001204630604051602001610da9959493929190611a23565b60405160208183030381529060405280519060200120905090565b60008260010180549050905060006001821115610df9576002600183610dea91906116b4565b610df49190611aa5565b610dfb565b815b90508084600001819055508273ffffffffffffffffffffffffffffffffffffffff167fbb0549e0aedb1fcc6a27d802df340bb4bd5dc53b1f97f3736a879345232e6def82604051610e4c91906110e8565b60405180910390a250505050565b600080fd5b600073ffffffffffffffffffffffffffffffffffffffff82169050919050565b6000610e8a82610e5f565b9050919050565b610e9a81610e7f565b8114610ea557600080fd5b50565b600081359050610eb781610e91565b92915050565b600060208284031215610ed357610ed2610e5a565b5b6000610ee184828501610ea8565b91505092915050565b6000819050919050565b610efd81610eea565b82525050565b600081519050919050565b600082825260208201905092915050565b6000819050602082019050919050565b6000819050919050565b610f4281610f2f565b82525050565b6000610f548383610f39565b60208301905092915050565b6000602082019050919050565b6000610f7882610f03565b610f828185610f0e565b9350610f8d83610f1f565b8060005b83811015610fbe578151610fa58882610f48565b9750610fb083610f60565b925050600181019050610f91565b5085935050505092915050565b6000604082019050610fe06000830185610ef4565b8181036020830152610ff28184610f6d565b90509392505050565b61100481610f2f565b811461100f57600080fd5b50565b60008135905061102181610ffb565b92915050565b60006020828403121561103d5761103c610e5a565b5b600061104b84828501611012565b91505092915050565b61105d81610e7f565b82525050565b60006020820190506110786000830184611054565b92915050565b6000806040838503121561109557611094610e5a565b5b60006110a385828601610ea8565b92505060206110b485828601611012565b9150509250929050565b6110c781610f2f565b82525050565b60006020820190506110e260008301846110be565b92915050565b60006020820190506110fd6000830184610ef4565b92915050565b61110c81610eea565b811461111757600080fd5b50565b60008135905061112981611103565b92915050565b600060ff82169050919050565b6111458161112f565b811461115057600080fd5b50565b6000813590506111628161113c565b92915050565b600080600080600080600060e0888a03121561118757611186610e5a565b5b60006111958a828b01610ea8565b97505060206111a68a828b01611012565b96505060406111b78a828b0161111a565b95505060606111c88a828b0161111a565b94505060806111d98a828b01611153565b93505060a06111ea8a828b01611012565b92505060c06111fb8a828b01611012565b91505092959891949750929550565b600080600080600080600080610100898b03121561122b5761122a610e5a565b5b60006112398b828c01610ea8565b985050602061124a8b828c01611012565b975050604061125b8b828c01611012565b965050606061126c8b828c0161111a565b955050608061127d8b828c0161111a565b94505060a061128e8b828c01611153565b93505060c061129f8b828c01611012565b92505060e06112b08b828c01611012565b9150509295985092959890939650565b600060208201905081810360008301526112da8184610f6d565b905092915050565b600080604083850312156112f9576112f8610e5a565b5b600061130785828601611012565b925050602061131885828601611012565b9150509250929050565b600060a08201905061133760008301886110be565b6113446020830187611054565b61135160408301866110be565b61135e6060830185610ef4565b61136b6080830184610ef4565b9695505050505050565b600082825260208201905092915050565b7f477561726469616e52656769737472793a20696e76616c696420757365720000600082015250565b60006113bc601e83611375565b91506113c782611386565b602082019050919050565b600060208201905081810360008301526113eb816113af565b9050919050565b7f477561726469616e52656769737472793a20696e76616c6964206e6f6e636500600082015250565b6000611428601f83611375565b9150611433826113f2565b602082019050919050565b600060208201905081810360008301526114578161141b565b9050919050565b7f477561726469616e52656769737472793a207369676e6174757265206578706960008201527f7265640000000000000000000000000000000000000000000000000000000000602082015250565b60006114ba602383611375565b91506114c58261145e565b604082019050919050565b600060208201905081810360008301526114e9816114ad565b9050919050565b600081905092915050565b7f1901000000000000000000000000000000000000000000000000000000000000600082015250565b60006115316002836114f0565b915061153c826114fb565b600282019050919050565b6000819050919050565b61156261155d82610f2f565b611547565b82525050565b600061157382611524565b915061157f8285611551565b60208201915061158f8284611551565b6020820191508190509392505050565b6115a88161112f565b82525050565b60006080820190506115c360008301876110be565b6115d0602083018661159f565b6115dd60408301856110be565b6115ea60608301846110be565b95945050505050565b7f477561726469616e52656769737472793a20696e76616c6964207369676e617460008201527f7572650000000000000000000000000000000000000000000000000000000000602082015250565b600061164f602383611375565b915061165a826115f3565b604082019050919050565b6000602082019050818103600083015261167e81611642565b9050919050565b7f4e487b7100000000000000000000000000000000000000000000000000000000600052601160045260246000fd5b60006116bf82610eea565b91506116ca83610eea565b92508282019050808211156116e2576116e1611685565b5b92915050565b7f477561726469616e52656769737472793a20677561726469616e206d6973736960008201527f6e67000000000000000000000000000000000000000000000000000000000000602082015250565b6000611744602283611375565b915061174f826116e8565b604082019050919050565b6000602082019050818103600083015261177381611737565b9050919050565b600061178582610eea565b915061179083610eea565b92508282039050818111156117a8576117a7611685565b5b92915050565b7f4e487b7100000000000000000000000000000000000000000000000000000000600052603260045260246000fd5b7f4e487b7100000000000000000000000000000000000000000000000000000000600052603160045260246000fd5b600060c08201905061182160008301896110be565b61182e6020830188611054565b61183b60408301876110be565b61184860608301866110be565b6118556080830185610ef4565b61186260a0830184610ef4565b979650505050505050565b7f477561726469616e52656769737472793a20696e76616c69642043494420686160008201527f7368000000000000000000000000000000000000000000000000000000000000602082015250565b60006118c9602283611375565b91506118d48261186d565b604082019050919050565b600060208201905081810360008301526118f8816118bc565b9050919050565b7f477561726469616e52656769737472793a20696e76616c69642061757468206860008201527f6173680000000000000000000000000000000000000000000000000000000000602082015250565b600061195b602383611375565b9150611966826118ff565b604082019050919050565b6000602082019050818103600083015261198a8161194e565b9050919050565b7f477561726469616e52656769737472793a20677561726469616e20657869737460008201527f7300000000000000000000000000000000000000000000000000000000000000602082015250565b60006119ed602183611375565b91506119f882611991565b604082019050919050565b60006020820190508181036000830152611a1c816119e0565b9050919050565b600060a082019050611a3860008301886110be565b611a4560208301876110be565b611a5260408301866110be565b611a5f6060830185610ef4565b611a6c6080830184611054565b9695505050505050565b7f4e487b7100000000000000000000000000000000000000000000000000000000600052601260045260246000fd5b6000611ab082610eea565b9150611abb83610eea565b925082611acb57611aca611a76565b5b82820490509291505056fea2646970667358221220f6dd202155b366c3262507f7b1ad89b21b359d08a01ec245f3420e6148aa930b64736f6c63430008180033","opcodes":"PUSH1 0x80 PUSH1 0x40 MSTORE CALLVALUE DUP1 ISZERO PUSH2 0x10 JUMPI PUSH1 0x0 DUP1 REVERT JUMPDEST POP PUSH2 0x1B0C DUP1 PUSH2 0x20 PUSH1 0x0 CODECOPY PUSH1 0x0 RETURN INVALID PUSH1 0x80 PUSH1 0x40 MSTORE CALLVALUE DUP1 ISZERO PUSH2 0x10 JUMPI PUSH1 0x0 DUP1 REVERT JUMPDEST POP PUSH1 0x4 CALLDATASIZE LT PUSH2 0x9E JUMPI PUSH1 0x0 CALLDATALOAD PUSH1 0xE0 SHR DUP1 PUSH4 0x8E26DF0F GT PUSH2 0x66 JUMPI DUP1 PUSH4 0x8E26DF0F EQ PUSH2 0x194 JUMPI DUP1 PUSH4 0xCAD39D65 EQ PUSH2 0x1B0 JUMPI DUP1 PUSH4 0xD9449D12 EQ PUSH2 0x1CC JUMPI DUP1 PUSH4 0xE956BB65 EQ PUSH2 0x1E8 JUMPI DUP1 PUSH4 0xFB948690 EQ PUSH2 0x218 JUMPI PUSH2 0x9E JUMP JUMPDEST DUP1 PUSH4 0xBB6094A EQ PUSH2 0xA3 JUMPI DUP1 PUSH4 0x449E800F EQ PUSH2 0xD4 JUMPI DUP1 PUSH4 0x76716BBE EQ PUSH2 0x104 JUMPI DUP1 PUSH4 0x78977168 EQ PUSH2 0x134 JUMPI DUP1 PUSH4 0x7ECEBE00 EQ PUSH2 0x164 JUMPI JUMPDEST PUSH1 0x0 DUP1 REVERT JUMPDEST PUSH2 0xBD PUSH1 0x4 DUP1 CALLDATASIZE SUB DUP2 ADD SWAP1 PUSH2 0xB8 SWAP2 SWAP1 PUSH2 0xEBD JUMP JUMPDEST PUSH2 0x234 JUMP JUMPDEST PUSH1 0x40 MLOAD PUSH2 0xCB SWAP3 SWAP2 SWAP1 PUSH2 0xFCB JUMP JUMPDEST PUSH1 0x40 MLOAD DUP1 SWAP2 SUB SWAP1 RETURN JUMPDEST PUSH2 0xEE PUSH1 0x4 DUP1 CALLDATASIZE SUB DUP2 ADD SWAP1 PUSH2 0xE9 SWAP2 SWAP1 PUSH2 0x1027 JUMP JUMPDEST PUSH2 0x2DF JUMP JUMPDEST PUSH1 0x40 MLOAD PUSH2 0xFB SWAP2 SWAP1 PUSH2 0x1063 JUMP JUMPDEST PUSH1 0x40 MLOAD DUP1 SWAP2 SUB SWAP1 RETURN JUMPDEST PUSH2 0x11E PUSH1 0x4 DUP1 CALLDATASIZE SUB DUP2 ADD SWAP1 PUSH2 0x119 SWAP2 SWAP1 PUSH2 0x107E JUMP JUMPDEST PUSH2 0x31C JUMP JUMPDEST PUSH1 0x40 MLOAD PUSH2 0x12B SWAP2 SWAP1 PUSH2 0x10CD JUMP JUMPDEST PUSH1 0x40 MLOAD DUP1 SWAP2 SUB SWAP1 RETURN JUMPDEST PUSH2 0x14E PUSH1 0x4 DUP1 CALLDATASIZE SUB DUP2 ADD SWAP1 PUSH2 0x149 SWAP2 SWAP1 PUSH2 0xEBD JUMP JUMPDEST PUSH2 0x379 JUMP JUMPDEST PUSH1 0x40 MLOAD PUSH2 0x15B SWAP2 SWAP1 PUSH2 0x10E8 JUMP JUMPDEST PUSH1 0x40 MLOAD DUP1 SWAP2 SUB SWAP1 RETURN JUMPDEST PUSH2 0x17E PUSH1 0x4 DUP1 CALLDATASIZE SUB DUP2 ADD SWAP1 PUSH2 0x179 SWAP2 SWAP1 PUSH2 0xEBD JUMP JUMPDEST PUSH2 0x3C4 JUMP JUMPDEST PUSH1 0x40 MLOAD PUSH2 0x18B SWAP2 SWAP1 PUSH2 0x10E8 JUMP JUMPDEST PUSH1 0x40 MLOAD DUP1 SWAP2 SUB SWAP1 RETURN JUMPDEST PUSH2 0x1AE PUSH1 0x4 DUP1 CALLDATASIZE SUB DUP2 ADD SWAP1 PUSH2 0x1A9 SWAP2 SWAP1 PUSH2 0x1168 JUMP JUMPDEST PUSH2 0x3DC JUMP JUMPDEST STOP JUMPDEST PUSH2 0x1CA PUSH1 0x4 DUP1 CALLDATASIZE SUB DUP2 ADD SWAP1 PUSH2 0x1C5 SWAP2 SWAP1 PUSH2 0x120A JUMP JUMPDEST PUSH2 0x409 JUMP JUMPDEST STOP JUMPDEST PUSH2 0x1E6 PUSH1 0x4 DUP1 CALLDATASIZE SUB DUP2 ADD SWAP1 PUSH2 0x1E1 SWAP2 SWAP1 PUSH2 0x1027 JUMP JUMPDEST PUSH2 0x439 JUMP JUMPDEST STOP JUMPDEST PUSH2 0x202 PUSH1 0x4 DUP1 CALLDATASIZE SUB DUP2 ADD SWAP1 PUSH2 0x1FD SWAP2 SWAP1 PUSH2 0xEBD JUMP JUMPDEST PUSH2 0x446 JUMP JUMPDEST PUSH1 0x40 MLOAD PUSH2 0x20F SWAP2 SWAP1 PUSH2 0x12C0 JUMP JUMPDEST PUSH1 0x40 MLOAD DUP1 SWAP2 SUB SWAP1 RETURN JUMPDEST PUSH2 0x232 PUSH1 0x4 DUP1 CALLDATASIZE SUB DUP2 ADD SWAP1 PUSH2 0x22D SWAP2 SWAP1 PUSH2 0x12E2 JUMP JUMPDEST PUSH2 0x4DF JUMP JUMPDEST STOP JUMPDEST PUSH1 0x0 PUSH1 0x60 PUSH1 0x0 DUP1 PUSH1 0x0 DUP6 PUSH20 0xFFFFFFFFFFFFFFFFFFFFFFFFFFFFFFFFFFFFFFFF AND PUSH20 0xFFFFFFFFFFFFFFFFFFFFFFFFFFFFFFFFFFFFFFFF AND DUP2 MSTORE PUSH1 0x20 ADD SWAP1 DUP2 MSTORE PUSH1 0x20 ADD PUSH1 0x0 KECCAK256 SWAP1 POP DUP1 PUSH1 0x0 ADD SLOAD DUP2 PUSH1 0x1 ADD DUP1 DUP1 SLOAD DUP1 PUSH1 0x20 MUL PUSH1 0x20 ADD PUSH1 0x40 MLOAD SWAP1 DUP2 ADD PUSH1 0x40 MSTORE DUP1 SWAP3 SWAP2 SWAP1 DUP2 DUP2 MSTORE PUSH1 0x20 ADD DUP3 DUP1 SLOAD DUP1 ISZERO PUSH2 0x2CE JUMPI PUSH1 0x20 MUL DUP3 ADD SWAP2 SWAP1 PUSH1 0x0 MSTORE PUSH1 0x20 PUSH1 0x0 KECCAK256 SWAP1 JUMPDEST DUP2 SLOAD DUP2 MSTORE PUSH1 0x20 ADD SWAP1 PUSH1 0x1 ADD SWAP1 DUP1 DUP4 GT PUSH2 0x2BA JUMPI JUMPDEST POP POP POP POP POP SWAP1 POP SWAP3 POP SWAP3 POP POP SWAP2 POP SWAP2 JUMP JUMPDEST PUSH1 0x0 PUSH1 0x1 PUSH1 0x0 DUP4 DUP2 MSTORE PUSH1 0x20 ADD SWAP1 DUP2 MSTORE PUSH1 0x20 ADD PUSH1 0x0 KECCAK256 PUSH1 0x0 SWAP1 SLOAD SWAP1 PUSH2 0x100 EXP SWAP1 DIV PUSH20 0xFFFFFFFFFFFFFFFFFFFFFFFFFFFFFFFFFFFFFFFF AND SWAP1 POP SWAP2 SWAP1 POP JUMP JUMPDEST PUSH1 0x0 DUP1 PUSH1 0x0 DUP5 PUSH20 0xFFFFFFFFFFFFFFFFFFFFFFFFFFFFFFFFFFFFFFFF AND PUSH20 0xFFFFFFFFFFFFFFFFFFFFFFFFFFFFFFFFFFFFFFFF AND DUP2 MSTORE PUSH1 0x20 ADD SWAP1 DUP2 MSTORE PUSH1 0x20 ADD PUSH1 0x0 KECCAK256 PUSH1 0x2 ADD PUSH1 0x0 DUP4 DUP2 MSTORE PUSH1 0x20 ADD SWAP1 DUP2 MSTORE PUSH1 0x20 ADD PUSH1 0x0 KECCAK256 SLOAD SWAP1 POP SWAP3 SWAP2 POP POP JUMP JUMPDEST PUSH1 0x0 DUP1 PUSH1 0x0 DUP4 PUSH20 0xFFFFFFFFFFFFFFFFFFFFFFFFFFFFFFFFFFFFFFFF AND PUSH20 0xFFFFFFFFFFFFFFFFFFFFFFFFFFFFFFFFFFFFFFFF AND DUP2 MSTORE PUSH1 0x20 ADD SWAP1 DUP2 MSTORE PUSH1 0x20 ADD PUSH1 0x0 KECCAK256 PUSH1 0x0 ADD SLOAD SWAP1 POP SWAP2 SWAP1 POP JUMP JUMPDEST PUSH1 0x2 PUSH1 0x20 MSTORE DUP1 PUSH1 0x0 MSTORE PUSH1 0x40 PUSH1 0x0 KECCAK256 PUSH1 0x0 SWAP2 POP SWAP1 POP SLOAD DUP2 JUMP JUMPDEST PUSH2 0x3F6 DUP8 PUSH2 0x3EC DUP10 DUP10 DUP10 DUP10 PUSH2 0x4EE JUMP JUMPDEST DUP8 DUP8 DUP8 DUP8 DUP8 PUSH2 0x549 JUMP JUMPDEST PUSH2 0x400 DUP8 DUP8 PUSH2 0x80E JUMP JUMPDEST POP POP POP POP POP POP POP JUMP JUMPDEST PUSH2 0x424 DUP9 PUSH2 0x41A DUP11 DUP11 DUP11 DUP11 DUP11 PUSH2 0xA5D JUMP JUMPDEST DUP8 DUP8 DUP8 DUP8 DUP8 PUSH2 0x549 JUMP JUMPDEST PUSH2 0x42F DUP9 DUP9 DUP9 PUSH2 0xABB JUMP JUMPDEST POP POP POP POP POP POP POP POP JUMP JUMPDEST PUSH2 0x443 CALLER DUP3 PUSH2 0x80E JUMP JUMPDEST POP JUMP JUMPDEST PUSH1 0x60 PUSH1 0x0 DUP1 DUP4 PUSH20 0xFFFFFFFFFFFFFFFFFFFFFFFFFFFFFFFFFFFFFFFF AND PUSH20 0xFFFFFFFFFFFFFFFFFFFFFFFFFFFFFFFFFFFFFFFF AND DUP2 MSTORE PUSH1 0x20 ADD SWAP1 DUP2 MSTORE PUSH1 0x20 ADD PUSH1 0x0 KECCAK256 PUSH1 0x1 ADD DUP1 SLOAD DUP1 PUSH1 0x20 MUL PUSH1 0x20 ADD PUSH1 0x40 MLOAD SWAP1 DUP2 ADD PUSH1 0x40 MSTORE DUP1 SWAP3 SWAP2 SWAP1 DUP2 DUP2 MSTORE PUSH1 0x20 ADD DUP3 DUP1 SLOAD DUP1 ISZERO PUSH2 0x4D3 JUMPI PUSH1 0x20 MUL DUP3 ADD SWAP2 SWAP1 PUSH1 0x0 MSTORE PUSH1 0x20 PUSH1 0x0 KECCAK256 SWAP1 JUMPDEST DUP2 SLOAD DUP2 MSTORE PUSH1 0x20 ADD SWAP1 PUSH1 0x1 ADD SWAP1 DUP1 DUP4 GT PUSH2 0x4BF JUMPI JUMPDEST POP POP POP POP POP SWAP1 POP SWAP2 SWAP1 POP JUMP JUMPDEST PUSH2 0x4EA CALLER DUP4 DUP4 PUSH2 0xABB JUMP JUMPDEST POP POP JUMP JUMPDEST PUSH1 0x0 PUSH32 0xA400F0E70D55E122AA5AE7CEC68DD62D343C2A2781E04542EC6E741DA8DEED26 DUP6 DUP6 DUP6 DUP6 PUSH1 0x40 MLOAD PUSH1 0x20 ADD PUSH2 0x529 SWAP6 SWAP5 SWAP4 SWAP3 SWAP2 SWAP1 PUSH2 0x1322 JUMP JUMPDEST PUSH1 0x40 MLOAD PUSH1 0x20 DUP2 DUP4 SUB SUB DUP2 MSTORE SWAP1 PUSH1 0x40 MSTORE DUP1 MLOAD SWAP1 PUSH1 0x20 ADD KECCAK256 SWAP1 POP SWAP5 SWAP4 POP POP POP POP JUMP JUMPDEST PUSH1 0x0 PUSH20 0xFFFFFFFFFFFFFFFFFFFFFFFFFFFFFFFFFFFFFFFF AND DUP8 PUSH20 0xFFFFFFFFFFFFFFFFFFFFFFFFFFFFFFFFFFFFFFFF AND SUB PUSH2 0x5B8 JUMPI PUSH1 0x40 MLOAD PUSH32 0x8C379A000000000000000000000000000000000000000000000000000000000 DUP2 MSTORE PUSH1 0x4 ADD PUSH2 0x5AF SWAP1 PUSH2 0x13D2 JUMP JUMPDEST PUSH1 0x40 MLOAD DUP1 SWAP2 SUB SWAP1 REVERT JUMPDEST PUSH1 0x2 PUSH1 0x0 DUP9 PUSH20 0xFFFFFFFFFFFFFFFFFFFFFFFFFFFFFFFFFFFFFFFF AND PUSH20 0xFFFFFFFFFFFFFFFFFFFFFFFFFFFFFFFFFFFFFFFF AND DUP2 MSTORE PUSH1 0x20 ADD SWAP1 DUP2 MSTORE PUSH1 0x20 ADD PUSH1 0x0 KECCAK256 SLOAD DUP6 EQ PUSH2 0x639 JUMPI PUSH1 0x40 MLOAD PUSH32 0x8C379A000000000000000000000000000000000000000000000000000000000 DUP2 MSTORE PUSH1 0x4 ADD PUSH2 0x630 SWAP1 PUSH2 0x143E JUMP JUMPDEST PUSH1 0x40 MLOAD DUP1 SWAP2 SUB SWAP1 REVERT JUMPDEST PUSH1 0x0 DUP5 EQ PUSH2 0x685 JUMPI DUP4 TIMESTAMP GT ISZERO PUSH2 0x684 JUMPI PUSH1 0x40 MLOAD PUSH32 0x8C379A000000000000000000000000000000000000000000000000000000000 DUP2 MSTORE PUSH1 0x4 ADD PUSH2 0x67B SWAP1 PUSH2 0x14D0 JUMP JUMPDEST PUSH1 0x40 MLOAD DUP1 SWAP2 SUB SWAP1 REVERT JUMPDEST JUMPDEST PUSH1 0x0 PUSH2 0x68F PUSH2 0xCF6 JUMP JUMPDEST DUP8 PUSH1 0x40 MLOAD PUSH1 0x20 ADD PUSH2 0x6A1 SWAP3 SWAP2 SWAP1 PUSH2 0x1568 JUMP JUMPDEST PUSH1 0x40 MLOAD PUSH1 0x20 DUP2 DUP4 SUB SUB DUP2 MSTORE SWAP1 PUSH1 0x40 MSTORE DUP1 MLOAD SWAP1 PUSH1 0x20 ADD KECCAK256 SWAP1 POP PUSH1 0x0 PUSH1 0x1 DUP3 DUP7 DUP7 DUP7 PUSH1 0x40 MLOAD PUSH1 0x0 DUP2 MSTORE PUSH1 0x20 ADD PUSH1 0x40 MSTORE PUSH1 0x40 MLOAD PUSH2 0x6DE SWAP5 SWAP4 SWAP3 SWAP2 SWAP1 PUSH2 0x15AE JUMP JUMPDEST PUSH1 0x20 PUSH1 0x40 MLOAD PUSH1 0x20 DUP2 SUB SWAP1 DUP1 DUP5 SUB SWAP1 DUP6 GAS STATICCALL ISZERO DUP1 ISZERO PUSH2 0x700 JUMPI RETURNDATASIZE PUSH1 0x0 DUP1 RETURNDATACOPY RETURNDATASIZE PUSH1 0x0 REVERT JUMPDEST POP POP POP PUSH1 0x20 PUSH1 0x40 MLOAD SUB MLOAD SWAP1 POP PUSH1 0x0 PUSH20 0xFFFFFFFFFFFFFFFFFFFFFFFFFFFFFFFFFFFFFFFF AND DUP2 PUSH20 0xFFFFFFFFFFFFFFFFFFFFFFFFFFFFFFFFFFFFFFFF AND EQ ISZERO DUP1 ISZERO PUSH2 0x774 JUMPI POP DUP9 PUSH20 0xFFFFFFFFFFFFFFFFFFFFFFFFFFFFFFFFFFFFFFFF AND DUP2 PUSH20 0xFFFFFFFFFFFFFFFFFFFFFFFFFFFFFFFFFFFFFFFF AND EQ JUMPDEST PUSH2 0x7B3 JUMPI PUSH1 0x40 MLOAD PUSH32 0x8C379A000000000000000000000000000000000000000000000000000000000 DUP2 MSTORE PUSH1 0x4 ADD PUSH2 0x7AA SWAP1 PUSH2 0x1665 JUMP JUMPDEST PUSH1 0x40 MLOAD DUP1 SWAP2 SUB SWAP1 REVERT JUMPDEST PUSH1 0x1 DUP8 PUSH2 0x7C0 SWAP2 SWAP1 PUSH2 0x16B4 JUMP JUMPDEST PUSH1 0x2 PUSH1 0x0 DUP12 PUSH20 0xFFFFFFFFFFFFFFFFFFFFFFFFFFFFFFFFFFFFFFFF AND PUSH20 0xFFFFFFFFFFFFFFFFFFFFFFFFFFFFFFFFFFFFFFFF AND DUP2 MSTORE PUSH1 0x20 ADD SWAP1 DUP2 MSTORE PUSH1 0x20 ADD PUSH1 0x0 KECCAK256 DUP2 SWAP1 SSTORE POP POP POP POP POP POP POP POP POP POP JUMP JUMPDEST PUSH1 0x0 DUP1 PUSH1 0x0 DUP5 PUSH20 0xFFFFFFFFFFFFFFFFFFFFFFFFFFFFFFFFFFFFFFFF AND PUSH20 0xFFFFFFFFFFFFFFFFFFFFFFFFFFFFFFFFFFFFFFFF AND DUP2 MSTORE PUSH1 0x20 ADD SWAP1 DUP2 MSTORE PUSH1 0x20 ADD PUSH1 0x0 KECCAK256 SWAP1 POP PUSH1 0x0 DUP2 PUSH1 0x3 ADD PUSH1 0x0 DUP5 DUP2 MSTORE PUSH1 0x20 ADD SWAP1 DUP2 MSTORE PUSH1 0x20 ADD PUSH1 0x0 KECCAK256 SLOAD SWAP1 POP PUSH1 0x0 DUP2 SUB PUSH2 0x8AD JUMPI PUSH1 0x40 MLOAD PUSH32 0x8C379A000000000000000000000000000000000000000000000000000000000 DUP2 MSTORE PUSH1 0x4 ADD PUSH2 0x8A4 SWAP1 PUSH2 0x175A JUMP JUMPDEST PUSH1 0x40 MLOAD DUP1 SWAP2 SUB SWAP1 REVERT JUMPDEST PUSH1 0x0 PUSH1 0x1 DUP3 PUSH2 0x8BC SWAP2 SWAP1 PUSH2 0x177A JUMP JUMPDEST SWAP1 POP PUSH1 0x0 PUSH1 0x1 DUP5 PUSH1 0x1 ADD DUP1 SLOAD SWAP1 POP PUSH2 0x8D4 SWAP2 SWAP1 PUSH2 0x177A JUMP JUMPDEST SWAP1 POP DUP1 DUP3 EQ PUSH2 0x94F JUMPI PUSH1 0x0 DUP5 PUSH1 0x1 ADD DUP3 DUP2 SLOAD DUP2 LT PUSH2 0x8F5 JUMPI PUSH2 0x8F4 PUSH2 0x17AE JUMP JUMPDEST JUMPDEST SWAP1 PUSH1 0x0 MSTORE PUSH1 0x20 PUSH1 0x0 KECCAK256 ADD SLOAD SWAP1 POP DUP1 DUP6 PUSH1 0x1 ADD DUP5 DUP2 SLOAD DUP2 LT PUSH2 0x919 JUMPI PUSH2 0x918 PUSH2 0x17AE JUMP JUMPDEST JUMPDEST SWAP1 PUSH1 0x0 MSTORE PUSH1 0x20 PUSH1 0x0 KECCAK256 ADD DUP2 SWAP1 SSTORE POP PUSH1 0x1 DUP4 PUSH2 0x934 SWAP2 SWAP1 PUSH2 0x16B4 JUMP JUMPDEST DUP6 PUSH1 0x3 ADD PUSH1 0x0 DUP4 DUP2 MSTORE PUSH1 0x20 ADD SWAP1 DUP2 MSTORE PUSH1 0x20 ADD PUSH1 0x0 KECCAK256 DUP2 SWAP1 SSTORE POP POP JUMPDEST DUP4 PUSH1 0x1 ADD DUP1 SLOAD DUP1 PUSH2 0x963 JUMPI PUSH2 0x962 PUSH2 0x17DD JUMP JUMPDEST JUMPDEST PUSH1 0x1 SWAP1 SUB DUP2 DUP2 SWAP1 PUSH1 0x0 MSTORE PUSH1 0x20 PUSH1 0x0 KECCAK256 ADD PUSH1 0x0 SWAP1 SSTORE SWAP1 SSTORE DUP4 PUSH1 0x3 ADD PUSH1 0x0 DUP7 DUP2 MSTORE PUSH1 0x20 ADD SWAP1 DUP2 MSTORE PUSH1 0x20 ADD PUSH1 0x0 KECCAK256 PUSH1 0x0 SWAP1 SSTORE PUSH1 0x0 DUP5 PUSH1 0x2 ADD PUSH1 0x0 DUP8 DUP2 MSTORE PUSH1 0x20 ADD SWAP1 DUP2 MSTORE PUSH1 0x20 ADD PUSH1 0x0 KECCAK256 SLOAD SWAP1 POP DUP5 PUSH1 0x2 ADD PUSH1 0x0 DUP8 DUP2 MSTORE PUSH1 0x20 ADD SWAP1 DUP2 MSTORE PUSH1 0x20 ADD PUSH1 0x0 KECCAK256 PUSH1 0x0 SWAP1 SSTORE PUSH1 0x0 DUP1 SHL DUP2 EQ PUSH2 0xA06 JUMPI PUSH1 0x1 PUSH1 0x0 DUP3 DUP2 MSTORE PUSH1 0x20 ADD SWAP1 DUP2 MSTORE PUSH1 0x20 ADD PUSH1 0x0 KECCAK256 PUSH1 0x0 PUSH2 0x100 EXP DUP2 SLOAD SWAP1 PUSH20 0xFFFFFFFFFFFFFFFFFFFFFFFFFFFFFFFFFFFFFFFF MUL NOT AND SWAP1 SSTORE JUMPDEST PUSH2 0xA10 DUP6 DUP9 PUSH2 0xDC4 JUMP JUMPDEST DUP6 DUP8 PUSH20 0xFFFFFFFFFFFFFFFFFFFFFFFFFFFFFFFFFFFFFFFF AND PUSH32 0x75CD8D9F01B90FE59E0FECFD8DE59D529A5088507DB54C294254708D1E982C25 PUSH1 0x40 MLOAD PUSH1 0x40 MLOAD DUP1 SWAP2 SUB SWAP1 LOG3 POP POP POP POP POP POP POP JUMP JUMPDEST PUSH1 0x0 PUSH32 0xAE5EA7D31BEC9C26F4ECD3E7A0B14EC7197DE44C1EA8FD41CA6E8308EF37DF6A DUP7 DUP7 DUP7 DUP7 DUP7 PUSH1 0x40 MLOAD PUSH1 0x20 ADD PUSH2 0xA9A SWAP7 SWAP6 SWAP5 SWAP4 SWAP3 SWAP2 SWAP1 PUSH2 0x180C JUMP JUMPDEST PUSH1 0x40 MLOAD PUSH1 0x20 DUP2 DUP4 SUB SUB DUP2 MSTORE SWAP1 PUSH1 0x40 MSTORE DUP1 MLOAD SWAP1 PUSH1 0x20 ADD KECCAK256 SWAP1 POP SWAP6 SWAP5 POP POP POP POP POP JUMP JUMPDEST PUSH1 0x0 DUP1 SHL DUP3 SUB PUSH2 0xB00 JUMPI PUSH1 0x40 MLOAD PUSH32 0x8C379A000000000000000000000000000000000000000000000000000000000 DUP2 MSTORE PUSH1 0x4 ADD PUSH2 0xAF7 SWAP1 PUSH2 0x18DF JUMP JUMPDEST PUSH1 0x40 MLOAD DUP1 SWAP2 SUB SWAP1 REVERT JUMPDEST PUSH1 0x0 DUP1 SHL DUP2 SUB PUSH2 0xB45 JUMPI PUSH1 0x40 MLOAD PUSH32 0x8C379A000000000000000000000000000000000000000000000000000000000 DUP2 MSTORE PUSH1 0x4 ADD PUSH2 0xB3C SWAP1 PUSH2 0x1971 JUMP JUMPDEST PUSH1 0x40 MLOAD DUP1 SWAP2 SUB SWAP1 REVERT JUMPDEST PUSH1 0x0 DUP1 PUSH1 0x0 DUP6 PUSH20 0xFFFFFFFFFFFFFFFFFFFFFFFFFFFFFFFFFFFFFFFF AND PUSH20 0xFFFFFFFFFFFFFFFFFFFFFFFFFFFFFFFFFFFFFFFF AND DUP2 MSTORE PUSH1 0x20 ADD SWAP1 DUP2 MSTORE PUSH1 0x20 ADD PUSH1 0x0 KECCAK256 SWAP1 POP PUSH1 0x0 DUP2 PUSH1 0x3 ADD PUSH1 0x0 DUP6 DUP2 MSTORE PUSH1 0x20 ADD SWAP1 DUP2 MSTORE PUSH1 0x20 ADD PUSH1 0x0 KECCAK256 SLOAD EQ PUSH2 0xBDF JUMPI PUSH1 0x40 MLOAD PUSH32 0x8C379A000000000000000000000000000000000000000000000000000000000 DUP2 MSTORE PUSH1 0x4 ADD PUSH2 0xBD6 SWAP1 PUSH2 0x1A03 JUMP JUMPDEST PUSH1 0x40 MLOAD DUP1 SWAP2 SUB SWAP1 REVERT JUMPDEST DUP1 PUSH1 0x1 ADD DUP4 SWAP1 DUP1 PUSH1 0x1 DUP2 SLOAD ADD DUP1 DUP3 SSTORE DUP1 SWAP2 POP POP PUSH1 0x1 SWAP1 SUB SWAP1 PUSH1 0x0 MSTORE PUSH1 0x20 PUSH1 0x0 KECCAK256 ADD PUSH1 0x0 SWAP1 SWAP2 SWAP1 SWAP2 SWAP1 SWAP2 POP SSTORE DUP1 PUSH1 0x1 ADD DUP1 SLOAD SWAP1 POP DUP2 PUSH1 0x3 ADD PUSH1 0x0 DUP6 DUP2 MSTORE PUSH1 0x20 ADD SWAP1 DUP2 MSTORE PUSH1 0x20 ADD PUSH1 0x0 KECCAK256 DUP2 SWAP1 SSTORE POP DUP2 DUP2 PUSH1 0x2 ADD PUSH1 0x0 DUP6 DUP2 MSTORE PUSH1 0x20 ADD SWAP1 DUP2 MSTORE PUSH1 0x20 ADD PUSH1 0x0 KECCAK256 DUP2 SWAP1 SSTORE POP DUP4 PUSH1 0x1 PUSH1 0x0 DUP5 DUP2 MSTORE PUSH1 0x20 ADD SWAP1 DUP2 MSTORE PUSH1 0x20 ADD PUSH1 0x0 KECCAK256 PUSH1 0x0 PUSH2 0x100 EXP DUP2 SLOAD DUP2 PUSH20 0xFFFFFFFFFFFFFFFFFFFFFFFFFFFFFFFFFFFFFFFF MUL NOT AND SWAP1 DUP4 PUSH20 0xFFFFFFFFFFFFFFFFFFFFFFFFFFFFFFFFFFFFFFFF AND MUL OR SWAP1 SSTORE POP PUSH2 0xCA1 DUP2 DUP6 PUSH2 0xDC4 JUMP JUMPDEST DUP3 DUP5 PUSH20 0xFFFFFFFFFFFFFFFFFFFFFFFFFFFFFFFFFFFFFFFF AND PUSH32 0xC0F8A21CF3B51F550824358B896669327D4A555631B51C610B93A521CE5062EE DUP5 PUSH1 0x40 MLOAD PUSH2 0xCE8 SWAP2 SWAP1 PUSH2 0x10CD JUMP JUMPDEST PUSH1 0x40 MLOAD DUP1 SWAP2 SUB SWAP1 LOG3 POP POP POP POP JUMP JUMPDEST PUSH1 0x0 PUSH32 0x8B73C3C69BB8FE3D512ECC4CF759CC79239F7B179B0FFACAA9A75D522B39400F PUSH1 0x40 MLOAD DUP1 PUSH1 0x40 ADD PUSH1 0x40 MSTORE DUP1 PUSH1 0x10 DUP2 MSTORE PUSH1 0x20 ADD PUSH32 0x477561726469616E526567697374727900000000000000000000000000000000 DUP2 MSTORE POP DUP1 MLOAD SWAP1 PUSH1 0x20 ADD KECCAK256 PUSH1 0x40 MLOAD DUP1 PUSH1 0x40 ADD PUSH1 0x40 MSTORE DUP1 PUSH1 0x1 DUP2 MSTORE PUSH1 0x20 ADD PUSH32 0x3100000000000000000000000000000000000000000000000000000000000000 DUP2 MSTORE POP DUP1 MLOAD SWAP1 PUSH1 0x20 ADD KECCAK256 CHAINID ADDRESS PUSH1 0x40 MLOAD PUSH1 0x20 ADD PUSH2 0xDA9 SWAP6 SWAP5 SWAP4 SWAP3 SWAP2 SWAP1 PUSH2 0x1A23 JUMP JUMPDEST PUSH1 0x40 MLOAD PUSH1 0x20 DUP2 DUP4 SUB SUB DUP2 MSTORE SWAP1 PUSH1 0x40 MSTORE DUP1 MLOAD SWAP1 PUSH1 0x20 ADD KECCAK256 SWAP1 POP SWAP1 JUMP JUMPDEST PUSH1 0x0 DUP3 PUSH1 0x1 ADD DUP1 SLOAD SWAP1 POP SWAP1 POP PUSH1 0x0 PUSH1 0x1 DUP3 GT ISZERO PUSH2 0xDF9 JUMPI PUSH1 0x2 PUSH1 0x1 DUP4 PUSH2 0xDEA SWAP2 SWAP1 PUSH2 0x16B4 JUMP JUMPDEST PUSH2 0xDF4 SWAP2 SWAP1 PUSH2 0x1AA5 JUMP JUMPDEST PUSH2 0xDFB JUMP JUMPDEST DUP2 JUMPDEST SWAP1 POP DUP1 DUP5 PUSH1 0x0 ADD DUP2 SWAP1 SSTORE POP DUP3 PUSH20 0xFFFFFFFFFFFFFFFFFFFFFFFFFFFFFFFFFFFFFFFF AND PUSH32 0xBB0549E0AEDB1FCC6A27D802DF340BB4BD5DC53B1F97F3736A879345232E6DEF DUP3 PUSH1 0x40 MLOAD PUSH2 0xE4C SWAP2 SWAP1 PUSH2 0x10E8 JUMP JUMPDEST PUSH1 0x40 MLOAD DUP1 SWAP2 SUB SWAP1 LOG2 POP POP POP POP JUMP JUMPDEST PUSH1 0x0 DUP1 REVERT JUMPDEST PUSH1 0x0 PUSH20 0xFFFFFFFFFFFFFFFFFFFFFFFFFFFFFFFFFFFFFFFF DUP3 AND SWAP1 POP SWAP2 SWAP1 POP JUMP JUMPDEST PUSH1 0x0 PUSH2 0xE8A DUP3 PUSH2 0xE5F JUMP JUMPDEST SWAP1 POP SWAP2 SWAP1 POP JUMP JUMPDEST PUSH2 0xE9A DUP2 PUSH2 0xE7F JUMP JUMPDEST DUP2 EQ PUSH2 0xEA5 JUMPI PUSH1 0x0 DUP1 REVERT JUMPDEST POP JUMP JUMPDEST PUSH1 0x0 DUP2 CALLDATALOAD SWAP1 POP PUSH2 0xEB7 DUP2 PUSH2 0xE91 JUMP JUMPDEST SWAP3 SWAP2 POP POP JUMP JUMPDEST PUSH1 0x0 PUSH1 0x20 DUP3 DUP5 SUB SLT ISZERO PUSH2 0xED3 JUMPI PUSH2 0xED2 PUSH2 0xE5A JUMP JUMPDEST JUMPDEST PUSH1 0x0 PUSH2 0xEE1 DUP5 DUP3 DUP6 ADD PUSH2 0xEA8 JUMP JUMPDEST SWAP2 POP POP SWAP3 SWAP2 POP POP JUMP JUMPDEST PUSH1 0x0 DUP2 SWAP1 POP SWAP2 SWAP1 POP JUMP JUMPDEST PUSH2 0xEFD DUP2 PUSH2 0xEEA JUMP JUMPDEST DUP3 MSTORE POP POP JUMP JUMPDEST PUSH1 0x0 DUP2 MLOAD SWAP1 POP SWAP2 SWAP1 POP JUMP JUMPDEST PUSH1 0x0 DUP3 DUP3 MSTORE PUSH1 0x20 DUP3 ADD SWAP1 POP SWAP3 SWAP2 POP POP JUMP JUMPDEST PUSH1 0x0 DUP2 SWAP1 POP PUSH1 0x20 DUP3 ADD SWAP1 POP SWAP2 SWAP1 POP JUMP JUMPDEST PUSH1 0x0 DUP2 SWAP1 POP SWAP2 SWAP1 POP JUMP JUMPDEST PUSH2 0xF42 DUP2 PUSH2 0xF2F JUMP JUMPDEST DUP3 MSTORE POP POP JUMP JUMPDEST PUSH1 0x0 PUSH2 0xF54 DUP4 DUP4 PUSH2 0xF39 JUMP JUMPDEST PUSH1 0x20 DUP4 ADD SWAP1 POP SWAP3 SWAP2 POP POP JUMP JUMPDEST PUSH1 0x0 PUSH1 0x20 DUP3 ADD SWAP1 POP SWAP2 SWAP1 POP JUMP JUMPDEST PUSH1 0x0 PUSH2 0xF78 DUP3 PUSH2 0xF03 JUMP JUMPDEST PUSH2 0xF82 DUP2 DUP6 PUSH2 0xF0E JUMP JUMPDEST SWAP4 POP PUSH2 0xF8D DUP4 PUSH2 0xF1F JUMP JUMPDEST DUP1 PUSH1 0x0 JUMPDEST DUP4 DUP2 LT ISZERO PUSH2 0xFBE JUMPI DUP2 MLOAD PUSH2 0xFA5 DUP9 DUP3 PUSH2 0xF48 JUMP JUMPDEST SWAP8 POP PUSH2 0xFB0 DUP4 PUSH2 0xF60 JUMP JUMPDEST SWAP3 POP POP PUSH1 0x1 DUP2 ADD SWAP1 POP PUSH2 0xF91 JUMP JUMPDEST POP DUP6 SWAP4 POP POP POP POP SWAP3 SWAP2 POP POP JUMP JUMPDEST PUSH1 0x0 PUSH1 0x40 DUP3 ADD SWAP1 POP PUSH2 0xFE0 PUSH1 0x0 DUP4 ADD DUP6 PUSH2 0xEF4 JUMP JUMPDEST DUP2 DUP2 SUB PUSH1 0x20 DUP4 ADD MSTORE PUSH2 0xFF2 DUP2 DUP5 PUSH2 0xF6D JUMP JUMPDEST SWAP1 POP SWAP4 SWAP3 POP POP POP JUMP JUMPDEST PUSH2 0x1004 DUP2 PUSH2 0xF2F JUMP JUMPDEST DUP2 EQ PUSH2 0x100F JUMPI PUSH1 0x0 DUP1 REVERT JUMPDEST POP JUMP JUMPDEST PUSH1 0x0 DUP2 CALLDATALOAD SWAP1 POP PUSH2 0x1021 DUP2 PUSH2 0xFFB JUMP JUMPDEST SWAP3 SWAP2 POP POP JUMP JUMPDEST PUSH1 0x0 PUSH1 0x20 DUP3 DUP5 SUB SLT ISZERO PUSH2 0x103D JUMPI PUSH2 0x103C PUSH2 0xE5A JUMP JUMPDEST JUMPDEST PUSH1 0x0 PUSH2 0x104B DUP5 DUP3 DUP6 ADD PUSH2 0x1012 JUMP JUMPDEST SWAP2 POP POP SWAP3 SWAP2 POP POP JUMP JUMPDEST PUSH2 0x105D DUP2 PUSH2 0xE7F JUMP JUMPDEST DUP3 MSTORE POP POP JUMP JUMPDEST PUSH1 0x0 PUSH1 0x20 DUP3 ADD SWAP1 POP PUSH2 0x1078 PUSH1 0x0 DUP4 ADD DUP5 PUSH2 0x1054 JUMP JUMPDEST SWAP3 SWAP2 POP POP JUMP JUMPDEST PUSH1 0x0 DUP1 PUSH1 0x40 DUP4 DUP6 SUB SLT ISZERO PUSH2 0x1095 JUMPI PUSH2 0x1094 PUSH2 0xE5A JUMP JUMPDEST JUMPDEST PUSH1 0x0 PUSH2 0x10A3 DUP6 DUP3 DUP7 ADD PUSH2 0xEA8 JUMP JUMPDEST SWAP3 POP POP PUSH1 0x20 PUSH2 0x10B4 DUP6 DUP3 DUP7 ADD PUSH2 0x1012 JUMP JUMPDEST SWAP2 POP POP SWAP3 POP SWAP3 SWAP1 POP JUMP JUMPDEST PUSH2 0x10C7 DUP2 PUSH2 0xF2F JUMP JUMPDEST DUP3 MSTORE POP POP JUMP JUMPDEST PUSH1 0x0 PUSH1 0x20 DUP3 ADD SWAP1 POP PUSH2 0x10E2 PUSH1 0x0 DUP4 ADD DUP5 PUSH2 0x10BE JUMP JUMPDEST SWAP3 SWAP2 POP POP JUMP JUMPDEST PUSH1 0x0 PUSH1 0x20 DUP3 ADD SWAP1 POP PUSH2 0x10FD PUSH1 0x0 DUP4 ADD DUP5 PUSH2 0xEF4 JUMP JUMPDEST SWAP3 SWAP2 POP POP JUMP JUMPDEST PUSH2 0x110C DUP2 PUSH2 0xEEA JUMP JUMPDEST DUP2 EQ PUSH2 0x1117 JUMPI PUSH1 0x0 DUP1 REVERT JUMPDEST POP JUMP JUMPDEST PUSH1 0x0 DUP2 CALLDATALOAD SWAP1 POP PUSH2 0x1129 DUP2 PUSH2 0x1103 JUMP JUMPDEST SWAP3 SWAP2 POP POP JUMP JUMPDEST PUSH1 0x0 PUSH1 0xFF DUP3 AND SWAP1 POP SWAP2 SWAP1 POP JUMP JUMPDEST PUSH2 0x1145 DUP2 PUSH2 0x112F JUMP JUMPDEST DUP2 EQ PUSH2 0x1150 JUMPI PUSH1 0x0 DUP1 REVERT JUMPDEST POP JUMP JUMPDEST PUSH1 0x0 DUP2 CALLDATALOAD SWAP1 POP PUSH2 0x1162 DUP2 PUSH2 0x113C JUMP JUMPDEST SWAP3 SWAP2 POP POP JUMP JUMPDEST PUSH1 0x0 DUP1 PUSH1 0x0 DUP1 PUSH1 0x0 DUP1 PUSH1 0x0 PUSH1 0xE0 DUP9 DUP11 SUB SLT ISZERO PUSH2 0x1187 JUMPI PUSH2 0x1186 PUSH2 0xE5A JUMP JUMPDEST JUMPDEST PUSH1 0x0 PUSH2 0x1195 DUP11 DUP3 DUP12 ADD PUSH2 0xEA8 JUMP JUMPDEST SWAP8 POP POP PUSH1 0x20 PUSH2 0x11A6 DUP11 DUP3 DUP12 ADD PUSH2 0x1012 JUMP JUMPDEST SWAP7 POP POP PUSH1 0x40 PUSH2 0x11B7 DUP11 DUP3 DUP12 ADD PUSH2 0x111A JUMP JUMPDEST SWAP6 POP POP PUSH1 0x60 PUSH2 0x11C8 DUP11 DUP3 DUP12 ADD PUSH2 0x111A JUMP JUMPDEST SWAP5 POP POP PUSH1 0x80 PUSH2 0x11D9 DUP11 DUP3 DUP12 ADD PUSH2 0x1153 JUMP JUMPDEST SWAP4 POP POP PUSH1 0xA0 PUSH2 0x11EA DUP11 DUP3 DUP12 ADD PUSH2 0x1012 JUMP JUMPDEST SWAP3 POP POP PUSH1 0xC0 PUSH2 0x11FB DUP11 DUP3 DUP12 ADD PUSH2 0x1012 JUMP JUMPDEST SWAP2 POP POP SWAP3 SWAP6 SWAP9 SWAP2 SWAP5 SWAP8 POP SWAP3 SWAP6 POP JUMP JUMPDEST PUSH1 0x0 DUP1 PUSH1 0x0 DUP1 PUSH1 0x0 DUP1 PUSH1 0x0 DUP1 PUSH2 0x100 DUP10 DUP12 SUB SLT ISZERO PUSH2 0x122B JUMPI PUSH2 0x122A PUSH2 0xE5A JUMP JUMPDEST JUMPDEST PUSH1 0x0 PUSH2 0x1239 DUP12 DUP3 DUP13 ADD PUSH2 0xEA8 JUMP JUMPDEST SWAP9 POP POP PUSH1 0x20 PUSH2 0x124A DUP12 DUP3 DUP13 ADD PUSH2 0x1012 JUMP JUMPDEST SWAP8 POP POP PUSH1 0x40 PUSH2 0x125B DUP12 DUP3 DUP13 ADD PUSH2 0x1012 JUMP JUMPDEST SWAP7 POP POP PUSH1 0x60 PUSH2 0x126C DUP12 DUP3 DUP13 ADD PUSH2 0x111A JUMP JUMPDEST SWAP6 POP POP PUSH1 0x80 PUSH2 0x127D DUP12 DUP3 DUP13 ADD PUSH2 0x111A JUMP JUMPDEST SWAP5 POP POP PUSH1 0xA0 PUSH2 0x128E DUP12 DUP3 DUP13 ADD PUSH2 0x1153 JUMP JUMPDEST SWAP4 POP POP PUSH1 0xC0 PUSH2 0x129F DUP12 DUP3 DUP13 ADD PUSH2 0x1012 JUMP JUMPDEST SWAP3 POP POP PUSH1 0xE0 PUSH2 0x12B0 DUP12 DUP3 DUP13 ADD PUSH2 0x1012 JUMP JUMPDEST SWAP2 POP POP SWAP3 SWAP6 SWAP9 POP SWAP3 SWAP6 SWAP9 SWAP1 SWAP4 SWAP7 POP JUMP JUMPDEST PUSH1 0x0 PUSH1 0x20 DUP3 ADD SWAP1 POP DUP2 DUP2 SUB PUSH1 0x0 DUP4 ADD MSTORE PUSH2 0x12DA DUP2 DUP5 PUSH2 0xF6D JUMP JUMPDEST SWAP1 POP SWAP3 SWAP2 POP POP JUMP JUMPDEST PUSH1 0x0 DUP1 PUSH1 0x40 DUP4 DUP6 SUB SLT ISZERO PUSH2 0x12F9 JUMPI PUSH2 0x12F8 PUSH2 0xE5A JUMP JUMPDEST JUMPDEST PUSH1 0x0 PUSH2 0x1307 DUP6 DUP3 DUP7 ADD PUSH2 0x1012 JUMP JUMPDEST SWAP3 POP POP PUSH1 0x20 PUSH2 0x1318 DUP6 DUP3 DUP7 ADD PUSH2 0x1012 JUMP JUMPDEST SWAP2 POP POP SWAP3 POP SWAP3 SWAP1 POP JUMP JUMPDEST PUSH1 0x0 PUSH1 0xA0 DUP3 ADD SWAP1 POP PUSH2 0x1337 PUSH1 0x0 DUP4 ADD DUP9 PUSH2 0x10BE JUMP JUMPDEST PUSH2 0x1344 PUSH1 0x20 DUP4 ADD DUP8 PUSH2 0x1054 JUMP JUMPDEST PUSH2 0x1351 PUSH1 0x40 DUP4 ADD DUP7 PUSH2 0x10BE JUMP JUMPDEST PUSH2 0x135E PUSH1 0x60 DUP4 ADD DUP6 PUSH2 0xEF4 JUMP JUMPDEST PUSH2 0x136B PUSH1 0x80 DUP4 ADD DUP5 PUSH2 0xEF4 JUMP JUMPDEST SWAP7 SWAP6 POP POP POP POP POP POP JUMP JUMPDEST PUSH1 0x0 DUP3 DUP3 MSTORE PUSH1 0x20 DUP3 ADD SWAP1 POP SWAP3 SWAP2 POP POP JUMP JUMPDEST PUSH32 0x477561726469616E52656769737472793A20696E76616C696420757365720000 PUSH1 0x0 DUP3 ADD MSTORE POP JUMP JUMPDEST PUSH1 0x0 PUSH2 0x13BC PUSH1 0x1E DUP4 PUSH2 0x1375 JUMP JUMPDEST SWAP2 POP PUSH2 0x13C7 DUP3 PUSH2 0x1386 JUMP JUMPDEST PUSH1 0x20 DUP3 ADD SWAP1 POP SWAP2 SWAP1 POP JUMP JUMPDEST PUSH1 0x0 PUSH1 0x20 DUP3 ADD SWAP1 POP DUP2 DUP2 SUB PUSH1 0x0 DUP4 ADD MSTORE PUSH2 0x13EB DUP2 PUSH2 0x13AF JUMP JUMPDEST SWAP1 POP SWAP2 SWAP1 POP JUMP JUMPDEST PUSH32 0x477561726469616E52656769737472793A20696E76616C6964206E6F6E636500 PUSH1 0x0 DUP3 ADD MSTORE POP JUMP JUMPDEST PUSH1 0x0 PUSH2 0x1428 PUSH1 0x1F DUP4 PUSH2 0x1375 JUMP JUMPDEST SWAP2 POP PUSH2 0x1433 DUP3 PUSH2 0x13F2 JUMP JUMPDEST PUSH1 0x20 DUP3 ADD SWAP1 POP SWAP2 SWAP1 POP JUMP JUMPDEST PUSH1 0x0 PUSH1 0x20 DUP3 ADD SWAP1 POP DUP2 DUP2 SUB PUSH1 0x0 DUP4 ADD MSTORE PUSH2 0x1457 DUP2 PUSH2 0x141B JUMP JUMPDEST SWAP1 POP SWAP2 SWAP1 POP JUMP JUMPDEST PUSH32 0x477561726469616E52656769737472793A207369676E61747572652065787069 PUSH1 0x0 DUP3 ADD MSTORE PUSH32 0x7265640000000000000000000000000000000000000000000000000000000000 PUSH1 0x20 DUP3 ADD MSTORE POP JUMP JUMPDEST PUSH1 0x0 PUSH2 0x14BA PUSH1 0x23 DUP4 PUSH2 0x1375 JUMP JUMPDEST SWAP2 POP PUSH2 0x14C5 DUP3 PUSH2 0x145E JUMP JUMPDEST PUSH1 0x40 DUP3 ADD SWAP1 POP SWAP2 SWAP1 POP JUMP JUMPDEST PUSH1 0x0 PUSH1 0x20 DUP3 ADD SWAP1 POP DUP2 DUP2 SUB PUSH1 0x0 DUP4 ADD MSTORE PUSH2 0x14E9 DUP2 PUSH2 0x14AD JUMP JUMPDEST SWAP1 POP SWAP2 SWAP1 POP JUMP JUMPDEST PUSH1 0x0 DUP2 SWAP1 POP SWAP3 SWAP2 POP POP JUMP JUMPDEST PUSH32 0x1901000000000000000000000000000000000000000000000000000000000000 PUSH1 0x0 DUP3 ADD MSTORE POP JUMP JUMPDEST PUSH1 0x0 PUSH2 0x1531 PUSH1 0x2 DUP4 PUSH2 0x14F0 JUMP JUMPDEST SWAP2 POP PUSH2 0x153C DUP3 PUSH2 0x14FB JUMP JUMPDEST PUSH1 0x2 DUP3 ADD SWAP1 POP SWAP2 SWAP1 POP JUMP JUMPDEST PUSH1 0x0 DUP2 SWAP1 POP SWAP2 SWAP1 POP JUMP JUMPDEST PUSH2 0x1562 PUSH2 0x155D DUP3 PUSH2 0xF2F JUMP JUMPDEST PUSH2 0x1547 JUMP JUMPDEST DUP3 MSTORE POP POP JUMP JUMPDEST PUSH1 0x0 PUSH2 0x1573 DUP3 PUSH2 0x1524 JUMP JUMPDEST SWAP2 POP PUSH2 0x157F DUP3 DUP6 PUSH2 0x1551 JUMP JUMPDEST PUSH1 0x20 DUP3 ADD SWAP2 POP PUSH2 0x158F DUP3 DUP5 PUSH2 0x1551 JUMP JUMPDEST PUSH1 0x20 DUP3 ADD SWAP2 POP DUP2 SWAP1 POP SWAP4 SWAP3 POP POP POP JUMP JUMPDEST PUSH2 0x15A8 DUP2 PUSH2 0x112F JUMP JUMPDEST DUP3 MSTORE POP POP JUMP JUMPDEST PUSH1 0x0 PUSH1 0x80 DUP3 ADD SWAP1 POP PUSH2 0x15C3 PUSH1 0x0 DUP4 ADD DUP8 PUSH2 0x10BE JUMP JUMPDEST PUSH2 0x15D0 PUSH1 0x20 DUP4 ADD DUP7 PUSH2 0x159F JUMP JUMPDEST PUSH2 0x15DD PUSH1 0x40 DUP4 ADD DUP6 PUSH2 0x10BE JUMP JUMPDEST PUSH2 0x15EA PUSH1 0x60 DUP4 ADD DUP5 PUSH2 0x10BE JUMP JUMPDEST SWAP6 SWAP5 POP POP POP POP POP JUMP JUMPDEST PUSH32 0x477561726469616E52656769737472793A20696E76616C6964207369676E6174 PUSH1 0x0 DUP3 ADD MSTORE PUSH32 0x7572650000000000000000000000000000000000000000000000000000000000 PUSH1 0x20 DUP3 ADD MSTORE POP JUMP JUMPDEST PUSH1 0x0 PUSH2 0x164F PUSH1 0x23 DUP4 PUSH2 0x1375 JUMP JUMPDEST SWAP2 POP PUSH2 0x165A DUP3 PUSH2 0x15F3 JUMP JUMPDEST PUSH1 0x40 DUP3 ADD SWAP1 POP SWAP2 SWAP1 POP JUMP JUMPDEST PUSH1 0x0 PUSH1 0x20 DUP3 ADD SWAP1 POP DUP2 DUP2 SUB PUSH1 0x0 DUP4 ADD MSTORE PUSH2 0x167E DUP2 PUSH2 0x1642 JUMP JUMPDEST SWAP1 POP SWAP2 SWAP1 POP JUMP JUMPDEST PUSH32 0x4E487B7100000000000000000000000000000000000000000000000000000000 PUSH1 0x0 MSTORE PUSH1 0x11 PUSH1 0x4 MSTORE PUSH1 0x24 PUSH1 0x0 REVERT JUMPDEST PUSH1 0x0 PUSH2 0x16BF DUP3 PUSH2 0xEEA JUMP JUMPDEST SWAP2 POP PUSH2 0x16CA DUP4 PUSH2 0xEEA JUMP JUMPDEST SWAP3 POP DUP3 DUP3 ADD SWAP1 POP DUP1 DUP3 GT ISZERO PUSH2 0x16E2 JUMPI PUSH2 0x16E1 PUSH2 0x1685 JUMP JUMPDEST JUMPDEST SWAP3 SWAP2 POP POP JUMP JUMPDEST PUSH32 0x477561726469616E52656769737472793A20677561726469616E206D69737369 PUSH1 0x0 DUP3 ADD MSTORE PUSH32 0x6E67000000000000000000000000000000000000000000000000000000000000 PUSH1 0x20 DUP3 ADD MSTORE POP JUMP JUMPDEST PUSH1 0x0 PUSH2 0x1744 PUSH1 0x22 DUP4 PUSH2 0x1375 JUMP JUMPDEST SWAP2 POP PUSH2 0x174F DUP3 PUSH2 0x16E8 JUMP JUMPDEST PUSH1 0x40 DUP3 ADD SWAP1 POP SWAP2 SWAP1 POP JUMP JUMPDEST PUSH1 0x0 PUSH1 0x20 DUP3 ADD SWAP1 POP DUP2 DUP2 SUB PUSH1 0x0 DUP4 ADD MSTORE PUSH2 0x1773 DUP2 PUSH2 0x1737 JUMP JUMPDEST SWAP1 POP SWAP2 SWAP1 POP JUMP JUMPDEST PUSH1 0x0 PUSH2 0x1785 DUP3 PUSH2 0xEEA JUMP JUMPDEST SWAP2 POP PUSH2 0x1790 DUP4 PUSH2 0xEEA JUMP JUMPDEST SWAP3 POP DUP3 DUP3 SUB SWAP1 POP DUP2 DUP2 GT ISZERO PUSH2 0x17A8 JUMPI PUSH2 0x17A7 PUSH2 0x1685 JUMP JUMPDEST JUMPDEST SWAP3 SWAP2 POP POP JUMP JUMPDEST PUSH32 0x4E487B7100000000000000000000000000000000000000000000000000000000 PUSH1 0x0 MSTORE PUSH1 0x32 PUSH1 0x4 MSTORE PUSH1 0x24 PUSH1 0x0 REVERT JUMPDEST PUSH32 0x4E487B7100000000000000000000000000000000000000000000000000000000 PUSH1 0x0 MSTORE PUSH1 0x31 PUSH1 0x4 MSTORE PUSH1 0x24 PUSH1 0x0 REVERT JUMPDEST PUSH1 0x0 PUSH1 0xC0 DUP3 ADD SWAP1 POP PUSH2 0x1821 PUSH1 0x0 DUP4 ADD DUP10 PUSH2 0x10BE JUMP JUMPDEST PUSH2 0x182E PUSH1 0x20 DUP4 ADD DUP9 PUSH2 0x1054 JUMP JUMPDEST PUSH2 0x183B PUSH1 0x40 DUP4 ADD DUP8 PUSH2 0x10BE JUMP JUMPDEST PUSH2 0x1848 PUSH1 0x60 DUP4 ADD DUP7 PUSH2 0x10BE JUMP JUMPDEST PUSH2 0x1855 PUSH1 0x80 DUP4 ADD DUP6 PUSH2 0xEF4 JUMP JUMPDEST PUSH2 0x1862 PUSH1 0xA0 DUP4 ADD DUP5 PUSH2 0xEF4 JUMP JUMPDEST SWAP8 SWAP7 POP POP POP POP POP POP POP JUMP JUMPDEST PUSH32 0x477561726469616E52656769737472793A20696E76616C696420434944206861 PUSH1 0x0 DUP3 ADD MSTORE PUSH32 0x7368000000000000000000000000000000000000000000000000000000000000 PUSH1 0x20 DUP3 ADD MSTORE POP JUMP JUMPDEST PUSH1 0x0 PUSH2 0x18C9 PUSH1 0x22 DUP4 PUSH2 0x1375 JUMP JUMPDEST SWAP2 POP PUSH2 0x18D4 DUP3 PUSH2 0x186D JUMP JUMPDEST PUSH1 0x40 DUP3 ADD SWAP1 POP SWAP2 SWAP1 POP JUMP JUMPDEST PUSH1 0x0 PUSH1 0x20 DUP3 ADD SWAP1 POP DUP2 DUP2 SUB PUSH1 0x0 DUP4 ADD MSTORE PUSH2 0x18F8 DUP2 PUSH2 0x18BC JUMP JUMPDEST SWAP1 POP SWAP2 SWAP1 POP JUMP JUMPDEST PUSH32 0x477561726469616E52656769737472793A20696E76616C696420617574682068 PUSH1 0x0 DUP3 ADD MSTORE PUSH32 0x6173680000000000000000000000000000000000000000000000000000000000 PUSH1 0x20 DUP3 ADD MSTORE POP JUMP JUMPDEST PUSH1 0x0 PUSH2 0x195B PUSH1 0x23 DUP4 PUSH2 0x1375 JUMP JUMPDEST SWAP2 POP PUSH2 0x1966 DUP3 PUSH2 0x18FF JUMP JUMPDEST PUSH1 0x40 DUP3 ADD SWAP1 POP SWAP2 SWAP1 POP JUMP JUMPDEST PUSH1 0x0 PUSH1 0x20 DUP3 ADD SWAP1 POP DUP2 DUP2 SUB PUSH1 0x0 DUP4 ADD MSTORE PUSH2 0x198A DUP2 PUSH2 0x194E JUMP JUMPDEST SWAP1 POP SWAP2 SWAP1 POP JUMP JUMPDEST PUSH32 0x477561726469616E52656769737472793A20677561726469616E206578697374 PUSH1 0x0 DUP3 ADD MSTORE PUSH32 0x7300000000000000000000000000000000000000000000000000000000000000 PUSH1 0x20 DUP3 ADD MSTORE POP JUMP JUMPDEST PUSH1 0x0 PUSH2 0x19ED PUSH1 0x21 DUP4 PUSH2 0x1375 JUMP JUMPDEST SWAP2 POP PUSH2 0x19F8 DUP3 PUSH2 0x1991 JUMP JUMPDEST PUSH1 0x40 DUP3 ADD SWAP1 POP SWAP2 SWAP1 POP JUMP JUMPDEST PUSH1 0x0 PUSH1 0x20 DUP3 ADD SWAP1 POP DUP2 DUP2 SUB PUSH1 0x0 DUP4 ADD MSTORE PUSH2 0x1A1C DUP2 PUSH2 0x19E0 JUMP JUMPDEST SWAP1 POP SWAP2 SWAP1 POP JUMP JUMPDEST PUSH1 0x0 PUSH1 0xA0 DUP3 ADD SWAP1 POP PUSH2 0x1A38 PUSH1 0x0 DUP4 ADD DUP9 PUSH2 0x10BE JUMP JUMPDEST PUSH2 0x1A45 PUSH1 0x20 DUP4 ADD DUP8 PUSH2 0x10BE JUMP JUMPDEST PUSH2 0x1A52 PUSH1 0x40 DUP4 ADD DUP7 PUSH2 0x10BE JUMP JUMPDEST PUSH2 0x1A5F PUSH1 0x60 DUP4 ADD DUP6 PUSH2 0xEF4 JUMP JUMPDEST PUSH2 0x1A6C PUSH1 0x80 DUP4 ADD DUP5 PUSH2 0x1054 JUMP JUMPDEST SWAP7 SWAP6 POP POP POP POP POP POP JUMP JUMPDEST PUSH32 0x4E487B7100000000000000000000000000000000000000000000000000000000 PUSH1 0x0 MSTORE PUSH1 0x12 PUSH1 0x4 MSTORE PUSH1 0x24 PUSH1 0x0 REVERT JUMPDEST PUSH1 0x0 PUSH2 0x1AB0 DUP3 PUSH2 0xEEA JUMP JUMPDEST SWAP2 POP PUSH2 0x1ABB DUP4 PUSH2 0xEEA JUMP JUMPDEST SWAP3 POP DUP3 PUSH2 0x1ACB JUMPI PUSH2 0x1ACA PUSH2 0x1A76 JUMP JUMPDEST JUMPDEST DUP3 DUP3 DIV SWAP1 POP SWAP3 SWAP2 POP POP JUMP INVALID LOG2 PUSH5 0x6970667358 0x22 SLT KECCAK256 0xF6 0xDD KECCAK256 0x21 SSTORE 0xB3 PUSH7 0xC3262507F7B1AD DUP10 0xB2 SHL CALLDATALOAD SWAP14 ADDMOD LOG0 0x1E 0xC2 GASLIMIT RETURN TIMESTAMP 0xE PUSH2 0x48AA SWAP4 SIGNEXTEND PUSH5 0x736F6C6343 STOP ADDMOD XOR STOP CALLER "},"methodIdentifiers":{"addGuardian(bytes32,bytes32)":"fb948690","addGuardianWithSig(address,bytes32,bytes32,uint256,uint256,uint8,bytes32,bytes32)":"cad39d65","getAuthValueOwner(bytes32)":"449e800f","getGuardianCIDs(address)":"e956bb65","getGuardianConfig(address)":"0bb6094a","getGuardianEntry(address,bytes32)":"76716bbe","getThreshold(address)":"78977168","nonces(address)":"7ecebe00","removeGuardian(bytes32)":"d9449d12","removeGuardianWithSig(address,bytes32,uint256,uint256,uint8,bytes32,bytes32)":"8e26df0f"}}}}}