{
  "_format": "hh-sol-artifact-1",
  "contractName": "PasswordRegistry",
  "sourceName": "contracts/PasswordRegistry.sol",
  "abi": [
    {
      "anonymous": false,
      "inputs": [
        {
          "indexed": true,
          "internalType": "string",
          "name": "username",
          "type": "string"
        },
        {
          "indexed": true,
          "internalType": "address",
          "name": "owner",
          "type": "address"
        },
        {
          "indexed": false,
          "internalType": "bytes32",
          "name": "passwordHash",
          "type": "bytes32"
        }
      ],
      "name": "PasswordUpdated",
      "type": "event"
    },
    {
      "inputs": [
        {
          "internalType": "string",
          "name": "username",
          "type": "string"
        }
      ],
      "name": "getOwner",
      "outputs": [
        {
          "internalType": "address",
          "name": "",
          "type": "address"
        }
      ],
      "stateMutability": "view",
      "type": "function"
    },
    {
      "inputs": [
        {
          "internalType": "string",
          "name": "username",
          "type": "string"
        }
      ],
      "name": "getPasswordHash",
      "outputs": [
        {
          "internalType": "bytes32",
          "name": "",
          "type": "bytes32"
        }
      ],
      "stateMutability": "view",
      "type": "function"
    },
    {
      "inputs": [
        {
          "internalType": "string",
          "name": "username",
          "type": "string"
        },
        {
          "internalType": "bytes32",
          "name": "passwordHash",
          "type": "bytes32"
        }
      ],
      "name": "setPasswordHash",
      "outputs": [],
      "stateMutability": "nonpayable",
      "type": "function"
    }
  ],
  "bytecode": "0x608060405234801561001057600080fd5b5061060e806100206000396000f3fe608060405234801561001057600080fd5b50600436106100415760003560e01c80633bfac58c146100465780634aaf4a12146100625780638994d9d314610092575b600080fd5b610060600480360381019061005b91906103d0565b6100c2565b005b61007c60048036038101906100779190610430565b6102b1565b60405161008991906104be565b60405180910390f35b6100ac60048036038101906100a79190610430565b6102fe565b6040516100b991906104e8565b60405180910390f35b60008084846040516100d5929190610542565b90815260200160405180910390209050600073ffffffffffffffffffffffffffffffffffffffff168160010160009054906101000a900473ffffffffffffffffffffffffffffffffffffffff1673ffffffffffffffffffffffffffffffffffffffff160361018557338160010160006101000a81548173ffffffffffffffffffffffffffffffffffffffff021916908373ffffffffffffffffffffffffffffffffffffffff160217905550610218565b3373ffffffffffffffffffffffffffffffffffffffff168160010160009054906101000a900473ffffffffffffffffffffffffffffffffffffffff1673ffffffffffffffffffffffffffffffffffffffff1614610217576040517f08c379a000000000000000000000000000000000000000000000000000000000815260040161020e906105b8565b60405180910390fd5b5b8181600001819055508060010160009054906101000a900473ffffffffffffffffffffffffffffffffffffffff1673ffffffffffffffffffffffffffffffffffffffff16848460405161026c929190610542565b60405180910390207fded9312cc56d3a595bfde0ab346a669293d1dbae79ba1e70fabe251f00fe0367846040516102a391906104e8565b60405180910390a350505050565b60008083836040516102c4929190610542565b908152602001604051809103902060010160009054906101000a900473ffffffffffffffffffffffffffffffffffffffff16905092915050565b6000808383604051610311929190610542565b908152602001604051809103902060000154905092915050565b600080fd5b600080fd5b600080fd5b600080fd5b600080fd5b60008083601f84011261035a57610359610335565b5b8235905067ffffffffffffffff8111156103775761037661033a565b5b6020830191508360018202830111156103935761039261033f565b5b9250929050565b6000819050919050565b6103ad8161039a565b81146103b857600080fd5b50565b6000813590506103ca816103a4565b92915050565b6000806000604084860312156103e9576103e861032b565b5b600084013567ffffffffffffffff81111561040757610406610330565b5b61041386828701610344565b93509350506020610426868287016103bb565b9150509250925092565b600080602083850312156104475761044661032b565b5b600083013567ffffffffffffffff81111561046557610464610330565b5b61047185828601610344565b92509250509250929050565b600073ffffffffffffffffffffffffffffffffffffffff82169050919050565b60006104a88261047d565b9050919050565b6104b88161049d565b82525050565b60006020820190506104d360008301846104af565b92915050565b6104e28161039a565b82525050565b60006020820190506104fd60008301846104d9565b92915050565b600081905092915050565b82818337600083830152505050565b60006105298385610503565b935061053683858461050e565b82840190509392505050565b600061054f82848661051d565b91508190509392505050565b600082825260208201905092915050565b7f50617373776f726452656769737472793a206e6f74206f776e65720000000000600082015250565b60006105a2601b8361055b565b91506105ad8261056c565b602082019050919050565b600060208201905081810360008301526105d181610595565b905091905056fea2646970667358221220267c6fcf6d5121b5897b949aae46807b9861d6c820242cd6c0933467526c283a64736f6c63430008180033",
  "linkReferences": {},
  "deployedLinkReferences": {}
}