{
  "_format": "hh-sol-artifact-1",
  "contractName": "GuardianRegistry",
  "sourceName": "contracts/GuardianRegistry.sol",
  "abi": [
    {
      "inputs": [
        {
          "internalType": "bytes",
          "name": "initialSignActionPublicKey",
          "type": "bytes"
        }
      ],
      "stateMutability": "nonpayable",
      "type": "constructor"
    },
    {
      "anonymous": false,
      "inputs": [
        {
          "indexed": true,
          "internalType": "bytes32",
          "name": "authHash",
          "type": "bytes32"
        },
        {
          "indexed": true,
          "internalType": "address",
          "name": "previousOwner",
          "type": "address"
        },
        {
          "indexed": true,
          "internalType": "address",
          "name": "newOwner",
          "type": "address"
        }
      ],
      "name": "AuthOwnerUpdated",
      "type": "event"
    },
    {
      "anonymous": false,
      "inputs": [
        {
          "indexed": true,
          "internalType": "address",
          "name": "user",
          "type": "address"
        },
        {
          "indexed": false,
          "internalType": "bytes32",
          "name": "cipherHash",
          "type": "bytes32"
        }
      ],
      "name": "CipherHashSet",
      "type": "event"
    },
    {
      "anonymous": false,
      "inputs": [
        {
          "indexed": true,
          "internalType": "address",
          "name": "user",
          "type": "address"
        },
        {
          "indexed": true,
          "internalType": "bytes32",
          "name": "guardianCIDHash",
          "type": "bytes32"
        },
        {
          "indexed": false,
          "internalType": "bytes32",
          "name": "authValueHash",
          "type": "bytes32"
        }
      ],
      "name": "GuardianAdded",
      "type": "event"
    },
    {
      "anonymous": false,
      "inputs": [
        {
          "indexed": true,
          "internalType": "address",
          "name": "user",
          "type": "address"
        },
        {
          "indexed": true,
          "internalType": "bytes32",
          "name": "guardianCIDHash",
          "type": "bytes32"
        }
      ],
      "name": "GuardianRemoved",
      "type": "event"
    },
    {
      "anonymous": false,
      "inputs": [
        {
          "indexed": true,
          "internalType": "bytes32",
          "name": "guardianCIDHash",
          "type": "bytes32"
        },
        {
          "indexed": false,
          "internalType": "string",
          "name": "name",
          "type": "string"
        },
        {
          "indexed": false,
          "internalType": "bool",
          "name": "isUniqueAuthValue",
          "type": "bool"
        }
      ],
      "name": "GuardianTypeSet",
      "type": "event"
    },
    {
      "anonymous": false,
      "inputs": [
        {
          "indexed": true,
          "internalType": "address",
          "name": "previousOwner",
          "type": "address"
        },
        {
          "indexed": true,
          "internalType": "address",
          "name": "newOwner",
          "type": "address"
        }
      ],
      "name": "OwnerUpdated",
      "type": "event"
    },
    {
      "anonymous": false,
      "inputs": [
        {
          "indexed": false,
          "internalType": "bytes",
          "name": "publicKey",
          "type": "bytes"
        }
      ],
      "name": "SignActionPublicKeyUpdated",
      "type": "event"
    },
    {
      "anonymous": false,
      "inputs": [
        {
          "indexed": true,
          "internalType": "address",
          "name": "user",
          "type": "address"
        },
        {
          "indexed": false,
          "internalType": "uint256",
          "name": "threshold",
          "type": "uint256"
        }
      ],
      "name": "ThresholdUpdated",
      "type": "event"
    },
    {
      "inputs": [
        {
          "internalType": "bytes32",
          "name": "guardianCIDHash",
          "type": "bytes32"
        },
        {
          "internalType": "bytes32",
          "name": "authValueHash",
          "type": "bytes32"
        },
        {
          "internalType": "bytes32",
          "name": "cipherHash",
          "type": "bytes32"
        }
      ],
      "name": "addGuardian",
      "outputs": [],
      "stateMutability": "nonpayable",
      "type": "function"
    },
    {
      "inputs": [
        {
          "internalType": "address",
          "name": "user",
          "type": "address"
        },
        {
          "internalType": "bytes32",
          "name": "guardianCIDHash",
          "type": "bytes32"
        },
        {
          "internalType": "bytes32",
          "name": "authValueHash",
          "type": "bytes32"
        },
        {
          "internalType": "bytes32",
          "name": "cipherHash",
          "type": "bytes32"
        },
        {
          "internalType": "uint256",
          "name": "nonce",
          "type": "uint256"
        },
        {
          "internalType": "uint256",
          "name": "deadline",
          "type": "uint256"
        },
        {
          "internalType": "uint8",
          "name": "v",
          "type": "uint8"
        },
        {
          "internalType": "bytes32",
          "name": "r",
          "type": "bytes32"
        },
        {
          "internalType": "bytes32",
          "name": "s",
          "type": "bytes32"
        }
      ],
      "name": "addGuardianWithSig",
      "outputs": [],
      "stateMutability": "nonpayable",
      "type": "function"
    },
    {
      "inputs": [
        {
          "internalType": "bytes32",
          "name": "guardianCIDHash",
          "type": "bytes32"
        },
        {
          "internalType": "bytes32",
          "name": "authValueHash",
          "type": "bytes32"
        },
        {
          "internalType": "bytes32",
          "name": "cipherHash",
          "type": "bytes32"
        },
        {
          "internalType": "uint256",
          "name": "signedAt",
          "type": "uint256"
        },
        {
          "internalType": "bytes",
          "name": "signActionSignature",
          "type": "bytes"
        }
      ],
      "name": "addGuardianWithSignActionSignature",
      "outputs": [],
      "stateMutability": "nonpayable",
      "type": "function"
    },
    {
      "inputs": [
        {
          "internalType": "address",
          "name": "user",
          "type": "address"
        },
        {
          "internalType": "bytes32",
          "name": "guardianCIDHash",
          "type": "bytes32"
        },
        {
          "internalType": "bytes32",
          "name": "authValueHash",
          "type": "bytes32"
        },
        {
          "internalType": "bytes32",
          "name": "cipherHash",
          "type": "bytes32"
        },
        {
          "internalType": "uint256",
          "name": "nonce",
          "type": "uint256"
        },
        {
          "internalType": "uint256",
          "name": "deadline",
          "type": "uint256"
        },
        {
          "internalType": "uint256",
          "name": "signedAt",
          "type": "uint256"
        },
        {
          "internalType": "bytes",
          "name": "signActionSignature",
          "type": "bytes"
        },
        {
          "internalType": "uint8",
          "name": "v",
          "type": "uint8"
        },
        {
          "internalType": "bytes32",
          "name": "r",
          "type": "bytes32"
        },
        {
          "internalType": "bytes32",
          "name": "s",
          "type": "bytes32"
        }
      ],
      "name": "addGuardianWithSignActionSignatureWithSig",
      "outputs": [],
      "stateMutability": "nonpayable",
      "type": "function"
    },
    {
      "inputs": [
        {
          "internalType": "bytes32",
          "name": "authHash",
          "type": "bytes32"
        }
      ],
      "name": "getAuthOwner",
      "outputs": [
        {
          "internalType": "address",
          "name": "",
          "type": "address"
        }
      ],
      "stateMutability": "view",
      "type": "function"
    },
    {
      "inputs": [
        {
          "internalType": "address",
          "name": "user",
          "type": "address"
        }
      ],
      "name": "getCipherHash",
      "outputs": [
        {
          "internalType": "bytes32",
          "name": "",
          "type": "bytes32"
        }
      ],
      "stateMutability": "view",
      "type": "function"
    },
    {
      "inputs": [
        {
          "internalType": "address",
          "name": "user",
          "type": "address"
        }
      ],
      "name": "getGuardianCIDs",
      "outputs": [
        {
          "internalType": "bytes32[]",
          "name": "",
          "type": "bytes32[]"
        }
      ],
      "stateMutability": "view",
      "type": "function"
    },
    {
      "inputs": [
        {
          "internalType": "address",
          "name": "user",
          "type": "address"
        }
      ],
      "name": "getGuardianConfig",
      "outputs": [
        {
          "internalType": "uint256",
          "name": "threshold",
          "type": "uint256"
        },
        {
          "internalType": "bytes32[]",
          "name": "guardianCIDs",
          "type": "bytes32[]"
        },
        {
          "internalType": "bytes32",
          "name": "cipherHash",
          "type": "bytes32"
        }
      ],
      "stateMutability": "view",
      "type": "function"
    },
    {
      "inputs": [
        {
          "internalType": "address",
          "name": "user",
          "type": "address"
        },
        {
          "internalType": "bytes32",
          "name": "guardianCIDHash",
          "type": "bytes32"
        }
      ],
      "name": "getGuardianEntry",
      "outputs": [
        {
          "internalType": "bytes32",
          "name": "",
          "type": "bytes32"
        }
      ],
      "stateMutability": "view",
      "type": "function"
    },
    {
      "inputs": [
        {
          "internalType": "bytes32",
          "name": "guardianCIDHash",
          "type": "bytes32"
        }
      ],
      "name": "getGuardianType",
      "outputs": [
        {
          "internalType": "string",
          "name": "name",
          "type": "string"
        },
        {
          "internalType": "bool",
          "name": "isUniqueAuthValue",
          "type": "bool"
        },
        {
          "internalType": "bool",
          "name": "exists",
          "type": "bool"
        }
      ],
      "stateMutability": "view",
      "type": "function"
    },
    {
      "inputs": [
        {
          "internalType": "address",
          "name": "user",
          "type": "address"
        }
      ],
      "name": "getThreshold",
      "outputs": [
        {
          "internalType": "uint256",
          "name": "",
          "type": "uint256"
        }
      ],
      "stateMutability": "view",
      "type": "function"
    },
    {
      "inputs": [
        {
          "internalType": "address",
          "name": "",
          "type": "address"
        }
      ],
      "name": "nonces",
      "outputs": [
        {
          "internalType": "uint256",
          "name": "",
          "type": "uint256"
        }
      ],
      "stateMutability": "view",
      "type": "function"
    },
    {
      "inputs": [],
      "name": "owner",
      "outputs": [
        {
          "internalType": "address",
          "name": "",
          "type": "address"
        }
      ],
      "stateMutability": "view",
      "type": "function"
    },
    {
      "inputs": [
        {
          "internalType": "bytes32",
          "name": "guardianCIDHash",
          "type": "bytes32"
        }
      ],
      "name": "removeGuardian",
      "outputs": [],
      "stateMutability": "nonpayable",
      "type": "function"
    },
    {
      "inputs": [
        {
          "internalType": "address",
          "name": "user",
          "type": "address"
        },
        {
          "internalType": "bytes32",
          "name": "guardianCIDHash",
          "type": "bytes32"
        },
        {
          "internalType": "uint256",
          "name": "nonce",
          "type": "uint256"
        },
        {
          "internalType": "uint256",
          "name": "deadline",
          "type": "uint256"
        },
        {
          "internalType": "uint8",
          "name": "v",
          "type": "uint8"
        },
        {
          "internalType": "bytes32",
          "name": "r",
          "type": "bytes32"
        },
        {
          "internalType": "bytes32",
          "name": "s",
          "type": "bytes32"
        }
      ],
      "name": "removeGuardianWithSig",
      "outputs": [],
      "stateMutability": "nonpayable",
      "type": "function"
    },
    {
      "inputs": [
        {
          "internalType": "bytes32",
          "name": "guardianCIDHash",
          "type": "bytes32"
        },
        {
          "internalType": "string",
          "name": "name",
          "type": "string"
        },
        {
          "internalType": "bool",
          "name": "isUniqueAuthValue",
          "type": "bool"
        }
      ],
      "name": "setGuardianType",
      "outputs": [],
      "stateMutability": "nonpayable",
      "type": "function"
    },
    {
      "inputs": [
        {
          "internalType": "address",
          "name": "newOwner",
          "type": "address"
        }
      ],
      "name": "setOwner",
      "outputs": [],
      "stateMutability": "nonpayable",
      "type": "function"
    },
    {
      "inputs": [
        {
          "internalType": "bytes",
          "name": "newPublicKey",
          "type": "bytes"
        }
      ],
      "name": "setSignActionPublicKey",
      "outputs": [],
      "stateMutability": "nonpayable",
      "type": "function"
    },
    {
      "inputs": [
        {
          "internalType": "uint256",
          "name": "threshold",
          "type": "uint256"
        }
      ],
      "name": "setThreshold",
      "outputs": [],
      "stateMutability": "nonpayable",
      "type": "function"
    },
    {
      "inputs": [
        {
          "internalType": "address",
          "name": "user",
          "type": "address"
        },
        {
          "internalType": "uint256",
          "name": "threshold",
          "type": "uint256"
        },
        {
          "internalType": "uint256",
          "name": "nonce",
          "type": "uint256"
        },
        {
          "internalType": "uint256",
          "name": "deadline",
          "type": "uint256"
        },
        {
          "internalType": "uint8",
          "name": "v",
          "type": "uint8"
        },
        {
          "internalType": "bytes32",
          "name": "r",
          "type": "bytes32"
        },
        {
          "internalType": "bytes32",
          "name": "s",
          "type": "bytes32"
        }
      ],
      "name": "setThresholdWithSig",
      "outputs": [],
      "stateMutability": "nonpayable",
      "type": "function"
    },
    {
      "inputs": [],
      "name": "signActionPublicKey",
      "outputs": [
        {
          "internalType": "bytes",
          "name": "",
          "type": "bytes"
        }
      ],
      "stateMutability": "view",
      "type": "function"
    }
  ],
  "bytecode": "0x608060405234620000a957620026e9803803806200001d81620000c4565b9283398101602082820312620000a95781516001600160401b0392838211620000a9570181601f82011215620000a9578051928311620000ae576200006c601f8401601f1916602001620000c4565b9183835260208483010111620000a9576200009992620000939160208085019101620000ea565b620002d0565b6040516122879081620004428239f35b600080fd5b634e487b7160e01b600052604160045260246000fd5b6040519190601f01601f191682016001600160401b03811183821017620000ae57604052565b60005b838110620000fe5750506000910152565b8181015183820152602001620000ed565b90600182811c9216801562000141575b60208310146200012b57565b634e487b7160e01b600052602260045260246000fd5b91607f16916200011f565b601f811162000159575050565b60009060056000526020600020906020601f850160051c830194106200019c575b601f0160051c01915b8281106200019057505050565b81815560010162000183565b90925082906200017a565b80519091906001600160401b038111620000ae57620001d381620001cd6005546200010f565b6200014c565b602080601f83116001146200021a575081906200020993946000926200020e575b50508160011b916000199060031b1c19161790565b600555565b015190503880620001f4565b6005600052601f198316949091907f036b6384b5eca791c62761152d0c79bb0604c104a5fb6f4eb0703f3154bb3db0926000905b878210620002895750508360019596106200026f575b505050811b01600555565b015160001960f88460031b161c1916905538808062000264565b806001859682949686015181550195019301906200024e565b60409160208252620002c48151809281602086015260208686019101620000ea565b601f01601f1916010190565b600480546001600160a01b0319163390811790915560007f8292fce18fa69edf4db7b94ea2e58241df0ae57f97e0a6c9b29067028bf92d768180a380518062000317575050565b806040604192148015620003df575b6200033190620003e9565b146200036a575b620003658162000358600080516020620026c983398151915293620001a7565b60405191829182620002a2565b0390a1565b805115620003c9576020810151600080516020620026c9833981519152916200036591620003c0907fff0000000000000000000000000000000000000000000000000000000000000016600160fa1b14620003e9565b91505062000338565b634e487b7160e01b600052603260045260246000fd5b5080821462000326565b15620003f157565b60405162461bcd60e51b815260206004820152602260248201527f477561726469616e52656769737472793a20696e76616c6964207369676e206b604482015261657960f01b6064820152608490fdfe6080604052600436101561001257600080fd5b60003560e01c80630a21f30a146101675780630bb6094a1461016257806313af40351461015d5780631cf66c121461015857806332acb08a14610153578063350d99701461014e5780635ab820e01461014957806368b84f5c1461014457806376716bbe1461013f578063789771681461013a5780637ecebe00146101355780638da5cb5b146101305780638e26df0f1461012b578063960bfe04146101265780639f31e53e14610121578063a2c6aff11461011c578063c0841c1a14610117578063d9449d1214610112578063dc68a0c81461010d578063e956bb65146101085763ef530a751461010357600080fd5b610e98565b610e47565b610d6d565b610b24565b610af0565b610abd565b61093f565b610922565b610893565b61086a565b610830565b6107f6565b6107ab565b610738565b61067c565b610448565b6103f8565b61038d565b6102d6565b61026d565b610197565b600435906001600160a01b038216820361018257565b600080fd5b6084359060ff8216820361018257565b346101825760e0366003190112610182576102376101b361016c565b602435906102326044356064356101c8610187565b6040519160208301937ff2205e338494c1ce542f165cfa4190868dc469f194bab3186b8db6bbd17df554855260018060a01b03871660408501528760608501528060808501528160a085015260a0845261022184610c43565b60c4359460a4359451902087611306565b61149c565b005b90815180825260208080930193019160005b828110610259575050505090565b83518552938101939281019260010161024b565b34610182576020366003190112610182576001600160a01b0361028e61016c565b166000526000602052604060002080546102af600160048401549301610f0a565b916102cc6040519384938452606060208501526060840190610239565b9060408301520390f35b34610182576020366003190112610182576102ef61016c565b6004546001600160a01b0380821692610309338514610f5b565b169182156103485782907f8292fce18fa69edf4db7b94ea2e58241df0ae57f97e0a6c9b29067028bf92d76600080a36001600160a01b03191617600455005b60405162461bcd60e51b815260206004820152601f60248201527f477561726469616e52656769737472793a20696e76616c6964206f776e6572006044820152606490fd5b34610182576020366003190112610182576001600160a01b036103ae61016c565b1660005260006020526020600460406000200154604051908152f35b9181601f840112156101825782359167ffffffffffffffff8311610182576020838186019501011161018257565b346101825760a03660031901126101825760843567ffffffffffffffff81116101825761043661042f6102379236906004016103ca565b3691610fa7565b60643560443560243560043533611878565b346101825760603660031901126101825767ffffffffffffffff6004356024358281116101825761047d9036906004016103ca565b90604435801515808203610182576104a060018060a01b03600454163314610f5b565b6104ab851515610fee565b604051956104b887610c27565b6104c3368686610fa7565b875260209660208101928352604081019160019860018452600099898b52600360205260408b209351908151938411610677578b9061050c856105068854610b41565b886110c9565b602093601f86116001146105ce57505061058360016105b196610578876105bd9b987f4665b5e01a7f6ade05d62b42236faa56eff1dc7aa4c99b7338dbf1acd1a27ce39f9e9d9b979861059b9961059598926105c3575b50508160011b916000199060031b1c19161790565b81555b019451151590565b849060ff801983541691151516179055565b51151590565b815461ff00191690151560081b61ff0016179055565b60405193849384611124565b0390a280f35b015190503880610563565b90601f94939294198616916105e888600052602060002090565b95915b8383106106605750505060016105b196818761059b977f4665b5e01a7f6ade05d62b42236faa56eff1dc7aa4c99b7338dbf1acd1a27ce39f9e9d9b97610595976105bd9e9b6105839810610647575b505050811b01815561057b565b015160001960f88460031b161c1916905538808061063a565b8486015187559586019594810194918101916105eb565b610c11565b34610182576101603660031901126101825761069661016c565b60e43567ffffffffffffffff8111610182576106b69036906004016103ca565b916101043560ff8116810361018257610237936101443593610124359360c4359060a4359060843590606435906044359060243590611145565b60005b8381106107035750506000910152565b81810151838201526020016106f3565b9060209161072c815180928185528580860191016106f0565b601f01601f1916010190565b34610182576020366003190112610182576004356000526003602052610791610774604060002061077b60018201549160405193848092610b7b565b0383610c97565b60ff604051938493606085526060850190610713565b918181161515602085015260081c16151560408301520390f35b34610182576040366003190112610182576001600160a01b036107cc61016c565b16600052600060205260026040600020016024356000526020526020604060002054604051908152f35b34610182576020366003190112610182576001600160a01b0361081761016c565b1660005260006020526020604060002054604051908152f35b34610182576020366003190112610182576001600160a01b0361085161016c565b1660005260026020526020604060002054604051908152f35b34610182576000366003190112610182576004546040516001600160a01b039091168152602090f35b346101825760e0366003190112610182576102376108af61016c565b6024359061091d6044356064356108c4610187565b6040519160208301937fa400f0e70d55e122aa5ae7cec68dd62d343c2a2781e04542ec6e741da8deed26855260018060a01b03871660408501528760608501528060808501528160a085015260a0845261022184610c43565b611b93565b34610182576020366003190112610182576102376004353361149c565b34610182576020806003193601126101825767ffffffffffffffff600435818111610182576109729036906004016103ca565b9161098860018060a01b03600454163314610f5b565b61099b610996368585610fa7565b611dac565b508211610677576109b6826109b1600554610b41565b61107a565b600092601f8311600114610a2b5750610a0882807fcd2d494e05faf2e2c628dfba16c95353e578f1158cc859866c1a35fef49fb1fc95600091610a20575b508160011b916000199060031b1c19161790565b6005555b610a1b60405192839283611175565b0390a1005b9050830135386109f4565b6005600052601f198316936000805160206122328339815191529181905b868210610aa5575050837fcd2d494e05faf2e2c628dfba16c95353e578f1158cc859866c1a35fef49fb1fc9510610a8b575b5050600182811b01600555610a0c565b820135600019600385901b60f8161c191690553880610a7b565b80600184958294958801358155019401920190610a49565b3461018257606036600319011261018257610237604051610add81610c5f565b60008152604435602435600435336116f2565b34610182576020366003190112610182576004356000526001602052602060018060a01b0360406000205416604051908152f35b346101825760203660031901126101825761023760043533611b93565b90600182811c92168015610b71575b6020831014610b5b57565b634e487b7160e01b600052602260045260246000fd5b91607f1691610b50565b805460009392610b8a82610b41565b91828252602093600191600181169081600014610bf25750600114610bb1575b5050505050565b90939495506000929192528360002092846000945b838610610bde57505050500101903880808080610baa565b805485870183015294019385908201610bc6565b60ff19168685015250505090151560051b010191503880808080610baa565b634e487b7160e01b600052604160045260246000fd5b6060810190811067ffffffffffffffff82111761067757604052565b60c0810190811067ffffffffffffffff82111761067757604052565b6020810190811067ffffffffffffffff82111761067757604052565b6040810190811067ffffffffffffffff82111761067757604052565b90601f8019910116810190811067ffffffffffffffff82111761067757604052565b6040519060008260055491610ccd83610b41565b80835292602090600190818116908115610d495750600114610cfa575b5050610cf892500383610c97565b565b9150926005600052600080516020612232833981519152936000925b828410610d315750610cf89450505081016020013880610cea565b85548885018301529485019487945092810192610d16565b91505060209250610cf894915060ff191682840152151560051b8201013880610cea565b3461018257600080600319360112610e445760405190808260055491610d9283610b41565b9283835260209460019186600182169182600014610e22575050600114610dda575b5050610dc292500383610c97565b610dd6604051928284938452830190610713565b0390f35b90859250600582526000805160206122328339815191525b858310610e0a575050610dc293508201013880610db4565b80548389018501528794508693909201918101610df2565b9250935050610dc294915060ff191682840152151560051b8201013880610db4565b80fd5b34610182576020366003190112610182576001600160a01b03610e6861016c565b166000526000602052610dd6610e846001604060002001610f0a565b604051918291602083526020830190610239565b346101825761012036600319011261018257610eb261016c565b60a4359060643560443560243560c43560843560ff821682036101825785610ef492610237986101043593610eee82828b8b8b60e43599611a64565b8a611306565b60405193610f0185610c5f565b600085526116f2565b90604051918281549182825260209260208301916000526020600020936000905b828210610f4157505050610cf892500383610c97565b855484526001958601958895509381019390910190610f2b565b15610f6257565b60405162461bcd60e51b815260206004820152601b60248201527f477561726469616e52656769737472793a206e6f74206f776e657200000000006044820152606490fd5b92919267ffffffffffffffff82116106775760405191610fd1601f8201601f191660200184610c97565b829481845281830111610182578281602093846000960137010152565b15610ff557565b60405162461bcd60e51b815260206004820152602260248201527f477561726469616e52656769737472793a20696e76616c6964204349442068616044820152610e6d60f31b6064820152608490fd5b9161105f9183549060031b91821b91600019901b19161790565b9055565b81811061106e575050565b60008155600101611063565b90601f8211611087575050565b610cf8916005600052600080516020612232833981519152906020601f840160051c830193106110bf575b601f0160051c0190611063565b90915081906110b2565b9190601f81116110d857505050565b610cf8926000526020600020906020601f840160051c830193106110bf57601f0160051c0190611063565b908060209392818452848401376000828201840152601f01601f1916010190565b9160209161113d91959495604085526040850191611103565b931515910152565b9981969986868d610cf89f9561116f9a889d9a8a9f9a61042f9a6111699486611a64565b90611306565b94611878565b916020611186938181520191611103565b90565b1561119057565b60405162461bcd60e51b815260206004820152601e60248201527f477561726469616e52656769737472793a20696e76616c6964207573657200006044820152606490fd5b156111dc57565b60405162461bcd60e51b815260206004820152601f60248201527f477561726469616e52656769737472793a20696e76616c6964206e6f6e6365006044820152606490fd5b1561122857565b60405162461bcd60e51b815260206004820152602360248201527f477561726469616e52656769737472793a207369676e617475726520657870696044820152621c995960ea1b6064820152608490fd5b6040513d6000823e3d90fd5b1561128c57565b60405162461bcd60e51b815260206004820152602360248201527f477561726469616e52656769737472793a20696e76616c6964207369676e617460448201526275726560e81b6064820152608490fd5b634e487b7160e01b600052601160045260246000fd5b906001820180921161130157565b6112dd565b9591946001600160a01b0387169460209460009491936113c4929161132c891515611189565b6001600160a01b038b16600090815260026020526040902061135090548b146111d5565b80611432575b5061138c61139a611365611e18565b926040519283918b83019586909160429261190160f01b8352600283015260228201520190565b03601f198101835282610c97565b51902092604051948594859094939260ff6060936080840197845216602083015260408201520152565b838052039060015afa1561142d57600051611420926114049290916113ff91906001600160a01b0316908115159182611423575b5050611285565b6112f3565b6001600160a01b03909216600090815260026020526040902090565b55565b14905038806113f8565b611279565b61143e90421115611221565b38611356565b1561144b57565b60405162461bcd60e51b815260206004820152602360248201527f477561726469616e52656769737472793a20696e76616c6964207468726573686044820152621bdb1960ea1b6064820152608490fd5b60207fbb0549e0aedb1fcc6a27d802df340bb4bd5dc53b1f97f3736a879345232e6def9160018060a01b0316928360005260008252806040600020600181015480156000146114fa57506114f08215611444565b55604051908152a2565b61150e908315159081611513575b50611444565b6114f0565b905083111538611508565b1561152557565b60405162461bcd60e51b815260206004820152602360248201527f477561726469616e52656769737472793a20696e76616c6964206175746820686044820152620c2e6d60eb1b6064820152608490fd5b1561157d57565b60405162461bcd60e51b815260206004820152602560248201527f477561726469616e52656769737472793a20696e76616c696420636970686572604482015264040d0c2e6d60db1b6064820152608490fd5b156115d757565b60405162461bcd60e51b815260206004820152602160248201527f477561726469616e52656769737472793a20677561726469616e2065786973746044820152607360f81b6064820152608490fd5b1561162d57565b60405162461bcd60e51b815260206004820152602660248201527f477561726469616e52656769737472793a206369706865722068617368206d696044820152650e6dac2e8c6d60d31b6064820152608490fd5b634e487b7160e01b600052603260045260246000fd5b80548210156116af5760005260206000200190600090565b611681565b8054906801000000000000000082101561067757816116db91600161105f94018155611697565b819391549060031b91821b91600019901b19161790565b91929093611701851515610fee565b61170c84151561151e565b611717821515611576565b6001600160a01b038316600090815260208190526040902091600383019061175361174c888490600052602052604060002090565b54156115d0565b6004840190815480156000146118685750908190556040519081526001600160a01b038516907f75636b7524fb12ab3000b27811e44668a7191791dd7316fe9b6b6449daabf36890602090a25b6117c386600185016117b282826116b4565b549290600052602052604060002090565b55836117dc866002850190600052602052604060002090565b556117fe60016117f6876000526003602052604060002090565b015460ff1690565b908161185d575b5061185857816118397fc0f8a21cf3b51f550824358b896669327d4a555631b51c610b93a521ce5062ee936118539361216d565b6040519384526001600160a01b0316929081906020820190565b0390a3565b611eef565b905051151538611805565b611873925014611626565b6117a0565b9094817fc0f8a21cf3b51f550824358b896669327d4a555631b51c610b93a521ce5062ee946118539496611839936118b18a1515610fee565b6118bc89151561151e565b6118c7831515611576565b6001600160a01b03841660009081526020819052604090209260038401906118fc61174c8d8490600052602052604060002090565b600485019081548015600014611a545750908190556040519081526001600160a01b038616907f75636b7524fb12ab3000b27811e44668a7191791dd7316fe9b6b6449daabf36890602090a25b61195b8b600186016117b282826116b4565b55886119748b6002860190600052602052604060002090565b5561198e60016117f68c6000526003602052604060002090565b80611a4a575b6119a0575b505061216d565b6119ab918a85612017565b6119b5878961214f565b6119d96119cc826000526001602052604060002090565b546001600160a01b031690565b90611a11846119f2836000526001602052604060002090565b80546001600160a01b0319166001600160a01b03909216919091179055565b6001600160a01b038481169216907eee63f421dc90e8fa06edc3da1c69742ddae51203585c544f462f14b9ca43d6600080a43880611999565b5080511515611994565b611a5f925014611626565b611949565b94929093916040519460208601967fd731c3004d60843ac05ea98e399e1842a26962846f48d9a19d1bdd81d5108b41885260018060a01b031660408701526060860152608085015260a084015260c083015260e082015260e08152610100810181811067ffffffffffffffff8211176106775760405251902090565b15611ae757565b60405162461bcd60e51b815260206004820152602260248201527f477561726469616e52656769737472793a20677561726469616e206d697373696044820152616e6760f01b6064820152608490fd5b60001981019190821161130157565b9190820391821161130157565b8054908115611b7d5760001991820191611b6d8383611697565b909182549160031b1b1916905555565b634e487b7160e01b600052603160045260246000fd5b7f75cd8d9f01b90fe59e0fecfd8de59d529a5088507db54c294254708d1e982c258291611c6e81611bd68160018060a01b03166000526000602052604060002090565b60038101611c23611c05611bf4898490600052602052604060002090565b54611c00811515611ae0565b611b37565b6001840190611c148254611b37565b808203611d0a575b5050611b53565b600096875260205260408620869055856002820181611c618a611c50818590600052602052604060002090565b549390600052602052604060002090565b5580611c7c57505061216d565b6001600160a01b03169180a3565b611c86908961214f565b611c9d6119cc826000526001602052604060002090565b6001600160a01b038581169291168214611cb8575b50611999565b611cdf611ccf826000526001602052604060002090565b80546001600160a01b0319169055565b7eee63f421dc90e8fa06edc3da1c69742ddae51203585c544f462f14b9ca43d68380a4853880611cb2565b611d3c611d27611d1d611d4d9386611697565b90549060031b1c90565b926113ff84611d368388611697565b90611045565b918590600052602052604060002090565b553880611c1c565b15611d5c57565b60405162461bcd60e51b815260206004820152602260248201527f477561726469616e52656769737472793a20696e76616c6964207369676e206b604482015261657960f01b6064820152608490fd5b8051604081148015611e0e575b611dc290611d55565b604160009114611de1575b60409101602001206001600160a01b031690565b508051156116af576020810151611e07906001600160f81b031916600160fa1b14611d55565b6001611dcd565b5060418114611db9565b6f477561726469616e526567697374727960801b6020604051611e3a81610c7b565b601081520152603160f81b6020604051611e5381610c7b565b60018152015260405160208101907f8b73c3c69bb8fe3d512ecc4cf759cc79239f7b179b0ffacaa9a75d522b39400f82527ff4a08922ba67bf5ab276997d6f517a17293eb204f59f8546d9cba864f873738d60408201527fc89efdaa54c0f20c7adf612882df0950f5a951637e0307cdcb4c672f298b8bc660608201524660808201523060a082015260a08152611ee981610c43565b51902090565b60405162461bcd60e51b815260206004820152602360248201527f477561726469616e52656769737472793a20696e76616c69642074696d6573746044820152620616d760ec1b6064820152608490fd5b15611eef57565b15611f4e57565b60405162461bcd60e51b815260206004820152602760248201527f477561726469616e52656769737472793a207369676e61747572652066726f6d6044820152662066757475726560c81b6064820152608490fd5b90611fb6602092828151948592016106f0565b0190565b15611fc157565b60405162461bcd60e51b815260206004820152602860248201527f477561726469616e52656769737472793a20696e76616c6964207369676e207360448201526769676e617475726560c01b6064820152608490fd5b916120b0916120a4949361202c831515611f40565b61203883421015611f47565b61204f6103846120488542611b46565b1115611221565b604080516020810193845260609290921b6bffffffffffffffffffffffff191690820152605480820193909352918252601f199161208e607482610c97565b5190206040519485916020830160209181520190565b03908101845283610c97565b60206040519283806120c56000968794611fa3565b039060025afa1561142d57816121066020926120e28351916121f7565b6040805194855260ff90931660208501529183015260608201529081906080820190565b838052039060015afa1561142d57610cf89051612124610996610cb9565b6001600160a01b0391821680151592909183612143575b505050611fba565b1614905038808061213b565b906040519060208201928352604082015260408152611ee981610c27565b90600182015460018111156000146121bd575060207fbb0549e0aedb1fcc6a27d802df340bb4bd5dc53b1f97f3736a879345232e6def91600180945b556040519384526001600160a01b031692a2565b60018101809111611301577fbb0549e0aedb1fcc6a27d802df340bb4bd5dc53b1f97f3736a879345232e6def9160209160011c80946121a9565b6122046041825114611fba565b6020810151906060604082015191015160001a92601b841061222257565b92601b0160ff8111611301579256fe036b6384b5eca791c62761152d0c79bb0604c104a5fb6f4eb0703f3154bb3db0a2646970667358221220c1ec5120cb1f4e82074867ad9a587023ab665dc98b75c98454c2835e16bbe7b864736f6c63430008180033cd2d494e05faf2e2c628dfba16c95353e578f1158cc859866c1a35fef49fb1fc",
  "linkReferences": {},
  "deployedLinkReferences": {}
}