{
  "_format": "hh-sol-artifact-1",
  "contractName": "GuardianRegistry",
  "sourceName": "contracts/GuardianRegistry.sol",
  "abi": [
    {
      "inputs": [],
      "stateMutability": "nonpayable",
      "type": "constructor"
    },
    {
      "anonymous": false,
      "inputs": [
        {
          "indexed": true,
          "internalType": "address",
          "name": "user",
          "type": "address"
        },
        {
          "indexed": false,
          "internalType": "bytes32",
          "name": "cipherHash",
          "type": "bytes32"
        }
      ],
      "name": "CipherHashSet",
      "type": "event"
    },
    {
      "anonymous": false,
      "inputs": [
        {
          "indexed": true,
          "internalType": "address",
          "name": "user",
          "type": "address"
        },
        {
          "indexed": true,
          "internalType": "bytes32",
          "name": "guardianCIDHash",
          "type": "bytes32"
        },
        {
          "indexed": false,
          "internalType": "bytes32",
          "name": "authValueHash",
          "type": "bytes32"
        }
      ],
      "name": "GuardianAdded",
      "type": "event"
    },
    {
      "anonymous": false,
      "inputs": [
        {
          "indexed": true,
          "internalType": "address",
          "name": "user",
          "type": "address"
        },
        {
          "indexed": true,
          "internalType": "bytes32",
          "name": "guardianCIDHash",
          "type": "bytes32"
        }
      ],
      "name": "GuardianRemoved",
      "type": "event"
    },
    {
      "anonymous": false,
      "inputs": [
        {
          "indexed": true,
          "internalType": "bytes32",
          "name": "guardianCIDHash",
          "type": "bytes32"
        },
        {
          "indexed": false,
          "internalType": "string",
          "name": "name",
          "type": "string"
        },
        {
          "indexed": false,
          "internalType": "bool",
          "name": "isUniqueAuthValue",
          "type": "bool"
        }
      ],
      "name": "GuardianTypeSet",
      "type": "event"
    },
    {
      "anonymous": false,
      "inputs": [
        {
          "indexed": true,
          "internalType": "address",
          "name": "previousOwner",
          "type": "address"
        },
        {
          "indexed": true,
          "internalType": "address",
          "name": "newOwner",
          "type": "address"
        }
      ],
      "name": "OwnerUpdated",
      "type": "event"
    },
    {
      "anonymous": false,
      "inputs": [
        {
          "indexed": true,
          "internalType": "address",
          "name": "user",
          "type": "address"
        },
        {
          "indexed": false,
          "internalType": "uint256",
          "name": "threshold",
          "type": "uint256"
        }
      ],
      "name": "ThresholdUpdated",
      "type": "event"
    },
    {
      "inputs": [
        {
          "internalType": "bytes32",
          "name": "guardianCIDHash",
          "type": "bytes32"
        },
        {
          "internalType": "bytes32",
          "name": "authValueHash",
          "type": "bytes32"
        },
        {
          "internalType": "bytes32",
          "name": "cipherHash",
          "type": "bytes32"
        }
      ],
      "name": "addGuardian",
      "outputs": [],
      "stateMutability": "nonpayable",
      "type": "function"
    },
    {
      "inputs": [
        {
          "internalType": "address",
          "name": "user",
          "type": "address"
        },
        {
          "internalType": "bytes32",
          "name": "guardianCIDHash",
          "type": "bytes32"
        },
        {
          "internalType": "bytes32",
          "name": "authValueHash",
          "type": "bytes32"
        },
        {
          "internalType": "bytes32",
          "name": "cipherHash",
          "type": "bytes32"
        },
        {
          "internalType": "uint256",
          "name": "nonce",
          "type": "uint256"
        },
        {
          "internalType": "uint256",
          "name": "deadline",
          "type": "uint256"
        },
        {
          "internalType": "uint8",
          "name": "v",
          "type": "uint8"
        },
        {
          "internalType": "bytes32",
          "name": "r",
          "type": "bytes32"
        },
        {
          "internalType": "bytes32",
          "name": "s",
          "type": "bytes32"
        }
      ],
      "name": "addGuardianWithSig",
      "outputs": [],
      "stateMutability": "nonpayable",
      "type": "function"
    },
    {
      "inputs": [
        {
          "internalType": "bytes32",
          "name": "authValueHash",
          "type": "bytes32"
        }
      ],
      "name": "getAuthValueOwner",
      "outputs": [
        {
          "internalType": "address",
          "name": "",
          "type": "address"
        }
      ],
      "stateMutability": "view",
      "type": "function"
    },
    {
      "inputs": [
        {
          "internalType": "address",
          "name": "user",
          "type": "address"
        }
      ],
      "name": "getCipherHash",
      "outputs": [
        {
          "internalType": "bytes32",
          "name": "",
          "type": "bytes32"
        }
      ],
      "stateMutability": "view",
      "type": "function"
    },
    {
      "inputs": [
        {
          "internalType": "address",
          "name": "user",
          "type": "address"
        }
      ],
      "name": "getGuardianCIDs",
      "outputs": [
        {
          "internalType": "bytes32[]",
          "name": "",
          "type": "bytes32[]"
        }
      ],
      "stateMutability": "view",
      "type": "function"
    },
    {
      "inputs": [
        {
          "internalType": "address",
          "name": "user",
          "type": "address"
        }
      ],
      "name": "getGuardianConfig",
      "outputs": [
        {
          "internalType": "uint256",
          "name": "threshold",
          "type": "uint256"
        },
        {
          "internalType": "bytes32[]",
          "name": "guardianCIDs",
          "type": "bytes32[]"
        },
        {
          "internalType": "bytes32",
          "name": "cipherHash",
          "type": "bytes32"
        }
      ],
      "stateMutability": "view",
      "type": "function"
    },
    {
      "inputs": [
        {
          "internalType": "address",
          "name": "user",
          "type": "address"
        },
        {
          "internalType": "bytes32",
          "name": "guardianCIDHash",
          "type": "bytes32"
        }
      ],
      "name": "getGuardianEntry",
      "outputs": [
        {
          "internalType": "bytes32",
          "name": "",
          "type": "bytes32"
        }
      ],
      "stateMutability": "view",
      "type": "function"
    },
    {
      "inputs": [
        {
          "internalType": "bytes32",
          "name": "guardianCIDHash",
          "type": "bytes32"
        }
      ],
      "name": "getGuardianType",
      "outputs": [
        {
          "internalType": "string",
          "name": "name",
          "type": "string"
        },
        {
          "internalType": "bool",
          "name": "isUniqueAuthValue",
          "type": "bool"
        },
        {
          "internalType": "bool",
          "name": "exists",
          "type": "bool"
        }
      ],
      "stateMutability": "view",
      "type": "function"
    },
    {
      "inputs": [
        {
          "internalType": "address",
          "name": "user",
          "type": "address"
        }
      ],
      "name": "getThreshold",
      "outputs": [
        {
          "internalType": "uint256",
          "name": "",
          "type": "uint256"
        }
      ],
      "stateMutability": "view",
      "type": "function"
    },
    {
      "inputs": [
        {
          "internalType": "address",
          "name": "",
          "type": "address"
        }
      ],
      "name": "nonces",
      "outputs": [
        {
          "internalType": "uint256",
          "name": "",
          "type": "uint256"
        }
      ],
      "stateMutability": "view",
      "type": "function"
    },
    {
      "inputs": [],
      "name": "owner",
      "outputs": [
        {
          "internalType": "address",
          "name": "",
          "type": "address"
        }
      ],
      "stateMutability": "view",
      "type": "function"
    },
    {
      "inputs": [
        {
          "internalType": "bytes32",
          "name": "guardianCIDHash",
          "type": "bytes32"
        }
      ],
      "name": "removeGuardian",
      "outputs": [],
      "stateMutability": "nonpayable",
      "type": "function"
    },
    {
      "inputs": [
        {
          "internalType": "address",
          "name": "user",
          "type": "address"
        },
        {
          "internalType": "bytes32",
          "name": "guardianCIDHash",
          "type": "bytes32"
        },
        {
          "internalType": "uint256",
          "name": "nonce",
          "type": "uint256"
        },
        {
          "internalType": "uint256",
          "name": "deadline",
          "type": "uint256"
        },
        {
          "internalType": "uint8",
          "name": "v",
          "type": "uint8"
        },
        {
          "internalType": "bytes32",
          "name": "r",
          "type": "bytes32"
        },
        {
          "internalType": "bytes32",
          "name": "s",
          "type": "bytes32"
        }
      ],
      "name": "removeGuardianWithSig",
      "outputs": [],
      "stateMutability": "nonpayable",
      "type": "function"
    },
    {
      "inputs": [
        {
          "internalType": "bytes32",
          "name": "guardianCIDHash",
          "type": "bytes32"
        },
        {
          "internalType": "string",
          "name": "name",
          "type": "string"
        },
        {
          "internalType": "bool",
          "name": "isUniqueAuthValue",
          "type": "bool"
        }
      ],
      "name": "setGuardianType",
      "outputs": [],
      "stateMutability": "nonpayable",
      "type": "function"
    },
    {
      "inputs": [
        {
          "internalType": "address",
          "name": "newOwner",
          "type": "address"
        }
      ],
      "name": "setOwner",
      "outputs": [],
      "stateMutability": "nonpayable",
      "type": "function"
    },
    {
      "inputs": [
        {
          "internalType": "uint256",
          "name": "threshold",
          "type": "uint256"
        }
      ],
      "name": "setThreshold",
      "outputs": [],
      "stateMutability": "nonpayable",
      "type": "function"
    },
    {
      "inputs": [
        {
          "internalType": "address",
          "name": "user",
          "type": "address"
        },
        {
          "internalType": "uint256",
          "name": "threshold",
          "type": "uint256"
        },
        {
          "internalType": "uint256",
          "name": "nonce",
          "type": "uint256"
        },
        {
          "internalType": "uint256",
          "name": "deadline",
          "type": "uint256"
        },
        {
          "internalType": "uint8",
          "name": "v",
          "type": "uint8"
        },
        {
          "internalType": "bytes32",
          "name": "r",
          "type": "bytes32"
        },
        {
          "internalType": "bytes32",
          "name": "s",
          "type": "bytes32"
        }
      ],
      "name": "setThresholdWithSig",
      "outputs": [],
      "stateMutability": "nonpayable",
      "type": "function"
    }
  ],
  "bytecode": "0x608060405234801561001057600080fd5b5033600460006101000a81548173ffffffffffffffffffffffffffffffffffffffff021916908373ffffffffffffffffffffffffffffffffffffffff1602179055503373ffffffffffffffffffffffffffffffffffffffff16600073ffffffffffffffffffffffffffffffffffffffff167f8292fce18fa69edf4db7b94ea2e58241df0ae57f97e0a6c9b29067028bf92d7660405160405180910390a3612efc806100bc6000396000f3fe608060405234801561001057600080fd5b506004361061010b5760003560e01c806378977168116100a2578063960bfe0411610071578063960bfe04146102f2578063a2c6aff11461030e578063d9449d121461032a578063e956bb6514610346578063ef530a75146103765761010b565b806378977168146102585780637ecebe00146102885780638da5cb5b146102b85780638e26df0f146102d65761010b565b8063350d9970116100de578063350d9970146101aa578063449e800f146101c657806368b84f5c146101f657806376716bbe146102285761010b565b80630a21f30a146101105780630bb6094a1461012c57806313af40351461015e5780631cf66c121461017a575b600080fd5b61012a60048036038101906101259190611975565b610392565b005b61014660048036038101906101419190611a17565b6103bf565b60405161015593929190611b20565b60405180910390f35b61017860048036038101906101739190611a17565b610474565b005b610194600480360381019061018f9190611a17565b610633565b6040516101a19190611b5e565b60405180910390f35b6101c460048036038101906101bf9190611c16565b61067e565b005b6101e060048036038101906101db9190611c8a565b610865565b6040516101ed9190611cc6565b60405180910390f35b610210600480360381019061020b9190611c8a565b6108a2565b60405161021f93929190611d80565b60405180910390f35b610242600480360381019061023d9190611dbe565b610980565b60405161024f9190611b5e565b60405180910390f35b610272600480360381019061026d9190611a17565b6109dd565b60405161027f9190611dfe565b60405180910390f35b6102a2600480360381019061029d9190611a17565b610a28565b6040516102af9190611dfe565b60405180910390f35b6102c0610a40565b6040516102cd9190611cc6565b60405180910390f35b6102f060048036038101906102eb9190611e19565b610a66565b005b61030c60048036038101906103079190611ebb565b610a93565b005b61032860048036038101906103239190611ee8565b610aa0565b005b610344600480360381019061033f9190611c8a565b610ab1565b005b610360600480360381019061035b9190611a17565b610abe565b60405161036d9190611f3b565b60405180910390f35b610390600480360381019061038b9190611f5d565b610b57565b005b6103ac876103a289898989610b8a565b8787878787610be5565b6103b68787610eaa565b50505050505050565b600060606000806000808673ffffffffffffffffffffffffffffffffffffffff1673ffffffffffffffffffffffffffffffffffffffff168152602001908152602001600020905080600001548160010182600401548180548060200260200160405190810160405280929190818152602001828054801561045f57602002820191906000526020600020905b81548152602001906001019080831161044b575b50505050509150935093509350509193909250565b600460009054906101000a900473ffffffffffffffffffffffffffffffffffffffff1673ffffffffffffffffffffffffffffffffffffffff163373ffffffffffffffffffffffffffffffffffffffff1614610504576040517f08c379a00000000000000000000000000000000000000000000000000000000081526004016104fb90612073565b60405180910390fd5b600073ffffffffffffffffffffffffffffffffffffffff168173ffffffffffffffffffffffffffffffffffffffff1603610573576040517f08c379a000000000000000000000000000000000000000000000000000000000815260040161056a906120df565b60405180910390fd5b8073ffffffffffffffffffffffffffffffffffffffff16600460009054906101000a900473ffffffffffffffffffffffffffffffffffffffff1673ffffffffffffffffffffffffffffffffffffffff167f8292fce18fa69edf4db7b94ea2e58241df0ae57f97e0a6c9b29067028bf92d7660405160405180910390a380600460006101000a81548173ffffffffffffffffffffffffffffffffffffffff021916908373ffffffffffffffffffffffffffffffffffffffff16021790555050565b60008060008373ffffffffffffffffffffffffffffffffffffffff1673ffffffffffffffffffffffffffffffffffffffff168152602001908152602001600020600401549050919050565b600460009054906101000a900473ffffffffffffffffffffffffffffffffffffffff1673ffffffffffffffffffffffffffffffffffffffff163373ffffffffffffffffffffffffffffffffffffffff161461070e576040517f08c379a000000000000000000000000000000000000000000000000000000000815260040161070590612073565b60405180910390fd5b6000801b8403610753576040517f08c379a000000000000000000000000000000000000000000000000000000000815260040161074a90612171565b60405180910390fd5b604051806060016040528084848080601f016020809104026020016040519081016040528093929190818152602001838380828437600081840152601f19601f8201169050808301925050505050505081526020018215158152602001600115158152506003600086815260200190815260200160002060008201518160000190816107df91906123cc565b5060208201518160010160006101000a81548160ff02191690831515021790555060408201518160010160016101000a81548160ff021916908315150217905550905050837f4665b5e01a7f6ade05d62b42236faa56eff1dc7aa4c99b7338dbf1acd1a27ce3848484604051610857939291906124da565b60405180910390a250505050565b60006001600083815260200190815260200160002060009054906101000a900473ffffffffffffffffffffffffffffffffffffffff169050919050565b60606000806000600360008681526020019081526020016000209050806000018160010160009054906101000a900460ff168260010160019054906101000a900460ff168280546108f2906121ef565b80601f016020809104026020016040519081016040528092919081815260200182805461091e906121ef565b801561096b5780601f106109405761010080835404028352916020019161096b565b820191906000526020600020905b81548152906001019060200180831161094e57829003601f168201915b50505050509250935093509350509193909250565b60008060008473ffffffffffffffffffffffffffffffffffffffff1673ffffffffffffffffffffffffffffffffffffffff168152602001908152602001600020600201600083815260200190815260200160002054905092915050565b60008060008373ffffffffffffffffffffffffffffffffffffffff1673ffffffffffffffffffffffffffffffffffffffff168152602001908152602001600020600001549050919050565b60026020528060005260406000206000915090505481565b600460009054906101000a900473ffffffffffffffffffffffffffffffffffffffff1681565b610a8087610a7689898989610ff5565b8787878787610be5565b610a8a8787611050565b50505050505050565b610a9d3382610eaa565b50565b610aac3384848461129f565b505050565b610abb3382611050565b50565b60606000808373ffffffffffffffffffffffffffffffffffffffff1673ffffffffffffffffffffffffffffffffffffffff168152602001908152602001600020600101805480602002602001604051908101604052809291908181526020018280548015610b4b57602002820191906000526020600020905b815481526020019060010190808311610b37575b50505050509050919050565b610b7389610b698b8b8b8b8b8b6116a3565b8787878787610be5565b610b7f8989898961129f565b505050505050505050565b60007ff2205e338494c1ce542f165cfa4190868dc469f194bab3186b8db6bbd17df55485858585604051602001610bc595949392919061250c565b604051602081830303815290604052805190602001209050949350505050565b600073ffffffffffffffffffffffffffffffffffffffff168773ffffffffffffffffffffffffffffffffffffffff1603610c54576040517f08c379a0000000000000000000000000000000000000000000000000000000008152600401610c4b906125ab565b60405180910390fd5b600260008873ffffffffffffffffffffffffffffffffffffffff1673ffffffffffffffffffffffffffffffffffffffff168152602001908152602001600020548514610cd5576040517f08c379a0000000000000000000000000000000000000000000000000000000008152600401610ccc90612617565b60405180910390fd5b60008414610d215783421115610d20576040517f08c379a0000000000000000000000000000000000000000000000000000000008152600401610d17906126a9565b60405180910390fd5b5b6000610d2b611704565b87604051602001610d3d929190612741565b604051602081830303815290604052805190602001209050600060018286868660405160008152602001604052604051610d7a9493929190612787565b6020604051602081039080840390855afa158015610d9c573d6000803e3d6000fd5b505050602060405103519050600073ffffffffffffffffffffffffffffffffffffffff168173ffffffffffffffffffffffffffffffffffffffff1614158015610e1057508873ffffffffffffffffffffffffffffffffffffffff168173ffffffffffffffffffffffffffffffffffffffff16145b610e4f576040517f08c379a0000000000000000000000000000000000000000000000000000000008152600401610e469061283e565b60405180910390fd5b600187610e5c919061288d565b600260008b73ffffffffffffffffffffffffffffffffffffffff1673ffffffffffffffffffffffffffffffffffffffff16815260200190815260200160002081905550505050505050505050565b60008060008473ffffffffffffffffffffffffffffffffffffffff1673ffffffffffffffffffffffffffffffffffffffff168152602001908152602001600020905060008160010180549050905060008103610f485760008314610f43576040517f08c379a0000000000000000000000000000000000000000000000000000000008152600401610f3a90612933565b60405180910390fd5b610f98565b600083118015610f585750808311155b610f97576040517f08c379a0000000000000000000000000000000000000000000000000000000008152600401610f8e90612933565b60405180910390fd5b5b8282600001819055508373ffffffffffffffffffffffffffffffffffffffff167fbb0549e0aedb1fcc6a27d802df340bb4bd5dc53b1f97f3736a879345232e6def84604051610fe79190611dfe565b60405180910390a250505050565b60007fa400f0e70d55e122aa5ae7cec68dd62d343c2a2781e04542ec6e741da8deed2685858585604051602001611030959493929190612953565b604051602081830303815290604052805190602001209050949350505050565b60008060008473ffffffffffffffffffffffffffffffffffffffff1673ffffffffffffffffffffffffffffffffffffffff16815260200190815260200160002090506000816003016000848152602001908152602001600020549050600081036110ef576040517f08c379a00000000000000000000000000000000000000000000000000000000081526004016110e690612a18565b60405180910390fd5b60006001826110fe9190612a38565b90506000600184600101805490506111169190612a38565b905080821461119157600084600101828154811061113757611136612a6c565b5b906000526020600020015490508085600101848154811061115b5761115a612a6c565b5b9060005260206000200181905550600183611176919061288d565b85600301600083815260200190815260200160002081905550505b836001018054806111a5576111a4612a9b565b5b60019003818190600052602060002001600090559055836003016000868152602001908152602001600020600090556000846002016000878152602001908152602001600020549050846002016000878152602001908152602001600020600090556000801b8114611248576001600082815260200190815260200160002060006101000a81549073ffffffffffffffffffffffffffffffffffffffff02191690555b61125285886117d2565b858773ffffffffffffffffffffffffffffffffffffffff167f75cd8d9f01b90fe59e0fecfd8de59d529a5088507db54c294254708d1e982c2560405160405180910390a350505050505050565b6000801b83036112e4576040517f08c379a00000000000000000000000000000000000000000000000000000000081526004016112db90612171565b60405180910390fd5b6000801b8203611329576040517f08c379a000000000000000000000000000000000000000000000000000000000815260040161132090612b3c565b60405180910390fd5b6000801b810361136e576040517f08c379a000000000000000000000000000000000000000000000000000000000815260040161136590612bce565b60405180910390fd5b60008060008673ffffffffffffffffffffffffffffffffffffffff1673ffffffffffffffffffffffffffffffffffffffff168152602001908152602001600020905060008160030160008681526020019081526020016000205414611408576040517f08c379a00000000000000000000000000000000000000000000000000000000081526004016113ff90612c60565b60405180910390fd5b6000801b816004015403611472578181600401819055508473ffffffffffffffffffffffffffffffffffffffff167f75636b7524fb12ab3000b27811e44668a7191791dd7316fe9b6b6449daabf368836040516114659190611b5e565b60405180910390a26114b9565b818160040154146114b8576040517f08c379a00000000000000000000000000000000000000000000000000000000081526004016114af90612cf2565b60405180910390fd5b5b80600101849080600181540180825580915050600190039060005260206000200160009091909190915055806001018054905081600301600086815260200190815260200160002081905550828160020160008681526020019081526020016000208190555060006003600086815260200190815260200160002090508060010160009054906101000a900460ff161561164257600073ffffffffffffffffffffffffffffffffffffffff166001600086815260200190815260200160002060009054906101000a900473ffffffffffffffffffffffffffffffffffffffff1673ffffffffffffffffffffffffffffffffffffffff16146115ef576040517f08c379a00000000000000000000000000000000000000000000000000000000081526004016115e690612d84565b60405180910390fd5b856001600086815260200190815260200160002060006101000a81548173ffffffffffffffffffffffffffffffffffffffff021916908373ffffffffffffffffffffffffffffffffffffffff1602179055505b61164c82876117d2565b848673ffffffffffffffffffffffffffffffffffffffff167fc0f8a21cf3b51f550824358b896669327d4a555631b51c610b93a521ce5062ee866040516116939190611b5e565b60405180910390a3505050505050565b60007fd731c3004d60843ac05ea98e399e1842a26962846f48d9a19d1bdd81d5108b418787878787876040516020016116e29796959493929190612da4565b6040516020818303038152906040528051906020012090509695505050505050565b60007f8b73c3c69bb8fe3d512ecc4cf759cc79239f7b179b0ffacaa9a75d522b39400f6040518060400160405280601081526020017f477561726469616e526567697374727900000000000000000000000000000000815250805190602001206040518060400160405280600181526020017f31000000000000000000000000000000000000000000000000000000000000008152508051906020012046306040516020016117b7959493929190612e13565b60405160208183030381529060405280519060200120905090565b600082600101805490509050600060018211156118075760026001836117f8919061288d565b6118029190612e95565b611809565b815b90508084600001819055508273ffffffffffffffffffffffffffffffffffffffff167fbb0549e0aedb1fcc6a27d802df340bb4bd5dc53b1f97f3736a879345232e6def8260405161185a9190611dfe565b60405180910390a250505050565b600080fd5b600080fd5b600073ffffffffffffffffffffffffffffffffffffffff82169050919050565b600061189d82611872565b9050919050565b6118ad81611892565b81146118b857600080fd5b50565b6000813590506118ca816118a4565b92915050565b6000819050919050565b6118e3816118d0565b81146118ee57600080fd5b50565b600081359050611900816118da565b92915050565b600060ff82169050919050565b61191c81611906565b811461192757600080fd5b50565b60008135905061193981611913565b92915050565b6000819050919050565b6119528161193f565b811461195d57600080fd5b50565b60008135905061196f81611949565b92915050565b600080600080600080600060e0888a03121561199457611993611868565b5b60006119a28a828b016118bb565b97505060206119b38a828b016118f1565b96505060406119c48a828b016118f1565b95505060606119d58a828b016118f1565b94505060806119e68a828b0161192a565b93505060a06119f78a828b01611960565b92505060c0611a088a828b01611960565b91505092959891949750929550565b600060208284031215611a2d57611a2c611868565b5b6000611a3b848285016118bb565b91505092915050565b611a4d816118d0565b82525050565b600081519050919050565b600082825260208201905092915050565b6000819050602082019050919050565b611a888161193f565b82525050565b6000611a9a8383611a7f565b60208301905092915050565b6000602082019050919050565b6000611abe82611a53565b611ac88185611a5e565b9350611ad383611a6f565b8060005b83811015611b04578151611aeb8882611a8e565b9750611af683611aa6565b925050600181019050611ad7565b5085935050505092915050565b611b1a8161193f565b82525050565b6000606082019050611b356000830186611a44565b8181036020830152611b478185611ab3565b9050611b566040830184611b11565b949350505050565b6000602082019050611b736000830184611b11565b92915050565b600080fd5b600080fd5b600080fd5b60008083601f840112611b9e57611b9d611b79565b5b8235905067ffffffffffffffff811115611bbb57611bba611b7e565b5b602083019150836001820283011115611bd757611bd6611b83565b5b9250929050565b60008115159050919050565b611bf381611bde565b8114611bfe57600080fd5b50565b600081359050611c1081611bea565b92915050565b60008060008060608587031215611c3057611c2f611868565b5b6000611c3e87828801611960565b945050602085013567ffffffffffffffff811115611c5f57611c5e61186d565b5b611c6b87828801611b88565b93509350506040611c7e87828801611c01565b91505092959194509250565b600060208284031215611ca057611c9f611868565b5b6000611cae84828501611960565b91505092915050565b611cc081611892565b82525050565b6000602082019050611cdb6000830184611cb7565b92915050565b600081519050919050565b600082825260208201905092915050565b60005b83811015611d1b578082015181840152602081019050611d00565b60008484015250505050565b6000601f19601f8301169050919050565b6000611d4382611ce1565b611d4d8185611cec565b9350611d5d818560208601611cfd565b611d6681611d27565b840191505092915050565b611d7a81611bde565b82525050565b60006060820190508181036000830152611d9a8186611d38565b9050611da96020830185611d71565b611db66040830184611d71565b949350505050565b60008060408385031215611dd557611dd4611868565b5b6000611de3858286016118bb565b9250506020611df485828601611960565b9150509250929050565b6000602082019050611e136000830184611a44565b92915050565b600080600080600080600060e0888a031215611e3857611e37611868565b5b6000611e468a828b016118bb565b9750506020611e578a828b01611960565b9650506040611e688a828b016118f1565b9550506060611e798a828b016118f1565b9450506080611e8a8a828b0161192a565b93505060a0611e9b8a828b01611960565b92505060c0611eac8a828b01611960565b91505092959891949750929550565b600060208284031215611ed157611ed0611868565b5b6000611edf848285016118f1565b91505092915050565b600080600060608486031215611f0157611f00611868565b5b6000611f0f86828701611960565b9350506020611f2086828701611960565b9250506040611f3186828701611960565b9150509250925092565b60006020820190508181036000830152611f558184611ab3565b905092915050565b60008060008060008060008060006101208a8c031215611f8057611f7f611868565b5b6000611f8e8c828d016118bb565b9950506020611f9f8c828d01611960565b9850506040611fb08c828d01611960565b9750506060611fc18c828d01611960565b9650506080611fd28c828d016118f1565b95505060a0611fe38c828d016118f1565b94505060c0611ff48c828d0161192a565b93505060e06120058c828d01611960565b9250506101006120178c828d01611960565b9150509295985092959850929598565b7f477561726469616e52656769737472793a206e6f74206f776e65720000000000600082015250565b600061205d601b83611cec565b915061206882612027565b602082019050919050565b6000602082019050818103600083015261208c81612050565b9050919050565b7f477561726469616e52656769737472793a20696e76616c6964206f776e657200600082015250565b60006120c9601f83611cec565b91506120d482612093565b602082019050919050565b600060208201905081810360008301526120f8816120bc565b9050919050565b7f477561726469616e52656769737472793a20696e76616c69642043494420686160008201527f7368000000000000000000000000000000000000000000000000000000000000602082015250565b600061215b602283611cec565b9150612166826120ff565b604082019050919050565b6000602082019050818103600083015261218a8161214e565b9050919050565b7f4e487b7100000000000000000000000000000000000000000000000000000000600052604160045260246000fd5b7f4e487b7100000000000000000000000000000000000000000000000000000000600052602260045260246000fd5b6000600282049050600182168061220757607f821691505b60208210810361221a576122196121c0565b5b50919050565b60008190508160005260206000209050919050565b60006020601f8301049050919050565b600082821b905092915050565b6000600883026122827fffffffffffffffffffffffffffffffffffffffffffffffffffffffffffffffff82612245565b61228c8683612245565b95508019841693508086168417925050509392505050565b6000819050919050565b60006122c96122c46122bf846118d0565b6122a4565b6118d0565b9050919050565b6000819050919050565b6122e3836122ae565b6122f76122ef826122d0565b848454612252565b825550505050565b600090565b61230c6122ff565b6123178184846122da565b505050565b5b8181101561233b57612330600082612304565b60018101905061231d565b5050565b601f8211156123805761235181612220565b61235a84612235565b81016020851015612369578190505b61237d61237585612235565b83018261231c565b50505b505050565b600082821c905092915050565b60006123a360001984600802612385565b1980831691505092915050565b60006123bc8383612392565b9150826002028217905092915050565b6123d582611ce1565b67ffffffffffffffff8111156123ee576123ed612191565b5b6123f882546121ef565b61240382828561233f565b600060209050601f8311600181146124365760008415612424578287015190505b61242e85826123b0565b865550612496565b601f19841661244486612220565b60005b8281101561246c57848901518255600182019150602085019450602081019050612447565b868310156124895784890151612485601f891682612392565b8355505b6001600288020188555050505b505050505050565b82818337600083830152505050565b60006124b98385611cec565b93506124c683858461249e565b6124cf83611d27565b840190509392505050565b600060408201905081810360008301526124f58185876124ad565b90506125046020830184611d71565b949350505050565b600060a0820190506125216000830188611b11565b61252e6020830187611cb7565b61253b6040830186611a44565b6125486060830185611a44565b6125556080830184611a44565b9695505050505050565b7f477561726469616e52656769737472793a20696e76616c696420757365720000600082015250565b6000612595601e83611cec565b91506125a08261255f565b602082019050919050565b600060208201905081810360008301526125c481612588565b9050919050565b7f477561726469616e52656769737472793a20696e76616c6964206e6f6e636500600082015250565b6000612601601f83611cec565b915061260c826125cb565b602082019050919050565b60006020820190508181036000830152612630816125f4565b9050919050565b7f477561726469616e52656769737472793a207369676e6174757265206578706960008201527f7265640000000000000000000000000000000000000000000000000000000000602082015250565b6000612693602383611cec565b915061269e82612637565b604082019050919050565b600060208201905081810360008301526126c281612686565b9050919050565b600081905092915050565b7f1901000000000000000000000000000000000000000000000000000000000000600082015250565b600061270a6002836126c9565b9150612715826126d4565b600282019050919050565b6000819050919050565b61273b6127368261193f565b612720565b82525050565b600061274c826126fd565b9150612758828561272a565b602082019150612768828461272a565b6020820191508190509392505050565b61278181611906565b82525050565b600060808201905061279c6000830187611b11565b6127a96020830186612778565b6127b66040830185611b11565b6127c36060830184611b11565b95945050505050565b7f477561726469616e52656769737472793a20696e76616c6964207369676e617460008201527f7572650000000000000000000000000000000000000000000000000000000000602082015250565b6000612828602383611cec565b9150612833826127cc565b604082019050919050565b600060208201905081810360008301526128578161281b565b9050919050565b7f4e487b7100000000000000000000000000000000000000000000000000000000600052601160045260246000fd5b6000612898826118d0565b91506128a3836118d0565b92508282019050808211156128bb576128ba61285e565b5b92915050565b7f477561726469616e52656769737472793a20696e76616c69642074687265736860008201527f6f6c640000000000000000000000000000000000000000000000000000000000602082015250565b600061291d602383611cec565b9150612928826128c1565b604082019050919050565b6000602082019050818103600083015261294c81612910565b9050919050565b600060a0820190506129686000830188611b11565b6129756020830187611cb7565b6129826040830186611b11565b61298f6060830185611a44565b61299c6080830184611a44565b9695505050505050565b7f477561726469616e52656769737472793a20677561726469616e206d6973736960008201527f6e67000000000000000000000000000000000000000000000000000000000000602082015250565b6000612a02602283611cec565b9150612a0d826129a6565b604082019050919050565b60006020820190508181036000830152612a31816129f5565b9050919050565b6000612a43826118d0565b9150612a4e836118d0565b9250828203905081811115612a6657612a6561285e565b5b92915050565b7f4e487b7100000000000000000000000000000000000000000000000000000000600052603260045260246000fd5b7f4e487b7100000000000000000000000000000000000000000000000000000000600052603160045260246000fd5b7f477561726469616e52656769737472793a20696e76616c69642061757468206860008201527f6173680000000000000000000000000000000000000000000000000000000000602082015250565b6000612b26602383611cec565b9150612b3182612aca565b604082019050919050565b60006020820190508181036000830152612b5581612b19565b9050919050565b7f477561726469616e52656769737472793a20696e76616c69642063697068657260008201527f2068617368000000000000000000000000000000000000000000000000000000602082015250565b6000612bb8602583611cec565b9150612bc382612b5c565b604082019050919050565b60006020820190508181036000830152612be781612bab565b9050919050565b7f477561726469616e52656769737472793a20677561726469616e20657869737460008201527f7300000000000000000000000000000000000000000000000000000000000000602082015250565b6000612c4a602183611cec565b9150612c5582612bee565b604082019050919050565b60006020820190508181036000830152612c7981612c3d565b9050919050565b7f477561726469616e52656769737472793a206369706865722068617368206d6960008201527f736d617463680000000000000000000000000000000000000000000000000000602082015250565b6000612cdc602683611cec565b9150612ce782612c80565b604082019050919050565b60006020820190508181036000830152612d0b81612ccf565b9050919050565b7f477561726469616e52656769737472793a20617574682076616c756520616c7260008201527f6561647920757365640000000000000000000000000000000000000000000000602082015250565b6000612d6e602983611cec565b9150612d7982612d12565b604082019050919050565b60006020820190508181036000830152612d9d81612d61565b9050919050565b600060e082019050612db9600083018a611b11565b612dc66020830189611cb7565b612dd36040830188611b11565b612de06060830187611b11565b612ded6080830186611b11565b612dfa60a0830185611a44565b612e0760c0830184611a44565b98975050505050505050565b600060a082019050612e286000830188611b11565b612e356020830187611b11565b612e426040830186611b11565b612e4f6060830185611a44565b612e5c6080830184611cb7565b9695505050505050565b7f4e487b7100000000000000000000000000000000000000000000000000000000600052601260045260246000fd5b6000612ea0826118d0565b9150612eab836118d0565b925082612ebb57612eba612e66565b5b82820490509291505056fea26469706673582212206b88867952f8196a68893dc4f494d092415da5988af6368228cdf1c988d048f064736f6c63430008180033",
  "linkReferences": {},
  "deployedLinkReferences": {}
}