{
  "_format": "hh-sol-artifact-1",
  "contractName": "GuardianRegistry",
  "sourceName": "contracts/GuardianRegistry.sol",
  "abi": [
    {
      "inputs": [],
      "stateMutability": "nonpayable",
      "type": "constructor"
    },
    {
      "anonymous": false,
      "inputs": [
        {
          "indexed": true,
          "internalType": "address",
          "name": "user",
          "type": "address"
        },
        {
          "indexed": false,
          "internalType": "bytes32",
          "name": "cipherHash",
          "type": "bytes32"
        }
      ],
      "name": "CipherHashSet",
      "type": "event"
    },
    {
      "anonymous": false,
      "inputs": [
        {
          "indexed": true,
          "internalType": "address",
          "name": "user",
          "type": "address"
        },
        {
          "indexed": true,
          "internalType": "bytes32",
          "name": "guardianCIDHash",
          "type": "bytes32"
        },
        {
          "indexed": false,
          "internalType": "bytes32",
          "name": "authValueHash",
          "type": "bytes32"
        }
      ],
      "name": "GuardianAdded",
      "type": "event"
    },
    {
      "anonymous": false,
      "inputs": [
        {
          "indexed": true,
          "internalType": "address",
          "name": "user",
          "type": "address"
        },
        {
          "indexed": true,
          "internalType": "bytes32",
          "name": "guardianCIDHash",
          "type": "bytes32"
        }
      ],
      "name": "GuardianRemoved",
      "type": "event"
    },
    {
      "anonymous": false,
      "inputs": [
        {
          "indexed": true,
          "internalType": "bytes32",
          "name": "guardianCIDHash",
          "type": "bytes32"
        },
        {
          "indexed": false,
          "internalType": "string",
          "name": "name",
          "type": "string"
        },
        {
          "indexed": false,
          "internalType": "bool",
          "name": "isUniqueAuthValue",
          "type": "bool"
        }
      ],
      "name": "GuardianTypeSet",
      "type": "event"
    },
    {
      "anonymous": false,
      "inputs": [
        {
          "indexed": true,
          "internalType": "address",
          "name": "previousOwner",
          "type": "address"
        },
        {
          "indexed": true,
          "internalType": "address",
          "name": "newOwner",
          "type": "address"
        }
      ],
      "name": "OwnerUpdated",
      "type": "event"
    },
    {
      "anonymous": false,
      "inputs": [
        {
          "indexed": true,
          "internalType": "address",
          "name": "user",
          "type": "address"
        },
        {
          "indexed": false,
          "internalType": "uint256",
          "name": "threshold",
          "type": "uint256"
        }
      ],
      "name": "ThresholdUpdated",
      "type": "event"
    },
    {
      "inputs": [
        {
          "internalType": "bytes32",
          "name": "guardianCIDHash",
          "type": "bytes32"
        },
        {
          "internalType": "bytes32",
          "name": "authValueHash",
          "type": "bytes32"
        },
        {
          "internalType": "bytes32",
          "name": "cipherHash",
          "type": "bytes32"
        }
      ],
      "name": "addGuardian",
      "outputs": [],
      "stateMutability": "nonpayable",
      "type": "function"
    },
    {
      "inputs": [
        {
          "internalType": "address",
          "name": "user",
          "type": "address"
        },
        {
          "internalType": "bytes32",
          "name": "guardianCIDHash",
          "type": "bytes32"
        },
        {
          "internalType": "bytes32",
          "name": "authValueHash",
          "type": "bytes32"
        },
        {
          "internalType": "bytes32",
          "name": "cipherHash",
          "type": "bytes32"
        },
        {
          "internalType": "uint256",
          "name": "nonce",
          "type": "uint256"
        },
        {
          "internalType": "uint256",
          "name": "deadline",
          "type": "uint256"
        },
        {
          "internalType": "uint8",
          "name": "v",
          "type": "uint8"
        },
        {
          "internalType": "bytes32",
          "name": "r",
          "type": "bytes32"
        },
        {
          "internalType": "bytes32",
          "name": "s",
          "type": "bytes32"
        }
      ],
      "name": "addGuardianWithSig",
      "outputs": [],
      "stateMutability": "nonpayable",
      "type": "function"
    },
    {
      "inputs": [
        {
          "internalType": "bytes32",
          "name": "authValueHash",
          "type": "bytes32"
        }
      ],
      "name": "getAuthValueOwner",
      "outputs": [
        {
          "internalType": "address",
          "name": "",
          "type": "address"
        }
      ],
      "stateMutability": "view",
      "type": "function"
    },
    {
      "inputs": [
        {
          "internalType": "address",
          "name": "user",
          "type": "address"
        }
      ],
      "name": "getCipherHash",
      "outputs": [
        {
          "internalType": "bytes32",
          "name": "",
          "type": "bytes32"
        }
      ],
      "stateMutability": "view",
      "type": "function"
    },
    {
      "inputs": [
        {
          "internalType": "address",
          "name": "user",
          "type": "address"
        }
      ],
      "name": "getGuardianCIDs",
      "outputs": [
        {
          "internalType": "bytes32[]",
          "name": "",
          "type": "bytes32[]"
        }
      ],
      "stateMutability": "view",
      "type": "function"
    },
    {
      "inputs": [
        {
          "internalType": "address",
          "name": "user",
          "type": "address"
        }
      ],
      "name": "getGuardianConfig",
      "outputs": [
        {
          "internalType": "uint256",
          "name": "threshold",
          "type": "uint256"
        },
        {
          "internalType": "bytes32[]",
          "name": "guardianCIDs",
          "type": "bytes32[]"
        },
        {
          "internalType": "bytes32",
          "name": "cipherHash",
          "type": "bytes32"
        }
      ],
      "stateMutability": "view",
      "type": "function"
    },
    {
      "inputs": [
        {
          "internalType": "address",
          "name": "user",
          "type": "address"
        },
        {
          "internalType": "bytes32",
          "name": "guardianCIDHash",
          "type": "bytes32"
        }
      ],
      "name": "getGuardianEntry",
      "outputs": [
        {
          "internalType": "bytes32",
          "name": "",
          "type": "bytes32"
        }
      ],
      "stateMutability": "view",
      "type": "function"
    },
    {
      "inputs": [
        {
          "internalType": "bytes32",
          "name": "guardianCIDHash",
          "type": "bytes32"
        }
      ],
      "name": "getGuardianType",
      "outputs": [
        {
          "internalType": "string",
          "name": "name",
          "type": "string"
        },
        {
          "internalType": "bool",
          "name": "isUniqueAuthValue",
          "type": "bool"
        },
        {
          "internalType": "bool",
          "name": "exists",
          "type": "bool"
        }
      ],
      "stateMutability": "view",
      "type": "function"
    },
    {
      "inputs": [
        {
          "internalType": "address",
          "name": "user",
          "type": "address"
        }
      ],
      "name": "getThreshold",
      "outputs": [
        {
          "internalType": "uint256",
          "name": "",
          "type": "uint256"
        }
      ],
      "stateMutability": "view",
      "type": "function"
    },
    {
      "inputs": [
        {
          "internalType": "address",
          "name": "",
          "type": "address"
        }
      ],
      "name": "nonces",
      "outputs": [
        {
          "internalType": "uint256",
          "name": "",
          "type": "uint256"
        }
      ],
      "stateMutability": "view",
      "type": "function"
    },
    {
      "inputs": [],
      "name": "owner",
      "outputs": [
        {
          "internalType": "address",
          "name": "",
          "type": "address"
        }
      ],
      "stateMutability": "view",
      "type": "function"
    },
    {
      "inputs": [
        {
          "internalType": "bytes32",
          "name": "guardianCIDHash",
          "type": "bytes32"
        }
      ],
      "name": "removeGuardian",
      "outputs": [],
      "stateMutability": "nonpayable",
      "type": "function"
    },
    {
      "inputs": [
        {
          "internalType": "address",
          "name": "user",
          "type": "address"
        },
        {
          "internalType": "bytes32",
          "name": "guardianCIDHash",
          "type": "bytes32"
        },
        {
          "internalType": "uint256",
          "name": "nonce",
          "type": "uint256"
        },
        {
          "internalType": "uint256",
          "name": "deadline",
          "type": "uint256"
        },
        {
          "internalType": "uint8",
          "name": "v",
          "type": "uint8"
        },
        {
          "internalType": "bytes32",
          "name": "r",
          "type": "bytes32"
        },
        {
          "internalType": "bytes32",
          "name": "s",
          "type": "bytes32"
        }
      ],
      "name": "removeGuardianWithSig",
      "outputs": [],
      "stateMutability": "nonpayable",
      "type": "function"
    },
    {
      "inputs": [
        {
          "internalType": "bytes32",
          "name": "guardianCIDHash",
          "type": "bytes32"
        },
        {
          "internalType": "string",
          "name": "name",
          "type": "string"
        },
        {
          "internalType": "bool",
          "name": "isUniqueAuthValue",
          "type": "bool"
        }
      ],
      "name": "setGuardianType",
      "outputs": [],
      "stateMutability": "nonpayable",
      "type": "function"
    },
    {
      "inputs": [
        {
          "internalType": "address",
          "name": "newOwner",
          "type": "address"
        }
      ],
      "name": "setOwner",
      "outputs": [],
      "stateMutability": "nonpayable",
      "type": "function"
    }
  ],
  "bytecode": "0x608060405234801561001057600080fd5b5033600460006101000a81548173ffffffffffffffffffffffffffffffffffffffff021916908373ffffffffffffffffffffffffffffffffffffffff1602179055503373ffffffffffffffffffffffffffffffffffffffff16600073ffffffffffffffffffffffffffffffffffffffff167f8292fce18fa69edf4db7b94ea2e58241df0ae57f97e0a6c9b29067028bf92d7660405160405180910390a3612b1a806100bc6000396000f3fe608060405234801561001057600080fd5b50600436106100f55760003560e01c80637897716811610097578063a2c6aff111610066578063a2c6aff1146102c0578063d9449d12146102dc578063e956bb65146102f8578063ef530a7514610328576100f5565b806378977168146102265780637ecebe00146102565780638da5cb5b146102865780638e26df0f146102a4576100f5565b8063350d9970116100d3578063350d997014610178578063449e800f1461019457806368b84f5c146101c457806376716bbe146101f6576100f5565b80630bb6094a146100fa57806313af40351461012c5780631cf66c1214610148575b600080fd5b610114600480360381019061010f91906116a2565b610344565b604051610123939291906117bf565b60405180910390f35b610146600480360381019061014191906116a2565b6103f9565b005b610162600480360381019061015d91906116a2565b6105b8565b60405161016f91906117fd565b60405180910390f35b610192600480360381019061018d91906118e1565b610603565b005b6101ae60048036038101906101a99190611955565b6107ea565b6040516101bb9190611991565b60405180910390f35b6101de60048036038101906101d99190611955565b610827565b6040516101ed93929190611a4b565b60405180910390f35b610210600480360381019061020b9190611a89565b610905565b60405161021d91906117fd565b60405180910390f35b610240600480360381019061023b91906116a2565b610962565b60405161024d9190611ac9565b60405180910390f35b610270600480360381019061026b91906116a2565b6109ad565b60405161027d9190611ac9565b60405180910390f35b61028e6109c5565b60405161029b9190611991565b60405180910390f35b6102be60048036038101906102b99190611b49565b6109eb565b005b6102da60048036038101906102d59190611beb565b610a18565b005b6102f660048036038101906102f19190611955565b610a29565b005b610312600480360381019061030d91906116a2565b610a36565b60405161031f9190611c3e565b60405180910390f35b610342600480360381019061033d9190611c60565b610acf565b005b600060606000806000808673ffffffffffffffffffffffffffffffffffffffff1673ffffffffffffffffffffffffffffffffffffffff16815260200190815260200160002090508060000154816001018260040154818054806020026020016040519081016040528092919081815260200182805480156103e457602002820191906000526020600020905b8154815260200190600101908083116103d0575b50505050509150935093509350509193909250565b600460009054906101000a900473ffffffffffffffffffffffffffffffffffffffff1673ffffffffffffffffffffffffffffffffffffffff163373ffffffffffffffffffffffffffffffffffffffff1614610489576040517f08c379a000000000000000000000000000000000000000000000000000000000815260040161048090611d76565b60405180910390fd5b600073ffffffffffffffffffffffffffffffffffffffff168173ffffffffffffffffffffffffffffffffffffffff16036104f8576040517f08c379a00000000000000000000000000000000000000000000000000000000081526004016104ef90611de2565b60405180910390fd5b8073ffffffffffffffffffffffffffffffffffffffff16600460009054906101000a900473ffffffffffffffffffffffffffffffffffffffff1673ffffffffffffffffffffffffffffffffffffffff167f8292fce18fa69edf4db7b94ea2e58241df0ae57f97e0a6c9b29067028bf92d7660405160405180910390a380600460006101000a81548173ffffffffffffffffffffffffffffffffffffffff021916908373ffffffffffffffffffffffffffffffffffffffff16021790555050565b60008060008373ffffffffffffffffffffffffffffffffffffffff1673ffffffffffffffffffffffffffffffffffffffff168152602001908152602001600020600401549050919050565b600460009054906101000a900473ffffffffffffffffffffffffffffffffffffffff1673ffffffffffffffffffffffffffffffffffffffff163373ffffffffffffffffffffffffffffffffffffffff1614610693576040517f08c379a000000000000000000000000000000000000000000000000000000000815260040161068a90611d76565b60405180910390fd5b6000801b84036106d8576040517f08c379a00000000000000000000000000000000000000000000000000000000081526004016106cf90611e74565b60405180910390fd5b604051806060016040528084848080601f016020809104026020016040519081016040528093929190818152602001838380828437600081840152601f19601f82011690508083019250505050505050815260200182151581526020016001151581525060036000868152602001908152602001600020600082015181600001908161076491906120cf565b5060208201518160010160006101000a81548160ff02191690831515021790555060408201518160010160016101000a81548160ff021916908315150217905550905050837f4665b5e01a7f6ade05d62b42236faa56eff1dc7aa4c99b7338dbf1acd1a27ce38484846040516107dc939291906121dd565b60405180910390a250505050565b60006001600083815260200190815260200160002060009054906101000a900473ffffffffffffffffffffffffffffffffffffffff169050919050565b60606000806000600360008681526020019081526020016000209050806000018160010160009054906101000a900460ff168260010160019054906101000a900460ff1682805461087790611ef2565b80601f01602080910402602001604051908101604052809291908181526020018280546108a390611ef2565b80156108f05780601f106108c5576101008083540402835291602001916108f0565b820191906000526020600020905b8154815290600101906020018083116108d357829003601f168201915b50505050509250935093509350509193909250565b60008060008473ffffffffffffffffffffffffffffffffffffffff1673ffffffffffffffffffffffffffffffffffffffff168152602001908152602001600020600201600083815260200190815260200160002054905092915050565b60008060008373ffffffffffffffffffffffffffffffffffffffff1673ffffffffffffffffffffffffffffffffffffffff168152602001908152602001600020600001549050919050565b60026020528060005260406000206000915090505481565b600460009054906101000a900473ffffffffffffffffffffffffffffffffffffffff1681565b610a05876109fb89898989610b02565b8787878787610b5d565b610a0f8787610e22565b50505050505050565b610a2433848484611071565b505050565b610a333382610e22565b50565b60606000808373ffffffffffffffffffffffffffffffffffffffff1673ffffffffffffffffffffffffffffffffffffffff168152602001908152602001600020600101805480602002602001604051908101604052809291908181526020018280548015610ac357602002820191906000526020600020905b815481526020019060010190808311610aaf575b50505050509050919050565b610aeb89610ae18b8b8b8b8b8b611475565b8787878787610b5d565b610af789898989611071565b505050505050505050565b60007fa400f0e70d55e122aa5ae7cec68dd62d343c2a2781e04542ec6e741da8deed2685858585604051602001610b3d95949392919061220f565b604051602081830303815290604052805190602001209050949350505050565b600073ffffffffffffffffffffffffffffffffffffffff168773ffffffffffffffffffffffffffffffffffffffff1603610bcc576040517f08c379a0000000000000000000000000000000000000000000000000000000008152600401610bc3906122ae565b60405180910390fd5b600260008873ffffffffffffffffffffffffffffffffffffffff1673ffffffffffffffffffffffffffffffffffffffff168152602001908152602001600020548514610c4d576040517f08c379a0000000000000000000000000000000000000000000000000000000008152600401610c449061231a565b60405180910390fd5b60008414610c995783421115610c98576040517f08c379a0000000000000000000000000000000000000000000000000000000008152600401610c8f906123ac565b60405180910390fd5b5b6000610ca36114d6565b87604051602001610cb5929190612444565b604051602081830303815290604052805190602001209050600060018286868660405160008152602001604052604051610cf2949392919061248a565b6020604051602081039080840390855afa158015610d14573d6000803e3d6000fd5b505050602060405103519050600073ffffffffffffffffffffffffffffffffffffffff168173ffffffffffffffffffffffffffffffffffffffff1614158015610d8857508873ffffffffffffffffffffffffffffffffffffffff168173ffffffffffffffffffffffffffffffffffffffff16145b610dc7576040517f08c379a0000000000000000000000000000000000000000000000000000000008152600401610dbe90612541565b60405180910390fd5b600187610dd49190612590565b600260008b73ffffffffffffffffffffffffffffffffffffffff1673ffffffffffffffffffffffffffffffffffffffff16815260200190815260200160002081905550505050505050505050565b60008060008473ffffffffffffffffffffffffffffffffffffffff1673ffffffffffffffffffffffffffffffffffffffff1681526020019081526020016000209050600081600301600084815260200190815260200160002054905060008103610ec1576040517f08c379a0000000000000000000000000000000000000000000000000000000008152600401610eb890612636565b60405180910390fd5b6000600182610ed09190612656565b9050600060018460010180549050610ee89190612656565b9050808214610f63576000846001018281548110610f0957610f0861268a565b5b9060005260206000200154905080856001018481548110610f2d57610f2c61268a565b5b9060005260206000200181905550600183610f489190612590565b85600301600083815260200190815260200160002081905550505b83600101805480610f7757610f766126b9565b5b60019003818190600052602060002001600090559055836003016000868152602001908152602001600020600090556000846002016000878152602001908152602001600020549050846002016000878152602001908152602001600020600090556000801b811461101a576001600082815260200190815260200160002060006101000a81549073ffffffffffffffffffffffffffffffffffffffff02191690555b61102485886115a4565b858773ffffffffffffffffffffffffffffffffffffffff167f75cd8d9f01b90fe59e0fecfd8de59d529a5088507db54c294254708d1e982c2560405160405180910390a350505050505050565b6000801b83036110b6576040517f08c379a00000000000000000000000000000000000000000000000000000000081526004016110ad90611e74565b60405180910390fd5b6000801b82036110fb576040517f08c379a00000000000000000000000000000000000000000000000000000000081526004016110f29061275a565b60405180910390fd5b6000801b8103611140576040517f08c379a0000000000000000000000000000000000000000000000000000000008152600401611137906127ec565b60405180910390fd5b60008060008673ffffffffffffffffffffffffffffffffffffffff1673ffffffffffffffffffffffffffffffffffffffff1681526020019081526020016000209050600081600301600086815260200190815260200160002054146111da576040517f08c379a00000000000000000000000000000000000000000000000000000000081526004016111d19061287e565b60405180910390fd5b6000801b816004015403611244578181600401819055508473ffffffffffffffffffffffffffffffffffffffff167f75636b7524fb12ab3000b27811e44668a7191791dd7316fe9b6b6449daabf3688360405161123791906117fd565b60405180910390a261128b565b8181600401541461128a576040517f08c379a000000000000000000000000000000000000000000000000000000000815260040161128190612910565b60405180910390fd5b5b80600101849080600181540180825580915050600190039060005260206000200160009091909190915055806001018054905081600301600086815260200190815260200160002081905550828160020160008681526020019081526020016000208190555060006003600086815260200190815260200160002090508060010160009054906101000a900460ff161561141457600073ffffffffffffffffffffffffffffffffffffffff166001600086815260200190815260200160002060009054906101000a900473ffffffffffffffffffffffffffffffffffffffff1673ffffffffffffffffffffffffffffffffffffffff16146113c1576040517f08c379a00000000000000000000000000000000000000000000000000000000081526004016113b8906129a2565b60405180910390fd5b856001600086815260200190815260200160002060006101000a81548173ffffffffffffffffffffffffffffffffffffffff021916908373ffffffffffffffffffffffffffffffffffffffff1602179055505b61141e82876115a4565b848673ffffffffffffffffffffffffffffffffffffffff167fc0f8a21cf3b51f550824358b896669327d4a555631b51c610b93a521ce5062ee8660405161146591906117fd565b60405180910390a3505050505050565b60007fd731c3004d60843ac05ea98e399e1842a26962846f48d9a19d1bdd81d5108b418787878787876040516020016114b497969594939291906129c2565b6040516020818303038152906040528051906020012090509695505050505050565b60007f8b73c3c69bb8fe3d512ecc4cf759cc79239f7b179b0ffacaa9a75d522b39400f6040518060400160405280601081526020017f477561726469616e526567697374727900000000000000000000000000000000815250805190602001206040518060400160405280600181526020017f3100000000000000000000000000000000000000000000000000000000000000815250805190602001204630604051602001611589959493929190612a31565b60405160208183030381529060405280519060200120905090565b600082600101805490509050600060018211156115d95760026001836115ca9190612590565b6115d49190612ab3565b6115db565b815b90508084600001819055508273ffffffffffffffffffffffffffffffffffffffff167fbb0549e0aedb1fcc6a27d802df340bb4bd5dc53b1f97f3736a879345232e6def8260405161162c9190611ac9565b60405180910390a250505050565b600080fd5b600080fd5b600073ffffffffffffffffffffffffffffffffffffffff82169050919050565b600061166f82611644565b9050919050565b61167f81611664565b811461168a57600080fd5b50565b60008135905061169c81611676565b92915050565b6000602082840312156116b8576116b761163a565b5b60006116c68482850161168d565b91505092915050565b6000819050919050565b6116e2816116cf565b82525050565b600081519050919050565b600082825260208201905092915050565b6000819050602082019050919050565b6000819050919050565b61172781611714565b82525050565b6000611739838361171e565b60208301905092915050565b6000602082019050919050565b600061175d826116e8565b61176781856116f3565b935061177283611704565b8060005b838110156117a357815161178a888261172d565b975061179583611745565b925050600181019050611776565b5085935050505092915050565b6117b981611714565b82525050565b60006060820190506117d460008301866116d9565b81810360208301526117e68185611752565b90506117f560408301846117b0565b949350505050565b600060208201905061181260008301846117b0565b92915050565b61182181611714565b811461182c57600080fd5b50565b60008135905061183e81611818565b92915050565b600080fd5b600080fd5b600080fd5b60008083601f84011261186957611868611844565b5b8235905067ffffffffffffffff81111561188657611885611849565b5b6020830191508360018202830111156118a2576118a161184e565b5b9250929050565b60008115159050919050565b6118be816118a9565b81146118c957600080fd5b50565b6000813590506118db816118b5565b92915050565b600080600080606085870312156118fb576118fa61163a565b5b60006119098782880161182f565b945050602085013567ffffffffffffffff81111561192a5761192961163f565b5b61193687828801611853565b93509350506040611949878288016118cc565b91505092959194509250565b60006020828403121561196b5761196a61163a565b5b60006119798482850161182f565b91505092915050565b61198b81611664565b82525050565b60006020820190506119a66000830184611982565b92915050565b600081519050919050565b600082825260208201905092915050565b60005b838110156119e65780820151818401526020810190506119cb565b60008484015250505050565b6000601f19601f8301169050919050565b6000611a0e826119ac565b611a1881856119b7565b9350611a288185602086016119c8565b611a31816119f2565b840191505092915050565b611a45816118a9565b82525050565b60006060820190508181036000830152611a658186611a03565b9050611a746020830185611a3c565b611a816040830184611a3c565b949350505050565b60008060408385031215611aa057611a9f61163a565b5b6000611aae8582860161168d565b9250506020611abf8582860161182f565b9150509250929050565b6000602082019050611ade60008301846116d9565b92915050565b611aed816116cf565b8114611af857600080fd5b50565b600081359050611b0a81611ae4565b92915050565b600060ff82169050919050565b611b2681611b10565b8114611b3157600080fd5b50565b600081359050611b4381611b1d565b92915050565b600080600080600080600060e0888a031215611b6857611b6761163a565b5b6000611b768a828b0161168d565b9750506020611b878a828b0161182f565b9650506040611b988a828b01611afb565b9550506060611ba98a828b01611afb565b9450506080611bba8a828b01611b34565b93505060a0611bcb8a828b0161182f565b92505060c0611bdc8a828b0161182f565b91505092959891949750929550565b600080600060608486031215611c0457611c0361163a565b5b6000611c128682870161182f565b9350506020611c238682870161182f565b9250506040611c348682870161182f565b9150509250925092565b60006020820190508181036000830152611c588184611752565b905092915050565b60008060008060008060008060006101208a8c031215611c8357611c8261163a565b5b6000611c918c828d0161168d565b9950506020611ca28c828d0161182f565b9850506040611cb38c828d0161182f565b9750506060611cc48c828d0161182f565b9650506080611cd58c828d01611afb565b95505060a0611ce68c828d01611afb565b94505060c0611cf78c828d01611b34565b93505060e0611d088c828d0161182f565b925050610100611d1a8c828d0161182f565b9150509295985092959850929598565b7f477561726469616e52656769737472793a206e6f74206f776e65720000000000600082015250565b6000611d60601b836119b7565b9150611d6b82611d2a565b602082019050919050565b60006020820190508181036000830152611d8f81611d53565b9050919050565b7f477561726469616e52656769737472793a20696e76616c6964206f776e657200600082015250565b6000611dcc601f836119b7565b9150611dd782611d96565b602082019050919050565b60006020820190508181036000830152611dfb81611dbf565b9050919050565b7f477561726469616e52656769737472793a20696e76616c69642043494420686160008201527f7368000000000000000000000000000000000000000000000000000000000000602082015250565b6000611e5e6022836119b7565b9150611e6982611e02565b604082019050919050565b60006020820190508181036000830152611e8d81611e51565b9050919050565b7f4e487b7100000000000000000000000000000000000000000000000000000000600052604160045260246000fd5b7f4e487b7100000000000000000000000000000000000000000000000000000000600052602260045260246000fd5b60006002820490506001821680611f0a57607f821691505b602082108103611f1d57611f1c611ec3565b5b50919050565b60008190508160005260206000209050919050565b60006020601f8301049050919050565b600082821b905092915050565b600060088302611f857fffffffffffffffffffffffffffffffffffffffffffffffffffffffffffffffff82611f48565b611f8f8683611f48565b95508019841693508086168417925050509392505050565b6000819050919050565b6000611fcc611fc7611fc2846116cf565b611fa7565b6116cf565b9050919050565b6000819050919050565b611fe683611fb1565b611ffa611ff282611fd3565b848454611f55565b825550505050565b600090565b61200f612002565b61201a818484611fdd565b505050565b5b8181101561203e57612033600082612007565b600181019050612020565b5050565b601f8211156120835761205481611f23565b61205d84611f38565b8101602085101561206c578190505b61208061207885611f38565b83018261201f565b50505b505050565b600082821c905092915050565b60006120a660001984600802612088565b1980831691505092915050565b60006120bf8383612095565b9150826002028217905092915050565b6120d8826119ac565b67ffffffffffffffff8111156120f1576120f0611e94565b5b6120fb8254611ef2565b612106828285612042565b600060209050601f8311600181146121395760008415612127578287015190505b61213185826120b3565b865550612199565b601f19841661214786611f23565b60005b8281101561216f5784890151825560018201915060208501945060208101905061214a565b8683101561218c5784890151612188601f891682612095565b8355505b6001600288020188555050505b505050505050565b82818337600083830152505050565b60006121bc83856119b7565b93506121c98385846121a1565b6121d2836119f2565b840190509392505050565b600060408201905081810360008301526121f88185876121b0565b90506122076020830184611a3c565b949350505050565b600060a08201905061222460008301886117b0565b6122316020830187611982565b61223e60408301866117b0565b61224b60608301856116d9565b61225860808301846116d9565b9695505050505050565b7f477561726469616e52656769737472793a20696e76616c696420757365720000600082015250565b6000612298601e836119b7565b91506122a382612262565b602082019050919050565b600060208201905081810360008301526122c78161228b565b9050919050565b7f477561726469616e52656769737472793a20696e76616c6964206e6f6e636500600082015250565b6000612304601f836119b7565b915061230f826122ce565b602082019050919050565b60006020820190508181036000830152612333816122f7565b9050919050565b7f477561726469616e52656769737472793a207369676e6174757265206578706960008201527f7265640000000000000000000000000000000000000000000000000000000000602082015250565b60006123966023836119b7565b91506123a18261233a565b604082019050919050565b600060208201905081810360008301526123c581612389565b9050919050565b600081905092915050565b7f1901000000000000000000000000000000000000000000000000000000000000600082015250565b600061240d6002836123cc565b9150612418826123d7565b600282019050919050565b6000819050919050565b61243e61243982611714565b612423565b82525050565b600061244f82612400565b915061245b828561242d565b60208201915061246b828461242d565b6020820191508190509392505050565b61248481611b10565b82525050565b600060808201905061249f60008301876117b0565b6124ac602083018661247b565b6124b960408301856117b0565b6124c660608301846117b0565b95945050505050565b7f477561726469616e52656769737472793a20696e76616c6964207369676e617460008201527f7572650000000000000000000000000000000000000000000000000000000000602082015250565b600061252b6023836119b7565b9150612536826124cf565b604082019050919050565b6000602082019050818103600083015261255a8161251e565b9050919050565b7f4e487b7100000000000000000000000000000000000000000000000000000000600052601160045260246000fd5b600061259b826116cf565b91506125a6836116cf565b92508282019050808211156125be576125bd612561565b5b92915050565b7f477561726469616e52656769737472793a20677561726469616e206d6973736960008201527f6e67000000000000000000000000000000000000000000000000000000000000602082015250565b60006126206022836119b7565b915061262b826125c4565b604082019050919050565b6000602082019050818103600083015261264f81612613565b9050919050565b6000612661826116cf565b915061266c836116cf565b925082820390508181111561268457612683612561565b5b92915050565b7f4e487b7100000000000000000000000000000000000000000000000000000000600052603260045260246000fd5b7f4e487b7100000000000000000000000000000000000000000000000000000000600052603160045260246000fd5b7f477561726469616e52656769737472793a20696e76616c69642061757468206860008201527f6173680000000000000000000000000000000000000000000000000000000000602082015250565b60006127446023836119b7565b915061274f826126e8565b604082019050919050565b6000602082019050818103600083015261277381612737565b9050919050565b7f477561726469616e52656769737472793a20696e76616c69642063697068657260008201527f2068617368000000000000000000000000000000000000000000000000000000602082015250565b60006127d66025836119b7565b91506127e18261277a565b604082019050919050565b60006020820190508181036000830152612805816127c9565b9050919050565b7f477561726469616e52656769737472793a20677561726469616e20657869737460008201527f7300000000000000000000000000000000000000000000000000000000000000602082015250565b60006128686021836119b7565b91506128738261280c565b604082019050919050565b600060208201905081810360008301526128978161285b565b9050919050565b7f477561726469616e52656769737472793a206369706865722068617368206d6960008201527f736d617463680000000000000000000000000000000000000000000000000000602082015250565b60006128fa6026836119b7565b91506129058261289e565b604082019050919050565b60006020820190508181036000830152612929816128ed565b9050919050565b7f477561726469616e52656769737472793a20617574682076616c756520616c7260008201527f6561647920757365640000000000000000000000000000000000000000000000602082015250565b600061298c6029836119b7565b915061299782612930565b604082019050919050565b600060208201905081810360008301526129bb8161297f565b9050919050565b600060e0820190506129d7600083018a6117b0565b6129e46020830189611982565b6129f160408301886117b0565b6129fe60608301876117b0565b612a0b60808301866117b0565b612a1860a08301856116d9565b612a2560c08301846116d9565b98975050505050505050565b600060a082019050612a4660008301886117b0565b612a5360208301876117b0565b612a6060408301866117b0565b612a6d60608301856116d9565b612a7a6080830184611982565b9695505050505050565b7f4e487b7100000000000000000000000000000000000000000000000000000000600052601260045260246000fd5b6000612abe826116cf565b9150612ac9836116cf565b925082612ad957612ad8612a84565b5b82820490509291505056fea2646970667358221220fa50f9773419b743b4d1c4c622ae5b80984bd6f3f117c35c2831061a1c53908d64736f6c63430008180033",
  "linkReferences": {},
  "deployedLinkReferences": {}
}