{
  "_format": "hh-sol-artifact-1",
  "contractName": "GuardianRegistry",
  "sourceName": "contracts/GuardianRegistry.sol",
  "abi": [
    {
      "anonymous": false,
      "inputs": [
        {
          "indexed": true,
          "internalType": "address",
          "name": "user",
          "type": "address"
        },
        {
          "indexed": true,
          "internalType": "bytes32",
          "name": "guardianCIDHash",
          "type": "bytes32"
        },
        {
          "indexed": false,
          "internalType": "bytes32",
          "name": "authValueHash",
          "type": "bytes32"
        }
      ],
      "name": "GuardianAdded",
      "type": "event"
    },
    {
      "anonymous": false,
      "inputs": [
        {
          "indexed": true,
          "internalType": "address",
          "name": "user",
          "type": "address"
        },
        {
          "indexed": true,
          "internalType": "bytes32",
          "name": "guardianCIDHash",
          "type": "bytes32"
        }
      ],
      "name": "GuardianRemoved",
      "type": "event"
    },
    {
      "anonymous": false,
      "inputs": [
        {
          "indexed": true,
          "internalType": "address",
          "name": "user",
          "type": "address"
        },
        {
          "indexed": false,
          "internalType": "uint256",
          "name": "threshold",
          "type": "uint256"
        }
      ],
      "name": "ThresholdUpdated",
      "type": "event"
    },
    {
      "inputs": [
        {
          "internalType": "bytes32",
          "name": "guardianCIDHash",
          "type": "bytes32"
        },
        {
          "internalType": "bytes32",
          "name": "authValueHash",
          "type": "bytes32"
        }
      ],
      "name": "addGuardian",
      "outputs": [],
      "stateMutability": "nonpayable",
      "type": "function"
    },
    {
      "inputs": [
        {
          "internalType": "address",
          "name": "user",
          "type": "address"
        },
        {
          "internalType": "bytes32",
          "name": "guardianCIDHash",
          "type": "bytes32"
        },
        {
          "internalType": "bytes32",
          "name": "authValueHash",
          "type": "bytes32"
        },
        {
          "internalType": "uint256",
          "name": "nonce",
          "type": "uint256"
        },
        {
          "internalType": "uint256",
          "name": "deadline",
          "type": "uint256"
        },
        {
          "internalType": "uint8",
          "name": "v",
          "type": "uint8"
        },
        {
          "internalType": "bytes32",
          "name": "r",
          "type": "bytes32"
        },
        {
          "internalType": "bytes32",
          "name": "s",
          "type": "bytes32"
        }
      ],
      "name": "addGuardianWithSig",
      "outputs": [],
      "stateMutability": "nonpayable",
      "type": "function"
    },
    {
      "inputs": [
        {
          "internalType": "bytes32",
          "name": "authValueHash",
          "type": "bytes32"
        }
      ],
      "name": "getAuthValueOwner",
      "outputs": [
        {
          "internalType": "address",
          "name": "",
          "type": "address"
        }
      ],
      "stateMutability": "view",
      "type": "function"
    },
    {
      "inputs": [
        {
          "internalType": "address",
          "name": "user",
          "type": "address"
        }
      ],
      "name": "getGuardianCIDs",
      "outputs": [
        {
          "internalType": "bytes32[]",
          "name": "",
          "type": "bytes32[]"
        }
      ],
      "stateMutability": "view",
      "type": "function"
    },
    {
      "inputs": [
        {
          "internalType": "address",
          "name": "user",
          "type": "address"
        }
      ],
      "name": "getGuardianConfig",
      "outputs": [
        {
          "internalType": "uint256",
          "name": "threshold",
          "type": "uint256"
        },
        {
          "internalType": "bytes32[]",
          "name": "guardianCIDs",
          "type": "bytes32[]"
        }
      ],
      "stateMutability": "view",
      "type": "function"
    },
    {
      "inputs": [
        {
          "internalType": "address",
          "name": "user",
          "type": "address"
        },
        {
          "internalType": "bytes32",
          "name": "guardianCIDHash",
          "type": "bytes32"
        }
      ],
      "name": "getGuardianEntry",
      "outputs": [
        {
          "internalType": "bytes32",
          "name": "",
          "type": "bytes32"
        }
      ],
      "stateMutability": "view",
      "type": "function"
    },
    {
      "inputs": [
        {
          "internalType": "address",
          "name": "user",
          "type": "address"
        }
      ],
      "name": "getThreshold",
      "outputs": [
        {
          "internalType": "uint256",
          "name": "",
          "type": "uint256"
        }
      ],
      "stateMutability": "view",
      "type": "function"
    },
    {
      "inputs": [
        {
          "internalType": "address",
          "name": "",
          "type": "address"
        }
      ],
      "name": "nonces",
      "outputs": [
        {
          "internalType": "uint256",
          "name": "",
          "type": "uint256"
        }
      ],
      "stateMutability": "view",
      "type": "function"
    },
    {
      "inputs": [
        {
          "internalType": "bytes32",
          "name": "guardianCIDHash",
          "type": "bytes32"
        }
      ],
      "name": "removeGuardian",
      "outputs": [],
      "stateMutability": "nonpayable",
      "type": "function"
    },
    {
      "inputs": [
        {
          "internalType": "address",
          "name": "user",
          "type": "address"
        },
        {
          "internalType": "bytes32",
          "name": "guardianCIDHash",
          "type": "bytes32"
        },
        {
          "internalType": "uint256",
          "name": "nonce",
          "type": "uint256"
        },
        {
          "internalType": "uint256",
          "name": "deadline",
          "type": "uint256"
        },
        {
          "internalType": "uint8",
          "name": "v",
          "type": "uint8"
        },
        {
          "internalType": "bytes32",
          "name": "r",
          "type": "bytes32"
        },
        {
          "internalType": "bytes32",
          "name": "s",
          "type": "bytes32"
        }
      ],
      "name": "removeGuardianWithSig",
      "outputs": [],
      "stateMutability": "nonpayable",
      "type": "function"
    }
  ],
  "bytecode": "0x608060405234801561001057600080fd5b50611b0c806100206000396000f3fe608060405234801561001057600080fd5b506004361061009e5760003560e01c80638e26df0f116100665780638e26df0f14610194578063cad39d65146101b0578063d9449d12146101cc578063e956bb65146101e8578063fb948690146102185761009e565b80630bb6094a146100a3578063449e800f146100d457806376716bbe1461010457806378977168146101345780637ecebe0014610164575b600080fd5b6100bd60048036038101906100b89190610ebd565b610234565b6040516100cb929190610fcb565b60405180910390f35b6100ee60048036038101906100e99190611027565b6102df565b6040516100fb9190611063565b60405180910390f35b61011e6004803603810190610119919061107e565b61031c565b60405161012b91906110cd565b60405180910390f35b61014e60048036038101906101499190610ebd565b610379565b60405161015b91906110e8565b60405180910390f35b61017e60048036038101906101799190610ebd565b6103c4565b60405161018b91906110e8565b60405180910390f35b6101ae60048036038101906101a99190611168565b6103dc565b005b6101ca60048036038101906101c5919061120a565b610409565b005b6101e660048036038101906101e19190611027565b610439565b005b61020260048036038101906101fd9190610ebd565b610446565b60405161020f91906112c0565b60405180910390f35b610232600480360381019061022d91906112e2565b6104df565b005b6000606060008060008573ffffffffffffffffffffffffffffffffffffffff1673ffffffffffffffffffffffffffffffffffffffff1681526020019081526020016000209050806000015481600101808054806020026020016040519081016040528092919081815260200182805480156102ce57602002820191906000526020600020905b8154815260200190600101908083116102ba575b505050505090509250925050915091565b60006001600083815260200190815260200160002060009054906101000a900473ffffffffffffffffffffffffffffffffffffffff169050919050565b60008060008473ffffffffffffffffffffffffffffffffffffffff1673ffffffffffffffffffffffffffffffffffffffff168152602001908152602001600020600201600083815260200190815260200160002054905092915050565b60008060008373ffffffffffffffffffffffffffffffffffffffff1673ffffffffffffffffffffffffffffffffffffffff168152602001908152602001600020600001549050919050565b60026020528060005260406000206000915090505481565b6103f6876103ec898989896104ee565b8787878787610549565b610400878761080e565b50505050505050565b6104248861041a8a8a8a8a8a610a5d565b8787878787610549565b61042f888888610abb565b5050505050505050565b610443338261080e565b50565b60606000808373ffffffffffffffffffffffffffffffffffffffff1673ffffffffffffffffffffffffffffffffffffffff1681526020019081526020016000206001018054806020026020016040519081016040528092919081815260200182805480156104d357602002820191906000526020600020905b8154815260200190600101908083116104bf575b50505050509050919050565b6104ea338383610abb565b5050565b60007fa400f0e70d55e122aa5ae7cec68dd62d343c2a2781e04542ec6e741da8deed2685858585604051602001610529959493929190611322565b604051602081830303815290604052805190602001209050949350505050565b600073ffffffffffffffffffffffffffffffffffffffff168773ffffffffffffffffffffffffffffffffffffffff16036105b8576040517f08c379a00000000000000000000000000000000000000000000000000000000081526004016105af906113d2565b60405180910390fd5b600260008873ffffffffffffffffffffffffffffffffffffffff1673ffffffffffffffffffffffffffffffffffffffff168152602001908152602001600020548514610639576040517f08c379a00000000000000000000000000000000000000000000000000000000081526004016106309061143e565b60405180910390fd5b600084146106855783421115610684576040517f08c379a000000000000000000000000000000000000000000000000000000000815260040161067b906114d0565b60405180910390fd5b5b600061068f610cf6565b876040516020016106a1929190611568565b6040516020818303038152906040528051906020012090506000600182868686604051600081526020016040526040516106de94939291906115ae565b6020604051602081039080840390855afa158015610700573d6000803e3d6000fd5b505050602060405103519050600073ffffffffffffffffffffffffffffffffffffffff168173ffffffffffffffffffffffffffffffffffffffff161415801561077457508873ffffffffffffffffffffffffffffffffffffffff168173ffffffffffffffffffffffffffffffffffffffff16145b6107b3576040517f08c379a00000000000000000000000000000000000000000000000000000000081526004016107aa90611665565b60405180910390fd5b6001876107c091906116b4565b600260008b73ffffffffffffffffffffffffffffffffffffffff1673ffffffffffffffffffffffffffffffffffffffff16815260200190815260200160002081905550505050505050505050565b60008060008473ffffffffffffffffffffffffffffffffffffffff1673ffffffffffffffffffffffffffffffffffffffff16815260200190815260200160002090506000816003016000848152602001908152602001600020549050600081036108ad576040517f08c379a00000000000000000000000000000000000000000000000000000000081526004016108a49061175a565b60405180910390fd5b60006001826108bc919061177a565b90506000600184600101805490506108d4919061177a565b905080821461094f5760008460010182815481106108f5576108f46117ae565b5b9060005260206000200154905080856001018481548110610919576109186117ae565b5b906000526020600020018190555060018361093491906116b4565b85600301600083815260200190815260200160002081905550505b83600101805480610963576109626117dd565b5b60019003818190600052602060002001600090559055836003016000868152602001908152602001600020600090556000846002016000878152602001908152602001600020549050846002016000878152602001908152602001600020600090556000801b8114610a06576001600082815260200190815260200160002060006101000a81549073ffffffffffffffffffffffffffffffffffffffff02191690555b610a108588610dc4565b858773ffffffffffffffffffffffffffffffffffffffff167f75cd8d9f01b90fe59e0fecfd8de59d529a5088507db54c294254708d1e982c2560405160405180910390a350505050505050565b60007fae5ea7d31bec9c26f4ecd3e7a0b14ec7197de44c1ea8fd41ca6e8308ef37df6a8686868686604051602001610a9a9695949392919061180c565b60405160208183030381529060405280519060200120905095945050505050565b6000801b8203610b00576040517f08c379a0000000000000000000000000000000000000000000000000000000008152600401610af7906118df565b60405180910390fd5b6000801b8103610b45576040517f08c379a0000000000000000000000000000000000000000000000000000000008152600401610b3c90611971565b60405180910390fd5b60008060008573ffffffffffffffffffffffffffffffffffffffff1673ffffffffffffffffffffffffffffffffffffffff168152602001908152602001600020905060008160030160008581526020019081526020016000205414610bdf576040517f08c379a0000000000000000000000000000000000000000000000000000000008152600401610bd690611a03565b60405180910390fd5b806001018390806001815401808255809150506001900390600052602060002001600090919091909150558060010180549050816003016000858152602001908152602001600020819055508181600201600085815260200190815260200160002081905550836001600084815260200190815260200160002060006101000a81548173ffffffffffffffffffffffffffffffffffffffff021916908373ffffffffffffffffffffffffffffffffffffffff160217905550610ca18185610dc4565b828473ffffffffffffffffffffffffffffffffffffffff167fc0f8a21cf3b51f550824358b896669327d4a555631b51c610b93a521ce5062ee84604051610ce891906110cd565b60405180910390a350505050565b60007f8b73c3c69bb8fe3d512ecc4cf759cc79239f7b179b0ffacaa9a75d522b39400f6040518060400160405280601081526020017f477561726469616e526567697374727900000000000000000000000000000000815250805190602001206040518060400160405280600181526020017f3100000000000000000000000000000000000000000000000000000000000000815250805190602001204630604051602001610da9959493929190611a23565b60405160208183030381529060405280519060200120905090565b60008260010180549050905060006001821115610df9576002600183610dea91906116b4565b610df49190611aa5565b610dfb565b815b90508084600001819055508273ffffffffffffffffffffffffffffffffffffffff167fbb0549e0aedb1fcc6a27d802df340bb4bd5dc53b1f97f3736a879345232e6def82604051610e4c91906110e8565b60405180910390a250505050565b600080fd5b600073ffffffffffffffffffffffffffffffffffffffff82169050919050565b6000610e8a82610e5f565b9050919050565b610e9a81610e7f565b8114610ea557600080fd5b50565b600081359050610eb781610e91565b92915050565b600060208284031215610ed357610ed2610e5a565b5b6000610ee184828501610ea8565b91505092915050565b6000819050919050565b610efd81610eea565b82525050565b600081519050919050565b600082825260208201905092915050565b6000819050602082019050919050565b6000819050919050565b610f4281610f2f565b82525050565b6000610f548383610f39565b60208301905092915050565b6000602082019050919050565b6000610f7882610f03565b610f828185610f0e565b9350610f8d83610f1f565b8060005b83811015610fbe578151610fa58882610f48565b9750610fb083610f60565b925050600181019050610f91565b5085935050505092915050565b6000604082019050610fe06000830185610ef4565b8181036020830152610ff28184610f6d565b90509392505050565b61100481610f2f565b811461100f57600080fd5b50565b60008135905061102181610ffb565b92915050565b60006020828403121561103d5761103c610e5a565b5b600061104b84828501611012565b91505092915050565b61105d81610e7f565b82525050565b60006020820190506110786000830184611054565b92915050565b6000806040838503121561109557611094610e5a565b5b60006110a385828601610ea8565b92505060206110b485828601611012565b9150509250929050565b6110c781610f2f565b82525050565b60006020820190506110e260008301846110be565b92915050565b60006020820190506110fd6000830184610ef4565b92915050565b61110c81610eea565b811461111757600080fd5b50565b60008135905061112981611103565b92915050565b600060ff82169050919050565b6111458161112f565b811461115057600080fd5b50565b6000813590506111628161113c565b92915050565b600080600080600080600060e0888a03121561118757611186610e5a565b5b60006111958a828b01610ea8565b97505060206111a68a828b01611012565b96505060406111b78a828b0161111a565b95505060606111c88a828b0161111a565b94505060806111d98a828b01611153565b93505060a06111ea8a828b01611012565b92505060c06111fb8a828b01611012565b91505092959891949750929550565b600080600080600080600080610100898b03121561122b5761122a610e5a565b5b60006112398b828c01610ea8565b985050602061124a8b828c01611012565b975050604061125b8b828c01611012565b965050606061126c8b828c0161111a565b955050608061127d8b828c0161111a565b94505060a061128e8b828c01611153565b93505060c061129f8b828c01611012565b92505060e06112b08b828c01611012565b9150509295985092959890939650565b600060208201905081810360008301526112da8184610f6d565b905092915050565b600080604083850312156112f9576112f8610e5a565b5b600061130785828601611012565b925050602061131885828601611012565b9150509250929050565b600060a08201905061133760008301886110be565b6113446020830187611054565b61135160408301866110be565b61135e6060830185610ef4565b61136b6080830184610ef4565b9695505050505050565b600082825260208201905092915050565b7f477561726469616e52656769737472793a20696e76616c696420757365720000600082015250565b60006113bc601e83611375565b91506113c782611386565b602082019050919050565b600060208201905081810360008301526113eb816113af565b9050919050565b7f477561726469616e52656769737472793a20696e76616c6964206e6f6e636500600082015250565b6000611428601f83611375565b9150611433826113f2565b602082019050919050565b600060208201905081810360008301526114578161141b565b9050919050565b7f477561726469616e52656769737472793a207369676e6174757265206578706960008201527f7265640000000000000000000000000000000000000000000000000000000000602082015250565b60006114ba602383611375565b91506114c58261145e565b604082019050919050565b600060208201905081810360008301526114e9816114ad565b9050919050565b600081905092915050565b7f1901000000000000000000000000000000000000000000000000000000000000600082015250565b60006115316002836114f0565b915061153c826114fb565b600282019050919050565b6000819050919050565b61156261155d82610f2f565b611547565b82525050565b600061157382611524565b915061157f8285611551565b60208201915061158f8284611551565b6020820191508190509392505050565b6115a88161112f565b82525050565b60006080820190506115c360008301876110be565b6115d0602083018661159f565b6115dd60408301856110be565b6115ea60608301846110be565b95945050505050565b7f477561726469616e52656769737472793a20696e76616c6964207369676e617460008201527f7572650000000000000000000000000000000000000000000000000000000000602082015250565b600061164f602383611375565b915061165a826115f3565b604082019050919050565b6000602082019050818103600083015261167e81611642565b9050919050565b7f4e487b7100000000000000000000000000000000000000000000000000000000600052601160045260246000fd5b60006116bf82610eea565b91506116ca83610eea565b92508282019050808211156116e2576116e1611685565b5b92915050565b7f477561726469616e52656769737472793a20677561726469616e206d6973736960008201527f6e67000000000000000000000000000000000000000000000000000000000000602082015250565b6000611744602283611375565b915061174f826116e8565b604082019050919050565b6000602082019050818103600083015261177381611737565b9050919050565b600061178582610eea565b915061179083610eea565b92508282039050818111156117a8576117a7611685565b5b92915050565b7f4e487b7100000000000000000000000000000000000000000000000000000000600052603260045260246000fd5b7f4e487b7100000000000000000000000000000000000000000000000000000000600052603160045260246000fd5b600060c08201905061182160008301896110be565b61182e6020830188611054565b61183b60408301876110be565b61184860608301866110be565b6118556080830185610ef4565b61186260a0830184610ef4565b979650505050505050565b7f477561726469616e52656769737472793a20696e76616c69642043494420686160008201527f7368000000000000000000000000000000000000000000000000000000000000602082015250565b60006118c9602283611375565b91506118d48261186d565b604082019050919050565b600060208201905081810360008301526118f8816118bc565b9050919050565b7f477561726469616e52656769737472793a20696e76616c69642061757468206860008201527f6173680000000000000000000000000000000000000000000000000000000000602082015250565b600061195b602383611375565b9150611966826118ff565b604082019050919050565b6000602082019050818103600083015261198a8161194e565b9050919050565b7f477561726469616e52656769737472793a20677561726469616e20657869737460008201527f7300000000000000000000000000000000000000000000000000000000000000602082015250565b60006119ed602183611375565b91506119f882611991565b604082019050919050565b60006020820190508181036000830152611a1c816119e0565b9050919050565b600060a082019050611a3860008301886110be565b611a4560208301876110be565b611a5260408301866110be565b611a5f6060830185610ef4565b611a6c6080830184611054565b9695505050505050565b7f4e487b7100000000000000000000000000000000000000000000000000000000600052601260045260246000fd5b6000611ab082610eea565b9150611abb83610eea565b925082611acb57611aca611a76565b5b82820490509291505056fea2646970667358221220f6dd202155b366c3262507f7b1ad89b21b359d08a01ec245f3420e6148aa930b64736f6c63430008180033",
  "linkReferences": {},
  "deployedLinkReferences": {}
}